:100000000C9411010C943B010C943B010C943B01AA
:100010000C943B010C943B010C943B010C943B0170
:100020000C943B010C943B010C943B010C943B0160
:100030000C943B010C943B010C943B010C943B0150
:100040000C943B010C943B010C94672B0C943B01EA
:100050000C94E1260C9417270C943B010C943B0163
:100060000C943B010C943B010C9487210C943B01B4
:100070000C9478270C94AE270C943B010C943B0114
:100080000C943B010C943B010C943B0100407A1012
:10009000F35A00A0724E18090010A5D4E80000E839
:1000A0007648170000E40B54020000CA9A3B000097
:1000B00000E1F505000080969800000040420F0026
:1000C0000000A08601000000102700000000E803E7
:1000D000000000006400000000000A0000000000B2
:1000E0000100000000002C76D888DC674F0823DF71
:1000F000C1DFAE59E1B1B796E5E3E453C63AE65144
:10010000997696E8E6C28426EB898C9B62ED407C6A
:100110006FFCEFBC9C9F40F2BAA56FA5F490055A06
:100120002AF75C936B6CF9676DC11BFCE0E40D472B
:10013000FEF520E6B500D0ED902E0300943577054E
:100140000080841E080000204E0A000000C80C3306
:100150003333330F986E12831141EF8D2114893B95
:10016000E65516CFFEE6DB18D1844B381BF77C1D15
:10017000901DA4BBE424203284725E228100C9F168
:1001800024ECA1E53D277C3C3E5E2B3D3F2F5B5D93
:100190003B2C2A225C000000000203000A0B000036
:1001A0000000050409080000000000000000000035
:1001B000000000000000010204081020408001023D
:1001C0000408102040800102040810204080010231
:1001D000040810204080020202020202020204040B
:1001E00004040404040403030303030303030101DD
:1001F0000101010101010000200023002600290067
:1002000000002200250028002B000000210024000F
:1002100027002A0080011210361374204B27E22792
:10022000900111241FBECFEFD0E4DEBFCDBF11E09F
:10023000A0E0B1E0EEEEF8E600E00BBF02C00790F0
:100240000D92AA3FB107D9F726E0AAEFB1E001C0AD
:100250001D92A436B207E1F711E0C0E1D1E004C07D
:100260002197FE010E94202FCA30D107C9F70E94B2
:100270004E2B0C946A340C940000DC01ED91FC913F
:100280000190F081E02D0994982F92959F708F70C6
:100290002AE0929F800D11240895833051F150F48B
:1002A000813081F08230E9F064E670E080E090E037
:1002B0000C94E22B853011F1F8F061E08630A1F763
:1002C00084E10DC061E086E00E94902C61E085E051
:1002D0000E94902C85B18E6085B960E084E00C941A
:1002E000CC2C61E084E00E94CC2C85B1817F85B963
:1002F000089561E08AE1F3CF60E0FCCF60E0E0CFF9
:1003000069E171E088E192E00E946B2968EF71E099
:1003100082E192E00E946B2981E092E00C94B72286
:1003200082E192E00E94F92888E192E00C94F92899
:10033000CF93DF9361E570E083E794E00E94F31FC1
:1003400070E060E083E794E00E943D0183E794E081
:100350000E94712046E050E061E570E083E794E0A0
:100360000E946E2083E794E00E941E1F0E944401B9
:100370008093FA0183E794E00E941E1F8F770E940A
:100380004401D82F83E794E00E941E1F8F770E94BC
:100390004401C82F83E794E00E941E1F0E9444017D
:1003A00090E0B0E0A0E08093FB019093FC01A0936B
:1003B000FD01B093FE0183E794E00E941E1F0E949E
:1003C000440124E6829FC0011124092E000CAA0BCF
:1003D000BB0B4091FB015091FC016091FD017091BC
:1003E000FE01840F951FA61FB71F8093FB019093FA
:1003F000FC01A093FD01B093FE0183E794E00E940D
:100400001E1F0E94440140E157E2849F9001859F96
:10041000300D1124032E000C440B550B8091FB0171
:100420009091FC01A091FD01B091FE01280F391FB0
:100430004A1F5B1FA0E1BEE00E94292FAB01BC0157
:100440002CE3C29FC0011124092E000CAA0BBB0B88
:100450008D0F911DA11DB11D840F951FA61FB71FE4
:100460008093FB019093FC01A093FD01B093FE01EA
:10047000DF91CF9108950F931F93CF93DF93C82FF0
:1004800065E570E083E794E00E94F31F0C2E000CFA
:10049000DD0BBE0183E794E00E943D0183E794E019
:1004A0000E94712041E050E065E570E083E794E050
:1004B0000E946E2083E794E00E941E1F8C0165E578
:1004C00070E083E794E00E94F31FBE016F5F7F4FEF
:1004D00083E794E00E943D0183E794E00E9471204D
:1004E00041E050E065E570E083E794E00E946E2013
:1004F00083E794E00E941E1F20E0382FC901800F7F
:10050000911FDF91CF911F910F910895CF92DF92AC
:10051000EF92FF920F931F93CF93DF93CDB7DEB788
:10052000C254D1090FB6F894DEBF0FBECDBF61E053
:1005300081E00E94902C61E082E00E94902C61E0BA
:1005400083E00E94902C61E08AE10E94902C61E09F
:1005500084E10E94902C61E084E00E94902C61E094
:1005600085E00E94902C61E086E00E94902C61E082
:1005700087E00E94902C61E080E00E94902C82E055
:100580000E944D0184E00E944D0186E00E944D01D1
:1005900040EA56E861E070E083E794E00E94E51FDE
:1005A00026E040E052EC61E070E08DE195E00E94D1
:1005B000892626E040E056E960E070E08AEB95E0AD
:1005C0000E94892666E271E08DE195E00E9477281D
:1005D0008091060120E4829FC001112480618093F4
:1005E0007C0080917A00846080937A0080917A0008
:1005F000826080937A0080917A00816080937A0093
:1006000061E087E10E94902C60E087E10E94CC2CA1
:1006100060E080E00E94CC2C05E010E062E370E036
:1006200080E090E00E94E22B61E087E10E94CC2C08
:1006300062E370E080E090E00E94E22B60E087E1FE
:100640000E94CC2C0150110949F761E570E083E765
:1006500094E00E94F31F63E283E794E00E94771F17
:1006600060E083E794E00E94771F60E083E794E016
:100670000E94771F65E083E794E00E94771F60E0A7
:1006800083E794E00E94771F60E083E794E00E9494
:10069000771F67E983E794E00E94771F60E083E7B4
:1006A00094E00E94771F60E083E794E00E94771F48
:1006B00083E794E00E94712061E570E083E794E0B5
:1006C0000E94F31F6FE270E083E794E00E943D0117
:1006D0006CE270E083E794E00E943D0183E794E0E0
:1006E0000E94712061E570E083E794E00E94F31FAF
:1006F00068E270E083E794E00E943D0167E970E002
:1007000083E794E00E943D0183E794E00E9471201A
:1007100061E570E083E794E00E94F31F60E083E707
:1007200094E00E94771F60E083E794E00E94771FC7
:1007300060E083E794E00E94771F60E083E794E045
:100740000E94771F60E083E794E00E94771F60E0DB
:1007500083E794E00E94771F60E083E794E00E94C3
:10076000771F83E794E00E9471206FE271E0CE0171
:1007700001960E946B2968E172E0CE0101960E9409
:10078000202B68E371E00E94332BBC01CE01CD9693
:100790000E94532ACE0101960E94F92881E10E940D
:1007A000FA2C892B09F4A9C068E570E083E794E08E
:1007B0000E94F31F68E070E083E794E00E943D012F
:1007C00070E060E083E794E00E943D0183E794E0FD
:1007D0000E94712040E168E583E794E00E946B206D
:1007E00010E183E794E00E941E1F082F803130F44F
:1007F0006CE371E0CE01CD960E94FE2A40E1602FAD
:10080000CE0101960E948A29BE016F5F7F4FCE0103
:10081000CD960E94F72ACE0101960E94F928809178
:100820000A0290910B02A0910C02B0910D02800F70
:10083000911DA11DB11D80930A0290930B02A093FC
:100840000C02B0930D02115061F66EE371E08DE180
:1008500095E00E94772881E00E944D0164E670E0F7
:1008600080E090E00E94E22B64E08EE192E00E9442
:100870005C0E811106C067E471E08DE195E00E9495
:10088000772881E090E090931102809310026091AC
:10089000100270911102683C7105B0F54AE0CE017A
:1008A0004C960E94E329BE01645E7F4FCE01019603
:1008B0000E94532A66E571E0CE0101960E94332B17
:1008C000BC0182E192E00E943C2ACE0101960E9486
:1008D000F928CE014C960E94F9286091120270917D
:1008E00013028EE192E00E940710882369F0809144
:1008F0001002909111020196C6CF68E871E0CE0116
:10090000CD960E94FE2AA1CF609110027091110233
:100910006150710970931102609310024AE0CE0198
:100920004C960E94E329BE01645E7F4FCE01019682
:100930000E94532A66E571E0CE0101960E94332B96
:10094000BC0182E192E00E943C2ACE0101960E9405
:10095000F928CE014C960E94F9284091120250913C
:10096000130223E16EE172E0CE014C960E947C0FEF
:10097000CE014C960E94000D6B017C016BE571E08D
:100980008DE195E00E9459282AE030E0B701A601E8
:100990008DE195E00E94E72889E6C81680E2D80636
:1009A00089E5E806F10408F45BC0CE014C960E948C
:1009B0003E0D60911002709111026F5F7F4F709336
:1009C0001102609310024AE0CE01C7960E94E3290B
:1009D000BE01695C7F4FCE0101960E94532A66E5F5
:1009E00071E0CE0101960E94332BBC0182E192E0BE
:1009F0000E943C2ACE0101960E94F928CE01C7969A
:100A00000E94F928409112025091130223E16EE1F5
:100A100072E0CE0101960E947C0F8B819C819F8F9A
:100A20008E8F8D819E81AF81B88588A399A3AAA35B
:100A3000BBA389859A85AB85BC858CA39DA3AEA3FA
:100A4000BFA3DE011D96FE01B896CE01C5962D917D
:100A50002193E817F907D9F78A8D9B8D9EAB8DAB53
:100A600066E671E08DE195E00E94592862E172E04E
:100A70008DE195E00E946528CE014C960E94500DB4
:100A8000882369F1BE01635C7F4FCE014C960E94C2
:100A90006528CE014C960E943E0DBE01635C7F4FDF
:100AA0008DE195E00E94652882E00E944D01109240
:100AB00000021092FF01CE01CD960E94F928CE5B74
:100AC000DF4F0FB6F894DEBF0FBECDBFDF91CF91E1
:100AD0001F910F91FF90EF90DF90CF90089561E705
:100AE00071E08DE195E00E947728D7CF2F923F9259
:100AF0004F925F926F927F928F929F92AF92BF922E
:100B0000CF92DF92EF92FF920F931F93CF93DF93D9
:100B1000CDB7DEB7CC50DC400FB6F894DEBF0FBEC9
:100B2000CDBF68EF71E0CE018F52984F0E946B29C4
:100B300081E10E94FA2C892B09F4AFC10E9498012F
:100B40006BE771E0CE018F52984F0E94FE2A6091B0
:100B50000E0270910F024AE0CE0101960E94E32935
:100B6000BE016F5F7F4FCE018F52984F0E94F72AD0
:100B7000CE0101960E94F9286AE371E0CE018F52FE
:100B8000984F0E94FE2A4091FB015091FC01609118
:100B9000FD017091FE012AE0CE0101960E940F2A0C
:100BA000BE016F5F7F4FCE018F52984F0E94F72A90
:100BB000CE0101960E94F9286DE271E0CE018F52BC
:100BC000984F0E94FE2A4AE06091FA01CE010196F8
:100BD0000E948A29BE016F5F7F4FCE018F52984FCE
:100BE0000E94F72ACE0101960E94F9286AE371E07B
:100BF000CE018F52984F0E94FE2A63E774E081E095
:100C000092E00E94702364E871E0882309F447C1F0
:100C100081E092E00E94F723AB01BC0122E0CE010B
:100C200001960E946B2ABE016F5F7F4FCE018F52EB
:100C3000984F0E94F72ACE0101960E94F9286AE394
:100C400071E0CE018F52984F0E94FE2A81E092E01F
:100C50000E941924AB01BC0122E0CE0101960E9442
:100C60006B2ABE016F5F7F4FCE018F52984F0E945B
:100C7000F72ACE0101960E94F92888E00E943B02E3
:100C80008C018AE00E943B027C016AE371E0CE01A4
:100C90008F52984F0E94FE2AB801110F880B990BB2
:100CA0000E94052E20E030E04AE754E40E94912D96
:100CB000AB01BC0122E0CE0101960E946B2ABE016D
:100CC0006F5F7F4FCE018F52984F0E94F72ACE015F
:100CD00001960E94F9286AE371E0CE018F52984F85
:100CE0000E94FE2A4AE0B701CE0101960E94B72970
:100CF000BE016F5F7F4FCE018F52984F0E94F72A3F
:100D0000CE0101960E94F9286AE371E0CE018F526C
:100D1000984F0E94FE2A84E00E943B024AE0BC01F8
:100D2000CE0101960E94B729BE016F5F7F4FCE01B1
:100D30008F52984F0E94F72ACE0101960E94F928FF
:100D40006AE371E0CE018F52984F0E94FE2A86E03E
:100D50000E943B024AE0BC01CE0101960E94B729E5
:100D6000BE016F5F7F4FCE018F52984F0E94F72ACE
:100D7000CE0101960E94F9286AE371E0CE018F52FC
:100D8000984F0E94FE2A8CE00E943B02BC01990F02
:100D9000880B990B0E94052E2DEC3CEC4CEC5DE38E
:100DA0000E94912E23E333E948E853E40E94242D66
:100DB000AB01BC0122E0CE0101960E949B2ABE013C
:100DC0006F5F7F4FCE018F52984F0E94F72ACE015E
:100DD00001960E94F9286AE371E0CE018F52984F84
:100DE0000E94FE2A6091FF01709100024AE0CE014C
:100DF00001960E94E329BE016F5F7F4FCE018F52A3
:100E0000984F0E94F72ACE0101960E94F92810926D
:100E100000021092FF01BE016F52784F8DE195E004
:100E20000E946528CE018F52984F0E94F92883E0D6
:100E30000E944D0164E670E080E090E00E94E22BA9
:100E400068EF71E0CE018F52984F0E946B298EE0BF
:100E5000EBE0F1E0DE01119601900D928A95E1F749
:100E60008E010F5F1F4F7E012FE0E20EF11CF80193
:100E700061918F018AEB95E00E943C260E151F05BB
:100E8000B1F78AEB95E00E94A2258C01892B69F0CD
:100E90008AEB95E00E94BC25F4CF6CE871E0CE01AE
:100EA0008F52984F0E94FE2AE8CEB12CA12CC12C63
:100EB000D12C7601912C8AEB95E00E94A225892BFA
:100EC00009F473C38AEB95E00E94BC25843219F4BF
:100ED000FFEFAF1ABF0A29E5A21622E0B2060CF412
:100EE00056C368EF71E0CE018F52984F0E945C2A82
:100EF000C12CD12C7601B12C8AEB95E00E94A22561
:100F0000892B09F477C38AEB95E00E94BC258432D3
:100F100009F05AC30F5F1F4F053111050CF45EC372
:100F20000E94980163E971E0CE018F52984F0E94B0
:100F3000FE2A4091FB015091FC016091FD017091EE
:100F4000FE012AE0CE0101960E940F2ABE016F5FCA
:100F50007F4FCE018F52984F0E94F72ACE01019603
:100F60000E94F9286DE271E0CE018F52984F0E94E5
:100F7000FE2A4AE06091FA01CE0101960E948A2978
:100F8000BE016F5F7F4FCE018F52984F0E94F72AAC
:100F9000CE0101960E94F92881E00E944D0164E093
:100FA0008EE192E00E945C0E811133C367E471E030
:100FB0008DE195E00E947728BE016F52784F8DE158
:100FC00095E00E946528CE018F52984F0E94F92823
:100FD0005CE8A52E5AE0B52E6FE9662E7EE9772EE5
:100FE000F1E0F5B9809106018295880F880F807C29
:100FF00080937C0064B882E090E00E941B2C74B85F
:1010000088E090E00E941B2C7E0127E4E21A24EF86
:10101000F20AC701C2966701F601119211926F019F
:101020008E179F07C9F7212C312C2101912C812C7F
:1010300010E000E080917A00806480937A00F3B140
:10104000C45FD34FF883CC50DC4084E190E00E9431
:101050001B2C64B882E090E00E941B2C74B8809135
:101060007A0084FFFCCF8091780080930902809100
:1010700079008093080280917A00806180937A00E1
:1010800090910802809109029093070280930602D2
:10109000C45FD34F2881CC50DC4020FFE9C23FEF32
:1010A000831A930A3FEF231A330A430A530A80EA4A
:1010B000281686E8380681E04806510409F0BACFC0
:1010C00068EF71E0CE018A5F934F0E946B2981E146
:1010D0000E94FA2C892B09F4FAC20E94980164EA52
:1010E00071E0CE018A5F934F0E94FE2A60910E024A
:1010F00070910F024AE0CE018551944F0E94E3297E
:10110000BE016551744FCE018A5F934F0E94F72A4A
:10111000CE018551944F0E94F9286AE371E0CE0117
:101120008A5F934F0E94FE2A4091FB015091FC017F
:101130006091FD017091FE012AE0CE018551944F2E
:101140000E940F2ABE016551744FCE018A5F934FF2
:101150000E94F72ACE018551944F0E94F9286DE232
:1011600071E0CE018A5F934F0E94FE2A4AE06091AF
:10117000FA01CE018551944F0E948A29BE01655122
:10118000744FCE018A5F934F0E94F72ACE0185519A
:10119000944F0E94F9286AE371E0CE018A5F934F71
:1011A0000E94FE2A4AE0B401CE018551944F0E946C
:1011B000E329BE016551744FCE018A5F934F0E94AF
:1011C000F72ACE018551944F0E94F9286AE371E015
:1011D000CE018A5F934F0E94FE2A63E774E081E0AC
:1011E00092E00E94702364E871E0882309F471C2E0
:1011F00081E092E00E94F723AB01BC0122E0CE0126
:101200008551944F0E946B2ABE016551744FCE01E7
:101210008A5F934F0E94F72ACE018551944F0E9416
:10122000F9286AE371E0CE018A5F934F0E94FE2A9B
:1012300081E092E00E941924AB01BC0122E0CE01C2
:101240008551944F0E946B2ABE016551744FCE01A7
:101250008A5F934F0E94F72ACE018551944F0E94D6
:10126000F9286AE371E0CE018A5F934F0E94FE2A5B
:1012700088E00E943B02BC01990F880B990B0E94E9
:10128000052E20E030E04AE754E40E94912DAB01A6
:10129000BC0122E0CE018551944F0E946B2ABE0111
:1012A0006551744FCE018A5F934F0E94F72ACE0199
:1012B0008551944F0E94F9286AE371E0CE018A5F5C
:1012C000934F0E94FE2A8AE00E943B024AE0BC0142
:1012D000CE018551944F0E94B729BE016551744FCC
:1012E000CE018A5F934F0E94F72ACE018551944F19
:1012F0000E94F9286AE371E0CE018A5F934F0E9451
:10130000FE2A84E00E943B024AE0BC01CE018551E6
:10131000944F0E94B729BE016551744FCE018A5F78
:10132000934F0E94F72ACE018551944F0E94F928CD
:101330006AE371E0CE018A5F934F0E94FE2A86E045
:101340000E943B024AE0BC01CE018551944F0E94AD
:10135000B729BE016551744FCE018A5F934F0E9439
:10136000F72ACE018551944F0E94F9286AE371E073
:10137000CE018A5F934F0E94FE2A8CE00E943B02BE
:10138000BC01990F880B990B0E94052E2DEC3CECAB
:101390004CEC5DE30E94912E23E333E948E853E4EB
:1013A0000E94242DAB01BC0122E0CE018551944F57
:1013B0000E949B2ABE016551744FCE018A5F934FF4
:1013C0000E94F72ACE018551944F0E94F9286AE3C2
:1013D00071E0CE018A5F934F0E94FE2AF70161916E
:1013E00071917F014AE0CE018551944F0E94E3291B
:1013F000BE016551744FCE018A5F934F0E94F72A58
:10140000CE018551944F0E94F928EC14FD04F9F6A1
:1014100080910E0290910F02019690930F0280939B
:101420000E0281E00E944D0164E08EE192E00E9494
:101430005C0E67E471E0882309F453C14091120205
:101440005091130223E16EE172E0CE018551944F79
:101450000E947C0FCE018551944F0E94500D88232D
:1014600009F43DC1BE016A5F734FCE018551944FAF
:101470000E946528CE018551944F0E943E0D82E066
:101480000E944D0161E087E10E94CC2CBE016A5FA1
:10149000734F8DE195E00E94652860E087E10E942E
:1014A000CC2CCE018A5F934F0E94F9286BEA71E041
:1014B000CE018A5F934F0E946B294AE0B801CE01AA
:1014C0008551944F0E94E329BE016551744FCE01AE
:1014D0008A5F934F0E94F72ACE018551944F0E9454
:1014E000F928053FF1E01F0710F004EF11E09E011D
:1014F0002F5F3F4F4901CE018F52984F6C01F12C65
:10150000E12CE016F10609F4F1C06AE371E0CE01C6
:101510008A5F934F0E94FE2AF4014191519161919B
:1015200071914F012AE0CE018551944F0E940F2AFC
:10153000BE016551744FCE018A5F934F0E94F72A16
:10154000CE018551944F0E94F9286AE371E0CE01E3
:101550008A5F934F0E94FE2AF601619171916F019B
:101560004AE0CE018551944F0E94E329BE016551A6
:10157000744FCE018A5F934F0E94F72ACE018551A6
:10158000944F0E94F928FFEFEF1AFF0ABACF992073
:1015900019F08A3209F4A5CC99249394813409F086
:1015A000912CC12CD12C760186CC3FEFC31AD30AE3
:1015B000E30AF30A81E6C8168EEAD8068AE0E8064E
:1015C000F10408F478CC8DCC053111050CF0A8CCD1
:1015D000C12CD12C7601BB2009F48ECC682FCE0112
:1015E0008F52984F0E940D2BC12CD12C7601BB2419
:1015F000B39482CC9FEFC91AD90AE90AF90AE1E645
:10160000CE16EEEADE06EAE0EE06F10408F474CC4B
:10161000C3CC409112025091130223E16EE172E0BB
:10162000CE0101960E947C0FCE0101960E94500DC2
:101630008823B9F061E087E10E94CC2CBE016F5293
:10164000784FCE0101960E94652860E087E10E94F4
:10165000CC2CCE0101960E943E0D82E00E944D01ED
:10166000ABCC6AE971E08DE195E00E947728F5CF77
:101670008931910558F4880F991FF701E80FF91F78
:10168000808191810196918380830CCD043FE1E0BC
:101690001E07D0F4F801EE0FFF1FEE0FFF1F21E031
:1016A00030E02C0F3D1FE20FF31F20823182428277
:1016B0005382F801EE0FFF1F21ED37E02C0F3D1F85
:1016C000E20FF31F918380830F5F1F4FEBCC6CE819
:1016D00071E0CE018A5F934F0E94FE2AC2CD61E77E
:1016E00071E08DE195E00E947728C9CE81E00E94EB
:1016F0004D0164E08EE192E00E945C0E67E471E0CF
:10170000882309F49EC0409112025091130223E1F4
:101710006EE172E0CE018551944F0E947C0FCE01A4
:101720008551944F0E94500D882309F488C0BE0152
:101730006A5F734FCE018551944F0E946528CE0198
:101740008551944F0E943E0D82E00E944D0161E060
:1017500087E10E94CC2CBE016A5F734F8DE195E05A
:101760000E94652860E087E10E94CC2CCE018A5F50
:10177000934F0E94F92880910E0290910F02893FA9
:101780009A42F0F110920F0210920E026091100234
:10179000709111026F5F7F4F70931102609310027E
:1017A0004AE0CE018A5F934F0E94E329BE016A5F3F
:1017B000734FCE018551944F0E94532A66E571E024
:1017C000CE018551944F0E94332BBC0182E192E0FF
:1017D0000E943C2ACE018551944F0E94F928CE01E7
:1017E0008A5F934F0E94F92866E671E08DE195E0EB
:1017F0000E94592862E172E08DE195E00E9465281F
:1018000031E0A31AB10809F0EBCBC45FD34F0FB698
:10181000F894DEBF0FBECDBFDF91CF911F910F9126
:10182000FF90EF90DF90CF90BF90AF909F908F9000
:101830007F906F905F904F903F902F90089561E759
:1018400071E08DE195E00E9477287ECF90E080E006
:101850000895CF93DF931F92CDB7DEB76983DC0184
:10186000ED91FC910280F381E02D41E050E0BE015A
:101870006F5F7F4F09950F90DF91CF910895CF93C0
:10188000DF93EC01E98DFA8D309749F481E090E027
:101890009B838A8390E080E0DF91CF91089513824B
:1018A0001282898D9A8D0E94BD18E98DFA8D228150
:1018B0003381232B59F7F0CFFC01818D928D009756
:1018C00011F00C944C160895CF93DF931F92CDB76F
:1018D000DEB741E050E0BE016F5F7F4F0E947014A1
:1018E000019731F4898190E00F90DF91CF910895B5
:1018F0008FEF9FEFF9CFFC01818D928D009711F052
:101900000C94640C8FEF9FEF08950F931F93CF9368
:10191000DF93EC01898D9A8D10E000E0009799F03B
:101920000E94640C8C010F3F100769F0898D9A8D1D
:10193000FC014285538564857585415051096109D3
:1019400071090E94B815C801DF91CF911F910F91C5
:101950000895EF92FF920F931F93CF93DF93EC01C3
:101960007B018A011B821A8288EE93E0A0E0B0E03E
:101970008C839D83AE83BF8386EB91E099838883BC
:101980008DE190E00E94612F9A8F898F009779F006
:101990002DE1F701DC0101900D922A95E1F74CE071
:1019A00050E0B801CE010C960E948F31188EDF9165
:1019B000CF911F910F91FF90EF900895FC0113823A
:1019C000128288EE93E0A0E0B0E084839583A68342
:1019D000B78386EB91E091838083128E118E1486FB
:1019E0000895DC015996ED91FC91309729F06285BC
:1019F00073858485958508956FEF7FEFCB010895FA
:101A0000DC015996ED91FC91309729F06389748936
:101A100085899689089560E070E0CB010895CF92A2
:101A2000DF92EF92FF92CF93DF93FC01218D328DF5
:101A3000232B09F1EC010E94000D6B017C01CE010A
:101A40000E94F10CA7019601261B370B480B590B7E
:101A5000DA01C901811530E89307A105B10520F02D
:101A60008FEF9FE7A0E0B0E0DF91CF91FF90EF9084
:101A7000DF90CF90089590E080E0F6CFCF93DF9392
:101A8000EC01898D9A8D009741F00E949516898D01
:101A90009A8D0E94FD2F1A8E198EDF91CF91089595
:101AA000DC015996ED91FC91309721F081E0958110
:101AB000911101C080E008951F93CF93DF93CDB7BC
:101AC000DEB76D970FB6F894DEBF0FBECDBFAB018A
:101AD0001C821B822AEC31E03A8329831E8221E09A
:101AE000BC01CE0101960E94D01711E081110CC0FB
:101AF00010E0812F6D960FB6F894DEBF0FBECDBFFC
:101B0000DF91CF911F910895CE0101960E94951605
:101B1000F0CFEF92FF920F931F93CF93DF937B0150
:101B2000DB012D913C91FC01E20FF31F60816F32CC
:101B300011F42F5F3F4F8C01020F131FEA01F0E0F9
:101B4000E0E0D8017D918D017F3249F0772339F0B3
:101B50002F5F3F4F31967993EC30F10591F7E40F09
:101B6000F51F1082FC01E20FF31F40814F3211F488
:101B70002F5F3F4FF70131832083280F391F81E00A
:101B8000D9019C91911101C080E0DF91CF911F910B
:101B90000F91FF90EF9008954F925F926F927F9216
:101BA0008F929F92AF92BF92CF92DF92EF92FF926D
:101BB0000F931F93CF93DF93CDB7DEB7C954D109ED
:101BC0000FB6F894DEBF0FBECDBF5C016B013A01CA
:101BD000490119A218A28AEC91E09F8F8E8F1BA257
:101BE0001C821B829A8389831E822A961FAE1EAE98
:101BF0002A978B017E018EE1E80EF11C4424439468
:101C0000AE01455C5F4FBE01685B7F4FC5010E941E
:101C1000890D582E482F44259401BE01655C7F4FE5
:101C2000C801F3010995811120C00C151D05C9F4E7
:101C300080E0C75BDF4F0FB6F894DEBF0FBECDBFAD
:101C4000DF91CF911F910F91FF90EF90DF90CF9098
:101C5000BF90AF909F908F907F906F905F904F90CC
:101C60000895C8010E949516E3CF552091F021E018
:101C7000AE01455C5F4FB801C7010E94D017582ED6
:101C80000C151D0571F0C8010E94951651100EC06B
:101C9000CFCF0C151D0519F0C8010E94951681E0E3
:101CA000C8CF882329F28E010F5F1F4F902F812FFD
:101CB0008701E92EF82EA4CF0F931F93CF93DF93C4
:101CC000EC01162F8FA5882321F0CE018A960E9461
:101CD0009516412F61E0CE010E943411811102C09E
:101CE00090E012C08E01045F1F4F41E0BE01C801A9
:101CF0000E94F71D882371F0B801CE018A960E94D8
:101D0000201491E0882361F3892FDF91CF911F91F7
:101D10000F91089540E0BE01C8010E94F71D88237D
:101D2000F9F2EACFFC01DB0112968D919C91139799
:101D3000938382838AEC91E09183808314968C91C3
:101D40001497848315968C911597858316964D91DB
:101D50005D916D917C911997468357836087718758
:101D60001A964D915D916D917C911D974287538795
:101D7000648775871E964D915D916D917C91519709
:101D800046875787608B718B52968C915297828BC6
:101D900053964D915D916D917C915697438B548BE9
:101DA000658B768B57964D915D916D917C915A978D
:101DB000478B508F618F728F5B968D919C91948F22
:101DC000838F08954F925F926F927F928F929F922E
:101DD000AF92BF92CF92DF92EF92FF920F931F9339
:101DE000CF93DF93CDB7DEB7C754D1090FB6F894C0
:101DF000DEBF0FBECDBF5C014A013901665D7F4F7A
:101E00007E018EE1E80EF11CC7010E94920E1C8239
:101E10001B828AEC91E09A8389831E828401FE01F1
:101E200031966F015E2C4F2C6FE270E0C8010E946A
:101E30007D31009709F455C0F80120812F3219F443
:101E40000F5F1F4FF1CF801B8D3008F08CE0E82E24
:101E5000F12CA701B801CE01CB960E948F31EBE3A4
:101E6000F0E0EC0FFD1FEE0DFF1D1082C6010E9479
:101E7000951621E0AE01455C5F4F652D742DC601BE
:101E80000E94D017811121C0F501138212828AECC1
:101E900091E0918380831582C501C95BDF4F0FB646
:101EA000F894DEBF0FBECDBFDF91CF911F910F9190
:101EB000FF90EF90DF90CF90BF90AF909F908F906A
:101EC0007F906F905F904F9008950E0D1F1D852D90
:101ED000942D0E949516C2015C2C4D2CC92ED82E33
:101EE000A3CF08191909F30111830083652D742DFF
:101EF000C5010E94920ED0CFAF92BF92CF92DF92D7
:101F0000FF920F931F93CF93DF93CDB7DEB7C955E1
:101F1000D1090FB6F894DEBF0FBECDBF6C015B01D7
:101F20008A01F22E9E01285A3F4FCE01CB960E9485
:101F3000E20E6A968EAD9FAD6A97080F191FF801E1
:101F40008081811110C0BE01655C7F4FCE0101967A
:101F50000E94920E44EC51E0BE016F5F7F4FC601BC
:101F60000E94A90C0FC019A218A28AEC91E09F8FC1
:101F70008E8F1BA221968FAD2197811115C0C601AE
:101F80000E94DE0CC601C75ADF4F0FB6F894DEBFC1
:101F90000FBECDBFDF91CF911F910F91FF90DF90CA
:101FA000CF90BF90AF90089582508230F8F4B50181
:101FB000665D7F4F2F2DA801CE014E960E94D0174F
:101FC0008823E9F28F2D867041F049A95AA96BA99F
:101FD0007CA9CE014E960E94B815BE01625E7F4F6D
:101FE000CE0101960E94920EA801B6CF2F2DA80116
:101FF000BE01655C7F4FCE014E960E94D0178823AC
:1020000009F4BDCFCE01CB960E949516DBCFFB0124
:10201000BC01665D7F4F30E020E04CE55DE0CF0124
:102020000C94CC0DEEE1F2E0158216821186138637
:1020300082E090E0A0E0B0E084879587A687B7872C
:1020400013A215A614A68AEC91E093A782A717A65F
:1020500008959FB7F89420911B05809119052130B0
:1020600019F48DBB9FBF08958FBF089520911B0564
:10207000222381F03FB7F89420911B05213069F4A9
:102080002DB3209319054DB320911A0520952423D3
:102090002DBB3FBF8CBD9DBD089530931905FACF70
:1020A0008EBD00000DB407FEFDCF8EB508958FEFF5
:1020B0000C94501061E0FC0184810E94CC2C809132
:1020C0006702882339F01092670280911B05811105
:1020D0000C9429100895CF93DF93EC01809167024F
:1020E000811109C081E0809367028091680290911C
:1020F00069020E94361060E08C81DF91CF910C94D0
:10210000CC2CCF93DF93EC018E81882389F08F81D3
:1021100098859C012F5F3F4F38872F8382309240F4
:1021200018F40E945710F3CFCE010E945A101E825D
:10213000DF91CF910895673030F026E1FC012583CF
:1021400060E0862F0895623011F130F4662389F043
:102150006130B9F083E508C06430D9F081E56430BE
:1021600018F082E56530B1F7809368021092690239
:1021700006C080E58093680281E08093690261E097
:10218000E0CF80E58093680210926902DACF81E5A2
:10219000F1CF82E5EFCF0F931F93CF93DF93EB0146
:1021A0000E94B12B8B010E9457108F3F69F00E9453
:1021B000B12B601B710B6C177D07A8F380E0DF91DA
:1021C000CF911F910F91089581E0F9CF8F929F9247
:1021D000AF92BF92FF920F931F93CF93DF93EC01C7
:1021E000F62E49015A010E948110CE010E946B1007
:1021F0006CE271E0CE010E94CB108F2D80640E94B2
:10220000501008E110E0D501C401002E04C0B695BD
:10221000A795979587950A94D2F70E945010085079
:102220001109083F8FEF180771F785E9FF2021F0AA
:1022300088E0F8120DC087E80E94501010E00E945C
:1022400057108A8787FF06C01F3F21F01F5FF7CF17
:102250008FEFF2CFDF91CF911F910F91FF90BF9041
:10226000AF909F908F9008958F929F92AF92BF9260
:10227000EF92FF920F931F93CF93DF93EC01E62E23
:102280001B8619861E821D824C830E94B12B8B01F6
:1022900061E08C810E94902C61E08C810E94CC2CAA
:1022A0000E946C2582E580936802109269028091F9
:1022B0006802909169020E9436102AE0F22E8FEF98
:1022C0000E945010FA94F110FACF80911B058111F1
:1022D0000E942910CE010E946B1020E030E0A9017D
:1022E00060E0CE010E94E610F82E8A8781E0F816A1
:1022F000C1F00E94B12B601B710B613D774068F308
:1023000081E08D83CE010E945A1080E0DF91CF9151
:102310001F910F91FF90EF90BF90AF909F908F9083
:1023200008952AEA31E040E050E068E0CE010E94E2
:10233000E61082FF25C0FB868B85812C912C5401F1
:10234000823029F4812C912CA12C80E4B82E20E03D
:1023500030E0A90167E3CE010E94E610A5019401D7
:1023600069E2CE010E94E6108A878823C1F00E94AC
:10237000B12B601B710B613D774048F388E0C1CF02
:1023800094E0F92E0E9457108A87FA94F110FACF40
:102390008A3A11F082E0B5CF82E08B87CDCF8B8572
:1023A0008230C1F420E030E0A9016AE3CE010E944E
:1023B000E610882311F086E0A4CF0E945710807C9D
:1023C000803C11F483E08B870E9457100E945710C5
:1023D0000E945710CE010E945A106E2DCE01DF913F
:1023E000CF911F910F91FF90EF90BF90AF909F9072
:1023F0008F900C949B100F931F93CF93DF93EC015E
:102400000E94B12B8B010E9457108A878F3F91F455
:102410000E94B12B601B710B6D327140A0F38FE0F5
:102420008D83CE010E945A1080E0DF91CF911F91E1
:102430000F9108958E3F11F08DE0F2CF81E0F5CF3E
:10244000CF92DF92EF92FF920F931F93CF93DF9380
:10245000EC016901C801820F931F8130924048F559
:102460008E81882371F088819981AA81BB8184172C
:102470009507A607B70729F48F819885C816D9064E
:1024800070F5488359836A837B838B85833039F069
:1024900089E0440F551F661F771F8A95D1F79A016F
:1024A000AB0161E1CE010E94E610882379F083E060
:1024B0008D83CE010E945A1080E0DF91CF911F9151
:1024C0000F91FF90EF90DF90CF900895CE010E9482
:1024D000FB11882371F318861F8281E08E838F8120
:1024E00098858C159D0560F06701E00EF11EEC14D7
:1024F000FD0471F00E945710F60181936F01F7CF30
:102500000E9457108F819885019698878F83E7CF17
:102510008F819885080F191F18870F838985882355
:1025200019F00115124018F0CE010E94811081E0CF
:10253000C4CFEF92FF920F931F930115110539F04D
:102540000E9420121F910F91FF90EF90089581E05B
:10255000F9CFEF92FF920F931F93790100E012E001
:1025600030E020E00E9420121F910F91FF90EF9029
:102570000895EF92FF920F931F93CF93DF938C01F7
:10258000862F7A010E945010E7018EEFF81A899188
:102590000E945010CE15DF05D1F78FEF0E9450102A
:1025A0008FEF0E9450100E945710F80182878F71A0
:1025B000853069F081E18583C8010E945A1080E06E
:1025C000DF91CF911F910F91FF90EF90089581E0DF
:1025D000F7CF0F931F93CF93DF93EC01890182E133
:1025E000411551056105710599F08B85833039F0EE
:1025F00089E0440F551F661F771F8A95D1F79A010E
:10260000AB0168E1CE010E94E610882339F084E036
:102610008D83CE010E945A1080E023C0A8016EEF86
:10262000CE010E94B9128823A1F368E572E0CE01C1
:102630000E94CB10811102C085E1EACF20E030E09A
:10264000A9016DE0CE010E94E610882311F084E11B
:10265000DFCF0E9457108111FACFCE010E945A108D
:1026600081E0DF91CF911F910F910895E8E6F2E0AC
:1026700080E58083118208950895CF93DF93EC0164
:102680009C012A5F3F4F41E050E060E070E08B8D9D
:102690009C8D0E94961C8823A1F08F89988DA98D0E
:1026A000BA8D892B8A2B8B2B59F48E819F81A8851B
:1026B000B9858F8B988FA98FBA8F8C8180688C8316
:1026C00081E0DF91CF9108958F929F92AF92BF9258
:1026D000CF92DF92EF92FF92CF93DF93EC010E94B3
:1026E0003D1381110CC080E0DF91CF91FF90EF90FE
:1026F000DF90CF90BF90AF909F908F900895EB8D1B
:10270000FC8DCE80DF80E884F98482E0C81AD1088D
:10271000E108F108858504C0CC0CDD1CEE1CFF1C13
:102720008A95D2F786859785A089B189C80ED91E6A
:10273000EA1EFB1E848146015701880E911CA11CD4
:10274000B11C8C149D04AE04BF0461F081E0881AB2
:102750009108A108B108C501B4010E94E41A8111D1
:10276000F0CFC1CFEB8DFC8D258580E092E0A0E01D
:10277000B0E004C0880F991FAA1FBB1F2A95D2F78B
:102780004B895C896D897E89840F951FA61FB71FB1
:102790008B8B9C8BAD8BBE8B81E0A6CFCF93DF93D1
:1027A000EC01462F6E857F85888999890E94A91A38
:1027B000882351F08A8920E2829FC00111248D581C
:1027C0009D4FDF91CF91089590E080E0FACFFB011B
:1027D0009B01255F3F4F40E241932E173F07E1F7F2
:1027E000DC0120E037E09D91492F992319F19E32B9
:1027F00029F43A3059F028E03AE0F5CFE6E8F1E084
:102800008491882329F031969813FACF80E017C07D
:102810003217A8F05FED590F5E3588F48FE9890F04
:102820008A3110F440EE490FFB01E20FF11D4083A5
:102830002F5FD9CF81E0FB019081903239F3089569
:102840000F931F93CF93DF93FC012581222331F057
:1028500080E0DF91CF911F910F9108958B01EC01E2
:10286000FB018789803139F582E08D831F8A188EBC
:10287000198E1A8E808D918DB0E0A0E025E0880F32
:10288000991FAA1FBB1F2A95D1F78B8B9C8BAD8BF1
:10289000BE8B1C8F0B8F81E08C831E821F8218865B
:1028A00019861A861B861C861D861E861F86188A18
:1028B000198A1A8ACECF803259F683E08D83428DF1
:1028C000538D648D758D4F8B588F698F7A8F9E01D4
:1028D0002D5E3F4FC8010E94891B8111DACFB8CF0E
:1028E0002F923F924F925F926F927F928F929F9220
:1028F000AF92BF92CF92DF92EF92FF920F931F930E
:10290000CF93DF93EC015B012A018D81811115C00A
:102910008FEF9FEFDF91CF911F910F91FF90EF907D
:10292000DF90CF90BF90AF909F908F907F906F90EF
:102930005F904F903F902F9008958C8180FFE8CF5B
:102940000B891C892D893E894A855B856C857D852F
:10295000C201B0E0A0E068017901C41AD50AE60A14
:10296000F70AC816D906EA06FB0618F42801441A25
:10297000550A42011E0126E0220E311C81149104E9
:1029800009F4B3C04A855B856C857D856A0181E069
:10299000D8228B8D9C8D8A019B01E9E03695279585
:1029A00017950795EA95D1F7ED81E230E1F5FC0145
:1029B000628D738D848D958D600F711F821F931FA3
:1029C000612C22E0722E6C187D088614970408F49E
:1029D00034012C8126FD04C06114F2E07F0671F4FD
:1029E00000910701109108012091090130910A011D
:1029F000061717072807390709F053C040E00E945F
:102A0000A91A882309F484CFC6018D589D4FD5019A
:102A10009C01260D371DFC012E173F0709F460C0ED
:102A200041914D93F9CFFC0174807A947022C114C6
:102A3000D10471F471100CC0452B462B472B39F58E
:102A40008F89988DA98DBA8D8E839F83A887B9872A
:102A5000EB8DFC8D6E817F8188859985625071092F
:102A600081099109258504C0660F771F881F991F6A
:102A70002A95D2F70685178520893189600F711F45
:102A8000821F931F670D711D811D911D99CF4E816E
:102A90005F816885798591010E94081B8111D8CFDB
:102AA00037CF750183019601AB01BC0180917102A2
:102AB000909172020E949912882309F429CFA60CE2
:102AC000B71C8A859B85AC85BD85860D971DA11D8C
:102AD000B11D8A879B87AC87BD87861897084ECF24
:102AE000281B390BA20EB31EECCFC20113CFFF92ED
:102AF0000F931F93CF93DF931F92CDB7DEB7FC01E7
:102B000025812230C8F08C01428553856485758506
:102B100085E076956795579547958A95D1F7F42F77
:102B2000FF70FF2E41E050E0BE016F5F7F4FC80194
:102B30000E947014019719F090E080E012C0F80133
:102B400082859385A485B5854F96A11DB11D828789
:102B50009387A487B587F0E2FF9EC00111248D58AA
:102B60009D4F0F90DF91CF911F910F91FF9008958E
:102B70008F929F92AF92BF92CF92DF92EF92FF928D
:102B80000F931F93CF93DF93EC018D8181110EC0C2
:102B900080E0DF91CF911F910F91FF90EF90DF9038
:102BA000CF90BF90AF909F908F9008950B891C8914
:102BB0002D893E89041715072607370748F34A0170
:102BC0005B01823031F48A869B86AC86BD8681E0CB
:102BD000E0CF81149104A104B10449F41E821F8244
:102BE000188619861A861B861C861D86F0CF0A85D4
:102BF0001B852C853D85EB8DFC8D858590E00996A8
:102C0000B901A8014150510961097109082E04C098
:102C100076956795579547950A94D2F775016401A3
:102C2000E1E0CE1AD108E108F10804C0F694E79477
:102C3000D794C7948A95D2F7C416D506E606F70648
:102C400020F0012B022B032B11F58F89988DA98D74
:102C5000BA8D8E839F83A887B9878E010A5F1F4F25
:102C6000C114D104E104F10409F4ADCF4E815F81B8
:102C70006885798598018B8D9C8D0E94081B91E059
:102C8000C91AD108E108F1088111EACF81CFC41A2D
:102C9000D50AE60AF70AE1CF0F931F93CF93DF938C
:102CA000EC018D818823D9F18C8187FF32C061E0EE
:102CB000CE010E94CE138C01892B89F18D81823047
:102CC00048F48B899C89AD89BE89F801848F958FE2
:102CD000A68FB78F8F89988DF801938F828F8F89F8
:102CE000988DA98DBA8DB58BA48BE0916A02F09175
:102CF0006B02309759F0B8016A5E7F4FC801489661
:102D00000995F801808D918D938B828B8C818F77C3
:102D10008C83DF91CF911F910F910C946E1A80E0FC
:102D2000DF91CF911F910F910895CF93DF93EC0125
:102D30000E944C16882311F01D8281E0DF91CF9113
:102D400008954F925F926F927F928F929F92AF926F
:102D5000BF92EF92FF920F931F93CF93DF9300D018
:102D600000D0CDB7DEB7FC0185818130A1F080E0D5
:102D70000F900F900F900F90DF91CF911F910F91B7
:102D8000FF90EF90BF90AF909F908F907F906F904B
:102D90005F904F900895848181FFE9CF8389948962
:102DA000A589B68984179507A607B70700F3892B6D
:102DB0008A2B8B2B09F477C04A015B017F01428487
:102DC000538464847584CF010E94B815882379F2F6
:102DD000F701838D948D81149104A104B10449F508
:102DE0004789508D618D728D0E94A11D882309F441
:102DF000BECFF701178A108E118E128EF701838ACB
:102E0000948AA58AB68A848180688483C7010E94D7
:102E10004C16882309F4ABCFB501A401441655061E
:102E20006606770610F4B301A201C7010E94B81527
:102E30009FCF46815781608571859E012F5F3F4FEF
:102E40000E94081B882309F492CFF701838D948D8B
:102E500049815A816B817C81FC0127892031F1F401
:102E600008EF1FEF20E030E04017510762077307BB
:102E700028F60E94A11D882309F479CFF701468125
:102E80005781608571850FEF1FEF2FEF3FE0838D36
:102E9000948D0E94F41B8111B1CF69CF08EF1FEF11
:102EA0002FEF3FE0E1CF81E063CFCF92DF92EF924F
:102EB000FF921F93CF93DF93EC0180E2689FF001B4
:102EC0001124ED58FD4F9385917161F0842F827428
:102ED00049F080E0DF91CF911F91FF90EF90DF905C
:102EE000CF900895142F6A8B80910701909108016B
:102EF000A0910901B0910A018E879F87A88BB98B99
:102F0000C488D588F12CE12C7601DD24CC24CF8A2D
:102F1000D88EE98EFA8E828D938DB0E0A0E0AC0160
:102F2000BD014C295D296E297F294F8B588F698FF0
:102F30007A8F8385887129F5848D958DA68DB78DBF
:102F40008B8B9C8BAD8BBE8B81E08D83812F8F70A3
:102F50008C831E821F82188619861A861B861C8601
:102F60001D8681E016FFB6CF40E050E0BA01CE01E9
:102F7000DF91CF911F91FF90EF90DF90CF900C9455
:102F8000A116803109F0A5CF9E012D5E3F4F8B8D9C
:102F90009C8D0E94891B882309F49BCF84E0D5CFA8
:102FA000BF92CF92DF92EF92FF920F931F93CF9336
:102FB000DF93CDB7DEB72B970FB6F894DEBF0FBE09
:102FC000CDBFFC01358131110BC0C22E8B017C01BC
:102FD000BE016F5F7F4FCA010E94E713811102C0DB
:102FE00080E0A1C0F801838D948DF701948F838FC9
:102FF000F8011682178210861186128613861486AF
:103000001586B12CF80182859385A485B585438901
:1030100054896589768984179507A607B70788F5C7
:1030200025E0B695A795979587952A95D1F7F82F1E
:10303000FF70DF2EC8010E947715009789F2FC010E
:103040002081222341F0253E09F059C0BB2029F000
:10305000BB24B394D7CFB1100EC0F701D28A4091F0
:103060000701509108016091090170910A0146879A
:103070005787608B718BFC0180818111E9CFBB2464
:10308000B3948C2D8271823109F0AACFBB2009F450
:103090005AC061E0C7010E94CE138C01892B09F44C
:1030A0009FCF80E2F80111928A95E9F78BE0FE014B
:1030B0003196D80101900D928A95E1F7E0916A026C
:1030C000F0916B02309709F44EC0B801625F7F4FF8
:1030D000C80140960995F80180899189938B828B6C
:1030E000918F808F86859785978B868B0E946E1A2D
:1030F000882309F475CF4C2DF701628911C04BE08C
:1031000050E0BC01CE0101960E946731892B09F085
:1031100079CF8C2D80734C2D6D2D803309F460CFC9
:10312000C7010E9455172B960FB6F894DEBF0FBE4D
:10313000CDBFDF91CF911F910F91FF90EF90DF9066
:10314000CF90BF900895F8018581823009F448CF6F
:10315000C8010E946413882309F442CFF701128A40
:1031600003E712E09ECF81E298E2F801918B808B19
:1031700080E098E097878687AECF2F923F924F925C
:103180005F926F927F928F929F92AF92BF92CF92F7
:10319000DF92EF92FF920F931F93CF93DF9300D0B4
:1031A00000D0CDB7DEB78C016B011A01DC0115969A
:1031B0008C911597813009F0C8C014968C9181FFCD
:1031C000C4C082FDAEC04101D8011A964D915D91F7
:1031D0006D917C911D978114910409F429C15B962E
:1031E0008D919C915C97FC0174802FEF270D2A0133
:1031F0003B0139E076946794579447943A95D1F718
:10320000722E74207A01F1E0FF22711020C0E114C7
:10321000F104E9F416964D915D916D917C911997A9
:10322000411551056105710509F098C057968D91BA
:103230009D910D90BC91A02D0097A105B10509F0BD
:10324000AFC0C8010E943D13882309F47EC080E00E
:1032500092E08E199F0954018815990508F45C01C4
:10326000D8015B964D915C915C9716968D919D91DE
:103270000D90BC91A02D0297A109B109FA012585F5
:1032800004C0880F991FAA1FBB1F2A95D2F7468535
:10329000578560897189840F951FA61FB71F9C01F0
:1032A000AD01270D311D411D511D29013A01A11408
:1032B00032E0B30609F07AC08091070190910801CD
:1032C000A0910901B0910A0184159505A605B705DD
:1032D00059F48FEF9FEFDC01809307019093080171
:1032E000A0930901B0930A019601B301A201809154
:1032F0007102909172020E94E912882331F19EEFCF
:10330000D91A8A189B08F80182859385A485B5850A
:103310008A0D9B1DA11DB11D82879387A487B58748
:1033200053CFF801438954896589768982859385CD
:10333000A485B585481759076A077B0709F443CF69
:10334000C8010E94B81581113ECF81E090E0D801FC
:1033500013969C938E93129780E007C09E012F5F77
:103360003F4F0E94081B811102C090E07BC0898101
:103370009A81AB81BC81F801238D348DF9012789B5
:1033800048EF5FEF60E070E0203121F048EF5FEF41
:103390006FEF7FE084179507A607B70708F051CFB6
:1033A000F80186839783A087B18751CFE114F10498
:1033B00091F5D8011A964D915D916D917C911D9773
:1033C00053968D919D910D90BC91A02D4817590752
:1033D0006A077B0700F10E946E1A882309F4B5CFB3
:1033E00040920701509208016092090170920A010F
:1033F0008091700281608093700297012D583D4F3B
:10340000D601C9018A0D9B1DF9018E179F0759F03E
:103410004D914193FACF41E0C301B2010E94A91A34
:103420008111EBCF92CF821B930BC80ED91E69CFAF
:1034300014968C9114975396CD90DD90ED90FC905E
:103440005697C416D506E606F70618F5F801438B1D
:10345000548B658B768B80688483F801848183FD2F
:1034600025C0C1010F900F900F900F90DF91CF9169
:103470001F910F91FF90EF90DF90CF90BF90AF9092
:103480009F908F907F906F905F904F903F902F9084
:10349000089520916A0230916B02232BF1F22114DE
:1034A0003104D9F2806814968C93D7CFC8010E945A
:1034B0004C16882309F449CFD4CFCF93DF931F92C2
:1034C000CDB7DEB7698341E050E0BE016F5F7F4F4B
:1034D0000E94BD180F90DF91CF91089580917002E6
:1034E0008823A9F1409107015091080160910901D9
:1034F00070910A0123E732E080917102909172028B
:103500000E94E912811102C080E0089540916C028E
:1035100050916D0260916E0270916F0241155105DC
:103520006105710591F023E732E08091710290917D
:1035300072020E94E912882339F310926C021092F1
:103540006D0210926E0210926F021092700281E072
:103550000895CF92DF92EF92FF92CF936B017C019F
:10356000C42F8091070190910801A0910901B091A9
:103570000A018C159D05AE05BF05F9F00E946E1A73
:10358000811107C080E0CF91FF90EF90DF90CF9046
:10359000089523E732E0B701A6018091710290916E
:1035A00072020E94A912882369F3C0920701D09287
:1035B0000801E0920901F0920A01409170024C2B3F
:1035C0004093700281E0DFCFCF92DF92EF92FF92C3
:1035D0006B017C010E946E1A8823A9F0E3E7F2E0F8
:1035E000119284E0E337F807D9F7C0920701D0922F
:1035F0000801E0920901F0920A0180917002816055
:103600008093700281E0FF90EF90DF90CF9008955B
:103610008F929F92AF92BF92CF92DF92EF92FF92E2
:103620000F931F93CF93DF93FC0181859285A38530
:10363000B4850196A11DB11D84179507A607B7078C
:1036400070F480E0DF91CF911F910F91FF90EF9088
:10365000DF90CF90BF90AF909F908F900895838818
:103660009488A588B6888789803189F5BB27A72FDC
:10367000962F852FE9016A017B018F01BC01CD01E5
:10368000680D791D8A1D9B1D80900701909008018F
:10369000A0900901B0900A0186169706A806B906FF
:1036A00001F5F8018789803111F5DD24EE24FF242E
:1036B000F601EE0FFF1FED58FD4F80819181B0E0C4
:1036C000A0E088839983AA83BB8381E0BBCFDB0121
:1036D000CA01C7E0B695A79597958795CA95D1F782
:1036E000C9CF40E00E94A91A8111DBCFAACFE8948C
:1036F000C7F8DD24EE24FF24F601EE0FFF1FEE0FC6
:10370000FF1FED58FD4F80819181A281B381BF7071
:10371000D8CF4F925F926F927F92AF92BF92CF922B
:10372000DF92EF92FF920F931F93CF93DF9300D01E
:1037300000D0CDB7DEB78C0149835A836B837C837D
:103740005901C12CD12C7601412C82E0582E612CDC
:10375000712C49815A816B817C819E012F5F3F4F83
:10376000C8010E94081B882339F1F8018585A3014F
:10377000920104C0220F331F441F551F8A95D2F7B0
:10378000DA01C901C80ED91EEA1EFB1E49815A8101
:103790006B817C818789803111F188EF9FEFAFEFDA
:1037A000BFE0481759076A077B0798F2F501C08206
:1037B000D182E282F38281E00F900F900F900F9000
:1037C000DF91CF911F910F91FF90EF90DF90CF90FD
:1037D000BF90AF907F906F905F904F90089588EF6B
:1037E0009FEFA0E0B0E0DDCF4F925F926F927F92AB
:1037F0008F929F92AF92BF92CF92DF92EF92FF9201
:103800000F931F93CF93DF93EC0142305105610575
:10381000710590F480E0DF91CF911F910F91FF909F
:10382000EF90DF90CF90BF90AF909F908F907F9060
:103830006F905F904F90089589859A85AB85BC8580
:103840000196A11DB11D84179507A607B70710F3B0
:10385000CB88DC88ED88FE888F89803109F042C0F2
:10386000BB27A72F962F852F480159012A013B011D
:10387000C80ED91EEA1EFB1E809107019091080117
:10388000A0910901B0910A01C816D906EA06FB0603
:1038900099F58F898031C1F5B301A20155276627BB
:1038A0007727440F551F4D585D4FFA019182808252
:1038B000809170028160809370028A89823080F0EA
:1038C0008D819E81AF81B8858C0D9D1DAE1DBF1D64
:1038D00080936C0290936D02A0936E02B0936F027E
:1038E00081E099CFDB01CA01E7E0B695A7959795EE
:1038F0008795EA95D1F7B8CF40E0C701B6010E949D
:10390000A91A8111C6CF86CFB301A2014F775527DF
:1039100066277727440F551F440F551F4D585D4F9D
:10392000FA0180829182A282B382C2CF2F923F920B
:103930004F925F926F927F928F929F92AF92BF92BF
:10394000CF92DF92EF92FF920F931F93CF93DF936B
:10395000CDB7DEB72F970FB6F894DEBF0FBECDBF41
:103960003C01488759876A877B873F832E83D9012B
:10397000CD90DD90ED90FC90C114D104E104F104F0
:1039800039F0BFEFCB1ADB0AEB0AFB0A1D8210C02D
:10399000FC01C080D180E280F380F1E0FD830885E6
:1039A00019852A853B85013011052105310571F7FF
:1039B000F30181859285A385B4858C019D010F5FFC
:1039C0001F4F2F4F3F4F0C871D872E873F87460184
:1039D0005701212C312C2101F30181859285A3858A
:1039E000B485281639064A065B0608F044C00C85E3
:1039F0001D852E853F85081519052A053B0550F4C0
:103A000082E0882E912CA12CB12C92E0C92ED12CD1
:103A1000E12CF12C9E012F5F3F4FB501A401C301A2
:103A20000E94081B882339F1D501C4010196A11D0C
:103A3000B11D49815A816B817C81452B462B472BD7
:103A4000A9F5AC01BD014C195D096E097F09088516
:103A500019852A853B85401751076207730741F591
:103A60000FEF1FEF2FEF3FE0B501A401C3010E944C
:103A7000F41B811125C01D828D812F960FB6F894FD
:103A8000DEBF0FBECDBFDF91CF911F910F91FF9091
:103A9000EF90DF90CF90BF90AF909F908F907F90EE
:103AA0006F905F904F903F902F9008956C017D0133
:103AB0001FEF211A310A410A510A4C015D018CCFD6
:103AC000C814D904EA04FB0488F41401250121E098
:103AD000221A31084108510895018401B201A1015F
:103AE000C3010E94F41B52014101C3CFAE81BF81CB
:103AF0004D915D916D917C91411551056105710567
:103B000061F4EE81FF81C082D182E282F382FD8185
:103B1000F1110BC001E00D83AFCF97018601C30106
:103B20000E94F41B8111EDCFA6CF1FEFC11AD10A5D
:103B3000E10AF10AD301CD92DD92ED92FC92139746
:103B40009BCFAF92BF92CF92DF92EF92FF920F93F3
:103B50001F93CF93DF9300D000D0CDB7DEB75C01C9
:103B60006A017B0182E090E0A0E0B0E0F501808393
:103B70009183A283B3839E012F5F3F4FB701A601BC
:103B8000C5010E94081B882381F100E010E0980124
:103B9000B701A601C5010E94F41B882331F1C98039
:103BA000DA80EB80FC80F50187898031C9F088EFED
:103BB0009FEFAFEFBFE0C816D906EA06FB06D8F2C2
:103BC00081E00F900F900F900F90DF91CF911F9198
:103BD0000F91FF90EF90DF90CF90BF90AF9008953E
:103BE00088EF9FEFA0E0B0E0E6CF80E0EACF8F92D1
:103BF0009F92AF92BF92CF92DF92EF92FF920F937C
:103C00001F93CF93DF93EC01142F70937202609394
:103C10007102442309F478C0453070F080E0DF91F0
:103C2000CF911F910F91FF90EF90DF90CF90BF90B9
:103C3000AF909F908F90089540E060E070E0CB01DE
:103C40000E94A91A882351F3812F8150990BAC014E
:103C500064E0440F551F6A95E1F74D585D4FFA0136
:103C6000E254FE4F80818F77C9F63C968081918126
:103C7000A281B38184369105A105B10578F24A533A
:103C80005E4FFA01C080D180E280F380C114D1047C
:103C9000E104F10419F240E0C701B6010E94A91A3B
:103CA000882309F4BBCF80917E0290917F02811519
:103CB000924009F0B3CF90918302992309F4AECFDB
:103CC0002091810230918202232B09F4A7CF8091A9
:103CD0008002882309F4A2CF9A8B8C831D8690E002
:103CE00041E050E02D85E22FBA01022E02C0660F9E
:103CF000771F0A94E2F78617970751F031E0320FE9
:103D00003D87283078F38ACFC12CD12C7601C3CFE0
:103D10002091890230918A0250E040E0211531055E
:103D200041F420919702309198024091990250916C
:103D30009A022D833E834F83588780918102909110
:103D4000820246015701880E991EA11CB11C8B8A64
:103D50009C8AAD8ABE8A0091840210918502198FD7
:103D6000088FA0918302B0E00E94292FDC01CB01D3
:103D7000880D991DAA1DBB1D8A8F9B8FAC8FBD8F8F
:103D800025E0000F111F2A95E1F701501E4F012F6A
:103D900011270695800F911FA11DB11D8E879F874A
:103DA000A88BB98B009186021091870230E020E049
:103DB0000115110541F40091930210919402209194
:103DC000950230919602C81AD90AEA0AFB0AC00E77
:103DD000D11EE21EF31E04C0F694E794D794C79454
:103DE000EA95D2F7C986DA86EB86FC868CE025EF69
:103DF000C2162FE0D206E104F10440F085EFC816A8
:103E00008FEFD806E104F10420F480E18F8B81E08C
:103E100006CF80919F029091A002A091A102B09143
:103E2000A2028A8F9B8FAC8FBD8F80E2EFCF8091F3
:103E3000A7049091A804891B990B08959091A80458
:103E40008091A7042FEF3FEF981748F4E92FF0E097
:103E5000E755FB4F208130E09F5F9093A804C90194
:103E60000895E091A8048091A704E81730F4F0E0E9
:103E7000E755FB4F808190E008958FEF9FEF089505
:103E80000895CF93DF93EC01E0917F04F0918004DB
:103E90003097F1F09091A8048091A7049817C0F092
:103EA00090E0292F30E02617370754F4DE01A20FE7
:103EB000B31F4C9127553B4FD9014C939F5FF1CFD6
:103EC0001092A8046093A704CB01DF91CF910994CD
:103ED000DF91CF910895E0918104F09182043097B1
:103EE00029F0109285041092840409940895CF93C8
:103EF000DF931F92CDB7DEB769832091830422231D
:103F0000F9F020918404203258F021E030E0FC01E7
:103F10003383228390E080E00F90DF91CF9108956A
:103F200080918504E82FF0E0EA57FB4F9981908358
:103F30008F5F809385048093840481E090E0ECCFD0
:103F400061E0CE0101960E944621F7CFCF92DF9229
:103F5000EF92FF920F931F93CF93DF937C01CB01DE
:103F60008A0120918304222389F0EB016B01C40EA6
:103F7000D51ECC15DD0569F06991D701ED91FC9155
:103F80000190F081E02DC7010995F3CF642F0E94C5
:103F90004621C801DF91CF911F910F91FF90EF90C3
:103FA000DF90CF9008951092A8041092A704109269
:103FB0008504109284040E9485208BE69FE10E9474
:103FC000722181E49FE10C946D21CB01BA010C9424
:103FD000A32081E0809383046093A604109285045B
:103FE0001092840408950C94E91F0F93062F21E08A
:103FF0004091840466E874E08091A6040E94F62053
:104000001092850410928404109283040F910895F5
:104010004F925F926F927F92AF92BF92CF92EF9248
:10402000FF920F931F93CF93DF935C01F62ED42F53
:1040300028013901EE2019F10E94E91FCE2DC4306C
:1040400008F0C3E0C150B8F028E0C29FC0011124BD
:10405000A301920104C056954795379527958A95F7
:10406000D2F7B901D501ED91FC910190F081E02DDD
:10407000C5010995E7CF60E0C5010E94F51F4D2FEE
:10408000D13208F040E22C2D69EA74E08F2D0E94B5
:10409000B6201092A8048093A704DF91CF911F91BE
:1040A0000F91FF90EF90CF90BF90AF907F906F9067
:1040B0005F904F900895CF92EF920F931F93C22E6F
:1040C000E12C00E010E098010E9408201F910F9160
:1040D000EF90CF90089521E00C945B2021E00C94A8
:1040E0005B2061E00C94F51FE3E7F4E01382128299
:1040F00088EE93E0A0E0B0E084839583A683B78345
:1041000086ED91E09183808308951092180581E0F7
:10411000809316051092150561E081E10E94CC2C78
:1041200061E080E10E94CC2CE9EBF0E080818E7FA1
:10413000808380818D7F808388E48093B80085E4CC
:104140008093BC0008959B01AC0160E074E284EFB1
:1041500090E00E94FE2E20513109410951095695E7
:104160004795379527952093B80008954132E0F59B
:10417000909118059111FCCF91E090931805209330
:1041800016052FEF2093C9047093100560930F0557
:1041900010920E05240F20930D0590931705909112
:1041A0001705880F892B809317058091150581309D
:1041B000C9F410921505809117058093BB0080917A
:1041C000BC0083FDF8CF85EC8093BC00809118057E
:1041D0008130E1F380910E05841710F440910E05B3
:1041E000842F089585EEF0CF40E0FACF0F9341324F
:1041F00008F044C0909118059111FCCF92E0909383
:104200001805009316059FEF9093C904709310054D
:1042100060930F0510920E0540930D05109217053F
:1042200090911705880F892B8093170580911505AC
:10423000813011F510921505809117058093BB0010
:104240008091BC0083FDF8CF85EC8093BC002223D5
:1042500021F0809118058230D1F38091C9048F3FFD
:1042600079F08091C904803269F08091C90480336B
:1042700059F084E00F91089585EEE7CF81E0FACF01
:1042800080E0F8CF82E0F6CF83E0F4CF2091EB041A
:10429000260F3327331F21323105ECF42091180506
:1042A000FC0190E080E0243069F082E00895A09164
:1042B000EB042191AC0143515B4FA40FB52FB11D0D
:1042C0002C930196861798F38091EB04680F609306
:1042D000EB0480E0089581E00895909312058093A7
:1042E000110508959093140580931305089585EDA5
:1042F0008093BC008091BC0084FDFCCF1092180517
:10430000089585EC8093BC001092180508951F92C3
:104310000F920FB60F9211240BB60F922F933F936B
:104320004F935F936F937F938F939F93AF93BF93BD
:10433000EF93FF938091B900887F803609F44EC0D7
:1043400008F041C0883209F4AAC028F5803109F488
:104350009EC0C8F4882309F407C1883009F497C0C7
:10436000FF91EF91BF91AF919F918F917F916F914D
:104370005F914F913F912F910F900BBE0F900FBE09
:104380000F901F901895883109F489C0803241F749
:104390008093C90415C0803409F4A6C048F4803362
:1043A000B9F38833E9F68093C9040E948121D8CFFC
:1043B000803509F489C0883509F49EC0883481F6B7
:1043C0000E947721CDCF883909F494C038F5883719
:1043D00029F050F4883611F0803711F683E080938D
:1043E00018051092CA0457C0883809F483C0803970
:1043F00019F0803809F0B4CF8091CA04803208F0F7
:1044000079C0E091CA0481E08E0F8093CA04809144
:10441000BB00F0E0E553FB4F80833DC0803B39F0AB
:10442000E0F4803A09F485C0883A09F099CF84E035
:10443000809318051092EC041092EB04E0911305A0
:10444000F091140509958091EB0481110FC081E072
:104450008093EB041092ED0409C0803C09F482C003
:10446000883C09F47FC0883B09F07ACFE091EC04E6
:1044700081E08E0F8093EC04F0E0E351FB4F8081EC
:104480008093BB009091EC048091EB0431C080914B
:1044900017058093BB0085EC8093BC0061CF9091A1
:1044A0000E0580910D059817B8F580910F05909134
:1044B0001005E0910E0521E02E0F20930E05E80F68
:1044C000F92FF11D8081E5CF20910F053091100566
:1044D000E0910E0581E08E0F80930E058091BB0068
:1044E000E20FF32FF11D808390910E0580910D0551
:1044F000981788F285E8D0CF20910F0530911005EC
:10450000E0910E0581E08E0F80930E058091BB0037
:10451000E20FF32FF11D808380911605811150CF9A
:1045200081E08093150584EA8093BC001092180501
:1045300017CF0E9481218091CA04803230F4E0912B
:10454000CA04F0E0E553FB4F10826091CA0470E0AA
:10455000E0911105F09112058BEC94E00995109211
:10456000CA04FECE85ECE0CF1092C90429CFFC012D
:10457000118210820895CF92DF92EF920F931F93D2
:10458000CF93DF9300D000D01F92CDB7DEB76B0181
:1045900021E029831A821B821C821D82E12C05E006
:1045A00010E09E012F5F3F4F41E050E0B901FC0158
:1045B000808191810E943A25C114D10499F0CA9456
:1045C000CD2889F16C817D81762767277627072E94
:1045D000000C880B990B0E94052E20E030E040E88B
:1045E0005BE332C029816A8170E090E080E0982F1F
:1045F000872F762F6627822B2B81622B0E94032E1A
:1046000020E030E048EC55E40E94912D0F900F908F
:104610000F900F900F90DF91CF911F910F91EF901E
:10462000DF90CF90089529816A8170E090E080E06A
:10463000CB0177276627922B2B81722B0E94052EA8
:1046400020E030E040E857E30E94912EDFCFEF9268
:104650000F931F93CF93DF931F92CDB7DEB769837C
:10466000E12C01E010E09E012F5F3F4F41E050E060
:10467000B901FC01808191810E943A2589810F90C6
:10468000DF91CF911F910F91EF90089560E00E940C
:10469000272383FB882780F90895EF92FF920F93D9
:1046A0001F93CF93DF9300D0CDB7DEB769834A83E2
:1046B000F12CE12C10E000E021E042E050E0BE01EE
:1046C0006F5F7F4FFC01808191810E9471240F9068
:1046D0000F90DF91CF911F910F91FF90EF90089570
:1046E000EF92FF920F931F93CF93DF93EC017B0127
:1046F00088819981009721F066E070E00E94652B27
:1047000086E090E00E945D2B8C01A70160E60E948C
:1047100031241983088361E0C8010E945924182FAD
:10472000811109C010E0812FDF91CF911F910F916E
:10473000FF90EF9008956CE0CE010E942723843C07
:1047400089F744E066E2CE010E944D2366E2CE0185
:104750000E94272382FF07C06AE070E080E090E0BB
:104760000E94E22BF3CF81E090E09B838A8388EB69
:104770008C8348EB66E2CE010E944D2347E063E163
:10478000CE010E944D23CFCF0F931F93CF93DF9382
:10479000EC01162F072F66E20E94272310FB87F9F2
:1047A0008C83482F66E2CE010E944D231A830B832F
:1047B000DF91CF911F910F910895CF93DF93EC017B
:1047C00066E2CE010E9427238C834C8141FF07C003
:1047D0006AE070E080E090E00E94E22BF1CF42605E
:1047E0004C8366E2CE01DF91CF910C944D23CF93A1
:1047F000DF93EC018A819B81892B29F070E060E0D6
:10480000CE010E94C423CE010E94DD23CE010E946E
:104810004623811107C06AE070E080E090E00E94CA
:10482000E22BF4CF70E060E0CE01DF91CF910C94E9
:10483000BB22CF93DF93EC010E94DD23CE010E94C7
:104840004623811107C06AE070E080E090E00E949A
:10485000E22BF4CF62E070E0CE01DF91CF910C94B7
:10486000BB22FC01608352834183138280E290E08B
:10487000958384830895CF93DF93EC018B81882304
:1048800081F0688189819A810E94E91F89819A81DA
:104890000E94712091E0811190E0892FDF91CF91EA
:1048A000089561E0CE010E945924982F8111E9CF2B
:1048B000F4CF1F93CF93DF93EC01162F89819A8158
:1048C0000E94D31F81E08B83112331F0CE01DF9151
:1048D000CF911F910C943B2481E0DF91CF911F91E8
:1048E00008958F929F92BF92CF92DF92EF92FF92A4
:1048F0000F931F93CF93DF93DA01AE0DBF1DEC0131
:10490000EC81FD81EA17FB0710F490E021C0B22E84
:104910006A014B01688189819A810E94E91FE11433
:10492000F10419F589819A81DC01ED91FC910280F5
:10493000F381E02DA601B4010995C816D90629F71F
:104940006B2D89819A810E94F51F91E08111DDCF45
:10495000892FDF91CF911F910F91FF90EF90DF9002
:10496000CF90BF909F908F90089501151105D1F2BF
:1049700089819A81DC01ED91FC910280F381E02D27
:10498000A701B80109958E159F0509F0BECFCACFC2
:10499000CF92DF92EF92FF920F931F93CF93DF930B
:1049A0007C016B018A01DC016C9111968D919C91C7
:1049B0000E945B208017110691F4E6010C0D1D1D6D
:1049C000C017D107B1F0F70181819281DC01ED912F
:1049D000FC910284F385E02D09958993F1CF80E065
:1049E000DF91CF911F910F91FF90EF90DF90CF90CB
:1049F000089581E0F5CF9F92AF92BF92CF92DF9260
:104A0000EF92FF920F931F93CF93DF936C015B01A3
:104A10007A01922ED0E0C0E0CE15DF05F0F4F60169
:104A20008481958187010C1B1D0B8017910708F469
:104A30008C01C701801B910B20E0C817D90708F033
:104A4000292DA801B5016C0F7D1FC6010E94C82445
:104A5000882321F0C00FD11FDFCF81E0DF91CF91FC
:104A60001F910F91FF90EF90DF90CF90BF90AF908C
:104A70009F900895AF92BF92CF92DF92EF92FF92F4
:104A80000F931F93CF93DF93EC01690158012E2DF3
:104A9000F12CE12C10E000E00E947124882381F0C9
:104AA00021E0A501B601CE01DF91CF911F910F91B9
:104AB000FF90EF90DF90CF90BF90AF900C94FB24CD
:104AC00080E0DF91CF911F910F91FF90EF90DF90E9
:104AD000CF90BF90AF900895CF93CFB7F8948091C7
:104AE0001C05811127C0EAEDF1E08491EAEBF1E0C9
:104AF0009491E82FF0E0EE0FFF1FE65FFD4FA591C8
:104B0000B491EC91E92321F461E084E00E94CC2C83
:104B100061E084E00E94902C8CB580618CBD8CB5E6
:104B200080648CBD61E087E00E94902C61E085E0AC
:104B30000E94902C80911C058F5F80931C05CFBF35
:104B4000CF910895FC01918D228D892F90E0805C9A
:104B50009F4F821B91098F7399270895FC01918DB6
:104B6000828D981731F0828DE80FF11D858D90E0D0
:104B700008958FEF9FEF0895FC01918D828D981716
:104B800061F0A28DAE0FBF2FB11D5D968C91928DFD
:104B90009F5F9F73928F90E008958FEF9FEF08952E
:104BA000FC01538D448D252F30E0842F90E0821B33
:104BB000930B541710F0CF9608950197089581E450
:104BC00097E2892B49F080E090E0892B29F00E9440
:104BD000412781110E94000088ED97E2892B49F05E
:104BE00080E090E0892B29F00E94D82781110C9455
:104BF00000000895FC01A48DA80FB92FB11DA35A80
:104C0000BF4F2C91848D90E001968F739927848FEC
:104C1000A689B7892C93A089B1898C91837080640F
:104C20008C93938D848D981306C00288F389E02DB0
:104C300080818F7D80830895CF93DF93EC01888DF1
:104C40008823B9F0AA89BB89E889F9898C9185FD07
:104C500003C0808186FD0DC00FB607FCF7CF8C9195
:104C600085FFF2CF808185FFEDCFCE010E94FA252E
:104C7000E9CFDF91CF910895EF92FF920F931F93A9
:104C8000CF93DF93EC0181E0888F9B8D8C8D9813FF
:104C90001AC0E889F989808185FF15C09FB7F8940B
:104CA000EE89FF896083E889F98980818370806457
:104CB00080839FBF81E090E0DF91CF911F910F91A2
:104CC000FF90EF900895F62E0B8D10E00F5F1F4FB1
:104CD0000F731127E02E8C8D8E110CC00FB607FCC0
:104CE000FACFE889F989808185FFF5CFCE010E944E
:104CF000FA25F1CFEB8DEC0FFD2FF11DE35AFF4F9D
:104D0000F0829FB7F8940B8FEA89FB8980818062DB
:104D1000CFCFCF92DF92EF92FF921F93CF93DF938B
:104D2000EC016A017B01122FE889F98982E0808316
:104D3000C11481EED806E104F104A1F060E079E04D
:104D40008DE390E0A70196010E94FE2E21503109CB
:104D5000410951095695479537952795211580E1C9
:104D6000380798F0E889F989108260E874E88EE1E4
:104D700090E0A70196010E94FE2E215031094109C1
:104D800051095695479537952795EC85FD853083D4
:104D9000EE85FF852083188EEC89FD891083EA89D2
:104DA000FB89808188698083EA89FB8980818F7D86
:104DB0008083DF91CF911F91FF90EF90DF90CF9094
:104DC00008951F920F920FB60F9211240BB60F92F7
:104DD0002F938F939F93EF93FF93E0912D05F09185
:104DE0002E058081E0913305F091340582FD1DC0D0
:104DF0009081809136058F5F8F73209137058217E0
:104E000041F0E0913605F0E0E35EFA4F958F809334
:104E10003605FF91EF919F918F912F910F900BBECF
:104E20000F900FBE0F901F9018958081F2CF1F92A8
:104E30000F920FB60F9211240BB60F922F933F9340
:104E40004F935F936F937F938F939F93AF93BF9392
:104E5000EF93FF938DE195E00E94FA25FF91EF918A
:104E6000BF91AF919F918F917F916F915F914F9182
:104E70003F912F910F900BBE0F900FBE0F901F9080
:104E800018958DE195E00E94A22521E0892B09F477
:104E900020E0822F0895EDE1F5E01382128288EE82
:104EA00093E0A0E0B0E084839583A683B78388EE87
:104EB00091E09183808385EC90E09587848784ECF2
:104EC00090E09787868780EC90E0918B808B81ECD7
:104ED00090E0938B828B82EC90E0958B848B86ECB8
:104EE00090E0978B868B118E128E138E148E089500
:104EF0001F920F920FB60F9211240BB60F922F93A1
:104F00008F939F93EF93FF93E091CA05F091CB05A8
:104F10008081E091D005F091D10582FD1DC0908186
:104F20008091D3058F5F8F732091D405821741F054
:104F3000E091D305F0E0E654FA4F958F8093D305C6
:104F4000FF91EF919F918F912F910F900BBE0F903A
:104F50000FBE0F901F9018958081F2CF1F920F9275
:104F60000FB60F9211240BB60F922F933F934F93CE
:104F70005F936F937F938F939F93AF93BF93EF93C1
:104F8000FF938AEB95E00E94FA25FF91EF91BF9184
:104F9000AF919F918F917F916F915F914F913F91D1
:104FA0002F910F900BBE0F900FBE0F901F90189572
:104FB0008AEB95E00E94A22521E0892B09F420E0EC
:104FC000822F0895EAEBF5E01382128288EE93E0D7
:104FD000A0E0B0E084839583A683B78388EE91E058
:104FE000918380838DEC90E0958784878CEC90E0B2
:104FF0009787868788EC90E0918B808B89EC90E096
:10500000938B828B8AEC90E0958B848B8EEC90E076
:10501000978B868B118E128E138E148E0895AF92FD
:10502000BF92CF92DF92EF92FF920F931F93CF9395
:10503000DF936C017B018B01040F151FEB015E01F7
:10504000AE18BF08C017D10759F06991D601ED918C
:10505000FC910190F081E02DC6010995892B79F72B
:10506000C501DF91CF911F910F91FF90EF90DF90DD
:10507000CF90BF90AF900895FB0101900020E9F719
:105080003197AF01461B570BDC01ED91FC9102807B
:10509000F381E02D0994DB0114964D915C911597F5
:1050A0006D917C91DC01ED91FC910280F381E02D0A
:1050B00009946115710511F00C943C2890E080E092
:1050C000089566EF71E00C943C280F931F93CF93E3
:1050D000DF93EC010E944B288C01CE010E946128D5
:1050E000800F911FDF91CF911F910F9108950F9322
:1050F0001F93CF93DF938C01D0E0C0E06115710561
:1051000019F00E943C28EC01C8010E9461288C0F14
:105110009D1FDF91CF911F910F9108958F929F92C4
:10512000AF92BF92EF92FF920F931F93CF93DF93B3
:10513000CDB7DEB7A1970FB6F894DEBF0FBECDBFD7
:105140007C01FA01CB0119A2223008F42AE08E0179
:105150000F5D1F4F822E912CB12CA12CBF01A501F8
:1051600094010E94FE2EF901CA016A300CF5605DBF
:10517000D8016E938D01232B242B252B79F790E0FA
:1051800080E0109721F0BD01C7010E943C28A19644
:105190000FB6F894DEBF0FBECDBFDF91CF911F9148
:1051A0000F91FF90EF90BF90AF909F908F900895D8
:1051B000695CDECF2115310541F4DC01ED91FC91F4
:1051C0000190F081E02D642F09940C948E280F93A8
:1051D0001F93CF93DF93EC010E94DA288C01CE015C
:1051E0000E946128800F911FDF91CF911F910F9135
:1051F0000895FC0180819181009711F00C94FD2F9E
:105200000895CF93DF93EC0188819981009711F085
:105210000E94FD2F198218821D821C821B821A8215
:10522000DF91CF9108950F931F93CF93DF93EC01FC
:105230008B016F5F7F4F888199810E948630009734
:1052400051F0998388831B830A8381E0DF91CF919A
:105250001F910F91089580E0F9CFCF93DF93EC0178
:1052600088819981892B49F08A819B8186179707CC
:1052700020F081E0DF91CF910895CE010E941329A3
:105280008823C1F38C819D81892B99F7E881F9816D
:105290001082EFCFEF92FF920F931F93CF93DF9384
:1052A000EC017B018A01BA010E942D2981110BC0FA
:1052B000CE010E940129CE01DF91CF911F910F9164
:1052C000FF90EF9008951D830C83B7018881998129
:1052D0000E948831F0CFFC01118210821382128269
:1052E000158214826115710551F0FB0101900020B7
:1052F000E9F73197AF01461B570B0C944A290895E3
:10530000FB0101900020E9F73197AF01461B570BD5
:105310000C944A290F931F93CF93DF93CDB7DEB739
:1053200029970FB6F894DEBF0FBECDBF8C01862F34
:10533000F80111821082138212821582148250E0C9
:10534000BE016F5F7F4F90E00E94E131BE016F5F51
:105350007F4FC8010E94802929960FB6F894DEBFBE
:105360000FBECDBFDF91CF911F910F9108950F9385
:105370001F93CF93DF93CDB7DEB762970FB6F89444
:10538000DEBF0FBECDBF8C01CB01F80111821082B0
:10539000138212821582148250E0BE016F5F7F4F2C
:1053A0000E949E31BE016F5F7F4FC8010E9480291D
:1053B00062960FB6F894DEBF0FBECDBFDF91CF91DE
:1053C0001F910F9108950F931F93CF93DF93CDB744
:1053D000DEB761970FB6F894DEBF0FBECDBF8C016C
:1053E000CB01F8011182108213821282158214827D
:1053F00050E0BE016F5F7F4F0E94E131BE016F5FE1
:105400007F4FC8010E94802961960FB6F894DEBFD5
:105410000FBECDBFDF91CF911F910F9108950F93D4
:105420001F93CF93DF93CDB7DEB7A1970FB6F89454
:10543000DEBF0FBECDBF8C01CB01BA01F8011182D6
:105440001082138212821582148230E0AE014F5F07
:105450005F4F0E94B431BE016F5F7F4FC8010E9451
:105460008029A1960FB6F894DEBF0FBECDBFDF91A5
:10547000CF911F910F910895CF93DF93EC01FB0122
:105480008617970749F0608171816115710541F0B8
:10549000448155810E944A29CE01DF91CF91089520
:1054A0000E940129F9CFFC0111821082138212821D
:1054B000158214820C943C2ACF93DF93EC01611582
:1054C000710531F00E948029CE01DF91CF910895BE
:1054D0000E940129F9CFEF92FF920F931F93CF9370
:1054E000DF93CDB7DEB7A1970FB6F894DEBF0FBE3E
:1054F000CDBF7C01CB01BA01F7011182108213826A
:1055000012821582148242E0420F8E010F5F1F4FFC
:105510000E94432FBC01C7010E945C2AA1960FB6CE
:10552000F894DEBF0FBECDBFDF91CF911F910F91D9
:10553000FF90EF900895EF92FF920F931F93CF93F8
:10554000DF93CDB7DEB7A1970FB6F894DEBF0FBEDD
:10555000CDBF7C01CB01BA01F70111821082138209
:1055600012821582148242E0420F8E010F5F1F4F9C
:105570000E94432FBC01C7010E945C2AA1960FB66E
:10558000F894DEBF0FBECDBFDF91CF911F910F9179
:10559000FF90EF900895EF92FF920F931F93CF9398
:1055A000DF936115710541F480E0DF91CF911F9188
:1055B0000F91FF90EF90089541155105B1F07B01D7
:1055C000EC010C811D81040F151FB8010E942D29CB
:1055D000882351F3288139818C819D81B701820F05
:1055E000931F0E9488311D830C8381E0DECFFB0175
:1055F00044815581608171810C94CB2A61157105BC
:1056000051F0FB0101900020E9F73197AF01461BF3
:10561000570B0C94CB2A80E00895CF93DF9300D0F2
:10562000CDB7DEB769831A8241E050E0BE016F5FFB
:105630007F4F0E94CB2A0F900F90DF91CF9108955A
:10564000CF93DF93EC01FB0144815581608171812F
:105650000E94CB2A811103C0CE010E940129CE01F4
:10566000DF91CF910895CF93DF93EC016115710520
:1056700039F4CE010E940129CE01DF91CF91089526
:10568000FB0101900020E9F73197AF01461B570B52
:105690000E94CB2A882369F3EFCF08950E94262C1D
:1056A0000E944D2B0E948602CFEDD5E20E94760526
:1056B0002097E1F30E94DF25F9CF009711F481E0F4
:1056C00090E00C94612F0C94FD2F0C94632B1F928F
:1056D0000F920FB60F9211242F933F938F939F93A6
:1056E000AF93BF9380915C0690915D06A0915E069A
:1056F000B0915F0630915B0623E0230F2D3768F1F0
:1057000026E8230F0296A11DB11D20935B0680930E
:105710005C0690935D06A0935E06B0935F06809151
:10572000570690915806A0915906B0915A060196D5
:10573000A11DB11D8093570690935806A09359065A
:10574000B0935A06BF91AF919F918F913F912F9146
:105750000F900FBE0F901F9018950196A11DB11DBF
:10576000D4CF2FB7F89460915C0670915D0680915C
:105770005E0690915F062FBF08953FB7F894809121
:10578000570690915806A0915906B0915A0626B531
:10579000A89B05C02F3F19F00196A11DB11D3FBF69
:1057A000BA2FA92F982F8827BC01CD01620F711D38
:1057B000811D911D42E0660F771F881F991F4A9532
:1057C000D1F708958F929F92AF92BF92CF92DF92BE
:1057D000EF92FF926B017C010E94BD2B4B015C019B
:1057E000C114D104E104F104E9F00E94232D0E94C8
:1057F000BD2B681979098A099B09683E73408105A8
:10580000910570F321E0C21AD108E108F10888EE91
:10581000880E83E0981EA11CB11CC114D104E104C0
:10582000F10429F7FF90EF90DF90CF90BF90AF90F9
:105830009F908F9008958230910538F0880F991FBE
:10584000880F991F05970197F1F70895789484B50B
:10585000836084BD85B5836085BDEEE6F0E0808120
:1058600081608083E1E8F0E082E080838081816074
:105870008083E0E8F0E0808181608083E1EBF0E00C
:10588000808184608083E0EBF0E0808181608083B0
:10589000E1E9F0E0808183608083E0E9F0E08081ED
:1058A0008160808387E880937A001092C100089518
:1058B00082508A3088F5E82FF0E0EF59F34D0C94D0
:1058C000202F892C8D2C6B2C712C8C2C8C2C752CD6
:1058D0007B2C7F2C852C809180008F77809380009B
:1058E0000895809180008F7DF9CF8091B0008F77EF
:1058F0008093B00008958091B0008F7DF9CF8091A2
:1059000090008F77809390000895809190008F7D14
:10591000F9CF84B58F7784BD089584B58F7DFBCF93
:10592000CF93DF9390E0FC01EA54FE4F24918A521A
:105930009E4FFC0184918823C9F090E0880F991F45
:10594000FC01E65FFD4FA591B491FC01E050FE4FD4
:10595000C591D49161110DC09FB7F8948C91209599
:1059600082238C938881282328839FBFDF91CF9146
:105970000895623051F49FB7F8943C91822F80953E
:1059800083238C93E8812E2BEFCF8FB7F894EC9183
:105990002E2B2C938FBFEACF1F93CF93DF93282F0B
:1059A00030E0F901EA56FE4F8491F901EA54FE4FC6
:1059B000D491F901EA52FE4FC491CC23A9F0162FDD
:1059C00081110E94582CEC2FF0E0EE0FFF1FE050E9
:1059D000FE4FA591B4918FB7F894EC91111108C0C6
:1059E000D095DE23DC938FBFDF91CF911F91089577
:1059F000DE2BF8CFCF93DF93282F30E0F901EA5662
:105A0000FE4F8491F901EA54FE4FD491F901EA5214
:105A1000FE4FC491CC23A1F081110E94582CEC2F91
:105A2000F0E0EE0FFF1FEA50FE4FA591B491EC910C
:105A3000ED2381E090E009F480E0DF91CF910895BB
:105A400080E090E0FACF08955058BB27AA270E9423
:105A50003C2D0C94572E0E94492E38F00E94502E57
:105A600020F039F49F3F19F426F40C94462E0EF4DE
:105A7000E095E7FB0C94402EE92F0E94682E58F326
:105A8000BA17620773078407950720F079F4A6F523
:105A90000C948A2E0EF4E0950B2EBA2FA02D0B013C
:105AA000B90190010C01CA01A0011124FF27591B63
:105AB00099F0593F50F4503E68F11A16F040A22F69
:105AC000232F342F4427585FF3CF469537952795DA
:105AD000A795F0405395C9F77EF41F16BA0B620BD9
