:100000000C9408010C9432010C9432010C943201CE
:100010000C9432010C9432010C9432010C94320194
:100020000C9432010C9432010C9432010C94320184
:100030000C9432010C9432010C9432010C94320174
:100040000C9432010C9432010C9427130C9432015D
:100050000C94790F0C94AF0F0C9432010C94320174
:100060000C9432010C9432010C94550A0C94320118
:100070000C9410100C9446100C9432010C94320124
:100080000C9432010C9432010C94320100407A102D
:10009000F35A00A0724E18090010A5D4E80000E839
:1000A0007648170000E40B54020000CA9A3B000097
:1000B00000E1F505000080969800000040420F0026
:1000C0000000A08601000000102700000000E803E7
:1000D000000000006400000000000A0000000000B2
:1000E0000100000000002C76D888DC674F0823DF71
:1000F000C1DFAE59E1B1B796E5E3E453C63AE65144
:10010000997696E8E6C28426EB898C9B62ED407C6A
:100110006FFCEFBC9C9F40F2BAA56FA5F490055A06
:100120002AF75C936B6CF9676DC11BFCE0E40D472B
:10013000FEF520E6B500D0ED902E0300943577054E
:100140000080841E080000204E0A000000C80C3306
:100150003333330F986E12831141EF8D2114893B95
:10016000E65516CFFEE6DB18D1844B381BF77C1D15
:10017000901DA4BBE424203284725E228100C9F168
:1001800024ECA1E53D270000000203000A0B00005B
:100190000000050409080000000000000000000045
:1001A000000000000000010204081020408001024D
:1001B0000408102040800102040810204080010241
:1001C000040810204080020202020202020204041B
:1001D00004040404040403030303030303030101ED
:1001E0000101010101010000200023002600290077
:1001F00000002200250028002B0000002100240020
:1002000027002A009601CC073309E30F7A10A601D4
:1002100011241FBECFEFD0E4DEBFCDBF11E0A0E0C0
:10022000B1E0E2E0F7E300E00BBF02C007900D92FF
:10023000A03AB107D9F723E0A0EAB1E001C01D92CE
:10024000A33DB207E1F711E0C7E0D1E004C0219778
:10025000FE010E946716C230D107C9F70E9414132D
:100260000C94741B0C940000DC01ED91FC91019046
:10027000F081E02D0994982F92959F708F702AE05D
:10028000929F800D11240895833059F150F48130EC
:1002900089F08230F1F064E670E080E090E00C9448
:1002A0009613853009F440C040F161E0863099F73B
:1002B00084E10DC061E086E00E94441461E085E0C5
:1002C0000E94441485B18E6085B960E084E00C948E
:1002D000801461E084E00E94801485B1817F85B93B
:1002E000089526E040E056E960E070E089E293E09E
:1002F0000E940E0F61E08AE1EACF60E08AE10E948D
:10030000801489E293E00E94660F61E08AE00E9417
:10031000441460E08AE00E94801461E08BE00E9457
:10032000441460E08AE0D3CF60E0C2CF65E171E0C1
:1003300080EC91E00E948D1181EB91E00E94790B9D
:1003400061E271E085EA91E00C948D1185EA91E01B
:100350000E941E1180EC91E00C941E11CF93DF934C
:1003600061E570E088EC91E00E94B20870E060E026
:1003700088EC91E00E94340188EC91E00E94300901
:1003800046E050E061E570E088EC91E00E942D09C4
:1003900088EC91E00E94DD070E943B018093A00160
:1003A00088EC91E00E94DD078F770E943B01D82FF7
:1003B00088EC91E00E94DD078F770E943B01C82FF7
:1003C00088EC91E00E94DD070E943B0190E0B0E0E4
:1003D000A0E08093A1019093A201A093A301B09308
:1003E000A40188EC91E00E94DD070E943B0124E615
:1003F000829FC0011124092E000CAA0BBB0B409157
:10040000A1015091A2016091A3017091A401840FF8
:10041000951FA61FB71F8093A1019093A201A093DF
:10042000A301B093A40188EC91E00E94DD070E9433
:100430003B0140E157E2849F9001859F300D1124DC
:10044000032E000C440B550B8091A1019091A20149
:10045000A091A301B091A401280F391F4A1F5B1F6F
:10046000A0E1BEE00E947F16AB01BC012CE3C29F5D
:10047000C0011124092E000CAA0BBB0B8D0F911D7E
:10048000A11DB11D840F951FA61FB71F8093A10149
:100490009093A201A093A301B093A401DF91CF9107
:1004A0000895EF92FF920F931F93CF93DF93CDB7F1
:1004B000DEB764970FB6F894DEBF0FBECDBF61E024
:1004C00081E00E94441461E082E00E94441461E0F3
:1004D00083E00E94441461E08AE10E94441461E0D8
:1004E00084E10E94441461E084E00E94441461E0CD
:1004F00085E00E94441461E086E00E94441461E0BB
:1005000087E00E94441461E080E00E94441482E08D
:100510000E94440184E00E94440186E00E9444015C
:1005200040EA56E861E070E088EC91E00E94A4089F
:1005300026E040E052EC61E070E08CE892E00E943E
:100540000E0F60E371E08CE892E00E9407116EE10B
:1005500070E080E090E00E9496138EE0E7E0F1E02A
:10056000DE01119601900D928A95E1F7CE01019678
:100570007C018E01015F1F4FF70161917F0189E2CC
:1005800093E00E94C70E0E151F05B1F7809106017A
:10059000F0E48F9FC0011124806180937C008091E2
:1005A0007A00846080937A0080917A0082608093E0
:1005B0007A0080917A00816080937A0061E087E11F
:1005C0000E94441460E087E10E94801460E080E0B3
:1005D0000E94801495E0E92EF12C62E370E080E047
:1005E00090E00E94961361E087E10E94801462E32C
:1005F00070E080E090E00E94961360E087E10E9446
:10060000801421E0E21AF10841F761E570E088EC1E
:1006100091E00E94B20863E288EC91E00E94360803
:1006200060E088EC91E00E94360860E088EC91E0A0
:100630000E94360865E088EC91E00E94360860E090
:1006400088EC91E00E94360860E088EC91E00E941E
:10065000360867E988EC91E00E94360860E088EC93
:1006600091E00E94360860E088EC91E00E94360834
:1006700088EC91E00E94300961E570E088EC91E03F
:100680000E94B2086FE270E088EC91E00E943401B1
:100690006CE270E088EC91E00E94340188EC91E01B
:1006A0000E94300961E570E088EC91E00E94B20898
:1006B00068E270E088EC91E00E94340167E970E044
:1006C00088EC91E00E94340188EC91E00E943009AE
:1006D00061E570E088EC91E00E94B20860E088EC8F
:1006E00091E00E94360860E088EC91E00E943608B4
:1006F00060E088EC91E00E94360860E088EC91E0D0
:100700000E94360860E088EC91E00E94360860E0C4
:1007100088EC91E00E94360860E088EC91E00E944D
:10072000360888EC91E00E94300969E371E0CE015F
:1007300001960E948D1160EC71E0CE0101960E943D
:10074000E61268E671E00E94F91265EA71E00E9423
:10075000E61268E671E00E94F912BC01C8010E942D
:100760004912CE0101960E941E1181E10E94AE1431
:10077000892B09F479C068E570E088EC91E00E946B
:10078000B20868E070E088EC91E00E94340170E00B
:1007900060E088EC91E00E94340188EC91E00E94D6
:1007A000300940E168E588EC91E00E942A0980E187
:1007B000F82E88EC91E00E94DD07E82E8FE08E1580
:1007C00028F06EE271E0C8010E94C41240E16E2D73
:1007D000CE0101960E94AC11BE016F5F7F4FC80130
:1007E0000E94BD12CE0101960E941E118091BA0195
:1007F0009091BB01A091BC01B091BD018E0D911DE6
:10080000A11DB11D8093BA019093BB01A093BC01BF
:10081000B093BD01FA94F110CCCF62E471E08CE8A2
:1008200092E00E940711B8018CE892E00E94F51056
:100830001092B0011092AF011092AE011092AD0172
:100840001092AC011092AB01C8010E941E11649677
:100850000FB6F894DEBF0FBECDBFDF91CF911F91D1
:100860000F91FF90EF90089568E571E0C8010E9434
:10087000C412D3CF2F923F924F925F926F927F928A
:100880008F929F92AF92BF92CF92DF92EF92FF92A0
:100890000F931F93CF93DF93CDB7DEB7CC53DC40DC
:1008A0000FB6F894DEBF0FBECDBF6EE971E0CE018A
:1008B0008F52984F0E948D1181E10E94AE14892BB6
:1008C00009F4D3C20E94AE016BE471E0CE018F52F5
:1008D000984F0E94C4126091BE017091BF014AE01E
:1008E000CE0101960E94D911BE016F5F7F4FCE01EC
:1008F0008F52984F0E94BD12CE0101960E941E1188
:1009000068E671E0CE018F52984F0E94C412409168
:10091000A1015091A2016091A3017091A4012AE06C
:10092000CE0101960E940512BE016F5F7F4FCE017E
:100930008F52984F0E94BD12CE0101960E941E1147
:1009400067E371E0CE018F52984F0E94C4124AE0D3
:100950006091A001CE0101960E94AC11BE016F5FB3
:100960007F4FCE018F52984F0E94BD12CE0101964B
:100970000E941E1168E671E0CE018F52984F0E94CE
:10098000C41268EC71E081EB91E00E94320C64E5E6
:1009900071E0882309F46BC281EB91E00E94B90CED
:1009A000AB01BC0122E0CE0101960E946112BE01A2
:1009B0006F5F7F4FCE018F52984F0E94BD12CE01C4
:1009C00001960E941E1168E671E0CE018F52984F89
:1009D0000E94C41281EB91E00E94DB0CAB01BC01D0
:1009E00022E0CE0101960E946112BE016F5F7F4F2F
:1009F000CE018F52984F0E94BD12CE0101960E94E7
:100A00001E11CE018F52984F0E941E1183E00E944A
:100A100044016EE971E0CE018F52984F0E948D1112
:100A2000C12CD12C760110E000E089E293E00E9415
:100A30002E0E892B09F435C289E293E00E94480EFC
:100A4000843209F01AC21F5F153108F41FC20E94D8
:100A5000AE0163E671E0CE018F52984F0E94C4123E
:100A60004091A1015091A2016091A3017091A40154
:100A70002AE0CE0101960E940512BE016F5F7F4FF2
:100A8000CE018F52984F0E94BD12CE0101960E9456
:100A90001E1167E371E0CE018F52984F0E94C4127D
:100AA0004AE06091A001CE0101960E94AC11BE0106
:100AB0006F5F7F4FCE018F52984F0E94BD12CE01C3
:100AC00001960E941E1184E00E944401BE016F52F3
:100AD000784F8CE892E00E94F510CE018F52984F2B
:100AE0000E941E1152E3C52ED12C332433946FE99A
:100AF000262E8E010F5C134F35B88091060182952A
:100B0000880F880F807C80937C0024B882E090E07E
:100B10000E94CF138EE984B988E090E00E94CF1341
:100B20005E0197E4A91A94EFB90A4501F401119204
:100B300011924F010E171F07C9F71092B0011092C2
:100B4000AF01412C512C3201F12CE12C80917A0023
:100B5000806480937A0084E190E00E94CF1324B8EF
:100B600082E090E00E94CF13FEE9F4B980917A0010
:100B700084FFFCCF809178008093B9018091790047
:100B80008093B80180917A00806180937A0090917F
:100B9000B8018091B9019093B7018093B601853077
:100BA000910508F08DC1880F991FF501E80FF91F15
:100BB000808191810196918380838FEF481A580A32
:100BC000680A780A90EA491696E8590691E069069B
:100BD000710409F0BBCF6EE971E0CE01895C934FDF
:100BE0000E948D1181E10E94AE14892B09F499C1F4
:100BF0000E94AE016AE671E0CE01895C934F0E94CB
:100C0000C4126091BE017091BF014AE0C8010E9408
:100C1000D911B801CE01895C934F0E94BD12C80161
:100C20000E941E1168E671E0CE01895C934F0E941C
:100C3000C4124091A1015091A2016091A301709151
:100C4000A4012AE0C8010E940512B801CE01895C06
:100C5000934F0E94BD12C8010E941E1167E371E00C
:100C6000CE01895C934F0E94C4124AE06091A001BA
:100C7000C8010E94AC11B801CE01895C934F0E945B
:100C8000BD12C8010E941E1168E671E0CE01895CA8
:100C9000934F0E94C41268EC71E081EB91E00E94D6
:100CA000320C64E571E0882309F43DC181EB91E0E9
:100CB0000E94B90CAB01BC0122E0C8010E94611284
:100CC000B801CE01895C934F0E94BD12C8010E94F9
:100CD0001E1168E671E0CE01895C934F0E94C41238
:100CE00081EB91E00E94DB0CAB01BC0122E0C8016A
:100CF0000E946112B801CE01895C934F0E94BD121F
:100D0000C8010E941E1168E671E0CE01895C934F14
:100D10000E94C4126091AF017091B0014AE0C80115
:100D20000E94D911B801CE01895C934F0E94BD1277
:100D3000C8010E941E1168E671E0CE01895C934FE4
:100D40000E94C412F501619171915F014AE0C801EE
:100D50000E94D911B801CE01895C934F0E94BD1247
:100D6000C8010E941E11A814B90429F78091BE0180
:100D70009091BF0101969093BF018093BE0161E005
:100D800087E10E948014BE01695C734F8CE892E099
:100D90000E94F51060E087E10E948014CE01895C1A
:100DA000934F0E941E1161E771E0CE01895C934F61
:100DB0000E948D114AE0B701C8010E94D911B80103
:100DC000CE01895C934F0E94BD12C8010E941E1182
:100DD000F5EFEF16F1E0FF0620F084EFE82EFF2498
:100DE000F3949E012F5F3F4F4901CE018F52984FE0
:100DF0003C01B12CA12CEA14FB0409F49AC068E66A
:100E000071E0CE01895C934F0E94C412F4014191BC
:100E10005191619171914F012AE0C8010E94051220
:100E2000B801CE01895C934F0E94BD12C8010E9497
:100E30001E1168E671E0CE01895C934F0E94C412D6
:100E4000F301619171913F014AE0C8010E94D911FB
:100E5000B801CE01895C934F0E94BD12C8010E9467
:100E60001E11FFEFAF1ABF0AC6CF6CE571E0CE01CD
:100E70008F52984F0E94C412C4CD153108F0E7CDAF
:100E8000C12CD12C7601002309F4CFCD682FCE01DF
:100E90008F52984F0E94D312C12CD12C760101E0C1
:100EA000C4CD2FEFC21AD20AE20AF20A31E6C31603
:100EB0003EEAD3063AE0E306F10408F4B6CD03CEE9
:100EC0002091AF013091B0012F5F3F4F3093B001BF
:100ED0002093AF018C33910508F465CE24EFE21620
:100EE00021E0F206D0F4F701EE0FFF1FEE0FFF1F17
:100EF00021E030E02C0F3D1FE20FF31F40825182B2
:100F000062827382F701EE0FFF1F21ED37E02C0F95
:100F10003D1FE20FF31F918380833FEFE31AF30A33
:100F20004CCE6CE571E0CE01895C934F0E94C412F7
:100F3000EACE61E087E10E948014BE01695C734FD4
:100F40008CE892E00E94F51060E087E10E94801436
:100F5000CE01895C934F0E941E1121E0C21AD10874
:100F600009F0CACDC45CD34F0FB6F894DEBF0FBEF4
:100F7000CDBFDF91CF911F910F91FF90EF90DF9048
:100F8000CF90BF90AF909F908F907F906F905F9029
:100F90004F903F902F900895E6ECF1E080E580833C
:100FA00081E08183089590E080E008958091FC01C4
:100FB0009091FD01891B990B08959091FD018091FD
:100FC000FC012FEF3FEF981748F4E92FF0E0E250D3
:100FD000FE4F208130E09F5F9093FD01C90108958D
:100FE000E091FD018091FC01E81730F4F0E0E2505F
:100FF000FE4F808190E008958FEF9FEF0895089550
:10100000CF93DF93EC01E091D401F091D5013097BB
:10101000F1F09091FD018091FC019817C0F090E0F3
:10102000292F30E02617370754F4DE01A20FB31F33
:101030004C9122503E4FD9014C939F5FF1CF1092BB
:10104000FD016093FC01CB01DF91CF910994DF9109
:10105000CF910895E091D601F091D701309729F012
:101060001092DA011092D90109940895CF93DF9379
:101070001F92CDB7DEB769832091D8012223F9F002
:101080002091D901203258F021E030E0FC01338377
:10109000228390E080E00F90DF91CF9108958091BE
:1010A000DA01E82FF0E0E552FE4F998190838F5FDF
:1010B0008093DA018093D90181E090E0ECCF61E088
:1010C000CE0101960E94140AF7CFCF92DF92EF92E1
:1010D000FF920F931F93CF93DF937C01CB018A0183
:1010E0002091D801222389F0EB016B01C40ED51E9B
:1010F000CC15DD0569F06991D701ED91FC91019066
:10110000F081E02DC7010995F3CF642F0E94140AE6
:10111000C801DF91CF911F910F91FF90EF90DF9069
:10112000CF9008951092FD011092FC011092DA0107
:101130001092D9010E9444098AE298E00E94400A74
:1011400080E098E00C943B0ACB01BA010C94620950
:1011500081E08093D8016093FB011092DA01109234
:10116000D90108950C94A8080F93062F21E040910F
:10117000D9016BED71E08091FB010E94BD091092D5
:10118000DA011092D9011092D8010F9108954F926F
:101190005F926F927F92AF92BF92CF92EF92FF9247
:1011A0000F931F93CF93DF935C01F62ED42F28016A
:1011B0003901EE2019F10E94A808CE2DC43008F0A4
:1011C000C3E0C150B8F028E0C29FC0011124A301C0
:1011D000920104C056954795379527958A95D2F781
:1011E000B901D501ED91FC910190F081E02DC5018F
:1011F0000995E7CF60E0C5010E94B4084D2FD132B8
:1012000008F040E22C2D6EEF71E08F2D0E947509E1
:101210001092FD018093FC01DF91CF911F910F91FE
:10122000FF90EF90CF90BF90AF907F906F905F90C6
:101230004F900895CF92EF920F931F93C22EE12CFF
:1012400000E010E098010E94C7081F910F91EF90F5
:10125000CF90089521E00C941A0921E00C941A090A
:1012600061E00C94B408E8ECF1E01382128288EE9D
:1012700093E0A0E0B0E084839583A683B7838CE7F6
:1012800091E091838083089510928B0281E0809396
:1012900089021092880261E081E10E94801461E07D
:1012A00080E10E948014E9EBF0E080818E7F8083F2
:1012B00080818D7F808388E48093B80085E480936B
:1012C000BC0008959B01AC0160E074E284EF90E003
:1012D0000E944516205131094109510956954795FB
:1012E000379527952093B8000895413208F043C000
:1012F00090918B029111FCCF91E090938B022093FF
:1013000089022FEF20931E0210926302240F209374
:10131000620290938A0290918A02880F892B8093AF
:101320008A0280918802813009F5109288028091AA
:101330008A028093BB008091BC0083FDF8CF85ECCE
:101340008093BC0080918B028130E1F38091630235
:10135000841710F440916302A4E6B2E0962FFB01DB
:101360008E2F891B841720F0842F089585EEE8CFF7
:101370008D918193F5CF40E0F7CF0F93413208F084
:101380004BC090918B029111FCCF92E090938B0215
:10139000009389029FEF90931E0210926302409384
:1013A0006202362FA4E6B2E0FB019E2F931B941736
:1013B00070F110928A0290918A02880F892B809393
:1013C0008A0280918802813029F5109288028091EA
:1013D0008A028093BB008091BC0083FDF8CF85EC2E
:1013E0008093BC00222321F080918B028230D1F3C4
:1013F00080911E028F3F91F080911E02803281F019
:1014000080911E02803371F084E00F9108959191D4
:101410009D93CBCF85EEE4CF81E0F7CF80E0F5CF91
:1014200082E0F3CF83E0F1CF20914002260F3327F3
:10143000331F21323105ECF420918B02FC0190E046
:1014400080E0243069F082E00895A091400221916B
:10145000AC014E5B5D4FA40FB52FB11D2C930196CF
:10146000861798F380914002680F6093400280E0F5
:10147000089581E0089590938502809384020895F1
:101480009093870280938602089585ED8093BC0037
:101490008091BC0084FDFCCF10928B02089585ECF6
:1014A0008093BC0010928B0208951F920F920FB68A
:1014B0000F9211240BB60F922F933F934F935F938C
:1014C0006F937F938F939F93AF93BF93EF93FF930C
:1014D0008091B900887F803609F44EC008F041C081
:1014E000883209F4AAC028F5803109F49EC0C8F4F6
:1014F000882309F4FBC0883009F497C0FF91EF916D
:10150000BF91AF919F918F917F916F915F914F911B
:101510003F912F910F900BBE0F900FBE0F901F9019
:101520001895883109F489C0803241F780931E02F2
:1015300015C0803409F49EC048F48033B9F3883371
:10154000E9F680931E020E944F0AD8CF803509F435
:1015500085C0883509F496C0883481F60E94450A12
:10156000CDCF883909F48CC038F5883729F050F48C
:10157000883611F0803711F683E080938B02109249
:101580001F0257C0883809F47BC0803919F08038B1
:1015900009F0B4CF80911F02803208F071C0E09151
:1015A0001F0281E08E0F80931F028091BB00F0E04C
:1015B000E05EFD4F80833DC0803B39F0E0F4803A2F
:1015C00009F479C0883A09F099CF84E080938B02BE
:1015D0001092410210924002E0918602F09187023F
:1015E00009958091400281110FC081E080934002F3
:1015F0001092420209C0803C09F476C0883C09F48C
:1016000073C0883B09F07ACFE091410281E08E0FF0
:1016100080934102F0E0EE5BFD4F80818093BB0040
:10162000909141028091400229C080918A0280936A
:10163000BB0085EC8093BC0061CF909163028091E8
:101640006202981758F5E091630281E08E0F809353
:101650006302F0E0EC59FD4F8081E9CFE091630235
:1016600081E08E0F809363028091BB00F0E0EC5923
:10167000FD4F808390916302809162029817C8F2B7
:1016800085E8D8CFE091630281E08E0F80936302FA
:101690008091BB00F0E0EC59FD4F8083809189027E
:1016A00081115CCF81E08093880284EA8093BC0042
:1016B00010928B0223CF0E944F0A80911F0280322A
:1016C00030F4E0911F02F0E0E05EFD4F1082609187
:1016D0001F0270E0E0918402F091850280E292E0C6
:1016E000099510921F020ACF85ECE0CF10921E02DE
:1016F00035CFFC01118210820895CF92DF92EF92D4
:101700000F931F93CF93DF9300D000D01F92CDB7DC
:10171000DEB76B0121E029831A821B821C821D82A5
:10172000E12C05E010E09E012F5F3F4F41E050E0CB
:10173000B901FC01808191810E94FC0DC114D1048A
:1017400099F0CA94CD2889F16C817D81762767272D
:101750007627072E000C880B990B0E944C1520E071
:1017600030E040E85BE332C029816A8170E090E0BC
:1017700080E0982F872F762F6627822B2B81622B74
:101780000E944A1520E030E048EC55E40E94D8144D
:101790000F900F900F900F900F90DF91CF911F91AE
:1017A0000F91EF90DF90CF90089529816A8170E0CA
:1017B00090E080E0CB0177276627922B2B81722B5C
:1017C0000E944C1520E030E040E857E30E94D81515
:1017D000DFCFEF920F931F93CF93DF931F92CDB77D
:1017E000DEB76983E12C01E010E09E012F5F3F4FDF
:1017F00041E050E0B901FC01808191810E94FC0D23
:1018000089810F90DF91CF911F910F91EF900895F3
:1018100060E00E94E90B83FB882780F90895EF922E
:10182000FF920F931F93CF93DF9300D0CDB7DEB716
:1018300069834A83F12CE12C10E000E021E042E0D2
:1018400050E0BE016F5F7F4FFC01808191810E945B
:10185000330D0F900F90DF91CF911F910F91FF905B
:10186000EF900895EF92FF920F931F93CF93DF9322
:10187000EC017B0188819981009721F066E070E09E
:101880000E94251386E090E00E9423138C01A7019B
:1018900060E60E94F30C1983088361E0C8010E948E
:1018A0001B0D182F811109C010E0812FDF91CF91FE
:1018B0001F910F91FF90EF9008956CE0CE010E9470
:1018C000E90B843C89F744E066E2CE010E940F0CEC
:1018D00066E2CE010E94E90B82FF07C06AE070E079
:1018E00080E090E00E949613F3CF81E090E09B832C
:1018F0008A8388EB8C8348EB66E2CE010E940F0C52
:1019000047E063E1CE010E940F0CCFCF0F931F93EE
:10191000CF93DF93EC01162F072F66E20E94E90BAD
:1019200010FB87F98C83482F66E2CE010E940F0CD2
:101930001A830B83DF91CF911F910F910895CF935D
:10194000DF93EC0166E2CE010E94E90B8C834C81AF
:1019500041FF07C06AE070E080E090E00E949613CB
:10196000F1CF42604C8366E2CE01DF91CF910C94BF
:101970000F0CCF93DF93EC018A819B81892B29F097
:1019800070E060E0CE010E94860CCE010E949F0CA8
:10199000CE010E94080C811107C06AE070E080E06F
:1019A00090E00E949613F4CF70E060E0CE01DF91EA
:1019B000CF910C947D0BCF93DF93EC010E949F0C91
:1019C000CE010E94080C811107C06AE070E080E03F
:1019D00090E00E949613F4CF62E070E0CE01DF91B8
:1019E000CF910C947D0BFC01608352834183138261
:1019F00080E290E0958384830895CF93DF93EC0198
:101A00008B81882381F0688189819A810E94A8084E
:101A100089819A810E94300991E0811190E0892F9B
:101A2000DF91CF91089561E0CE010E941B0D982FA8
:101A30008111E9CFF4CF1F93CF93DF93EC01162FE1
:101A400089819A810E94920881E08B83112331F071
:101A5000CE01DF91CF911F910C94FD0C81E0DF91BD
:101A6000CF911F9108958F929F92BF92CF92DF9254
:101A7000EF92FF920F931F93CF93DF93DA01AE0D96
:101A8000BF1DEC01EC81FD81EA17FB0710F490E02B
:101A900021C0B22E6A014B01688189819A810E941E
:101AA000A808E114F10419F589819A81DC01ED910E
:101AB000FC910280F381E02DA601B4010995C816BE
:101AC000D90629F76B2D89819A810E94B40891E08B
:101AD0008111DDCF892FDF91CF911F910F91FF9061
:101AE000EF90DF90CF90BF909F908F900895011559
:101AF0001105D1F289819A81DC01ED91FC9102807E
:101B0000F381E02DA701B80109958E159F0509F015
:101B1000BECFCACFCF92DF92EF92FF920F931F9367
:101B2000CF93DF937C016B018A01DC016C911196EC
:101B30008D919C910E941A098017110691F4E6017B
:101B40000C0D1D1DC017D107B1F0F70181819281E5
:101B5000DC01ED91FC910284F385E02D09958993D8
:101B6000F1CF80E0DF91CF911F910F91FF90EF9027
:101B7000DF90CF90089581E0F5CF9F92AF92BF9212
:101B8000CF92DF92EF92FF920F931F93CF93DF9349
:101B90006C015B017A01922ED0E0C0E0CE15DF052A
:101BA000F0F4F6018481958187010C1B1D0B8017D1
:101BB000910708F48C01C701801B910B20E0C81726
:101BC000D90708F0292DA801B5016C0F7D1FC601AA
:101BD0000E948A0D882321F0C00FD11FDFCF81E042
:101BE000DF91CF911F910F91FF90EF90DF90CF90F9
:101BF000BF90AF909F900895AF92BF92CF92DF9227
:101C0000EF92FF920F931F93CF93DF93EC01690143
:101C100058012E2DF12CE12C10E000E00E94330D34
:101C2000882381F021E0A501B601CE01DF91CF919B
:101C30001F910F91FF90EF90DF90CF90BF90AF90EA
:101C40000C94BD0D80E0DF91CF911F910F91FF901B
:101C5000EF90DF90CF90BF90AF900895FC01918DF1
:101C6000228D892F90E0805C9F4F821B91098F739A
:101C700099270895FC01918D828D981731F0828DFE
:101C8000E80FF11D858D90E008958FEF9FEF089587
:101C9000FC01918D828D981761F0A28DAE0FBF2F40
:101CA000B11D5D968C91928D9F5F9F73928F90E096
:101CB00008958FEF9FEF0895FC01538D448D252FDC
:101CC00030E0842F90E0821B930B541710F0CF96D6
:101CD00008950197089589ED9FE0892B49F080E0F0
:101CE00090E0892B29F00E94D90F81110E940000F9
:101CF00080E790E1892B49F080E090E0892B29F082
:101D00000E94701081110C9400000895FC01A48DB4
:101D1000A80FB92FB11DA35ABF4F2C91848D90E00D
:101D200001968F739927848FA689B7892C93A089F0
:101D3000B1898C9180648C93938D848D981306C0A7
:101D40000288F389E02D80818F7D80830895CF9371
:101D5000DF93EC01888D8823B9F0AA89BB89E889D3
:101D6000F9898C9185FD03C0808186FD0DC00FB679
:101D700007FCF7CF8C9185FFF2CF808185FFEDCFF7
:101D8000CE010E94860EE9CFDF91CF910895EF92A8
:101D9000FF920F931F93CF93DF93EC0181E0888F25
:101DA0009B8D8C8D981316C0E889F989808185FFF9
:101DB00011C0EE89FF896083E889F9898081806498
:101DC000808381E090E0DF91CF911F910F91FF9090
:101DD000EF900895F62E0B8D10E00F5F1F4F0F73DD
:101DE0001127E02E8C8D8E110CC00FB607FCFACF98
:101DF000E889F989808185FFF5CFCE010E94860EA2
:101E0000F1CFEB8DEC0FFD2FF11DE35AFF4FF08268
:101E10000B8FEA89FB8980818062D2CFCF92DF92DB
:101E2000EF92FF921F93CF93DF93EC016A017B0146
:101E3000122FE889F98982E08083C11481EED806E7
:101E4000E104F104A1F060E079E08DE390E0A70106
:101E500096010E94451621503109410951095695B4
:101E6000479537952795211580E1380798F0E8893F
:101E7000F989108260E874E88EE190E0A70196018C
:101E80000E9445162150310941095109569547953F
:101E900037952795EC85FD853083EE85FF8520837A
:101EA000188EEC89FD891083EA89FB898081886915
:101EB0008083EA89FB8980818F7D8083DF91CF9148
:101EC0001F91FF90EF90DF90CF900895CF93DF9315
:101ED000EC01E881F9810680F781E02D0995EA8916
:101EE000FB898081877480838A8D898FDF91CF9170
:101EF00008951F920F920FB60F9211240BB60F92F6
:101F00002F938F939F93EF93FF93E0919C02F09117
:101F10009D028081E091A202F091A30282FD1DC08A
:101F200090818091A5028F5F8F732091A602821706
:101F300041F0E091A502F0E0E457FD4F958F8093CA
:101F4000A502FF91EF919F918F912F910F900BBE62
:101F50000F900FBE0F901F9018958081F2CF1F92A7
:101F60000F920FB60F9211240BB60F922F933F933F
:101F70004F935F936F937F938F939F93AF93BF9391
:101F8000EF93FF938CE892E00E94860EFF91EF9111
:101F9000BF91AF919F918F917F916F915F914F9181
:101FA0003F912F910F900BBE0F900FBE0F901F907F
:101FB00018958CE892E00E942E0E21E0892B09F4FE
:101FC00020E0822F0895ECE8F2E01382128288EE7E
:101FD00093E0A0E0B0E084839583A683B7838EE886
:101FE00091E09183808385EC90E09587848784ECF1
:101FF00090E09787868780EC90E0918B808B81ECD6
:1020000090E0938B828B82EC90E0958B848B86ECB6
:1020100090E0978B868B118E128E138E148E0895FE
:102020001F920F920FB60F9211240BB60F922F939F
:102030008F939F93EF93FF93E0913903F0913A03CD
:102040008081E0913F03F091400382FD1DC09081AB
:10205000809142038F5F8F7320914303821741F079
:10206000E0914203F0E0E75DFC4F958F80934203DF
:10207000FF91EF919F918F912F910F900BBE0F9039
:102080000FBE0F901F9018958081F2CF1F920F9274
:102090000FB60F9211240BB60F922F933F934F93CD
:1020A0005F936F937F938F939F93AF93BF93EF93C0
:1020B000FF9389E293E00E94860EFF91EF91BF911A
:1020C000AF919F918F917F916F915F914F913F91D0
:1020D0002F910F900BBE0F900FBE0F901F90189571
:1020E00089E293E00E942E0E21E0892B09F420E082
:1020F000822F0895E9E2F3E01382128288EE93E0E2
:10210000A0E0B0E084839583A683B7838EE891E056
:10211000918380838DEC90E0958784878CEC90E0B0
:102120009787868788EC90E0918B808B89EC90E094
:10213000938B828B8AEC90E0958B848B8EEC90E075
:10214000978B868B118E128E138E148E0895AF92FC
:10215000BF92CF92DF92EF92FF920F931F93CF9394
:10216000DF936C017B018B01040F151FEB015E01F6
:10217000AE18BF08C017D10759F06991D601ED918B
:10218000FC910190F081E02DC6010995892B79F72A
:10219000C501DF91CF911F910F91FF90EF90DF90DC
:1021A000CF90BF90AF900895FB0101900020E9F718
:1021B0003197AF01461B570BDC01ED91FC9102807A
:1021C000F381E02D0994DB0114964D915C911597F4
:1021D0006D917C91DC01ED91FC910280F381E02D09
:1021E00009946CE971E00C94D4100F931F93CF9372
:1021F000DF93EC010E94E3108C01CE010E94F110EC
:10220000800F911FDF91CF911F910F9108950F9330
:102210001F93CF93DF938C01D0E0C0E0611571056F
:1022200019F00E94D410EC01C8010E94F1108C0F2B
:102230009D1FDF91CF911F910F910895FC01808127
:1022400091810C944417CF93DF93EC01888199819D
:10225000009711F00E944417198218821D821C8277
:102260001B821A82DF91CF9108950F931F93CF9312
:10227000DF93EC018B016F5F7F4F888199810E9412
:10228000CD17009751F0998388831B830A8381E0DF
:10229000DF91CF911F910F91089580E0F9CFCF93F7
:1022A000DF93EC0188819981892B49F08A819B8198
:1022B0008617970720F081E0DF91CF910895CE0136
:1022C0000E9435118823C1F38C819D81892B99F758
:1022D000E881F9811082EFCFEF92FF920F931F9365
:1022E000CF93DF93EC017B018A01BA010E944F1169
:1022F00081110BC0CE010E942311CE01DF91CF913D
:102300001F910F91FF90EF9008951D830C83B701EB
:10231000888199810E94B718F0CFFC011182108248
:1023200013821282158214826115710551F0FB012E
:1023300001900020E9F73197AF01461B570B0C9431
:102340006C110895FB0101900020E9F73197AF016E
:10235000461B570B0C946C110F931F93CF93DF9375
:10236000CDB7DEB729970FB6F894DEBF0FBECDBF4D
:102370008C01862FF801118210821382128215823D
:10238000148250E0BE016F5F7F4F90E00E94EB1817
:10239000BE016F5F7F4FC8010E94A21129960FB640
:1023A000F894DEBF0FBECDBFDF91CF911F910F918B
:1023B00008950F931F93CF93DF93CDB7DEB7619747
:1023C0000FB6F894DEBF0FBECDBF8C01CB01F80174
:1023D00011821082138212821582148250E0BE0193
:1023E0006F5F7F4F0E94EB18BE016F5F7F4FC80188
:1023F0000E94A21161960FB6F894DEBF0FBECDBF4A
:10240000DF91CF911F910F9108950F931F93CF9359
:10241000DF93CDB7DEB7A1970FB6F894DEBF0FBE3E
:10242000CDBF8C01CB01BA01F80111821082138259
:1024300012821582148230E0AE014F5F5F4F0E941E
:10244000BE18BE016F5F7F4FC8010E94A211A19606
:102450000FB6F894DEBF0FBECDBFDF91CF911F91B5
:102460000F910895CF93DF93EC01FB018617970737
:1024700049F0608171816115710541F04481558198
:102480000E946C11CE01DF91CF9108950E9423111B
:10249000F9CFFC01118210821382128215821482FC
:1024A0000C943212CF93DF93EC016115710531F07A
:1024B0000E94A211CE01DF91CF9108950E942311B5
:1024C000F9CFEF92FF920F931F93CF93DF93CDB786
:1024D000DEB7A1970FB6F894DEBF0FBECDBF7C016B
:1024E000CB01BA01F7011182108213821282158288
:1024F000148242E0420F8E010F5F1F4F0E948A1626
:10250000BC01C7010E945212A1960FB6F894DEBF1B
:102510000FBECDBFDF91CF911F910F91FF90EF9034
:102520000895EF92FF920F931F93CF93DF9361155E
:10253000710541F480E0DF91CF911F910F91FF90E1
:10254000EF90089541155105B1F07B01EC010C812C
:102550001D81040F151FB8010E944F11882351F3EC
:10256000288139818C819D81B701820F931F0E9440
:10257000B7181D830C8381E0DECFFB0144815581B8
:10258000608171810C9491126115710551F0FB010C
:1025900001900020E9F73197AF01461B570B0C94CF
:1025A000911280E00895CF93DF9300D0CDB7DEB7CE
:1025B00069831A8241E050E0BE016F5F7F4F0E9445
:1025C00091120F900F90DF91CF910895CF93DF93E9
:1025D000EC01FB0144815581608171810E9491125F
:1025E000811103C0CE010E942311CE01DF91CF9152
:1025F0000895CF93DF93EC016115710539F4CE0195
:102600000E942311CE01DF91CF910895FB0101902B
:102610000020E9F73197AF01461B570B0E9491123A
:10262000882369F3EFCF08950E94DA130E941313F1
:102630000E945102CBE6DEE00E943A042097E1F3CB
:102640000E946B0EF9CF0C94A8160C9444171F929D
:102650000F920FB60F9211242F933F938F939F9356
:10266000AF93BF938091CB039091CC03A091CD0306
:10267000B091CE033091CA0323E0230F2D3768F1C8
:1026800026E8230F0296A11DB11D2093CA03809353
:10269000CB039093CC03A093CD03B093CE03809152
:1026A000C6039091C703A091C803B091C9030196D6
:1026B000A11DB11D8093C6039093C703A093C803C7
:1026C000B093C903BF91AF919F918F913F912F918B
:1026D0000F900FBE0F901F9018950196A11DB11D70
:1026E000D4CF3FB7F8948091C6039091C703A091CF
:1026F000C803B091C90326B5A89B05C02F3F19F0A8
:102700000196A11DB11D3FBFBA2FA92F982F882771
:10271000BC01CD01620F711D811D911D42E0660F4C
:10272000771F881F991F4A95D1F708958F929F921E
:10273000AF92BF92CF92DF92EF92FF926B017C013A
:102740000E9471134B015C01C114D104E104F10436
:10275000E9F00E94D7140E947113681979098A0957
:102760009B09683E73408105910570F321E0C21A10
:10277000D108E108F10888EE880E83E0981EA11CBC
:10278000B11CC114D104E104F10429F7FF90EF90CA
:10279000DF90CF90BF90AF909F908F900895823040
:1027A000910538F0880F991F880F991F0597019799
:1027B000F1F70895789484B5836084BD85B583600E
:1027C00085BDEEE6F0E0808181608083E1E8F0E0A5
:1027D00082E08083808181608083E0E8F0E0808116
:1027E00081608083E1EBF0E0808184608083E0EBB6
:1027F000F0E0808181608083E1E9F0E080818360A6
:102800008083E0E9F0E080818160808387E88093C5
:102810007A001092C100089582508A3088F5E82F1E
:10282000F0E0EB5EFB4E0C9467163D1441141F1450
:1028300025144014401429142F1433143914809192
:1028400080008F77809380000895809180008F7D35
:10285000F9CF8091B0008F778093B0000895809178
:10286000B0008F7DF9CF809190008F77809390009A
:102870000895809190008F7DF9CF84B58F7784BDC6
:10288000089584B58F7DFBCFCF93DF9390E0FC015B
:10289000EA55FE4F24918A539E4FFC018491882370
:1028A000C9F090E0880F991FFC01E650FE4FA591FA
:1028B000B491FC01E051FE4FC591D49161110DC05E
:1028C0009FB7F8948C91209582238C93888128233C
:1028D00028839FBFDF91CF910895623051F49FB755
:1028E000F8943C91822F809583238C93E8812E2B42
:1028F000EFCF8FB7F894EC912E2B2C938FBFEACFAC
:102900001F93CF93DF93282F30E0F901EA57FE4F52
:102910008491F901EA55FE4FD491F901EA53FE4F33
:10292000C491CC23A9F0162F81110E940C14EC2F16
:10293000F0E0EE0FFF1FE051FE4FA591B4918FB76D
:10294000F894EC91111108C0D095DE23DC938FBF71
:10295000DF91CF911F910895DE2BF8CFCF93DF93B6
:10296000282F30E0F901EA57FE4F8491F901EA552A
:10297000FE4FD491F901EA53FE4FC491CC23A1F04C
:1029800081110E940C14EC2FF0E0EE0FFF1FEA51B2
:10299000FE4FA591B491EC91ED2381E090E009F414
:1029A00080E0DF91CF91089580E090E0FACF089524
:1029B0000E94EC140C949E150E94971558F00E94EA
:1029C000901540F029F45F3F29F00C9487155111C0
:1029D0000C94D2150C948D150E94AF1568F39923B1
:1029E000B1F3552391F3951B550BBB27AA2762170B
:1029F0007307840738F09F5F5F4F220F331F441F18
:102A0000AA1FA9F335D00E2E3AF0E0E832D091504B
:102A10005040E695001CCAF72BD0FE2F29D0660F38
:102A2000771F881FBB1F261737074807AB07B0E87B
:102A300009F0BB0B802DBF01FF2793585F4F3AF081
:102A40009E3F510578F00C9487150C94D2155F3F8A
:102A5000E4F3983ED4F3869577956795B795F79507
:102A60009F5FC9F7880F911D9695879597F90895EF
:102A7000E1E0660F771F881FBB1F6217730784078B
:102A8000BA0720F0621B730B840BBA0BEE1F88F79A
:102A9000E0950895E89409C097FB3EF490958095E1
:102AA000709561957F4F8F4F9F4F9923A9F0F92F14
:102AB00096E9BB279395F695879577956795B79592
:102AC000F111F8CFFAF4BB0F11F460FF1BC06F5F78
:102AD0007F4F8F4F9F4F16C0882311F096E911C08A
:102AE000772321F09EE8872F762F05C0662371F0AB
:102AF00096E8862F70E060E02AF09A95660F771FBF
:102B0000881FDAF7880F9695879597F9089597F9B2
:102B10009F6780E870E060E008959FEF80EC089583
:102B200000240A94161617061806090608950024AC
:102B30000A9412161306140605060895092E039426
:102B4000000C11F4882352F0BB0F40F4BF2B11F49A
:102B500060FF04C06F5F7F4F8F4F9F4F089557FDF9
:102B60009058440F551F59F05F3F71F04795880FFB
:102B700097FB991F61F09F3F79F087950895121692
:102B800013061406551FF2CF4695F1DF08C016163E
:102B900017061806991FF1CF8695710561050894EF
:102BA0000895E894BB2766277727CB0197F9089506
:102BB0000E94EB150C949E150E94901538F00E940F
:102BC000971520F0952311F00C9487150C948D1512
:102BD00011240C94D2150E94AF1570F3959FC1F388
:102BE000950F50E0551F629FF001729FBB27F00DBB
:102BF000B11D639FAA27F00DB11DAA1F649F662710
:102C0000B00DA11D661F829F2227B00DA11D621F5E
:102C1000739FB00DA11D621F839FA00D611D221F18
:102C2000749F3327A00D611D231F849F600D211DFC
:102C3000822F762F6A2F11249F5750409AF0F1F07F
:102C400088234AF0EE0FFF1FBB1F661F771F881FE8
:102C500091505040A9F79E3F510580F00C94871584
:102C60000C94D2155F3FE4F3983ED4F386957795A4
:102C70006795B795F795E7959F5FC1F7FE2B880F8E
:102C8000911D9695879597F90895A1E21A2EAA1B92
:102C9000BB1BFD010DC0AA1FBB1FEE1FFF1FA2170C
:102CA000B307E407F50720F0A21BB30BE40BF50B09
:102CB000661F771F881F991F1A9469F76095709592
:102CC000809590959B01AC01BD01CF010895EE0F59
:102CD000FF1F0024001C0BBE0790F691E02D099405
:102CE000A29FB001B39FC001A39F700D811D11244D
:102CF000911DB29F700D811D1124911D08950E9498
:102D00007016A59F900DB49F900DA49F800D911DEE
:102D100011240895EF920F931F93CF93DF93E8014F
:102D200034E047FD34E1042E000C550B57FF03C07F
:102D3000519541955109E32E022F242FAE010E9497
:102D40001019CE01DF91CF911F910F91EF9008954F
:102D50000F931F93CF93DF938230910510F482E09D
:102D600090E0E091D103F091D20330E020E0B0E0B8
:102D7000A0E0309799F42115310509F44AC0281BC9
:102D8000390B24303105D8F58A819B816115710595
:102D900089F1FB0193838283FE0111C0408151813F
:102DA0000281138148175907E0F04817590799F431
:102DB000109761F012960C93129713961C9332960B
:102DC000CF01DF91CF911F910F9108950093D1030F
:102DD0001093D203F4CF2115310551F04217530758
:102DE00038F0A901DB019A01BD01DF01F801C1CF73
:102DF000EF01F9CF9093D2038093D103CDCFFE01A1
:102E0000E20FF31F81939193225031093983288374
:102E1000D7CF2091CF033091D003232B41F42091C1
:102E20000201309103013093D0032093CF0320910E
:102E30000001309101012115310541F42DB73EB754
:102E40004091040150910501241B350BE091CF0303
:102E5000F091D003E217F307A0F42E1B3F0B2817C5
:102E6000390778F0AC014E5F5F4F2417350748F003
:102E70004E0F5F1F5093D0034093CF0381939193E4
:102E80009FCFF0E0E0E09CCFCF93DF930097E9F095
:102E9000FC01329713821282A091D103B091D20328
:102EA000ED0130E020E01097A1F420813181820F04
:102EB000931F2091CF033091D0032817390709F0D1
:102EC00061C0F093D003E093CF03DF91CF910895D9
:102ED000EA01CE17DF07E8F54A815B819E014115C3
:102EE0005105B1F7E901FB83EA8349915991C40F78
:102EF000D51FEC17FD0761F4808191810296840F44
:102F0000951FE90199838883828193819B838A83BA
:102F1000F0E0E0E012968D919C9113970097B9F53F
:102F20002D913C911197CD010296820F931F209114
:102F3000CF033091D0032817390739F6309751F570
:102F40001092D2031092D103B093D003A093CF0379
:102F5000BCCFD383C28340815181840F951FC81792
:102F6000D90761F44E5F5F4F88819981480F591FDF
:102F7000518340838A819B8193838283211531050C
:102F800009F0B0CFF093D203E093D1039ECFFD01BF
:102F9000DC01C0CF13821282D7CF4F925F926F9223
:102FA0007F928F929F92AF92BF92CF92DF92EF92D9
:102FB000FF920F931F93CF93DF938C01009799F4A7
:102FC000CB01DF91CF911F910F91FF90EF90DF9098
:102FD000CF90BF90AF909F908F907F906F905F90B9
:102FE0004F900C94A816FC01E60FF71F9C0122508D
:102FF0003109E217F30708F4AEC0D901CD91DC9195
:103000001197C617D70720F1C530D10578F0CE014A
:1030100004978617970750F0C61BD70B2297C193CA
:10302000D1936D937C93CF010E944417C801DF9127
:10303000CF911F910F91FF90EF90DF90CF90BF90B5
:10304000AF909F908F907F906F905F904F9008957A
:103050005B01AC1ABD0A4C018C0E9D1EA091D103E0
:10306000B091D203512C412CF12CE12C109731F569
:103070008091CF039091D0038815990509F05CC029
:103080004616570608F058C0809100019091010142
:10309000009741F48DB79EB740910401509105010E
:1030A000841B950BE817F90708F055C0F093D0037F
:1030B000E093CF03F90171836083B8CF8D919C9128
:1030C000119712966C90129713967C901397A815EF
:1030D000B90559F56C0142E0C40ED11CCA14DB04D9
:1030E00020F1AC014A195B09DA011296159780F0BC
:1030F0006282738251834083D9016D937C93E11482
:10310000F10471F0D7011396FC93EE9312978ECFD2
:1031100022968C0F9D1FF90191838083F301EFCFDD
:10312000F093D203E093D10381CF4816590608F4F7
:103130002C017D01D3019ACFCB010E94A8167C01FE
:10314000009749F0AE01B8010E94AE18C8010E9474
:10315000441787016BCF10E000E068CFFB01DC0172
:1031600002C001900D9241505040D8F70895FB01E4
:10317000DC0101900D920020E1F708952532310520
:1031800020F4223010F00C94C918FA011082CA0100
:103190000895BB27FA01A62F6217710581059105D5
:1031A000330B30FB66F0AA27660F771F881F991F25
:1031B000AA1FA21710F0A21B63953850A9F7A05DB3
:1031C000AA3308F0A95DA19336F7B111B19310822B
:1031D000CA010C94641B4532510520F4423010F0B2
:1031E0000C94F618FB011082CB010895BB27FB015C
:1031F0005527AA27880F991FAA1FA41710F0A41BF0
:1032000083955051B9F7A05DAA3308F0A95DA19349
:10321000009779F7B111B1931192CB010C94641B13
:103220008F929F92AF92BF92CF92DF92EF92FF92D6
:103230000F931F93CF93DF93CDB7DEB729970FB6C8
:10324000F894DEBF0FBECDBF6A01F22EB02E102F54
:10325000FBE3AF2EA01608F41BE31F5F012F27E04E
:10326000AE014F5F5F4F0E948C1ABC018981982F7D
:103270009970913009F44EC09BE2E1FC04C09E2D90
:103280009170E0FC49C05E2D5071E82FE87083FF1B
:1032900055C084E0911101C083E0EF2DE81B8F152C
:1032A00008F0E0E0D6018E2F20E25523C9F19923E2
:1032B00029F0D6019C93C60101966C0196012D5F01
:1032C0003F4FE2FE33C08EE4D6018C9391E4119619
:1032D0009C93119712968C93D9018E2F90E28111B5
:1032E0002AC0E20FF32FF11D10828EEF9FEF299677
:1032F0000FB6F894DEBF0FBECDBFDF91CF911F9107
:103300000F91FF90EF90DF90CF90BF90AF909F9084
:103310008F9008959DE2B7CF90E2B5CF2D93815065
:103320008111FCCFCE0ED11CE0E0C1CF8EE6D601DC
:103330008C9391E6CCCF9D938150D1CF482F447090
:1033400082FF3DC084E0911101C083E08F1510F42D
:10335000EF2DE81BD6018E2F20E2552309F199238A
:1033600029F0D6019C93C60101966C0196012D5F50
:103370003F4FE2FE1BC089E4D6018C938EE4119688
:103380008C93119786E412968C93D9018E2F90E23C
:10339000882309F4A6CF9D938150FACF2D938150B5
:1033A0008111FCCFCE0ED11CE0E0D9CF89E6D60149
:1033B0008C938EE611968C93119786E6E4CF9B0151
:1033C00077FF02C030E020E0A1E0B0E0911102C040
:1033D000B0E0A0E0F9013196AE0FBF1F8B2C912C0D
:1033E000BB2009F461C05401EFEFAE1ABE0AAA0D6A
:1033F000BB1DFA161B0619F014F04F2D4A1B511174
:1034000088C0E3FC59C07601A42FB0E2A1114FC0DF
:10341000C40ED11C992309F45BC040E0D60111967B
:10342000F60190836D01552309F448C0012F060F62
:103430009A81582F507184FF03C0913309F40150D1
:1034400010160CF047C0093008F008E0EEE2FE2E3E
:103450005B01A01AB10885019194819491082F3FD6
:10346000320729F4D601FC92F60131966F016217FA
:10347000730794F1021713077CF5DB01A21BB30B52
:10348000AA24A394B12CAC0EBD1EAA0DBB1D11968F
:103490008C9121503109D601119628153905F4F087
:1034A000F60180836D01DBCFB12CA12CA0CFF701F9
:1034B000B1937F01A150AACF9111B0CFD601942F23
:1034C00050E302C05D9391509111FCCFC40ED11C0A
:1034D00040E0ACCF01E0BACF80E3DBCF62177307E7
:1034E00031F4963388F4953311F4552369F0F601DD
:1034F0008083FD01842F90E2811108C0A40FB11DCB
:103500001C9290E080E0F3CE81E3F1CF9193815063
:10351000F3CF911183CF8ACF283008F027E03327EB
:10352000DA01990F311D87FD9160009661057105E3
:1035300039F432602E5F3D9330E32A95E1F7089528
:103540009F3F30F080387105610509F03C5F3C5FBA
:103550003D93913008F08068911DDF93CF931F93C6
:103560000F93FF92EF92192F987F9695E92F9695DA
:103570009695E90FFF27EA51FF4F99273327EE244D
:10358000FF24A701E70105900894079428F4360F5B
:10359000E71EF81E491F511D660F771F881F991FD0
:1035A0000694A1F70590079428F4E70EF81E491F2A
:1035B000561FC11D770F881F991F661F0694A1F71C
:1035C0000590079428F4F80E491F561FC71FD11DF8
:1035D000880F991F661F771F0694A1F7059007941F
:1035E00020F4490F561FC71FD81F990F661F771F5A
:1035F000881F0694A9F784911095177041F0D6950D
:10360000C79557954795F794E7941A95C1F7ECE855
:10361000F0E068941590159135916591959105901C
:103620007FE27395E118F10A430B560BC90BD009E1
:10363000C0F7E10CF11E431F561FC91FD01D7EF4B9
:10364000703311F48A95E6CFE894015030F0080FFA
:103650000AF40027021708F4202F2395022F7A334B
:1036600028F079E37D932A95E9F710C07D932A9598
:1036700089F6069497956795379517951794E118ED
:10368000F10A430B560BC90BD00998F023957E9194
:1036900073957A3308F070E37C932013B8F77E912A
:1036A00070617D9330F0839571E37D9370E32A958B
:1036B000E1F71124EF90FF900F911F91CF91DF91CF
:1036C000992787FD90950895DC01FC01672F719182
:1036D0007723E1F7329704C07C916D9370836291F8
:1036E000AE17BF07C8F3089511E0C7E0D1E004C0EA
:1036F000FE010E9467162196C830D107C9F7F894D9
:02370000FFCFF9
:103702000000D303800003B56206080600E8030147
:1037120000000000374341525F313032345F76306F
:10372200004E614928546C292D44313678333000DB
:10373200234376616B2E2E2E0024414952444F536F
:103742002C0023486D6D6D2E2E2E00244845414CD1
:1037520054482C004E614E2C4E614E00244572722C
:103762006F72002454494D452C0024484953542C6F
:103772000024484954532C00000000003608650814
:10378200D307FF07D607DD07F00700000000C70ECA
:10379200A7105C0EA70E2E0E480E3A0E0D0A000060
:00000001FF
