:020000040000FA
:100000000C9408010C9432010C9432010C943201CE
:100010000C9432010C9432010C9432010C94320194
:100020000C9432010C9432010C9432010C94320184
:100030000C9432010C9432010C9432010C94320174
:100040000C9432010C9432010C9409130C9432017B
:100050000C945B0F0C94910F0C9432010C943201B0
:100060000C9432010C9432010C94550A0C94320118
:100070000C94F20F0C9428100C9432010C94320161
:100080000C9432010C9432010C94320100407A102D
:10009000F35A00A0724E18090010A5D4E80000E839
:1000A0007648170000E40B54020000CA9A3B000097
:1000B00000E1F505000080969800000040420F0026
:1000C0000000A08601000000102700000000E803E7
:1000D000000000006400000000000A0000000000B2
:1000E0000100000000002C76D888DC674F0823DF71
:1000F000C1DFAE59E1B1B796E5E3E453C63AE65144
:10010000997696E8E6C28426EB898C9B62ED407C6A
:100110006FFCEFBC9C9F40F2BAA56FA5F490055A06
:100120002AF75C936B6CF9676DC11BFCE0E40D472B
:10013000FEF520E6B500D0ED902E0300943577054E
:100140000080841E080000204E0A000000C80C3306
:100150003333330F986E12831141EF8D2114893B95
:10016000E65516CFFEE6DB18D1844B381BF77C1D15
:10017000901DA4BBE424203284725E228100C9F168
:1001800024ECA1E53D270000000203000A0B00005B
:100190000000050409080000000000000000000045
:1001A000000000000000010204081020408001024D
:1001B0000408102040800102040810204080010241
:1001C000040810204080020202020202020204041B
:1001D00004040404040403030303030303030101ED
:1001E0000101010101010000200023002600290077
:1001F00000002200250028002B0000002100240020
:1002000027002A009601CC073309C50F5C10A60110
:1002100011241FBECFEFD0E4DEBFCDBF11E0A0E0C0
:10022000B1E0E6ECF6E300E00BBF02C007900D92F0
:10023000A03AB107D9F723E0A0EAB1E001C01D92CE
:10024000A23DB207E1F711E0C7E0D1E004C0219779
:10025000FE010E944916C230D107C9F70E94F6126A
:100260000C94561B0C940000DC01ED91FC91019064
:10027000F081E02D0994982F92959F708F702AE05D
:10028000929F800D11240895833059F150F48130EC
:1002900089F08230F1F064E670E080E090E00C9448
:1002A0007813853009F440C040F161E0863099F759
:1002B00084E10DC061E086E00E94261461E085E0E3
:1002C0000E94261485B18E6085B960E084E00C94AC
:1002D000621461E084E00E94621485B1817F85B977
:1002E000089526E040E051EE60E070E088E293E09F
:1002F0000E94F00E61E08AE1EACF60E08AE10E94AC
:10030000621488E293E00E94480F61E08AE00E9454
:10031000261460E08AE00E94621461E08BE00E9493
:10032000261460E08AE0D3CF60E0C2CF65E171E0DF
:100330008FEB91E00E946F1181EB91E00E94790BAD
:1003400061E271E085EA91E00C946F1185EA91E039
:100350000E9400118FEB91E00C940011CF93DF937A
:1003600061E570E087EC91E00E94B20870E060E027
:1003700087EC91E00E94340187EC91E00E94300903
:1003800046E050E061E570E087EC91E00E942D09C5
:1003900087EC91E00E94DD070E943B018093A00161
:1003A00087EC91E00E94DD078F770E943B01D82FF8
:1003B00087EC91E00E94DD078F770E943B01C82FF8
:1003C00087EC91E00E94DD070E943B0190E0B0E0E5
:1003D000A0E08093A1019093A201A093A301B09308
:1003E000A40187EC91E00E94DD070E943B0124E616
:1003F000829FC0011124092E000CAA0BBB0B409157
:10040000A1015091A2016091A3017091A401840FF8
:10041000951FA61FB71F8093A1019093A201A093DF
:10042000A301B093A40187EC91E00E94DD070E9434
:100430003B0140E157E2849F9001859F300D1124DC
:10044000032E000C440B550B8091A1019091A20149
:10045000A091A301B091A401280F391F4A1F5B1F6F
:10046000A0E1BEE00E946116AB01BC012CE3C29F7B
:10047000C0011124092E000CAA0BBB0B8D0F911D7E
:10048000A11DB11D840F951FA61FB71F8093A10149
:100490009093A201A093A301B093A401DF91CF9107
:1004A0000895EF92FF920F931F93CF93DF93CDB7F1
:1004B000DEB764970FB6F894DEBF0FBECDBF61E024
:1004C00081E00E94261461E082E00E94261461E02F
:1004D00083E00E94261461E08AE10E94261461E014
:1004E00084E10E94261461E084E00E94261461E009
:1004F00085E00E94261461E086E00E94261461E0F7
:1005000087E00E94261461E080E00E94261482E0C9
:100510000E94440184E00E94440186E00E9444015C
:1005200040EA56E861E070E087EC91E00E94A408A0
:1005300026E040E052EC61E070E08BE892E00E943F
:10054000F00E60E371E08BE892E00E94E9106EE14A
:1005500070E080E090E00E9478138EE0E7E0F1E048
:10056000DE01119601900D928A95E1F7CE01019678
:100570007C018E01015F1F4FF70161917F0188E2CD
:1005800093E00E94A90E0E151F05B1F78091060198
:10059000F0E48F9FC0011124806180937C008091E2
:1005A0007A00846080937A0080917A0082608093E0
:1005B0007A0080917A00816080937A0061E087E11F
:1005C0000E94261460E087E10E94621460E080E0EF
:1005D0000E94621495E0E92EF12C62E370E080E065
:1005E00090E00E94781361E087E10E94621462E368
:1005F00070E080E090E00E94781360E087E10E9464
:10060000621421E0E21AF10841F761E570E087EC3D
:1006100091E00E94B20863E287EC91E00E94360804
:1006200060E087EC91E00E94360860E087EC91E0A2
:100630000E94360865E087EC91E00E94360860E091
:1006400087EC91E00E94360860E087EC91E00E9420
:10065000360867E987EC91E00E94360860E087EC95
:1006600091E00E94360860E087EC91E00E94360835
:1006700087EC91E00E94300961E570E087EC91E041
:100680000E94B2086FE270E087EC91E00E943401B2
:100690006CE270E087EC91E00E94340187EC91E01D
:1006A0000E94300961E570E087EC91E00E94B20899
:1006B00068E270E087EC91E00E94340167E970E045
:1006C00087EC91E00E94340187EC91E00E943009B0
:1006D00061E570E087EC91E00E94B20860E087EC91
:1006E00091E00E94360860E087EC91E00E943608B5
:1006F00060E087EC91E00E94360860E087EC91E0D2
:100700000E94360860E087EC91E00E94360860E0C5
:1007100087EC91E00E94360860E087EC91E00E944F
:10072000360887EC91E00E94300969E371E0CE0160
:1007300001960E946F116FEB71E0CE0101960E944D
:10074000C81268E671E00E94DB1265EA71E00E945F
:10075000C81268E671E00E94DB12BC01C8010E9469
:100760002B12CE0101960E94001181E10E9490148B
:10077000892B09F479C068E570E087EC91E00E946C
:10078000B20868E070E087EC91E00E94340170E00C
:1007900060E087EC91E00E94340187EC91E00E94D8
:1007A000300940E168E587EC91E00E942A0980E188
:1007B000F82E87EC91E00E94DD07E82E8FE08E1581
:1007C00028F06EE271E0C8010E94A61240E16E2D91
:1007D000CE0101960E948E11BE016F5F7F4FC8014E
:1007E0000E949F12CE0101960E9400118091B901D2
:1007F0009091BA01A091BB01B091BC018E0D911DE9
:10080000A11DB11D8093B9019093BA01A093BB01C2
:10081000B093BC01FA94F110CCCF62E471E08BE8A4
:1008200092E00E94E910B8018BE892E00E94D71094
:100830001092B0011092AF011092AE011092AD0172
:100840001092AC011092AB01C8010E940011649695
:100850000FB6F894DEBF0FBECDBFDF91CF911F91D1
:100860000F91FF90EF90089568E571E0C8010E9434
:10087000A612D3CF2F923F924F925F926F927F92A8
:100880008F929F92AF92BF92CF92DF92EF92FF92A0
:100890000F931F93CF93DF93CDB7DEB7CC53DC40DC
:1008A0000FB6F894DEBF0FBECDBF6EE971E0CE018A
:1008B0008F52984F0E946F1181E10E949014892BF2
:1008C00009F4D3C20E94AE016BE471E0CE018F52F5
:1008D000984F0E94A6126091BD017091BE014AE03E
:1008E000CE0101960E94BB11BE016F5F7F4FCE010A
:1008F0008F52984F0E949F12CE0101960E940011C4
:1009000068E671E0CE018F52984F0E94A612409186
:10091000A1015091A2016091A3017091A4012AE06C
:10092000CE0101960E94E711BE016F5F7F4FCE019D
:100930008F52984F0E949F12CE0101960E94001183
:1009400067E371E0CE018F52984F0E94A6124AE0F1
:100950006091A001CE0101960E948E11BE016F5FD1
:100960007F4FCE018F52984F0E949F12CE01019669
:100970000E94001168E671E0CE018F52984F0E94EC
:10098000A61267EC71E081EB91E00E94BF0B64E579
:1009900071E0882309F46BC281EB91E00E940F0C97
:1009A000AB01BC0122E0CE0101960E944312BE01C0
:1009B0006F5F7F4FCE018F52984F0E949F12CE01E2
:1009C00001960E94001168E671E0CE018F52984FA7
:1009D0000E94A61281EB91E00E94740CAB01BC0155
:1009E00022E0CE0101960E944312BE016F5F7F4F4D
:1009F000CE018F52984F0E949F12CE0101960E9405
:100A00000011CE018F52984F0E94001183E00E9486
:100A100044016EE971E0CE018F52984F0E946F1130
:100A2000C12CD12C760110E000E088E293E00E9416
:100A3000100E892B09F435C288E293E00E942A0E39
:100A4000843209F01AC21F5F153108F41FC20E94D8
:100A5000AE0163E671E0CE018F52984F0E94A6125C
:100A60004091A1015091A2016091A3017091A40154
:100A70002AE0CE0101960E94E711BE016F5F7F4F11
:100A8000CE018F52984F0E949F12CE0101960E9474
:100A9000001167E371E0CE018F52984F0E94A612B9
:100AA0004AE06091A001CE0101960E948E11BE0124
:100AB0006F5F7F4FCE018F52984F0E949F12CE01E1
:100AC00001960E94001184E00E944401BE016F5211
:100AD000784F8BE892E00E94D710CE018F52984F4A
:100AE0000E94001152E3C52ED12C332433946FE9B8
:100AF000262E8E010F5C134F35B88091060182952A
:100B0000880F880F807C80937C0024B882E090E07E
:100B10000E94B1138EE984B988E090E00E94B1137D
:100B20005E0197E4A91A94EFB90A4501F401119204
:100B300011924F010E171F07C9F71092B0011092C2
:100B4000AF01412C512C3201F12CE12C80917A0023
:100B5000806480937A0084E190E00E94B11324B80D
:100B600082E090E00E94B113FEE9F4B980917A002E
:100B700084FFFCCF809178008093B8018091790048
:100B80008093B70180917A00806180937A00909180
:100B9000B7018091B8019093B6018093B50185307B
:100BA000910508F08DC1880F991FF501E80FF91F15
:100BB000808191810196918380838FEF481A580A32
:100BC000680A780A90EA491696E8590691E069069B
:100BD000710409F0BBCF6EE971E0CE01895C934FDF
:100BE0000E946F1181E10E949014892B09F499C130
:100BF0000E94AE016AE671E0CE01895C934F0E94CB
:100C0000A6126091BD017091BE014AE0C8010E9428
:100C1000BB11B801CE01895C934F0E949F12C8019D
:100C20000E94001168E671E0CE01895C934F0E943A
:100C3000A6124091A1015091A2016091A30170916F
:100C4000A4012AE0C8010E94E711B801CE01895C25
:100C5000934F0E949F12C8010E94001167E371E048
:100C6000CE01895C934F0E94A6124AE06091A001D8
:100C7000C8010E948E11B801CE01895C934F0E9479
:100C80009F12C8010E94001168E671E0CE01895CE4
:100C9000934F0E94A61267EC71E081EB91E00E94F5
:100CA000BF0B64E571E0882309F43DC181EB91E05D
:100CB0000E940F0CAB01BC0122E0C8010E9443124C
:100CC000B801CE01895C934F0E949F12C8010E9417
:100CD000001168E671E0CE01895C934F0E94A61274
:100CE00081EB91E00E94740CAB01BC0122E0C801D1
:100CF0000E944312B801CE01895C934F0E949F125B
:100D0000C8010E94001168E671E0CE01895C934F32
:100D10000E94A6126091AF017091B0014AE0C80133
:100D20000E94BB11B801CE01895C934F0E949F12B3
:100D3000C8010E94001168E671E0CE01895C934F02
:100D40000E94A612F501619171915F014AE0C8010C
:100D50000E94BB11B801CE01895C934F0E949F1283
:100D6000C8010E940011A814B90429F78091BD019F
:100D70009091BE0101969093BE018093BD0161E008
:100D800087E10E946214BE01695C734F8BE892E0B8
:100D90000E94D71060E087E10E946214CE01895C56
:100DA000934F0E94001161E771E0CE01895C934F7F
:100DB0000E946F114AE0B701C8010E94BB11B8013F
:100DC000CE01895C934F0E949F12C8010E940011BE
:100DD000F5EFEF16F1E0FF0620F084EFE82EFF2498
:100DE000F3949E012F5F3F4F4901CE018F52984FE0
:100DF0003C01B12CA12CEA14FB0409F49AC068E66A
:100E000071E0CE01895C934F0E94A612F4014191DA
:100E10005191619171914F012AE0C8010E94E7113F
:100E2000B801CE01895C934F0E949F12C8010E94B5
:100E3000001168E671E0CE01895C934F0E94A61212
:100E4000F301619171913F014AE0C8010E94BB1119
:100E5000B801CE01895C934F0E949F12C8010E9485
:100E60000011FFEFAF1ABF0AC6CF6CE571E0CE01EB
:100E70008F52984F0E94A612C4CD153108F0E7CDCD
:100E8000C12CD12C7601002309F4CFCD682FCE01DF
:100E90008F52984F0E94B512C12CD12C760101E0DF
:100EA000C4CD2FEFC21AD20AE20AF20A31E6C31603
:100EB0003EEAD3063AE0E306F10408F4B6CD03CEE9
:100EC0002091AF013091B0012F5F3F4F3093B001BF
:100ED0002093AF018C33910508F465CE24EFE21620
:100EE00021E0F206D0F4F701EE0FFF1FEE0FFF1F17
:100EF00021E030E02C0F3D1FE20FF31F40825182B2
:100F000062827382F701EE0FFF1F21ED37E02C0F95
:100F10003D1FE20FF31F918380833FEFE31AF30A33
:100F20004CCE6CE571E0CE01895C934F0E94A61215
:100F3000EACE61E087E10E946214BE01695C734FF2
:100F40008BE892E00E94D71060E087E10E94621473
:100F5000CE01895C934F0E94001121E0C21AD10892
:100F600009F0CACDC45CD34F0FB6F894DEBF0FBEF4
:100F7000CDBFDF91CF911F910F91FF90EF90DF9048
:100F8000CF90BF90AF909F908F907F906F905F9029
:100F90004F903F902F900895E5ECF1E080E580833D
:100FA00081E08183089590E080E008958091FB01C5
:100FB0009091FC01891B990B08959091FC018091FF
:100FC000FB012FEF3FEF981748F4E92FF0E0E350D3
:100FD000FE4F208130E09F5F9093FC01C90108958E
:100FE000E091FC018091FB01E81730F4F0E0E35060
:100FF000FE4F808190E008958FEF9FEF0895089550
:10100000CF93DF93EC01E091D301F091D4013097BD
:10101000F1F09091FC018091FB019817C0F090E0F5
:10102000292F30E02617370754F4DE01A20FB31F33
:101030004C9123503E4FD9014C939F5FF1CF1092BA
:10104000FC016093FB01CB01DF91CF910994DF910B
:10105000CF910895E091D501F091D601309729F014
:101060001092D9011092D80109940895CF93DF937B
:101070001F92CDB7DEB769832091D7012223F9F003
:101080002091D801203258F021E030E0FC01338378
:10109000228390E080E00F90DF91CF9108958091BE
:1010A000D901E82FF0E0E652FE4F998190838F5FDF
:1010B0008093D9018093D80181E090E0ECCF61E08A
:1010C000CE0101960E94140AF7CFCF92DF92EF92E1
:1010D000FF920F931F93CF93DF937C01CB018A0183
:1010E0002091D701222389F0EB016B01C40ED51E9C
:1010F000CC15DD0569F06991D701ED91FC91019066
:10110000F081E02DC7010995F3CF642F0E94140AE6
:10111000C801DF91CF911F910F91FF90EF90DF9069
:10112000CF9008951092FC011092FB011092D9010A
:101130001092D8010E9444098AE298E00E94400A75
:1011400080E098E00C943B0ACB01BA010C94620950
:1011500081E08093D7016093FA011092D901109237
:10116000D80108950C94A8080F93062F21E0409110
:10117000D8016AED71E08091FA010E94BD091092D8
:10118000D9011092D8011092D7010F9108954F9272
:101190005F926F927F92AF92BF92CF92EF92FF9247
:1011A0000F931F93CF93DF935C01F62ED42F28016A
:1011B0003901EE2019F10E94A808CE2DC43008F0A4
:1011C000C3E0C150B8F028E0C29FC0011124A301C0
:1011D000920104C056954795379527958A95D2F781
:1011E000B901D501ED91FC910190F081E02DC5018F
:1011F0000995E7CF60E0C5010E94B4084D2FD132B8
:1012000008F040E22C2D6DEF71E08F2D0E947509E2
:101210001092FC018093FB01DF91CF911F910F9100
:10122000FF90EF90CF90BF90AF907F906F905F90C6
:101230004F900895CF92EF920F931F93C22EE12CFF
:1012400000E010E098010E94C7081F910F91EF90F5
:10125000CF90089521E00C941A0921E00C941A090A
:1012600061E00C94B408E7ECF1E01382128288EE9E
:1012700093E0A0E0B0E084839583A683B7838CE7F6
:1012800091E091838083089510928A0281E0809397
:1012900088021092870261E081E10E94621461E09D
:1012A00080E10E946214E9EBF0E080818E7F808310
:1012B00080818D7F808388E48093B80085E480936B
:1012C000BC0008959B01AC0160E074E284EF90E003
:1012D0000E94271620513109410951095695479519
:1012E000379527952093B8000895413208F043C000
:1012F00090918A029111FCCF91E090938A02209301
:1013000088022FEF20931D0210926202240F209377
:1013100061029093890290918902880F892B8093B2
:10132000890280918702813009F5109287028091AD
:1013300089028093BB008091BC0083FDF8CF85ECCF
:101340008093BC0080918A028130E1F38091620237
:10135000841710F440916202A3E6B2E0962FFB01DD
:101360008E2F891B841720F0842F089585EEE8CFF7
:101370008D918193F5CF40E0F7CF0F93413208F084
:101380004BC090918A029111FCCF92E090938A0217
:10139000009388029FEF90931D0210926202409387
:1013A0006102362FA3E6B2E0FB019E2F931B941738
:1013B00070F11092890290918902880F892B809395
:1013C000890280918702813029F5109287028091ED
:1013D00089028093BB008091BC0083FDF8CF85EC2F
:1013E0008093BC00222321F080918A028230D1F3C5
:1013F00080911D028F3F91F080911D02803281F01B
:1014000080911D02803371F084E00F9108959191D5
:101410009D93CBCF85EEE4CF81E0F7CF80E0F5CF91
:1014200082E0F3CF83E0F1CF20913F02260F3327F4
:10143000331F21323105ECF420918A02FC0190E047
:1014400080E0243069F082E00895A0913F0221916C
:10145000AC014F5B5D4FA40FB52FB11D2C930196CE
:10146000861798F380913F02680F60933F0280E0F7
:10147000089581E0089590938402809383020895F3
:101480009093860280938502089585ED8093BC0039
:101490008091BC0084FDFCCF10928A02089585ECF7
:1014A0008093BC0010928A0208951F920F920FB68B
:1014B0000F9211240BB60F922F933F934F935F938C
:1014C0006F937F938F939F93AF93BF93EF93FF930C
:1014D0008091B900887F803609F44EC008F041C081
:1014E000883209F4AAC028F5803109F49EC0C8F4F6
:1014F000882309F4FBC0883009F497C0FF91EF916D
:10150000BF91AF919F918F917F916F915F914F911B
:101510003F912F910F900BBE0F900FBE0F901F9019
:101520001895883109F489C0803241F780931D02F3
:1015300015C0803409F49EC048F48033B9F3883371
:10154000E9F680931D020E944F0AD8CF803509F436
:1015500085C0883509F496C0883481F60E94450A12
:10156000CDCF883909F48CC038F5883729F050F48C
:10157000883611F0803711F683E080938A0210924A
:101580001E0257C0883809F47BC0803919F08038B2
:1015900009F0B4CF80911E02803208F071C0E09152
:1015A0001E0281E08E0F80931E028091BB00F0E04E
:1015B000E15EFD4F80833DC0803B39F0E0F4803A2E
:1015C00009F479C0883A09F099CF84E080938A02BF
:1015D0001092400210923F02E0918502F091860243
:1015E000099580913F0281110FC081E080933F02F5
:1015F0001092410209C0803C09F476C0883C09F48D
:1016000073C0883B09F07ACFE091400281E08E0FF1
:1016100080934002F0E0EF5BFD4F80818093BB0040
:101620009091400280913F0229C08091890280936D
:10163000BB0085EC8093BC0061CF909162028091E9
:101640006102981758F5E091620281E08E0F809355
:101650006202F0E0ED59FD4F8081E9CFE091620236
:1016600081E08E0F809362028091BB00F0E0ED5923
:10167000FD4F808390916202809161029817C8F2B9
:1016800085E8D8CFE091620281E08E0F80936202FC
:101690008091BB00F0E0ED59FD4F8083809188027E
:1016A00081115CCF81E08093870284EA8093BC0043
:1016B00010928A0223CF0E944F0A80911E0280322C
:1016C00030F4E0911E02F0E0E15EFD4F1082609187
:1016D0001E0270E0E0918302F09184028FE192E0BB
:1016E000099510921E020ACF85ECE0CF10921D02E0
:1016F00035CFFC01118210820895EF920F931F9352
:10170000CF93DF931F92CDB7DEB76983E12C01E061
:1017100010E09E012F5F3F4F41E050E0B901FC0116
:10172000808191810E94DE0D89810F90DF91CF91A0
:101730001F910F91EF900895EF92FF920F931F93D7
:10174000CF93DF9300D0CDB7DEB769834A83F12C06
:10175000E12C10E000E021E042E050E0BE016F5FCC
:101760007F4FFC01808191810E94150D0F900F9099
:10177000DF91CF911F910F91FF90EF900895EF921D
:10178000FF920F931F93CF93DF93EC017B0188812E
:101790009981009721F066E070E00E94071386E0CF
:1017A00090E00E9405138C01A70160E60E94D50C11
:1017B0001983088361E0C8010E94FD0C182F811174
:1017C00009C010E0812FDF91CF911F910F91FF9001
:1017D000EF9008956CE0CE010E947D0B843C89F768
:1017E00044E066E2CE010E949C0B66E2CE010E94BC
:1017F0007D0B82FF07C06AE070E080E090E00E940D
:101800007813F3CF88EB8B8348EB66E2CE010E941E
:101810009C0B47E063E1CE010E949C0BD3CFCF929B
:10182000DF92EF920F931F93CF93DF9300D000D0FE
:101830001F92CDB7DEB76C0166E2C6010E947D0B38
:1018400081FF07C06AE070E080E090E00E947813BA
:10185000F3CFF60143814F774260438366E2C601CE
:101860000E949C0B60E0C6010E947D0B82FD07C0B8
:101870006AE070E080E090E00E947813F3CF81E0AE
:1018800089831A821B821C821D82E12C05E010E0F4
:101890009E012F5F3F4F41E050E0B901F60180818A
:1018A00091810E94DE0D29816A8170E090E080E0E4
:1018B000982F872F762F6627822B2B81622B0E94F1
:1018C0002C1520E030E048EC55E40E94BA140F904B
:1018D0000F900F900F900F90DF91CF911F910F916C
:1018E000EF90DF90CF900895CF92DF92EF920F9319
:1018F0001F93CF93DF9300D000D01F92CDB7DEB7F8
:101900006C0166E2C6010E947D0B81FF07C06AE0A0
:1019100070E080E090E00E947813F3CFF6014381FD
:101920004260438366E2C6010E949C0B60E0C601F0
:101930000E947D0B83FD07C06AE070E080E090E0CC
:101940000E947813F3CF81E089831A821B821C8264
:101950001D82E12C05E010E09E012F5F3F4F41E02A
:1019600050E0B901F601808191810E94DE0D6C8109
:101970007D81762767277627072E000C880B990B29
:101980000E942E1520E030E040E85BE30E94BA158B
:101990000F900F900F900F900F90DF91CF911F91AC
:1019A0000F91EF90DF90CF900895FC0160835283F8
:1019B0004183138280E290E0958384830895CF93DE
:1019C000DF93EC018B81882381F0688189819A8182
:1019D0000E94A80889819A810E94300991E08111B2
:1019E00090E0892FDF91CF91089561E0CE010E94B0
:1019F000FD0C982F8111E9CFF4CF1F93CF93DF9384
:101A0000EC01162F89819A810E94920881E08B83D4
:101A1000112331F0CE01DF91CF911F910C94DF0C97
:101A200081E0DF91CF911F9108958F929F92BF9295
:101A3000CF92DF92EF92FF920F931F93CF93DF939A
:101A4000DA01AE0DBF1DEC01EC81FD81EA17FB0749
:101A500010F490E021C0B22E6A014B0168818981A7
:101A60009A810E94A808E114F10419F589819A81EC
:101A7000DC01ED91FC910280F381E02DA601B4011F
:101A80000995C816D90629F76B2D89819A810E947C
:101A9000B40891E08111DDCF892FDF91CF911F91A3
:101AA0000F91FF90EF90DF90CF90BF909F908F901D
:101AB000089501151105D1F289819A81DC01ED911A
:101AC000FC910280F381E02DA701B80109958E15E4
:101AD0009F0509F0BECFCACFCF92DF92EF92FF925F
:101AE0000F931F93CF93DF937C016B018A01DC017D
:101AF0006C9111968D919C910E941A098017110684
:101B000091F4E6010C0D1D1DC017D107B1F0F701CE
:101B100081819281DC01ED91FC910284F385E02DBD
:101B200009958993F1CF80E0DF91CF911F910F91BB
:101B3000FF90EF90DF90CF90089581E0F5CF9F92D6
:101B4000AF92BF92CF92DF92EF92FF920F931F93CB
:101B5000CF93DF936C015B017A01922ED0E0C0E05D
:101B6000CE15DF05F0F4F6018481958187010C1B09
:101B70001D0B8017910708F48C01C701801B910B86
:101B800020E0C817D90708F0292DA801B5016C0F6E
:101B90007D1FC6010E946C0D882321F0C00FD11F4C
:101BA000DFCF81E0DF91CF911F910F91FF90EF90F8
:101BB000DF90CF90BF90AF909F900895AF92BF926B
:101BC000CF92DF92EF92FF920F931F93CF93DF9309
:101BD000EC01690158012E2DF12CE12C10E000E000
:101BE0000E94150D882381F021E0A501B601CE01E8
:101BF000DF91CF911F910F91FF90EF90DF90CF90E9
:101C0000BF90AF900C949F0D80E0DF91CF911F911A
:101C10000F91FF90EF90DF90CF90BF90AF9008951D
:101C2000FC01918D228D892F90E0805C9F4F821B5B
:101C300091098F7399270895FC01918D828D9817D2
:101C400031F0828DE80FF11D858D90E008958FEFC2
:101C50009FEF0895FC01918D828D981761F0A28D00
:101C6000AE0FBF2FB11D5D968C91928D9F5F9F73BC
:101C7000928F90E008958FEF9FEF0895FC01538DB0
:101C8000448D252F30E0842F90E0821B930B541756
:101C900010F0CF960895019708958BEB9FE0892B64
:101CA00049F080E090E0892B29F00E94BB0F811160
:101CB0000E94000082E590E1892B49F080E090E0ED
:101CC000892B29F00E94521081110C940000089574
:101CD000FC01A48DA80FB92FB11DA35ABF4F2C91A1
:101CE000848D90E001968F739927848FA689B78998
:101CF0002C93A089B1898C9180648C93938D848D71
:101D0000981306C00288F389E02D80818F7D80833F
:101D10000895CF93DF93EC01888D8823B9F0AA89C9
:101D2000BB89E889F9898C9185FD03C0808186FD96
:101D30000DC00FB607FCF7CF8C9185FFF2CF8081E5
:101D400085FFEDCFCE010E94680EE9CFDF91CF91E4
:101D50000895EF92FF920F931F93CF93DF93EC01BF
:101D600081E0888F9B8D8C8D981316C0E889F98946
:101D7000808185FF11C0EE89FF896083E889F98938
:101D800080818064808381E090E0DF91CF911F911A
:101D90000F91FF90EF900895F62E0B8D10E00F5FDE
:101DA0001F4F0F731127E02E8C8D8E110CC00FB6B4
:101DB00007FCFACFE889F989808185FFF5CFCE014C
:101DC0000E94680EF1CFEB8DEC0FFD2FF11DE35A51
:101DD000FF4FF0820B8FEA89FB8980818062D2CF2E
:101DE000CF92DF92EF92FF921F93CF93DF93EC019C
:101DF0006A017B01122FE889F98982E08083C1148E
:101E000081EED806E104F104A1F060E079E08DE311
:101E100090E0A70196010E9427162150310941093F
:101E200051095695479537952795211580E1380733
:101E300098F0E889F989108260E874E88EE190E012
:101E4000A70196010E942716215031094109510925
:101E50005695479537952795EC85FD853083EE851A
:101E6000FF852083188EEC89FD891083EA89FB8920
:101E7000808188698083EA89FB8980818F7D808366
:101E8000DF91CF911F91FF90EF90DF90CF90089559
:101E9000CF93DF93EC01E881F9810680F781E02D93
:101EA0000995EA89FB898081877480838A8D898F6F
:101EB000DF91CF9108951F920F920FB60F921124C8
:101EC0000BB60F922F938F939F93EF93FF93E09115
:101ED0009B02F0919C028081E091A102F091A2020C
:101EE00082FD1DC090818091A4028F5F8F7320912D
:101EF000A502821741F0E091A402F0E0E557FD4F02
:101F0000958F8093A402FF91EF919F918F912F91D4
:101F10000F900BBE0F900FBE0F901F9018958081F1
:101F2000F2CF1F920F920FB60F9211240BB60F92A1
:101F30002F933F934F935F936F937F938F939F93D1
:101F4000AF93BF93EF93FF938BE892E00E94680EEC
:101F5000FF91EF91BF91AF919F918F917F916F9181
:101F60005F914F913F912F910F900BBE0F900FBE3D
:101F70000F901F9018958BE892E00E94100E21E0C0
:101F8000892B09F420E0822F0895EBE8F2E0138218
:101F9000128288EE93E0A0E0B0E084839583A6836C
:101FA000B7838EE891E09183808385EC90E09587FC
:101FB000848784EC90E09787868780EC90E0918B13
:101FC000808B81EC90E0938B828B82EC90E0958B00
:101FD000848B86EC90E0978B868B118E128E138EFD
:101FE000148E08951F920F920FB60F9211240BB604
:101FF0000F922F938F939F93EF93FF93E09138036A
:10200000F09139038081E0913E03F0913F0382FD1E
:102010001DC09081809141038F5F8F732091420397
:10202000821741F0E0914103F0E0E85DFC4F958FAD
:1020300080934103FF91EF919F918F912F910F908A
:102040000BBE0F900FBE0F901F9018958081F2CF9E
:102050001F920F920FB60F9211240BB60F922F936F
:102060003F934F935F936F937F938F939F93AF9320
:10207000BF93EF93FF9388E293E00E94680EFF9175
:10208000EF91BF91AF919F918F917F916F915F91F0
:102090004F913F912F910F900BBE0F900FBE0F905D
:1020A0001F90189588E293E00E94100E21E0892B82
:1020B00009F420E0822F0895E8E2F3E0138212820F
:1020C00088EE93E0A0E0B0E084839583A683B78395
:1020D0008EE891E0918380838DEC90E095878487F2
:1020E0008CEC90E09787868788EC90E0918B808BD2
:1020F00089EC90E0938B828B8AEC90E0958B848BBB
:102100008EEC90E0978B868B118E128E138E148E30
:102110000895AF92BF92CF92DF92EF92FF920F930A
:102120001F93CF93DF936C017B018B01040F151F6D
:10213000EB015E01AE18BF08C017D10759F06991D5
:10214000D601ED91FC910190F081E02DC601099539
:10215000892B79F7C501DF91CF911F910F91FF90E6
:10216000EF90DF90CF90BF90AF900895FB0101906A
:102170000020E9F73197AF01461B570BDC01ED91C9
:10218000FC910280F381E02D0994DB0114964D91BE
:102190005C9115976D917C91DC01ED91FC91028031
:1021A000F381E02D09946CE971E00C94B6100F9363
:1021B0001F93CF93DF93EC010E94C5108C01CE01D9
:1021C0000E94D310800F911FDF91CF911F910F912B
:1021D00008950F931F93CF93DF938C01D0E0C0E05D
:1021E0006115710519F00E94B610EC01C8010E943A
:1021F000D3108C0F9D1FDF91CF911F910F910895E8
:10220000FC01808191810C942617CF93DF93EC0120
:1022100088819981009711F00E94261719821882EF
:102220001D821C821B821A82DF91CF9108950F9329
:102230001F93CF93DF93EC018B016F5F7F4F8881FA
:1022400099810E94AF17009751F0998388831B836F
:102250000A8381E0DF91CF911F910F91089580E073
:10226000F9CFCF93DF93EC0188819981892B49F0D5
:102270008A819B818617970720F081E0DF91CF91BB
:102280000895CE010E9417118823C1F38C819D818E
:10229000892B99F7E881F9811082EFCFEF92FF92B5
:1022A0000F931F93CF93DF93EC017B018A01BA0157
:1022B0000E94311181110BC0CE010E940511CE0187
:1022C000DF91CF911F910F91FF90EF9008951D83A3
:1022D0000C83B701888199810E949918F0CFFC0185
:1022E0001182108213821282158214826115710587
:1022F00051F0FB0101900020E9F73197AF01461B37
:10230000570B0C944E110895FB0101900020E9F742
:102310003197AF01461B570B0C944E110F931F932F
:10232000CF93DF93CDB7DEB729970FB6F894DEBF12
:102330000FBECDBF8C01862FF8011182108213824F
:1023400012821582148250E0BE016F5F7F4F90E0D1
:102350000E94CD18BE016F5F7F4FC8010E9484119B
:1023600029960FB6F894DEBF0FBECDBFDF91CF9197
:102370001F910F9108950F931F93CF93DF93CDB7C4
:10238000DEB761970FB6F894DEBF0FBECDBF8C01EC
:10239000CB01F801118210821382128215821482FD
:1023A00050E0BE016F5F7F4F0E94CD18BE016F5F8E
:1023B0007F4FC8010E94841161960FB6F894DEBF6A
:1023C0000FBECDBFDF91CF911F910F9108950F9355
:1023D0001F93CF93DF93CDB7DEB7A1970FB6F894D5
:1023E000DEBF0FBECDBF8C01CB01BA01F801118257
:1023F0001082138212821582148230E0AE014F5F88
:102400005F4F0E94A018BE016F5F7F4FC8010E94FE
:102410008411A1960FB6F894DEBF0FBECDBFDF9139
:10242000CF911F910F910895CF93DF93EC01FB01A2
:102430008617970749F0608171816115710541F038
:10244000448155810E944E11CE01DF91CF910895B4
:102450000E940511F9CFFC011182108213821282B1
:10246000158214820C941412CF93DF93EC01611542
:10247000710531F00E948411CE01DF91CF91089552
:102480000E940511F9CFEF92FF920F931F93CF9304
:10249000DF93CDB7DEB7A1970FB6F894DEBF0FBEBE
:1024A000CDBF7C01CB01BA01F701118210821382EA
:1024B00012821582148242E0420F8E010F5F1F4F7D
:1024C0000E946C16BC01C7010E943412A1960FB67F
:1024D000F894DEBF0FBECDBFDF91CF911F910F915A
:1024E000FF90EF900895EF92FF920F931F93CF9379
:1024F000DF936115710541F480E0DF91CF911F9169
:102500000F91FF90EF90089541155105B1F07B01B7
:10251000EC010C811D81040F151FB8010E943111BF
:10252000882351F3288139818C819D81B701820FE5
:10253000931F0E9499181D830C8381E0DECFFB015D
:1025400044815581608171810C947312611571050C
:1025500051F0FB0101900020E9F73197AF01461BD4
:10256000570B0C94731280E00895CF93DF9300D043
:10257000CDB7DEB769831A8241E050E0BE016F5FDC
:102580007F4F0E9473120F900F90DF91CF910895AB
:10259000CF93DF93EC01FB01448155816081718110
:1025A0000E947312811103C0CE010E940511CE0159
:1025B000DF91CF910895CF93DF93EC016115710501
:1025C00039F4CE010E940511CE01DF91CF9108951B
:1025D000FB0101900020E9F73197AF01461B570B33
:1025E0000E947312882369F3EFCF08950E94BC13F1
:1025F0000E94F5120E945102CDE4DEE00E943A04EE
:102600002097E1F30E944D0EF9CF0C948A160C949A
:1026100026171F920F920FB60F9211242F933F93FC
:102620008F939F93AF93BF938091CA039091CB03F5
:10263000A091CC03B091CD033091C90323E0230FC7
:102640002D3768F126E8230F0296A11DB11D2093B6
:10265000C9038093CA039093CB03A093CC03B09398
:10266000CD038091C5039091C603A091C703B0919B
:10267000C8030196A11DB11D8093C5039093C603A5
:10268000A093C703B093C803BF91AF919F918F915F
:102690003F912F910F900FBE0F901F9018950196AC
:1026A000A11DB11DD4CF3FB7F8948091C50390917F
:1026B000C603A091C703B091C80326B5A89B05C067
:1026C0002F3F19F00196A11DB11D3FBFBA2FA92FB1
:1026D000982F8827BC01CD01620F711D811D911DAE
:1026E00042E0660F771F881F991F4A95D1F708951A
:1026F0008F929F92AF92BF92CF92DF92EF92FF9212
:102700006B017C010E9453134B015C01C114D10485
:10271000E104F104E9F00E94B9140E94531368190E
:1027200079098A099B09683E73408105910570F318
:1027300021E0C21AD108E108F10888EE880E83E092
:10274000981EA11CB11CC114D104E104F10429F7A5
:10275000FF90EF90DF90CF90BF90AF909F908F90C1
:1027600008958230910538F0880F991F880F991FBE
:1027700005970197F1F70895789484B5836084BD37
:1027800085B5836085BDEEE6F0E080818160808361
:10279000E1E8F0E082E08083808181608083E0E88E
:1027A000F0E0808181608083E1EBF0E080818460F3
:1027B0008083E0EBF0E0808181608083E1E9F0E0FC
:1027C000808183608083E0E9F0E0808181608083A4
:1027D00087E880937A001092C100089582508A3071
:1027E00088F5E82FF0E0E950FC4E0C9449161F14D0
:1027F000231401140714221422140B141114151499
:102800001B14809180008F778093800008958091C1
:1028100080008F7DF9CF8091B0008F778093B000DA
:1028200008958091B0008F7DF9CF809190008F77CF
:10283000809390000895809190008F7DF9CF84B5AA
:102840008F7784BD089584B58F7DFBCFCF93DF93C1
:1028500090E0FC01EA55FE4F24918A539E4FFC0103
:1028600084918823C9F090E0880F991FFC01E650FD
:10287000FE4FA591B491FC01E051FE4FC591D4915A
:1028800061110DC09FB7F8948C91209582238C9391
:102890008881282328839FBFDF91CF9108956230DC
:1028A00051F49FB7F8943C91822F809583238C93A9
:1028B000E8812E2BEFCF8FB7F894EC912E2B2C9331
:1028C0008FBFEACF1F93CF93DF93282F30E0F9011A
:1028D000EA57FE4F8491F901EA55FE4FD491F90170
:1028E000EA53FE4FC491CC23A9F0162F81110E9408
:1028F000EE13EC2FF0E0EE0FFF1FE051FE4FA5911D
:10290000B4918FB7F894EC91111108C0D095DE23E3
:10291000DC938FBFDF91CF911F910895DE2BF8CF0D
:10292000CF93DF93282F30E0F901EA57FE4F8491CF
:10293000F901EA55FE4FD491F901EA53FE4FC491D3
:10294000CC23A1F081110E94EE13EC2FF0E0EE0FEA
:10295000FF1FEA51FE4FA591B491EC91ED2381E068
:1029600090E009F480E0DF91CF91089580E090E05D
:10297000FACF08950E94CE140C9480150E94791508
:1029800058F00E94721540F029F45F3F29F00C9432
:10299000691551110C94B4150C946F150E94911582
:1029A00068F39923B1F3552391F3951B550BBB277E
:1029B000AA2762177307840738F09F5F5F4F220FC3
:1029C000331F441FAA1FA9F335D00E2E3AF0E0E8BA
:1029D00032D091505040E695001CCAF72BD0FE2F04
:1029E00029D0660F771F881FBB1F26173707480798
:1029F000AB07B0E809F0BB0B802DBF01FF27935850
:102A00005F4F3AF09E3F510578F00C9469150C9495
:102A1000B4155F3FE4F3983ED4F3869577956795B8
:102A2000B795F7959F5FC9F7880F911D9695879584
:102A300097F90895E1E0660F771F881FBB1F6217A3
:102A400073078407BA0720F0621B730B840BBA0B61
:102A5000EE1F88F7E0950895E89409C097FB3EF4CF
:102A600090958095709561957F4F8F4F9F4F9923DB
:102A7000A9F0F92F96E9BB279395F6958795779559
:102A80006795B795F111F8CFFAF4BB0F11F460FF19
:102A90001BC06F5F7F4F8F4F9F4F16C0882311F071
:102AA00096E911C0772321F09EE8872F762F05C085
:102AB000662371F096E8862F70E060E02AF09A9520
:102AC000660F771F881FDAF7880F9695879597F915
:102AD000089597F99F6780E870E060E008959FEFA0
:102AE00080EC089500240A941616170618060906A5
:102AF000089500240A941216130614060506089574
:102B0000092E0394000C11F4882352F0BB0F40F4FB
:102B1000BF2B11F460FF04C06F5F7F4F8F4F9F4F3B
:102B2000089557FD9058440F551F59F05F3F71F0BD
:102B30004795880F97FB991F61F09F3F79F0879524
:102B40000895121613061406551FF2CF4695F1DFAD
:102B500008C0161617061806991FF1CF869571053D
:102B6000610508940895E894BB2766277727CB0171
:102B700097F908950E94CD150C9480150E94721546
:102B800038F00E94791520F0952311F00C94691506
:102B90000C946F1511240C94B4150E94911570F3C8
:102BA000959FC1F3950F50E0551F629FF001729FF2
:102BB000BB27F00DB11D639FAA27F00DB11DAA1F01
:102BC000649F6627B00DA11D661F829F2227B00D4E
:102BD000A11D621F739FB00DA11D621F839FA00DD9
:102BE000611D221F749F3327A00D611D231F849F29
:102BF000600D211D822F762F6A2F11249F57504080
:102C00009AF0F1F088234AF0EE0FFF1FBB1F661FFA
:102C1000771F881F91505040A9F79E3F510580F0C3
:102C20000C9469150C94B4155F3FE4F3983ED4F30B
:102C3000869577956795B795F795E7959F5FC1F767
:102C4000FE2B880F911D9695879597F90895A1E21F
:102C50001A2EAA1BBB1BFD010DC0AA1FBB1FEE1F16
:102C6000FF1FA217B307E407F50720F0A21BB30B61
:102C7000E40BF50B661F771F881F991F1A9469F7DD
:102C800060957095809590959B01AC01BD01CF0139
:102C90000895EE0FFF1F0024001C0BBE0790F69155
:102CA000E02D0994A29FB001B39FC001A39F700DB6
:102CB000811D1124911DB29F700D811D1124911D44
:102CC00008950E945216A59F900DB49F900DA49F49
:102CD000800D911D11240895EF920F931F93CF93B0
:102CE000DF93E80134E047FD34E1042E000C550B7E
:102CF00057FF03C0519541955109E32E022F242F10
:102D0000AE010E94F218CE01DF91CF911F910F9179
:102D1000EF9008950F931F93CF93DF938230910527
:102D200010F482E090E0E091D003F091D10330E024
:102D300020E0B0E0A0E0309799F42115310509F4C6
:102D40004AC0281B390B24303105D8F58A819B8174
:102D50006115710589F1FB0193838283FE0111C026
:102D6000408151810281138148175907E0F04817CB
:102D7000590799F4109761F012960C9312971396D5
:102D80001C933296CF01DF91CF911F910F9108953F
:102D90000093D0031093D103F4CF2115310551F0E6
:102DA0004217530738F0A901DB019A01BD01DF0189
:102DB000F801C1CFEF01F9CF9093D1038093D003F5
:102DC000CDCFFE01E20FF31F819391932250310981
:102DD00039832883D7CF2091CE033091CF03232B83
:102DE00041F420910201309103013093CF032093ED
:102DF000CE0320910001309101012115310541F4EC
:102E00002DB73EB74091040150910501241B350BAD
:102E1000E091CE03F091CF03E217F307A0F42E1B4D
:102E20003F0B2817390778F0AC014E5F5F4F24172E
:102E3000350748F04E0F5F1F5093CF034093CE03EA
:102E4000819391939FCFF0E0E0E09CCFCF93DF930D
:102E50000097E9F0FC01329713821282A091D0030F
:102E6000B091D103ED0130E020E01097A1F4208172
:102E70003181820F931F2091CE033091CF03281709
:102E8000390709F061C0F093CF03E093CE03DF91DF
:102E9000CF910895EA01CE17DF07E8F54A815B81FB
:102EA0009E0141155105B1F7E901FB83EA83499180
:102EB0005991C40FD51FEC17FD0761F480819181F2
:102EC0000296840F951FE9019983888382819381FB
:102ED0009B838A83F0E0E0E012968D919C9113979A
:102EE0000097B9F52D913C911197CD010296820F73
:102EF000931F2091CE033091CF032817390739F65D
:102F0000309751F51092D1031092D003B093CF03B4
:102F1000A093CE03BCCFD383C28340815181840F61
:102F2000951FC817D90761F44E5F5F4F888199815B
:102F3000480F591F518340838A819B8193838283E9
:102F40002115310509F0B0CFF093D103E093D00300
:102F50009ECFFD01DC01C0CF13821282D7CF4F92EA
:102F60005F926F927F928F929F92AF92BF92CF9219
:102F7000DF92EF92FF920F931F93CF93DF938C0119
:102F8000009799F4CB01DF91CF911F910F91FF90A2
:102F9000EF90DF90CF90BF90AF909F908F907F90F9
:102FA0006F905F904F900C948A16FC01E60FF71F0C
:102FB0009C0122503109E217F30708F4AEC0D90191
:102FC000CD91DC911197C617D70720F1C530D105F7
:102FD00078F0CE0104978617970750F0C61BD70BE1
:102FE0002297C193D1936D937C93CF010E942617B2
:102FF000C801DF91CF911F910F91FF90EF90DF906B
:10300000CF90BF90AF909F908F907F906F905F9088
:103010004F9008955B01AC1ABD0A4C018C0E9D1EA9
:10302000A091D003B091D103512C412CF12CE12C73
:10303000109731F58091CE039091CF0388159905B3
:1030400009F05CC04616570608F058C08091000190
:1030500090910101009741F48DB79EB74091040112
:1030600050910501841B950BE817F90708F055C02E
:10307000F093CF03E093CE03F90171836083B8CF5F
:103080008D919C91119712966C90129713967C904B
:103090001397A815B90559F56C0142E0C40ED11C6F
:1030A000CA14DB0420F1AC014A195B09DA0112965B
:1030B000159780F06282738251834083D9016D93AA
:1030C0007C93E114F10471F0D7011396FC93EE9315
:1030D00012978ECF22968C0F9D1FF90191838083CA
:1030E000F301EFCFF093D103E093D00381CF4816E3
:1030F000590608F42C017D01D3019ACFCB010E941F
:103100008A167C01009749F0AE01B8010E94901820
:10311000C8010E94261787016BCF10E000E068CF3E
:10312000FB01DC0102C001900D9241505040D8F7E4
:103130000895FB01DC0101900D920020E1F7089554
:103140002532310520F4223010F00C94AB18FA012E
:103150001082CA010895BB27FA01A62F62177105D4
:1031600081059105330B30FB66F0AA27660F771FA8
:10317000881F991FAA1FA21710F0A21B6395385031
:10318000A9F7A05DAA3308F0A95DA19336F7B111A4
:10319000B1931082CA010C94461B4532510520F4AC
:1031A000423010F00C94D818FB011082CB01089526
:1031B000BB27FB015527AA27880F991FAA1FA41711
:1031C00010F0A41B83955051B9F7A05DAA3308F005
:1031D000A95DA193009779F7B111B1931192CB0139
:1031E0000C94461B8F929F92AF92BF92CF92DF9228
:1031F000EF92FF920F931F93CF93DF93CDB7DEB77C
:1032000029970FB6F894DEBF0FBECDBF6A01F22E2C
:10321000B02E102FFBE3AF2EA01608F41BE31F5FA8
:10322000012F27E0AE014F5F5F4F0E946E1ABC0175
:103230008981982F9970913009F44EC09BE2E1FC8E
:1032400004C09E2D9170E0FC49C05E2D5071E82FA6
:10325000E87083FF55C084E0911101C083E0EF2D39
:10326000E81B8F1508F0E0E0D6018E2F20E25523F1
:10327000C9F1992329F0D6019C93C60101966C01EE
:1032800096012D5F3F4FE2FE33C08EE4D6018C9352
:1032900091E411969C93119712968C93D9018E2FDD
:1032A00090E281112AC0E20FF32FF11D10828EEF00
:1032B0009FEF29960FB6F894DEBF0FBECDBFDF910A
:1032C000CF911F910F91FF90EF90DF90CF90BF9023
:1032D000AF909F908F9008959DE2B7CF90E2B5CFC9
:1032E0002D9381508111FCCFCE0ED11CE0E0C1CFD7
:1032F0008EE6D6018C9391E6CCCF9D938150D1CFB1
:10330000482F447082FF3DC084E0911101C083E0EA
:103310008F1510F4EF2DE81BD6018E2F20E25523D8
:1033200009F1992329F0D6019C93C60101966C01FD
:1033300096012D5F3F4FE2FE1BC089E4D6018C93BE
:103340008EE411968C93119786E412968C93D90192
:103350008E2F90E2882309F4A6CF9D938150FACF57
:103360002D9381508111FCCFCE0ED11CE0E0D9CF3E
:1033700089E6D6018C938EE611968C93119786E69A
:10338000E4CF9B0177FF02C030E020E0A1E0B0E095
:10339000911102C0B0E0A0E0F9013196AE0FBF1F5D
:1033A0008B2C912CBB2009F461C05401EFEFAE1AB5
:1033B000BE0AAA0DBB1DFA161B0619F014F04F2DFC
:1033C0004A1B511188C0E3FC59C07601A42FB0E21A
:1033D000A1114FC0C40ED11C992309F45BC040E079
:1033E000D6011196F60190836D01552309F448C06A
:1033F000012F060F9A81582F507184FF03C091331B
:1034000009F4015010160CF047C0093008F008E02C
:10341000EEE2FE2E5B01A01AB10885019194819421
:1034200091082F3F320729F4D601FC92F60131961C
:103430006F016217730794F1021713077CF5DB0124
:10344000A21BB30BAA24A394B12CAC0EBD1EAA0DD3
:10345000BB1D11968C9121503109D601119628156A
:103460003905F4F0F60180836D01DBCFB12CA12C7E
:10347000A0CFF701B1937F01A150AACF9111B0CF96
:10348000D601942F50E302C05D9391509111FCCF6F
:10349000C40ED11C40E0ACCF01E0BACF80E3DBCF5B
:1034A0006217730731F4963388F4953311F455237A
:1034B00069F0F6018083FD01842F90E2811108C03C
:1034C000A40FB11D1C9290E080E0F3CE81E3F1CF18
:1034D00091938150F3CF911183CF8ACF283008F098
:1034E00027E03327DA01990F311D87FD916000969F
:1034F0006105710539F432602E5F3D9330E32A9502
:10350000E1F708959F3F30F080387105610509F0BB
:103510003C5F3C5F3D93913008F08068911DDF93E4
:10352000CF931F930F93FF92EF92192F987F969549
:10353000E92F96959695E90FFF27EA51FF4F9927B6
:103540003327EE24FF24A701E70105900894079490
:1035500028F4360FE71EF81E491F511D660F771F0E
:10356000881F991F0694A1F70590079428F4E70E89
:10357000F81E491F561FC11D770F881F991F661F10
:103580000694A1F70590079428F4F80E491F561FDA
:10359000C71FD11D880F991F661F771F0694A1F7BB
:1035A0000590079420F4490F561FC71FD81F990F85
:1035B000661F771F881F0694A9F7849110951770CE
:1035C00041F0D695C79557954795F794E7941A9586
:1035D000C1F7ECE8F0E0689415901591359165918C
:1035E000959105907FE27395E118F10A430B560B14
:1035F000C90BD009C0F7E10CF11E431F561FC91FAC
:10360000D01D7EF4703311F48A95E6CFE894015012
:1036100030F0080F0AF40027021708F4202F239532
:10362000022F7A3328F079E37D932A95E9F710C0C9
:103630007D932A9589F60694979567953795179502
:103640001794E118F10A430B560BC90BD00998F0F7
:1036500023957E9173957A3308F070E37C93201361
:10366000B8F77E9170617D9330F0839571E37D931F
:1036700070E32A95E1F71124EF90FF900F911F91CD
:10368000CF91DF91992787FD90950895DC01FC018A
:10369000672F71917723E1F7329704C07C916D9386
:1036A00070836291AE17BF07C8F3089511E0C7E0B9
:1036B000D1E004C0FE010E9449162196C830D1070E
:1036C000C9F7F894FFCF0000D203800003B562066B
:1036D000080600E8030100000000374341525F3153
:1036E0003032345F7630004E614928546C292D44C5
:1036F000313678333000234376616B2E2E2E002432
:10370000414952444F532C0023486D6D6D2E2E2E8F
:1037100000244845414C54482C004E614E2C4E61CB
:103720004E00244572726F72002454494D452C009E
:1037300024484953542C0024484954532C00000079
:10374000000036086508D307FF07D607DD07F00736
:1037500000000000A90E89103E0E890E100E2A0EE0
:063760001C0E0D0A000022
:020000040001F9
:10FC000002C0F3C03BC1112484B790E89093610017
:10FC100010926100882369F0982F9A70923049F011
:10FC200081FF02C097EF94BF282E80E001D10C9491
:10FC3000000085E08093810082E08093C00088E12D
:10FC40008093C10080E18093C40086E08093C2006D
:10FC50008EE0EED0209A84E020E33CEF91E03093F8
:10FC600085002093840096BBB09BFECF189AA89580
:10FC70004091C00047FD02C0815089F7CDD081344A
:10FC800079F4CAD0C82FDAD0C23811F480E004C0A9
:10FC900088E0C13809F083E0B8D080E1B6D0EECF7B
:10FCA000823419F484E1D2D0F8CF853411F485E0A0
:10FCB000FACF853581F4B0D0E82EAED0F82E87FF8C
:10FCC00007C08BB781608BBFEE0CFF1CB7D0E5CFB0
:10FCD0008BB78E7FF8CF863579F49ED08D3451F472
:10FCE0009BD0CBB799D0C170880F8C2B8BBF81E094
:10FCF000ADD0CCCF83E0FCCF843609F045C08CD0AA
:10FD0000C82FD0E0DC2FCC2787D0C82B85D0D82EA9
:10FD10005E01B39400E011E04801EFEF8E1A9E0AF5
:10FD20007BD0F801808384018A149B04A9F786D0D4
:10FD3000F5E410E000E0DF1609F150E040E063E098
:10FD4000C70153D08701C12CDD24D394F601419122
:10FD500051916F0161E0C80148D00E5F1F4F22979B
:10FD6000A9F750E040E065E0C7013FD096CF608141
:10FD7000C8018E0D9F1D02D10F5F1F4FF801F39533
:10FD8000C017D107A1F789CF843701F545D0C82F17
:10FD9000D0E0DC2FCC2740D0C82B3ED0D82E4ED080
:10FDA0008701F5E4DF120BC0CE0DDF1DC801DED0E8
:10FDB0002CD00F5F1F4FC017D107C1F76ECFF801CE
:10FDC00087918F0122D02197D1F767CF853739F4FA
:10FDD00035D08EE11AD087E918D085E05DCF813526
:10FDE00009F074CF88E024D071CFFC010A0167BF0D
:10FDF000E895112407B600FCFDCF667029F0452B6D
:10FE000019F481E187BFE89508959091C00095FFAE
:10FE1000FCCF8093C60008958091C00087FFFCCF7F
:10FE20008091C00084FD01C0A8958091C60008950E
:10FE3000E0E6F0E098E1908380830895EDDF803282
:10FE400019F088E0F5DFFFCF84E1DFCFCF93C82F33
:10FE5000E3DFC150E9F7CF91F1CFCF92DF92EF927C
:10FE6000FF92DC01CB01642F6D01EE24FF24CBBE99
:10FE7000A901FF90EF90DF90CF90B7CF2F923F92E4
:10FE80004F925F926F927F928F929F92AF92BF92AA
:10FE9000CF92DF92EF92FF920F931F93CF93DF9356
:10FEA00000D01F92CDB7DEB71801E9826B017C014B
:10FEB00010E000E029013A014C185D086E087F0847
:10FEC00046015701840C951CA61CB71C021513058E
:10FED00031F489818823A1F188E0AADFFFCF30E0E7
:10FEE00020E043E0C701B601B8DF80E890E09B83E3
:10FEF0008A83ABBEF40127913691C501B401641920
:10FF000075098609970941E0A8DF8A819B810197DD
:10FF10009B838A8392E0890E911CA11CB11C8A816B
:10FF20009B81892B31F730E020E045E0C701B60125
:10FF300094DF9FEFD91AE90AF90A0F5F1F4FC0CF6C
:10FF40000F900F900F90DF91CF911F910F91FF9025
:10FF5000EF90DF90CF90BF90AF909F908F907F9069
:10FF60006F905F904F903F902F900895F999FECF3A
:10FF700092BD81BDF89A992780B50895262FF999E9
:10FF8000FECF1FBA92BD81BD20BD0FB6F894FA9A7C
:08FF9000F99A0FBE01960895D5
:02FFFE000008F9
:00000001FF
