:100000000C9408010C9432010C9432010C943201CE
:100010000C9432010C9432010C9432010C94320194
:100020000C9432010C9432010C9432010C94320184
:100030000C9432010C9432010C9432010C94320174
:100040000C9432010C9432010C9431130C94320153
:100050000C94830F0C94B90F0C9432010C94320160
:100060000C9432010C9432010C945F0A0C9432010E
:100070000C941A100C9450100C9432010C94320110
:100080000C9432010C9432010C94320100407A102D
:10009000F35A00A0724E18090010A5D4E80000E839
:1000A0007648170000E40B54020000CA9A3B000097
:1000B00000E1F505000080969800000040420F0026
:1000C0000000A08601000000102700000000E803E7
:1000D000000000006400000000000A0000000000B2
:1000E0000100000000002C76D888DC674F0823DF71
:1000F000C1DFAE59E1B1B796E5E3E453C63AE65144
:10010000997696E8E6C28426EB898C9B62ED407C6A
:100110006FFCEFBC9C9F40F2BAA56FA5F490055A06
:100120002AF75C936B6CF9676DC11BFCE0E40D472B
:10013000FEF520E6B500D0ED902E0300943577054E
:100140000080841E080000204E0A000000C80C3306
:100150003333330F986E12831141EF8D2114893B95
:10016000E65516CFFEE6DB18D1844B381BF77C1D15
:10017000901DA4BBE424203284725E228100C9F168
:1001800024ECA1E53D270000000203000A0B00005B
:100190000000050409080000000000000000000045
:1001A000000000000000010204081020408001024D
:1001B0000408102040800102040810204080010241
:1001C000040810204080020202020202020204041B
:1001D00004040404040403030303030303030101ED
:1001E0000101010101010000200023002600290077
:1001F00000002200250028002B0000002100240020
:1002000027002A009601D6073D09ED0F8410AC01A6
:1002100011241FBECFEFD0E4DEBFCDBF11E0A0E0C0
:10022000B1E0E6E1F7E300E00BBF02C007900D92FA
:10023000A83CB107D9F724E0A8ECB1E001C01D92B9
:10024000A130B207E1F711E0C7E0D1E004C0219787
:10025000FE010E947116C230D107C9F70E941E1319
:100260000C947E1B0C940000DC01ED91FC9101903C
:10027000F081E02D0994982F92959F708F702AE05D
:10028000929F800D11240895833059F150F48130EC
:1002900089F08230F1F064E670E080E090E00C9448
:1002A000A013853009F440C040F161E0863099F731
:1002B00084E10DC061E086E00E944E1461E085E0BB
:1002C0000E944E1485B18E6085B960E084E00C9484
:1002D0008A1461E084E00E948A1485B1817F85B927
:1002E000089526E040E056E960E070E087E593E09D
:1002F0000E94180F61E08AE1EACF60E08AE10E9483
:100300008A1487E593E00E94700F61E08AE00E9402
:100310004E1460E08AE00E948A1461E08BE00E9443
:100320004E1460E08AE0D3CF60E0C2CF65E171E0B7
:100330008EEE91E00E94971161E271E088EE91E00B
:100340000E94971189ED91E00E94830B6AE471E0AD
:100350008DEC91E00C9497118DEC91E00E942811A6
:1003600088EE91E00E9428118EEE91E00C94281105
:10037000CF93DF9361E570E086EF91E00E94BC08C7
:1003800070E060E086EF91E00E94340186EF91E03A
:100390000E943A0946E050E061E570E086EF91E0A6
:1003A0000E94370986EF91E00E94E7070E943B0117
:1003B0008093C80186EF91E00E94E7078F770E9443
:1003C0003B01D82F86EF91E00E94E7078F770E94CC
:1003D0003B01C82F86EF91E00E94E7070E943B0196
:1003E00090E0B0E0A0E08093C9019093CA01A0938F
:1003F000CB01B093CC0186EF91E00E94E7070E9409
:100400003B0124E6829FC0011124092E000CAA0B97
:10041000BB0B4091C9015091CA016091CB01709111
:10042000CC01840F951FA61FB71F8093C90190931D
:10043000CA01A093CB01B093CC0186EF91E00E945A
:10044000E7070E943B0140E157E2849F9001859FAE
:10045000300D1124032E000C440B550B8091C90163
:100460009091CA01A091CB01B091CC01280F391F06
:100470004A1F5B1FA0E1BEE00E948916AB01BC01D0
:100480002CE3C29FC0011124092E000CAA0BBB0B48
:100490008D0F911DA11DB11D840F951FA61FB71FA4
:1004A0008093C9019093CA01A093CB01B093CC0172
:1004B000DF91CF910895EF92FF920F931F93CF9307
:1004C000DF93CDB7DEB764970FB6F894DEBF0FBEEB
:1004D000CDBF61E081E00E944E1461E082E00E94A5
:1004E0004E1461E083E00E944E1461E08AE10E94B4
:1004F0004E1461E084E10E944E1461E084E00E94A9
:100500004E1461E085E00E944E1461E086E00E9496
:100510004E1461E087E00E944E1461E080E00E948A
:100520004E1482E00E94440184E00E94440186E06F
:100530000E94440140EA56E861E070E086EF91E0F5
:100540000E94AE0826E040E052EC61E070E08AEBE9
:1005500092E00E94180F69E571E08AEB92E00E9438
:1005600011116EE170E080E090E00E94A0138EE037
:10057000E7E0F1E0DE01119601900D928A95E1F736
:10058000CE0101967C018E01015F1F4FF701619141
:100590007F0187E593E00E94D10E0E151F05B1F78C
:1005A00080910601F0E48F9FC00111248061809347
:1005B0007C0080917A00846080937A0080917A0038
:1005C000826080937A0080917A00816080937A00C3
:1005D00061E087E10E944E1460E087E10E948A1486
:1005E00060E080E00E948A1495E0E92EF12C62E33D
:1005F00070E080E090E00E94A01361E087E10E943B
:100600008A1462E370E080E090E00E94A01360E052
:1006100087E10E948A1421E0E21AF10841F761E5BE
:1006200070E086EF91E00E94BC0863E286EF91E003
:100630000E94400860E086EF91E00E94400860E080
:1006400086EF91E00E94400865E086EF91E00E940D
:10065000400860E086EF91E00E94400860E086EF8D
:1006600091E00E94400867E986EF91E00E9440080F
:1006700060E086EF91E00E94400860E086EF91E044
:100680000E94400886EF91E00E943A0961E570E01F
:1006900086EF91E00E94BC086FE270E086EF91E087
:1006A0000E9434016CE270E086EF91E00E94340118
:1006B00086EF91E00E943A0961E570E086EF91E0F3
:1006C0000E94BC0868E270E086EF91E00E9434016D
:1006D00067E970E086EF91E00E94340186EF91E0D7
:1006E0000E943A0961E570E086EF91E00E94BC0843
:1006F00060E086EF91E00E94400860E086EF91E0C4
:100700000E94400860E086EF91E00E94400860E0AF
:1007100086EF91E00E94400860E086EF91E00E9441
:10072000400860E086EF91E00E94400860E086EFBC
:1007300091E00E94400886EF91E00E943A0962E64B
:1007400071E0CE0101960E9497116EEE71E0CE012C
:1007500001960E94F01261E971E00E9403136DECB2
:1007600071E00E94F01261E971E00E940313BC0184
:10077000C8010E945312CE0101960E94281181E106
:100780000E94B814892B09F479C068E570E086EFFF
:1007900091E00E94BC0868E070E086EF91E00E9462
:1007A000340170E060E086EF91E00E94340186EF52
:1007B00091E00E943A0940E168E586EF91E00E94ED
:1007C000340980E1F82E86EF91E00E94E707E82ED9
:1007D0008FE08E1528F067E571E0C8010E94CE1207
:1007E00040E16E2DCE0101960E94B611BE016F5FF1
:1007F0007F4FC8010E94C712CE0101960E942811A6
:100800008091E2019091E301A091E401B091E501B2
:100810008E0D911DA11DB11D8093E2019093E30106
:10082000A093E401B093E501FA94F110CCCF6BE60C
:1008300071E08AEB92E00E941111B8018AEB92E01C
:100840000E94FF101092D8011092D7011092D60189
:100850001092D5011092D4011092D301C8010E94C8
:10086000281164960FB6F894DEBF0FBECDBFDF919E
:10087000CF911F910F91FF90EF90089561E871E083
:10088000C8010E94CE12D3CF2F923F924F925F9217
:100890006F927F928F929F92AF92BF92CF92DF9290
:1008A000EF92FF920F931F93CF93DF93CDB7DEB7F5
:1008B000CC53DC400FB6F894DEBF0FBECDBF67EC63
:1008C00071E0CE018F52984F0E94971181E10E94F2
:1008D000B814892B09F4D3C20E94B80164E771E00F
:1008E000CE018F52984F0E94CE126091E601709116
:1008F000E7014AE0CE0101960E94E311BE016F5F5D
:100900007F4FCE018F52984F0E94C712CE010196A1
:100910000E94281161E971E0CE018F52984F0E9428
:10092000CE124091C9015091CA016091CB017091E2
:10093000CC012AE0CE0101960E940F12BE016F5F2A
:100940007F4FCE018F52984F0E94C712CE01019661
:100950000E94281160E671E0CE018F52984F0E94EC
:10096000CE124AE06091C801CE0101960E94B611F4
:10097000BE016F5F7F4FCE018F52984F0E94C7120A
:10098000CE0101960E94281161E971E0CE018F52DB
:10099000984F0E94CE1266EF71E089ED91E00E94BF
:1009A0003C0C6DE771E0882309F46BC289ED91E09E
:1009B0000E94C30CAB01BC0122E0CE0101960E9453
:1009C0006B12BE016F5F7F4FCE018F52984F0E9416
:1009D000C712CE0101960E94281161E971E0CE0193
:1009E0008F52984F0E94CE1289ED91E00E94E50C43
:1009F000AB01BC0122E0CE0101960E946B12BE0148
:100A00006F5F7F4FCE018F52984F0E94C712CE0169
:100A100001960E942811CE018F52984F0E942811F2
:100A200083E00E94440167EC71E0CE018F52984F41
:100A30000E949711C12CD12C760110E000E087E5CF
:100A400093E00E94380E892B09F435C287E593E0C4
:100A50000E94520E843209F01AC21F5F153108F449
:100A60001FC20E94B8016CE871E0CE018F52984F0E
:100A70000E94CE124091C9015091CA016091CB01F0
:100A80007091CC012AE0CE0101960E940F12BE01A6
:100A90006F5F7F4FCE018F52984F0E94C712CE01D9
:100AA00001960E94281160E671E0CE018F52984FA6
:100AB0000E94CE124AE06091C801CE0101960E94C8
:100AC000B611BE016F5F7F4FCE018F52984F0E94CB
:100AD000C712CE0101960E94281184E00E944401B1
:100AE000BE016F52784F8AEB92E00E94FF10CE0158
:100AF0008F52984F0E94281152E3C52ED12C3324D7
:100B000033946FE9262E8E010F5C134F35B8809118
:100B100006018295880F880F807C80937C0024B822
:100B200082E090E00E94D9138EE984B988E090E0D9
:100B30000E94D9135E0197E4A91A94EFB90A4501FE
:100B4000F401119211924F010E171F07C9F710926D
:100B5000D8011092D701412C512C3201F12CE12CFB
:100B600080917A00806480937A0084E190E00E9412
:100B7000D91324B882E090E00E94D913FEE9F4B9B9
:100B800080917A0084FFFCCF809178008093E1010E
:100B9000809179008093E00180917A008061809358
:100BA0007A009091E0018091E1019093DF018093C0
:100BB000DE018530910508F08DC1880F991FF50180
:100BC000E80FF91F808191810196918380838FEFD7
:100BD000481A580A680A780A90EA491696E85906A7
:100BE00091E06906710409F0BBCF67EC71E0CE01BA
:100BF000895C934F0E94971181E10E94B814892B60
:100C000009F499C10E94B80163E971E0CE01895CE1
:100C1000934F0E94CE126091E6017091E7014AE085
:100C2000C8010E94E311B801CE01895C934F0E9474
:100C3000C712C8010E94281161E971E0CE01895CE8
:100C4000934F0E94CE124091C9015091CA01609108
:100C5000CB017091CC012AE0C8010E940F12B801AB
:100C6000CE01895C934F0E94C712C8010E942811CF
:100C700060E671E0CE01895C934F0E94CE124AE09B
:100C80006091C801C8010E94B611B801CE01895C0B
:100C9000934F0E94C712C8010E94281161E971E0B8
:100CA000CE01895C934F0E94CE1266EF71E089ED10
:100CB00091E00E943C0C6DE771E0882309F43DC18E
:100CC00089ED91E00E94C30CAB01BC0122E0C80198
:100CD0000E946B12B801CE01895C934F0E94C7122B
:100CE000C8010E94281161E971E0CE01895C934F2F
:100CF0000E94CE1289ED91E00E94E50CAB01BC018F
:100D000022E0C8010E946B12B801CE01895C934FAA
:100D10000E94C712C8010E94281161E971E0CE014A
:100D2000895C934F0E94CE126091D7017091D801D7
:100D30004AE0C8010E94E311B801CE01895C934FDB
:100D40000E94C712C8010E94281161E971E0CE011A
:100D5000895C934F0E94CE12F501619171915F0100
:100D60004AE0C8010E94E311B801CE01895C934FAB
:100D70000E94C712C8010E942811A814B90429F7BB
:100D80008091E6019091E70101969093E7018093AD
:100D9000E60161E087E10E948A14BE01695C734F3D
:100DA0008AEB92E00E94FF1060E087E10E948A14C3
:100DB000CE01895C934F0E9428116AE971E0CE014F
:100DC000895C934F0E9497114AE0B701C8010E94C5
:100DD000E311B801CE01895C934F0E94C712C8018C
:100DE0000E942811F5EFEF16F1E0FF0620F084EFE6
:100DF000E82EFF24F3949E012F5F3F4F4901CE015F
:100E00008F52984F3C01B12CA12CEA14FB0409F439
:100E10009AC061E971E0CE01895C934F0E94CE12C5
:100E2000F40141915191619171914F012AE0C80102
:100E30000E940F12B801CE01895C934F0E94C71225
:100E4000C8010E94281161E971E0CE01895C934FCD
:100E50000E94CE12F301619171913F014AE0C801F5
:100E60000E94E311B801CE01895C934F0E94C71222
:100E7000C8010E942811FFEFAF1ABF0AC6CF65E86C
:100E800071E0CE018F52984F0E94CE12C4CD153121
:100E900008F0E7CDC12CD12C7601002309F4CFCD89
:100EA000682FCE018F52984F0E94DD12C12CD12C99
:100EB000760101E0C4CD2FEFC21AD20AE20AF20A8B
:100EC00031E6C3163EEAD3063AE0E306F10408F43D
:100ED000B6CD03CE2091D7013091D8012F5F3F4F7F
:100EE0003093D8012093D7018C33910508F465CE57
:100EF00024EFE21621E0F206D0F4F701EE0FFF1F17
:100F0000EE0FFF1F21E030E02C0F3D1FE20FF31F1B
:100F10004082518262827382F701EE0FFF1F21ED42
:100F200037E02C0F3D1FE20FF31F918380833FEFCB
:100F3000E31AF30A4CCE65E871E0CE01895C934F69
:100F40000E94CE12EACE61E087E10E948A14BE01BF
:100F5000695C734F8AEB92E00E94FF1060E087E1CA
:100F60000E948A14CE01895C934F0E94281121E0CF
:100F7000C21AD10809F0CACDC45CD34F0FB6F89499
:100F8000DEBF0FBECDBFDF91CF911F910F91FF90BC
:100F9000EF90DF90CF90BF90AF909F908F907F9019
:100FA0006F905F904F903F902F900895E4EFF1E0A5
:100FB00080E5808381E08183089590E080E008955A
:100FC00080912A0290912B02891B990B0895909190
:100FD0002B0280912A022FEF3FEF981748F4E92F58
:100FE000F0E0E45DFD4F208130E09F5F90932B02A5
:100FF000C9010895E0912B0280912A02E81730F48C
:10100000F0E0E45DFD4F808190E008958FEF9FEF69
:1010100008950895CF93DF93EC01E0910202F091DF
:1010200003023097F1F090912B0280912A029817D9
:10103000C0F090E0292F30E02617370754F4DE0186
:10104000A20FB31F4C91245D3D4FD9014C939F5F7C
:10105000F1CF10922B0260932A02CB01DF91CF9146
:101060000994DF91CF910895E0910402F091050277
:10107000309729F0109208021092070209940895FF
:10108000CF93DF931F92CDB7DEB76983209106021D
:101090002223F9F020910702203258F021E030E0BD
:1010A000FC013383228390E080E00F90DF91CF91A9
:1010B000089580910802E82FF0E0E75FFD4F9981E5
:1010C00090838F5F809308028093070281E090E015
:1010D000ECCF61E0CE0101960E941E0AF7CFCF92BD
:1010E000DF92EF92FF920F931F93CF93DF937C01D8
:1010F000CB018A0120910602222389F0EB016B01CA
:10110000C40ED51ECC15DD0569F06991D701ED91AE
:10111000FC910190F081E02DC7010995F3CF642F78
:101120000E941E0AC801DF91CF911F910F91FF907D
:10113000EF90DF90CF90089510922B0210922A0228
:1011400010920802109207020E944E0984E398E070
:101150000E944A0A8AE098E00C94450ACB01BA0141
:101160000C946C0981E0809306026093290210922E
:1011700008021092070208950C94B2080F93062FEC
:1011800021E04091070269E072E0809129020E940B
:10119000C7091092080210920702109206020F91DE
:1011A00008954F925F926F927F92AF92BF92CF92CB
:1011B000EF92FF920F931F93CF93DF935C01F62E74
:1011C000D42F28013901EE2019F10E94B208CE2D4A
:1011D000C43008F0C3E0C150B8F028E0C29FC0019D
:1011E0001124A301920104C0569547953795279580
:1011F0008A95D2F7B901D501ED91FC910190F0816A
:10120000E02DC5010995E7CF60E0C5010E94BE0849
:101210004D2FD13208F040E22C2D6CE272E08F2D80
:101220000E947F0910922B0280932A02DF91CF91B6
:101230001F910F91FF90EF90CF90BF90AF907F9054
:101240006F905F904F900895CF92EF920F931F93FE
:10125000C22EE12C00E010E098010E94D1081F91FD
:101260000F91EF90CF90089521E00C94240921E094
:101270000C94240961E00C94BE08E6EFF1E01382BF
:10128000128288EE93E0A0E0B0E084839583A68389
:10129000B78385EA91E09183808308951092B90223
:1012A00081E08093B7021092B60261E081E10E9472
:1012B0008A1461E080E10E948A14E9EBF0E0808109
:1012C0008E7F808380818D7F808388E48093B800C7
:1012D00085E48093BC0008959B01AC0160E074E25A
:1012E00084EF90E00E944F162051310941095109C5
:1012F00056954795379527952093B8000895413224
:1013000008F043C09091B9029111FCCF91E0909305
:10131000B9022093B7022FEF20934C021092910252
:10132000240F209390029093B8029091B802880FF6
:10133000892B8093B8028091B602813009F5109212
:10134000B6028091B8028093BB008091BC0083FDFF
:10135000F8CF85EC8093BC008091B9028130E1F335
:1013600080919102841710F440919102A2E9B2E0B9
:10137000962FFB018E2F891B841720F0842F089550
:1013800085EEE8CF8D918193F5CF40E0F7CF0F93B5
:10139000413208F04BC09091B9029111FCCF92E01C
:1013A0009093B9020093B7029FEF90934C02109272
:1013B000910240939002362FA2E9B2E0FB019E2FEA
:1013C000931B941770F11092B8029091B802880F95
:1013D000892B8093B8028091B602813029F5109252
:1013E000B6028091B8028093BB008091BC0083FD5F
:1013F000F8CF85EC8093BC00222321F08091B902C4
:101400008230D1F380914C028F3F91F080914C0259
:10141000803281F080914C02803371F084E00F9132
:10142000089591919D93CBCF85EEE4CF81E0F7CFE6
:1014300080E0F5CF82E0F3CF83E0F1CF20916E0220
:10144000260F3327331F21323105ECF42091B902E6
:10145000FC0190E080E0243069F082E00895A091E2
:101460006E022191AC0140595D4FA40FB52FB11D03
:101470002C930196861798F380916E02680F609303
:101480006E0280E0089581E008959093B302809306
:10149000B20208959093B5028093B402089585ED49
:1014A0008093BC008091BC0084FDFCCF1092B902F7
:1014B000089585EC8093BC001092B90208951F92A4
:1014C0000F920FB60F9211240BB60F922F933F93EA
:1014D0004F935F936F937F938F939F93AF93BF933C
:1014E000EF93FF938091B900887F803609F44EC056
:1014F00008F041C0883209F4AAC028F5803109F407
:101500009EC0C8F4882309F4FBC0883009F497C052
:10151000FF91EF91BF91AF919F918F917F916F91CB
:101520005F914F913F912F910F900BBE0F900FBE87
:101530000F901F901895883109F489C0803241F7C7
:1015400080934C0215C0803409F49EC048F4803367
:10155000B9F38833E9F680934C020E94590AD8CF38
:10156000803509F485C0883509F496C0883481F641
:101570000E944F0ACDCF883909F48CC038F58837DE
:1015800029F050F4883611F0803711F683E080930B
:10159000B90210924D0257C0883809F47BC08039D7
:1015A00019F0803809F0B4CF80914D02803208F0F4
:1015B00071C0E0914D0281E08E0F80934D028091C9
:1015C000BB00F0E0E25BFD4F80833DC0803B39F023
:1015D000E0F4803A09F479C0883A09F099CF84E0C0
:1015E0008093B90210926F0210926E02E091B402E1
:1015F000F091B502099580916E0281110FC081E0D2
:1016000080936E021092700209C0803C09F476C08B
:10161000883C09F473C0883B09F07ACFE0916F02EF
:1016200081E08E0F80936F02F0E0E059FD4F8081E2
:101630008093BB0090916F0280916E0229C08091CF
:10164000B8028093BB0085EC8093BC0061CF909181
:10165000910280919002981758F5E091910281E0F3
:101660008E0F80939102F0E0EE56FD4F8081E9CF1E
:10167000E091910281E08E0F809391028091BB00F6
:10168000F0E0EE56FD4F80839091910280919002A0
:101690009817C8F285E8D8CFE091910281E08E0FCB
:1016A000809391028091BB00F0E0EE56FD4F808365
:1016B0008091B70281115CCF81E08093B60284EA09
:1016C0008093BC001092B90223CF0E94590A8091E6
:1016D0004D02803230F4E0914D02F0E0E25BFD4FCC
:1016E000108260914D0270E0E091B202F091B3027D
:1016F0008EE492E0099510924D020ACF85ECE0CF7E
:1017000010924C0235CFFC01118210820895CF92C5
:10171000DF92EF920F931F93CF93DF9300D000D00F
:101720001F92CDB7DEB76B0121E029831A821B829D
:101730001C821D82E12C05E010E09E012F5F3F4FCF
:1017400041E050E0B901FC01808191810E94060EC8
:10175000C114D10499F0CA94CD2889F16C817D819E
:10176000762767277627072E000C880B990B0E9497
:10177000561520E030E040E85BE332C029816A8101
:1017800070E090E080E0982F872F762F6627822BDD
:101790002B81622B0E94541520E030E048EC55E488
:1017A0000E94E2140F900F900F900F900F90DF9116
:1017B000CF911F910F91EF90DF90CF9008952981E5
:1017C0006A8170E090E080E0CB0177276627922B5A
:1017D0002B81722B0E94561520E030E040E857E341
:1017E0000E94E215DFCFEF920F931F93CF93DF9309
:1017F0001F92CDB7DEB76983E12C01E010E09E01B6
:101800002F5F3F4F41E050E0B901FC0180819181A1
:101810000E94060E89810F90DF91CF911F910F9149
:10182000EF90089560E00E94F30B83FB882780F916
:101830000895EF92FF920F931F93CF93DF9300D001
:10184000CDB7DEB769834A83F12CE12C10E000E0CC
:1018500021E042E050E0BE016F5F7F4FFC018081DC
:1018600091810E943D0D0F900F90DF91CF911F91BC
:101870000F91FF90EF900895EF92FF920F931F93B7
:10188000CF93DF93EC017B0188819981009721F050
:1018900066E070E00E942F1386E090E00E942D1316
:1018A0008C01A70160E60E94FD0C1983088361E0AA
:1018B000C8010E94250D182F811109C010E0812F49
:1018C000DF91CF911F910F91FF90EF9008956CE001
:1018D000CE010E94F30B843C89F744E066E2CE011E
:1018E0000E94190C66E2CE010E94F30B82FF07C032
:1018F0006AE070E080E090E00E94A013F3CF81E006
:1019000090E09B838A8388EB8C8348EB66E2CE0170
:101910000E94190C47E063E1CE010E94190CCFCF61
:101920000F931F93CF93DF93EC01162F072F66E2DF
:101930000E94F30B10FB87F98C83482F66E2CE01DF
:101940000E94190C1A830B83DF91CF911F910F9185
:101950000895CF93DF93EC0166E2CE010E94F30B72
:101960008C834C8141FF07C06AE070E080E090E02A
:101970000E94A013F1CF42604C8366E2CE01DF915A
:10198000CF910C94190CCF93DF93EC018A819B814A
:10199000892B29F070E060E0CE010E94900CCE010E
:1019A0000E94A90CCE010E94120C811107C06AE0AE
:1019B00070E080E090E00E94A013F4CF70E060E05F
:1019C000CE01DF91CF910C94870BCF93DF93EC0185
:1019D0000E94A90CCE010E94120C811107C06AE07E
:1019E00070E080E090E00E94A013F4CF62E070E02D
:1019F000CE01DF91CF910C94870BFC016083528361
:101A00004183138280E290E0958384830895CF938D
:101A1000DF93EC018B81882381F0688189819A8131
:101A20000E94B20889819A810E943A0991E081114D
:101A300090E0892FDF91CF91089561E0CE010E945F
:101A4000250D982F8111E9CFF4CF1F93CF93DF930A
:101A5000EC01162F89819A810E949C0881E08B837A
:101A6000112331F0CE01DF91CF911F910C94070D1E
:101A700081E0DF91CF911F9108958F929F92BF9245
:101A8000CF92DF92EF92FF920F931F93CF93DF934A
:101A9000DA01AE0DBF1DEC01EC81FD81EA17FB07F9
:101AA00010F490E021C0B22E6A014B016881898157
:101AB0009A810E94B208E114F10419F589819A8192
:101AC000DC01ED91FC910280F381E02DA601B401CF
:101AD0000995C816D90629F76B2D89819A810E942C
:101AE000BE0891E08111DDCF892FDF91CF911F9149
:101AF0000F91FF90EF90DF90CF90BF909F908F90CD
:101B0000089501151105D1F289819A81DC01ED91C9
:101B1000FC910280F381E02DA701B80109958E1593
:101B20009F0509F0BECFCACFCF92DF92EF92FF920E
:101B30000F931F93CF93DF937C016B018A01DC012C
:101B40006C9111968D919C910E9424098017110629
:101B500091F4E6010C0D1D1DC017D107B1F0F7017E
:101B600081819281DC01ED91FC910284F385E02D6D
:101B700009958993F1CF80E0DF91CF911F910F916B
:101B8000FF90EF90DF90CF90089581E0F5CF9F9286
:101B9000AF92BF92CF92DF92EF92FF920F931F937B
:101BA000CF93DF936C015B017A01922ED0E0C0E00D
:101BB000CE15DF05F0F4F6018481958187010C1BB9
:101BC0001D0B8017910708F48C01C701801B910B36
:101BD00020E0C817D90708F0292DA801B5016C0F1E
:101BE0007D1FC6010E94940D882321F0C00FD11FD4
:101BF000DFCF81E0DF91CF911F910F91FF90EF90A8
:101C0000DF90CF90BF90AF909F900895AF92BF921A
:101C1000CF92DF92EF92FF920F931F93CF93DF93B8
:101C2000EC01690158012E2DF12CE12C10E000E0AF
:101C30000E943D0D882381F021E0A501B601CE016F
:101C4000DF91CF911F910F91FF90EF90DF90CF9098
:101C5000BF90AF900C94C70D80E0DF91CF911F91A2
:101C60000F91FF90EF90DF90CF90BF90AF900895CD
:101C7000FC01918D228D892F90E0805C9F4F821B0B
:101C800091098F7399270895FC01918D828D981782
:101C900031F0828DE80FF11D858D90E008958FEF72
:101CA0009FEF0895FC01918D828D981761F0A28DB0
:101CB000AE0FBF2FB11D5D968C91928D9F5F9F736C
:101CC000928F90E008958FEF9FEF0895FC01538D60
:101CD000448D252F30E0842F90E0821B930B541706
:101CE00010F0CF9608950197089583EE9FE0892B19
:101CF00049F080E090E0892B29F00E94E30F8111E8
:101D00000E9400008AE790E1892B49F080E090E092
:101D1000892B29F00E947A1081110C9400000895FB
:101D2000FC01A48DA80FB92FB11DA35ABF4F2C9150
:101D3000848D90E001968F739927848FA689B78947
:101D40002C93A089B1898C9180648C93938D848D20
:101D5000981306C00288F389E02D80818F7D8083EF
:101D60000895CF93DF93EC01888D8823B9F0AA8979
:101D7000BB89E889F9898C9185FD03C0808186FD46
:101D80000DC00FB607FCF7CF8C9185FFF2CF808195
:101D900085FFEDCFCE010E94900EE9CFDF91CF916C
:101DA0000895EF92FF920F931F93CF93DF93EC016F
:101DB00081E0888F9B8D8C8D981316C0E889F989F6
:101DC000808185FF11C0EE89FF896083E889F989E8
:101DD00080818064808381E090E0DF91CF911F91CA
:101DE0000F91FF90EF900895F62E0B8D10E00F5F8E
:101DF0001F4F0F731127E02E8C8D8E110CC00FB664
:101E000007FCFACFE889F989808185FFF5CFCE01FB
:101E10000E94900EF1CFEB8DEC0FFD2FF11DE35AD8
:101E2000FF4FF0820B8FEA89FB8980818062D2CFDD
:101E3000CF92DF92EF92FF921F93CF93DF93EC014B
:101E40006A017B01122FE889F98982E08083C1143D
:101E500081EED806E104F104A1F060E079E08DE3C1
:101E600090E0A70196010E944F16215031094109C7
:101E700051095695479537952795211580E13807E3
:101E800098F0E889F989108260E874E88EE190E0C2
:101E9000A70196010E944F162150310941095109AD
:101EA0005695479537952795EC85FD853083EE85CA
:101EB000FF852083188EEC89FD891083EA89FB89D0
:101EC000808188698083EA89FB8980818F7D808316
:101ED000DF91CF911F91FF90EF90DF90CF90089509
:101EE000CF93DF93EC01E881F9810680F781E02D43
:101EF0000995EA89FB898081877480838A8D898F1F
:101F0000DF91CF9108951F920F920FB60F92112477
:101F10000BB60F922F938F939F93EF93FF93E091C4
:101F2000CA02F091CB028081E091D002F091D102FF
:101F300082FD1DC090818091D3028F5F8F732091AD
:101F4000D402821741F0E091D302F0E0E654FD4F55
:101F5000958F8093D302FF91EF919F918F912F9155
:101F60000F900BBE0F900FBE0F901F9018958081A1
:101F7000F2CF1F920F920FB60F9211240BB60F9251
:101F80002F933F934F935F936F937F938F939F9381
:101F9000AF93BF93EF93FF938AEB92E00E94900E72
:101FA000FF91EF91BF91AF919F918F917F916F9131
:101FB0005F914F913F912F910F900BBE0F900FBEED
:101FC0000F901F9018958AEB92E00E94380E21E046
:101FD000892B09F420E0822F0895EAEBF2E01382C6
:101FE000128288EE93E0A0E0B0E084839583A6831C
:101FF000B78387EB91E09183808385EC90E09587B0
:10200000848784EC90E09787868780EC90E0918BC2
:10201000808B81EC90E0938B828B82EC90E0958BAF
:10202000848B86EC90E0978B868B118E128E138EAC
:10203000148E08951F920F920FB60F9211240BB6B3
:102040000F922F938F939F93EF93FF93E0916703EA
:10205000F09168038081E0916D03F0916E0382FD41
:102060001DC09081809170038F5F8F7320917103E9
:10207000821741F0E0917003F0E0E95AFC4F958F30
:1020800080937003FF91EF919F918F912F910F900B
:102090000BBE0F900FBE0F901F9018958081F2CF4E
:1020A0001F920F920FB60F9211240BB60F922F931F
:1020B0003F934F935F936F937F938F939F93AF93D0
:1020C000BF93EF93FF9387E593E00E94900EFF91FB
:1020D000EF91BF91AF919F918F917F916F915F91A0
:1020E0004F913F912F910F900BBE0F900FBE0F900D
:1020F0001F90189587E593E00E94380E21E0892B08
:1021000009F420E0822F0895E7E5F3E013821282BC
:1021100088EE93E0A0E0B0E084839583A683B78344
:1021200087EB91E0918380838DEC90E095878487A5
:102130008CEC90E09787868788EC90E0918B808B81
:1021400089EC90E0938B828B8AEC90E0958B848B6A
:102150008EEC90E0978B868B118E128E138E148EE0
:102160000895AF92BF92CF92DF92EF92FF920F93BA
:102170001F93CF93DF936C017B018B01040F151F1D
:10218000EB015E01AE18BF08C017D10759F0699185
:10219000D601ED91FC910190F081E02DC6010995E9
:1021A000892B79F7C501DF91CF911F910F91FF9096
:1021B000EF90DF90CF90BF90AF900895FB0101901A
:1021C0000020E9F73197AF01461B570BDC01ED9179
:1021D000FC910280F381E02D0994DB0114964D916E
:1021E0005C9115976D917C91DC01ED91FC910280E1
:1021F000F381E02D099465EC71E00C94DE100F93EF
:102200001F93CF93DF93EC010E94ED108C01CE0160
:102210000E94FB10800F911FDF91CF911F910F91B2
:1022200008950F931F93CF93DF938C01D0E0C0E00C
:102230006115710519F00E94DE10EC01C8010E94C1
:10224000FB108C0F9D1FDF91CF911F910F9108956F
:10225000FC01808191810C944E17CF93DF93EC01A8
:1022600088819981009711F00E944E171982188277
:102270001D821C821B821A82DF91CF9108950F93D9
:102280001F93CF93DF93EC018B016F5F7F4F8881AA
:1022900099810E94D717009751F0998388831B83F7
:1022A0000A8381E0DF91CF911F910F91089580E023
:1022B000F9CFCF93DF93EC0188819981892B49F085
:1022C0008A819B818617970720F081E0DF91CF916B
:1022D0000895CE010E943F118823C1F38C819D8116
:1022E000892B99F7E881F9811082EFCFEF92FF9265
:1022F0000F931F93CF93DF93EC017B018A01BA0107
:102300000E94591181110BC0CE010E942D11CE01E6
:10231000DF91CF911F910F91FF90EF9008951D8352
:102320000C83B701888199810E94C118F0CFFC010C
:102330001182108213821282158214826115710536
:1023400051F0FB0101900020E9F73197AF01461BE6
:10235000570B0C9476110895FB0101900020E9F7CA
:102360003197AF01461B570B0C9476110F931F93B7
:10237000CF93DF93CDB7DEB729970FB6F894DEBFC2
:102380000FBECDBF8C01862FF801118210821382FF
:1023900012821582148250E0BE016F5F7F4F90E081
:1023A0000E94F518BE016F5F7F4FC8010E94AC11FB
:1023B00029960FB6F894DEBF0FBECDBFDF91CF9147
:1023C0001F910F9108950F931F93CF93DF93CDB774
:1023D000DEB761970FB6F894DEBF0FBECDBF8C019C
:1023E000CB01F801118210821382128215821482AD
:1023F00050E0BE016F5F7F4F0E94F518BE016F5F16
:102400007F4FC8010E94AC1161960FB6F894DEBFF1
:102410000FBECDBFDF91CF911F910F9108950F9304
:102420001F93CF93DF93CDB7DEB7A1970FB6F89484
:10243000DEBF0FBECDBF8C01CB01BA01F801118206
:102440001082138212821582148230E0AE014F5F37
:102450005F4F0E94C818BE016F5F7F4FC8010E9486
:10246000AC11A1960FB6F894DEBF0FBECDBFDF91C1
:10247000CF911F910F910895CF93DF93EC01FB0152
:102480008617970749F0608171816115710541F0E8
:10249000448155810E947611CE01DF91CF9108953C
:1024A0000E942D11F9CFFC01118210821382128239
:1024B000158214820C943C12CF93DF93EC016115CA
:1024C000710531F00E94AC11CE01DF91CF910895DA
:1024D0000E942D11F9CFEF92FF920F931F93CF938C
:1024E000DF93CDB7DEB7A1970FB6F894DEBF0FBE6E
:1024F000CDBF7C01CB01BA01F7011182108213829A
:1025000012821582148242E0420F8E010F5F1F4F2C
:102510000E949416BC01C7010E945C12A1960FB6DE
:10252000F894DEBF0FBECDBFDF91CF911F910F9109
:10253000FF90EF900895EF92FF920F931F93CF9328
:10254000DF936115710541F480E0DF91CF911F9118
:102550000F91FF90EF90089541155105B1F07B0167
:10256000EC010C811D81040F151FB8010E94591147
:10257000882351F3288139818C819D81B701820F95
:10258000931F0E94C1181D830C8381E0DECFFB01E5
:1025900044815581608171810C949B126115710594
:1025A00051F0FB0101900020E9F73197AF01461B84
:1025B000570B0C949B1280E00895CF93DF9300D0CB
:1025C000CDB7DEB769831A8241E050E0BE016F5F8C
:1025D0007F4F0E949B120F900F90DF91CF91089533
:1025E000CF93DF93EC01FB014481558160817181C0
:1025F0000E949B12811103C0CE010E942D11CE01B9
:10260000DF91CF910895CF93DF93EC0161157105B0
:1026100039F4CE010E942D11CE01DF91CF910895A2
:10262000FB0101900020E9F73197AF01461B570BE2
:102630000E949B12882369F3EFCF08950E94E41350
:102640000E941D130E945B02C5E7DEE00E94440465
:102650002097E1F30E94750EF9CF0C94B2160C94FA
:102660004E171F920F920FB60F9211242F933F9384
:102670008F939F93AF93BF938091F9039091FA0347
:10268000A091FB03B091FC033091F80323E0230FEA
:102690002D3768F126E8230F0296A11DB11D209366
:1026A000F8038093F9039093FA03A093FB03B0938C
:1026B000FC038091F4039091F503A091F603B0918F
:1026C000F7030196A11DB11D8093F4039093F503C8
:1026D000A093F603B093F703BF91AF919F918F91B1
:1026E0003F912F910F900FBE0F901F90189501965C
:1026F000A11DB11DD4CF3FB7F8948091F403909100
:10270000F503A091F603B091F70326B5A89B05C089
:102710002F3F19F00196A11DB11D3FBFBA2FA92F60
:10272000982F8827BC01CD01620F711D811D911D5D
:1027300042E0660F771F881F991F4A95D1F70895C9
:102740008F929F92AF92BF92CF92DF92EF92FF92C1
:102750006B017C010E947B134B015C01C114D1040D
:10276000E104F104E9F00E94E1140E947B1368196E
:1027700079098A099B09683E73408105910570F3C8
:1027800021E0C21AD108E108F10888EE880E83E042
:10279000981EA11CB11CC114D104E104F10429F755
:1027A000FF90EF90DF90CF90BF90AF909F908F9071
:1027B00008958230910538F0880F991F880F991F6E
:1027C00005970197F1F70895789484B5836084BDE7
:1027D00085B5836085BDEEE6F0E080818160808311
:1027E000E1E8F0E082E08083808181608083E0E83E
:1027F000F0E0808181608083E1EBF0E080818460A3
:102800008083E0EBF0E0808181608083E1E9F0E0AB
:10281000808183608083E0E9F0E080818160808353
:1028200087E880937A001092C100089582508A3020
:1028300088F5E82FF0E0E15EFB4E0C94711647142A
:102840004B1429142F144A144A14331439143D1408
:102850004314809180008F77809380000895809149
:1028600080008F7DF9CF8091B0008F778093B0008A
:1028700008958091B0008F7DF9CF809190008F777F
:10288000809390000895809190008F7DF9CF84B55A
:102890008F7784BD089584B58F7DFBCFCF93DF9371
:1028A00090E0FC01EA55FE4F24918A539E4FFC01B3
:1028B00084918823C9F090E0880F991FFC01E650AD
:1028C000FE4FA591B491FC01E051FE4FC591D4910A
:1028D00061110DC09FB7F8948C91209582238C9341
:1028E0008881282328839FBFDF91CF91089562308C
:1028F00051F49FB7F8943C91822F809583238C9359
:10290000E8812E2BEFCF8FB7F894EC912E2B2C93E0
:102910008FBFEACF1F93CF93DF93282F30E0F901C9
:10292000EA57FE4F8491F901EA55FE4FD491F9011F
:10293000EA53FE4FC491CC23A9F0162F81110E94B7
:102940001614EC2FF0E0EE0FFF1FE051FE4FA591A3
:10295000B4918FB7F894EC91111108C0D095DE2393
:10296000DC938FBFDF91CF911F910895DE2BF8CFBD
:10297000CF93DF93282F30E0F901EA57FE4F84917F
:10298000F901EA55FE4FD491F901EA53FE4FC49183
:10299000CC23A1F081110E941614EC2FF0E0EE0F71
:1029A000FF1FEA51FE4FA591B491EC91ED2381E018
:1029B00090E009F480E0DF91CF91089580E090E00D
:1029C000FACF08950E94F6140C94A8150E94A11540
:1029D00058F00E949A1540F029F45F3F29F00C94BA
:1029E000911551110C94DC150C9497150E94B91592
:1029F00068F39923B1F3552391F3951B550BBB272E
:102A0000AA2762177307840738F09F5F5F4F220F72
:102A1000331F441FAA1FA9F335D00E2E3AF0E0E869
:102A200032D091505040E695001CCAF72BD0FE2FB3
:102A300029D0660F771F881FBB1F26173707480747
:102A4000AB07B0E809F0BB0B802DBF01FF279358FF
:102A50005F4F3AF09E3F510578F00C9491150C941D
:102A6000DC155F3FE4F3983ED4F386957795679540
:102A7000B795F7959F5FC9F7880F911D9695879534
:102A800097F90895E1E0660F771F881FBB1F621753
:102A900073078407BA0720F0621B730B840BBA0B11
:102AA000EE1F88F7E0950895E89409C097FB3EF47F
:102AB00090958095709561957F4F8F4F9F4F99238B
:102AC000A9F0F92F96E9BB279395F6958795779509
:102AD0006795B795F111F8CFFAF4BB0F11F460FFC9
:102AE0001BC06F5F7F4F8F4F9F4F16C0882311F021
:102AF00096E911C0772321F09EE8872F762F05C035
:102B0000662371F096E8862F70E060E02AF09A95CF
:102B1000660F771F881FDAF7880F9695879597F9C4
:102B2000089597F99F6780E870E060E008959FEF4F
:102B300080EC089500240A94161617061806090654
:102B4000089500240A941216130614060506089523
:102B5000092E0394000C11F4882352F0BB0F40F4AB
:102B6000BF2B11F460FF04C06F5F7F4F8F4F9F4FEB
:102B7000089557FD9058440F551F59F05F3F71F06D
:102B80004795880F97FB991F61F09F3F79F08795D4
:102B90000895121613061406551FF2CF4695F1DF5D
:102BA00008C0161617061806991FF1CF86957105ED
:102BB000610508940895E894BB2766277727CB0121
:102BC00097F908950E94F5150C94A8150E949A157E
:102BD00038F00E94A11520F0952311F00C94911566
:102BE0000C94971511240C94DC150E94B91570F300
:102BF000959FC1F3950F50E0551F629FF001729FA2
:102C0000BB27F00DB11D639FAA27F00DB11DAA1FB0
:102C1000649F6627B00DA11D661F829F2227B00DFD
:102C2000A11D621F739FB00DA11D621F839FA00D88
:102C3000611D221F749F3327A00D611D231F849FD8
:102C4000600D211D822F762F6A2F11249F5750402F
:102C50009AF0F1F088234AF0EE0FFF1FBB1F661FAA
:102C6000771F881F91505040A9F79E3F510580F073
:102C70000C9491150C94DC155F3FE4F3983ED4F36B
:102C8000869577956795B795F795E7959F5FC1F717
:102C9000FE2B880F911D9695879597F90895A1E2CF
:102CA0001A2EAA1BBB1BFD010DC0AA1FBB1FEE1FC6
:102CB000FF1FA217B307E407F50720F0A21BB30B11
:102CC000E40BF50B661F771F881F991F1A9469F78D
:102CD00060957095809590959B01AC01BD01CF01E9
:102CE0000895EE0FFF1F0024001C0BBE0790F69105
:102CF000E02D0994A29FB001B39FC001A39F700D66
:102D0000811D1124911DB29F700D811D1124911DF3
:102D100008950E947A16A59F900DB49F900DA49FD0
:102D2000800D911D11240895EF920F931F93CF935F
:102D3000DF93E80134E047FD34E1042E000C550B2D
:102D400057FF03C0519541955109E32E022F242FBF
:102D5000AE010E941A19CE01DF91CF911F910F9100
:102D6000EF9008950F931F93CF93DF9382309105D7
:102D700010F482E090E0E091FF03F091000430E075
:102D800020E0B0E0A0E0309799F42115310509F476
:102D90004AC0281B390B24303105D8F58A819B8124
:102DA0006115710589F1FB0193838283FE0111C0D6
:102DB000408151810281138148175907E0F048177B
:102DC000590799F4109761F012960C931297139685
:102DD0001C933296CF01DF91CF911F910F910895EF
:102DE0000093FF0310930004F4CF2115310551F037
:102DF0004217530738F0A901DB019A01BD01DF0139
:102E0000F801C1CFEF01F9CF909300048093FF0345
:102E1000CDCFFE01E20FF31F819391932250310930
:102E200039832883D7CF2091FD033091FE03232BD4
:102E300041F420910201309103013093FE0320936D
:102E4000FD0320910001309101012115310541F46C
:102E50002DB73EB74091040150910501241B350B5D
:102E6000E091FD03F091FE03E217F307A0F42E1B9F
:102E70003F0B2817390778F0AC014E5F5F4F2417DE
:102E8000350748F04E0F5F1F5093FE034093FD033C
:102E9000819391939FCFF0E0E0E09CCFCF93DF93BD
:102EA0000097E9F0FC01329713821282A091FF0390
:102EB000B0910004ED0130E020E01097A1F42081F2
:102EC0003181820F931F2091FD033091FE0328175B
:102ED000390709F061C0F093FE03E093FD03DF9131
:102EE000CF910895EA01CE17DF07E8F54A815B81AB
:102EF0009E0141155105B1F7E901FB83EA83499130
:102F00005991C40FD51FEC17FD0761F480819181A1
:102F10000296840F951FE9019983888382819381AA
:102F20009B838A83F0E0E0E012968D919C91139749
:102F30000097B9F52D913C911197CD010296820F22
:102F4000931F2091FD033091FE032817390739F6AE
:102F5000309751F5109200041092FF03B093FE03D6
:102F6000A093FD03BCCFD383C28340815181840FE2
:102F7000951FC817D90761F44E5F5F4F888199810B
:102F8000480F591F518340838A819B819383828399
:102F90002115310509F0B0CFF0930004E093FF0351
:102FA0009ECFFD01DC01C0CF13821282D7CF4F929A
:102FB0005F926F927F928F929F92AF92BF92CF92C9
:102FC000DF92EF92FF920F931F93CF93DF938C01C9
:102FD000009799F4CB01DF91CF911F910F91FF9052
:102FE000EF90DF90CF90BF90AF909F908F907F90A9
:102FF0006F905F904F900C94B216FC01E60FF71F94
:103000009C0122503109E217F30708F4AEC0D90140
:10301000CD91DC911197C617D70720F1C530D105A6
:1030200078F0CE0104978617970750F0C61BD70B90
:103030002297C193D1936D937C93CF010E944E1739
:10304000C801DF91CF911F910F91FF90EF90DF901A
:10305000CF90BF90AF909F908F907F906F905F9038
:103060004F9008955B01AC1ABD0A4C018C0E9D1E59
:10307000A091FF03B0910004512C412CF12CE12CC4
:10308000109731F58091FD039091FE038815990505
:1030900009F05CC04616570608F058C08091000140
:1030A00090910101009741F48DB79EB740910401C2
:1030B00050910501841B950BE817F90708F055C0DE
:1030C000F093FE03E093FD03F90171836083B8CFB1
:1030D0008D919C91119712966C90129713967C90FB
:1030E0001397A815B90559F56C0142E0C40ED11C1F
:1030F000CA14DB0420F1AC014A195B09DA0112960B
:10310000159780F06282738251834083D9016D9359
:103110007C93E114F10471F0D7011396FC93EE93C4
:1031200012978ECF22968C0F9D1FF9019183808379
:10313000F301EFCFF0930004E093FF0381CF481633
:10314000590608F42C017D01D3019ACFCB010E94CE
:10315000B2167C01009749F0AE01B8010E94B81880
:10316000C8010E944E1787016BCF10E000E068CFC6
:10317000FB01DC0102C001900D9241505040D8F794
:103180000895FB01DC0101900D920020E1F7089504
:103190002532310520F4223010F00C94D318FA01B6
:1031A0001082CA010895BB27FA01A62F6217710584
:1031B00081059105330B30FB66F0AA27660F771F58
:1031C000881F991FAA1FA21710F0A21B63953850E1
:1031D000A9F7A05DAA3308F0A95DA19336F7B11154
:1031E000B1931082CA010C946E1B4532510520F434
:1031F000423010F00C940019FB011082CB010895AD
:10320000BB27FB015527AA27880F991FAA1FA417C0
:1032100010F0A41B83955051B9F7A05DAA3308F0B4
:10322000A95DA193009779F7B111B1931192CB01E8
:103230000C946E1B8F929F92AF92BF92CF92DF92AF
:10324000EF92FF920F931F93CF93DF93CDB7DEB72B
:1032500029970FB6F894DEBF0FBECDBF6A01F22EDC
:10326000B02E102FFBE3AF2EA01608F41BE31F5F58
:10327000012F27E0AE014F5F5F4F0E94961ABC01FD
:103280008981982F9970913009F44EC09BE2E1FC3E
:1032900004C09E2D9170E0FC49C05E2D5071E82F56
:1032A000E87083FF55C084E0911101C083E0EF2DE9
:1032B000E81B8F1508F0E0E0D6018E2F20E25523A1
:1032C000C9F1992329F0D6019C93C60101966C019E
:1032D00096012D5F3F4FE2FE33C08EE4D6018C9302
:1032E00091E411969C93119712968C93D9018E2F8D
:1032F00090E281112AC0E20FF32FF11D10828EEFB0
:103300009FEF29960FB6F894DEBF0FBECDBFDF91B9
:10331000CF911F910F91FF90EF90DF90CF90BF90D2
:10332000AF909F908F9008959DE2B7CF90E2B5CF78
:103330002D9381508111FCCFCE0ED11CE0E0C1CF86
:103340008EE6D6018C9391E6CCCF9D938150D1CF60
:10335000482F447082FF3DC084E0911101C083E09A
:103360008F1510F4EF2DE81BD6018E2F20E2552388
:1033700009F1992329F0D6019C93C60101966C01AD
:1033800096012D5F3F4FE2FE1BC089E4D6018C936E
:103390008EE411968C93119786E412968C93D90142
:1033A0008E2F90E2882309F4A6CF9D938150FACF07
:1033B0002D9381508111FCCFCE0ED11CE0E0D9CFEE
:1033C00089E6D6018C938EE611968C93119786E64A
:1033D000E4CF9B0177FF02C030E020E0A1E0B0E045
:1033E000911102C0B0E0A0E0F9013196AE0FBF1F0D
:1033F0008B2C912CBB2009F461C05401EFEFAE1A65
:10340000BE0AAA0DBB1DFA161B0619F014F04F2DAB
:103410004A1B511188C0E3FC59C07601A42FB0E2C9
:10342000A1114FC0C40ED11C992309F45BC040E028
:10343000D6011196F60190836D01552309F448C019
:10344000012F060F9A81582F507184FF03C09133CA
:1034500009F4015010160CF047C0093008F008E0DC
:10346000EEE2FE2E5B01A01AB108850191948194D1
:1034700091082F3F320729F4D601FC92F6013196CC
:103480006F016217730794F1021713077CF5DB01D4
:10349000A21BB30BAA24A394B12CAC0EBD1EAA0D83
:1034A000BB1D11968C9121503109D601119628151A
:1034B0003905F4F0F60180836D01DBCFB12CA12C2E
:1034C000A0CFF701B1937F01A150AACF9111B0CF46
:1034D000D601942F50E302C05D9391509111FCCF1F
:1034E000C40ED11C40E0ACCF01E0BACF80E3DBCF0B
:1034F0006217730731F4963388F4953311F455232A
:1035000069F0F6018083FD01842F90E2811108C0EB
:10351000A40FB11D1C9290E080E0F3CE81E3F1CFC7
:1035200091938150F3CF911183CF8ACF283008F047
:1035300027E03327DA01990F311D87FD916000964E
:103540006105710539F432602E5F3D9330E32A95B1
:10355000E1F708959F3F30F080387105610509F06B
:103560003C5F3C5F3D93913008F08068911DDF9394
:10357000CF931F930F93FF92EF92192F987F9695F9
:10358000E92F96959695E90FFF27EA51FF4F992766
:103590003327EE24FF24A701E70105900894079440
:1035A00028F4360FE71EF81E491F511D660F771FBE
:1035B000881F991F0694A1F70590079428F4E70E39
:1035C000F81E491F561FC11D770F881F991F661FC0
:1035D0000694A1F70590079428F4F80E491F561F8A
:1035E000C71FD11D880F991F661F771F0694A1F76B
:1035F0000590079420F4490F561FC71FD81F990F35
:10360000661F771F881F0694A9F78491109517707D
:1036100041F0D695C79557954795F794E7941A9535
:10362000C1F7ECE8F0E0689415901591359165913B
:10363000959105907FE27395E118F10A430B560BC3
:10364000C90BD009C0F7E10CF11E431F561FC91F5B
:10365000D01D7EF4703311F48A95E6CFE8940150C2
:1036600030F0080F0AF40027021708F4202F2395E2
:10367000022F7A3328F079E37D932A95E9F710C079
:103680007D932A9589F606949795679537951795B2
:103690001794E118F10A430B560BC90BD00998F0A7
:1036A00023957E9173957A3308F070E37C93201311
:1036B000B8F77E9170617D9330F0839571E37D93CF
:1036C00070E32A95E1F71124EF90FF900F911F917D
:1036D000CF91DF91992787FD90950895DC01FC013A
:1036E000672F71917723E1F7329704C07C916D9336
:1036F00070836291AE17BF07C8F3089511E0C7E069
:10370000D1E004C0FE010E9471162196C830D10795
:06371000C9F7F894FFCF99
:1037160000000104800003B56206080600E8030104
:1037260000000000374341525F313032345F76305B
:103736000032623862356665353737303062663654
:1037460037626463326634366562316334336535B5
:10375600666431666465313535004E614928546CBE
:10376600292D44313678333000234376616B2E2E73
:103776002E0024414952444F532C0023486D6D6D51
:103786002E2E2E00244845414C54482C004E614EA6
:103796002C4E614E00244572726F72002454494DBE
:1037A600452C0024484953542C0024484954532C92
:1037B600000000000040086F08DD070908E007E781
:1037C60007FA0700000000D10EB110660EB10E38E0
:0837D6000E520E440E0D0A0014
:00000001FF
