:020000040000FA
:100000000C9411010C943B010C943B010C943B01AA
:100010000C943B010C943B010C943B010C943B0170
:100020000C943B010C943B010C943B010C943B0160
:100030000C943B010C943B010C943B010C943B0150
:100040000C943B010C943B010C94912B0C943B01C0
:100050000C940B270C9441270C943B010C943B010E
:100060000C943B010C943B010C94B1210C943B018A
:100070000C94A2270C94D8270C943B010C943B01C0
:100080000C943B010C943B010C943B0100407A1012
:10009000F35A00A0724E18090010A5D4E80000E839
:1000A0007648170000E40B54020000CA9A3B000097
:1000B00000E1F505000080969800000040420F0026
:1000C0000000A08601000000102700000000E803E7
:1000D000000000006400000000000A0000000000B2
:1000E0000100000000002C76D888DC674F0823DF71
:1000F000C1DFAE59E1B1B796E5E3E453C63AE65144
:10010000997696E8E6C28426EB898C9B62ED407C6A
:100110006FFCEFBC9C9F40F2BAA56FA5F490055A06
:100120002AF75C936B6CF9676DC11BFCE0E40D472B
:10013000FEF520E6B500D0ED902E0300943577054E
:100140000080841E080000204E0A000000C80C3306
:100150003333330F986E12831141EF8D2114893B95
:10016000E65516CFFEE6DB18D1844B381BF77C1D15
:10017000901DA4BBE424203284725E228100C9F168
:1001800024ECA1E53D277C3C3E5E2B3D3F2F5B5D93
:100190003B2C2A225C000000000203000A0B000036
:1001A0000000050409080000000000000000000035
:1001B000000000000000010204081020408001023D
:1001C0000408102040800102040810204080010231
:1001D000040810204080020202020202020204040B
:1001E00004040404040403030303030303030101DD
:1001F0000101010101010000200023002600290067
:1002000000002200250028002B000000210024000F
:1002100027002A0080013C1060139E2075270C28BF
:10022000960111241FBECFEFD0E4DEBFCDBF12E098
:10023000A0E0B1E0E2E4F9E600E00BBF02C0079005
:100240000D92A632B107D9F726E0A6E2B2E001C0CE
:100250001D92A639B207E1F711E0C0E1D1E004C078
:100260002197FE010E944A2FCA30D107C9F70E9488
:10027000782B0C9494340C940000DC01ED91FC91EB
:100280000190F081E02D0994982F92959F708F70C6
:100290002AE0929F800D11240895833051F150F48B
:1002A000813081F08230E9F064E670E080E090E037
:1002B0000C940C2C853011F1F8F061E08630A1F738
:1002C00084E10DC061E086E00E94BA2C61E085E027
:1002D0000E94BA2C85B18E6085B960E084E00C94F0
:1002E000F62C61E084E00E94F62C85B1817F85B90F
:1002F000089561E08AE1F3CF60E0FCCF60E0E0CFF9
:100300006AE171E08AE492E00E94952967E271E077
:1003100084E492E00E94952964E272E08EE392E028
:100320000E9495298DE292E00C94E1228EE392E006
:100330000E94232984E492E00E9423298AE492E027
:100340000C942329CF93DF9361E570E085EA94E074
:100350000E941D2070E060E085EA94E00E943D016B
:1003600085EA94E00E949B2046E050E061E570E061
:1003700085EA94E00E94982085EA94E00E94481F54
:100380000E9444018093260285EA94E00E94481F5F
:100390008F770E944401D82F85EA94E00E94481F7D
:1003A0008F770E944401C82F85EA94E00E94481F7D
:1003B0000E94440190E0B0E0A0E080932702909377
:1003C0002802A0932902B0932A0285EA94E00E94B1
:1003D000481F0E94440124E6829FC0011124092E77
:1003E000000CAA0BBB0B4091270250912802609190
:1003F000290270912A02840F951FA61FB71F8093B0
:10040000270290932802A0932902B0932A0285EA3A
:1004100094E00E94481F0E94440140E157E2849FFB
:100420009001859F300D1124032E000C440B550BB9
:100430008091270290912802A0912902B0912A026E
:10044000280F391F4A1F5B1FA0E1BEE00E94532FF7
:10045000AB01BC012CE3C29FC0011124092E000C8A
:10046000AA0BBB0B8D0F911DA11DB11D840F951FF4
:10047000A61FB71F8093270290932802A0932902FA
:10048000B0932A02DF91CF9108950F931F93CF93DA
:10049000DF93C82F65E570E085EA94E00E941D2097
:1004A0000C2E000CDD0BBE0185EA94E00E943D019C
:1004B00085EA94E00E949B2041E050E065E570E011
:1004C00085EA94E00E94982085EA94E00E94481F03
:1004D0008C0165E570E085EA94E00E941D20BE0174
:1004E0006F5F7F4F85EA94E00E943D0185EA94E0CA
:1004F0000E949B2041E050E065E570E085EA94E0D1
:100500000E94982085EA94E00E94481F20E0382F3E
:10051000C901800F911FDF91CF911F910F91089515
:10052000CF92DF92EF92FF920F931F93CF93DF93BF
:10053000CDB7DEB7C254D1090FB6F894DEBF0FBEF7
:10054000CDBF61E081E00E94BA2C61E082E00E94B0
:10055000BA2C61E083E00E94BA2C61E08AE10E943B
:10056000BA2C61E084E10E94BA2C61E084E00E9430
:10057000BA2C61E085E00E94BA2C61E086E00E941E
:10058000BA2C61E087E00E94BA2C61E080E00E9412
:10059000BA2C82E00E944D0184E00E944D0186E069
:1005A0000E944D0140EA56E861E070E085EA94E07F
:1005B0000E940F2026E040E052EC61E070E08FE402
:1005C00095E00E94B32626E040E056E960E070E046
:1005D0008CEE95E00E94B3266AE571E08FE495E029
:1005E0000E94A1288091060120E4829FC00111246D
:1005F000806180937C0080917A00846080937A008F
:1006000080917A00826080937A0080917A00816084
:1006100080937A0061E087E10E94BA2C60E087E174
:100620000E94F62C60E080E00E94F62C05E010E0CD
:1006300062E370E080E090E00E940C2C61E087E1D2
:100640000E94F62C62E370E080E090E00E940C2CA7
:1006500060E087E10E94F62C0150110949F761E53D
:1006600070E085EA94E00E941D2063E285EA94E050
:100670000E94A11F60E085EA94E00E94A11F60E053
:1006800085EA94E00E94A11F65E085EA94E00E945B
:10069000A11F60E085EA94E00E94A11F60E085EA66
:1006A00094E00E94A11F67E985EA94E00E94A11FDF
:1006B00060E085EA94E00E94A11F60E085EA94E092
:1006C0000E94A11F85EA94E00E949B2061E570E0F2
:1006D00085EA94E00E941D206FE270E085EA94E0D4
:1006E0000E943D016CE270E085EA94E00E943D01C9
:1006F00085EA94E00E949B2061E570E085EA94E041
:100700000E941D2068E270E085EA94E00E943D01AD
:1007100067E970E085EA94E00E943D0185EA94E093
:100720000E949B2061E570E085EA94E00E941D2014
:1007300060E085EA94E00E94A11F60E085EA94E011
:100740000E94A11F60E085EA94E00E94A11F60E082
:1007500085EA94E00E94A11F60E085EA94E00E948F
:10076000A11F60E085EA94E00E94A11F60E085EA95
:1007700094E00E94A11F85EA94E00E949B2063E61A
:1007800071E0CE0101960E9495296AE472E0CE01E3
:1007900001960E944A2B60E771E00E945D2B64E4A1
:1007A00072E00E944A2B60E771E00E945D2BBC0161
:1007B000CE01CD960E947D2ACE0101960E9423296A
:1007C00081E10E94242D892B09F4ABC068E570E01B
:1007D00085EA94E00E941D2068E070E085EA94E0DC
:1007E0000E943D0170E060E085EA94E00E943D01D6
:1007F00085EA94E00E949B2040E168E585EA94E068
:100800000E94952010E185EA94E00E94481F082F7D
:10081000803130F462E771E0CE01CD960E94282B42
:1008200040E1602FCE0101960E94B429BE016F5FA6
:100830007F4FCE01CD960E94212BCE0101960E94C2
:1008400023298091360290913702A0913802B0910D
:100850003902800F911DA11DB11D80933602909326
:100860003702A0933802B0933902115061F664E761
:1008700071E08FE495E00E94A12881E00E944D0183
:1008800064E670E080E090E00E940C2C64E080E57B
:1008900092E00E94860E811108C06DE771E08FE43E
:1008A00095E00E94A1281092070181E090E09093CA
:1008B0003D0280933C0260913C0270913D02683C95
:1008C0007105B0F54AE0CE014C960E940D2ABE019A
:1008D000645E7F4FCE0101960E947D2A6CE871E034
:1008E000CE0101960E945D2BBC018EE392E00E9436
:1008F000662ACE0101960E942329CE014C960E94C1
:10090000232960913E0270913F0280E592E00E94AF
:100910003110882369F080913C0290913D0201964C
:10092000C6CF6EEB71E0CE01CD960E94282B9FCFF3
:1009300060913C0270913D026150710970933D02DB
:1009400060933C024AE0CE014C960E940D2ABE0103
:10095000645E7F4FCE0101960E947D2A6CE871E0B3
:10096000CE0101960E945D2BBC018EE392E00E94B5
:10097000662ACE0101960E942329CE014C960E9440
:10098000232940913E0250913F0223E160E572E04D
:10099000CE014C960E94A60FCE014C960E942A0DC5
:1009A0006B017C0161E971E08FE495E00E9483288E
:1009B0002AE030E0B701A6018FE495E00E941129FA
:1009C00089E6C81680E2D80689E5E806F10408F44D
:1009D0005BC0CE014C960E94680D60913C02709104
:1009E0003D026F5F7F4F70933D0260933C024AE08F
:1009F000CE01C7960E940D2ABE01695C7F4FCE01D1
:100A000001960E947D2A6CE871E0CE0101960E9459
:100A10005D2BBC018EE392E00E94662ACE01019616
:100A20000E942329CE01C7960E94232940913E02AD
:100A300050913F0223E160E572E0CE0101960E94F1
:100A4000A60F8B819C819F8F8E8F8D819E81AF8120
:100A5000B88588A399A3AAA3BBA389859A85AB85EA
:100A6000BC858CA39DA3AEA3BFA3DE011D96FE0192
:100A7000B896CE01C5962D912193E817F907D9F7BD
:100A80008A8D9B8D9EAB8DAB6CE971E08FE495E018
:100A90000E9483286EE372E08FE495E00E948F2825
:100AA000CE014C960E947A0D882369F1BE01635CE9
:100AB0007F4FCE014C960E948F28CE014C960E940B
:100AC000680DBE01635C7F4F8FE495E00E948F2824
:100AD00082E00E944D0110922C0210922B02CE0156
:100AE000CD960E942329CE5BDF4F0FB6F894DEBF70
:100AF0000FBECDBFDF91CF911F910F91FF90EF906F
:100B0000DF90CF90089567EA71E08FE495E00E944E
:100B1000A12810920701D5CF2F923F924F925F925A
:100B20006F927F928F929F92AF92BF92CF92DF92FD
:100B3000EF92FF920F931F93CF93DF93CDB7DEB762
:100B4000CC50DC400FB6F894DEBF0FBECDBF64E2E0
:100B500072E0CE018F52984F0E94952981E10E9448
:100B6000242D892B09F4AFC10E94A20161EB71E031
:100B7000CE018F52984F0E94282B60913A027091BB
:100B80003B024AE0CE0101960E940D2ABE016F5F32
:100B90007F4FCE018F52984F0E94212BCE0101969C
:100BA0000E94232960E771E0CE018F52984F0E9486
:100BB000282B4091270250912802609129027091C0
:100BC0002A022AE0CE0101960E94392ABE016F5FF7
:100BD0007F4FCE018F52984F0E94212BCE0101965C
:100BE0000E94232961E671E0CE018F52984F0E9446
:100BF000282B4AE060912602CE0101960E94B4297A
:100C0000BE016F5F7F4FCE018F52984F0E94212B04
:100C1000CE0101960E94232960E771E0CE018F5238
:100C2000984F0E94282B65EA74E08DE292E00E94C2
:100C30009A236AEB71E0882309F447C18DE292E0C0
:100C40000E942124AB01BC0122E0CE0101960E944A
:100C5000952ABE016F5F7F4FCE018F52984F0E9441
:100C6000212BCE0101960E94232960E771E0CE017D
:100C70008F52984F0E94282B8DE292E00E944324CD
:100C8000AB01BC0122E0CE0101960E94952ABE0173
:100C90006F5F7F4FCE018F52984F0E94212BCE0164
:100CA00001960E94232988E00E9445028C018AE077
:100CB0000E9445027C0160E771E0CE018F52984F9F
:100CC0000E94282BB801110F880B990B0E942F2E20
:100CD00020E030E04AE754E40E94BB2DAB01BC01A8
:100CE00022E0CE0101960E94952ABE016F5F7F4FE0
:100CF000CE018F52984F0E94212BCE0101960E9467
:100D0000232960E771E0CE018F52984F0E94282B73
:100D10004AE0B701CE0101960E94E129BE016F5F52
:100D20007F4FCE018F52984F0E94212BCE0101960A
:100D30000E94232960E771E0CE018F52984F0E94F4
:100D4000282B84E00E9445024AE0BC01CE010196B6
:100D50000E94E129BE016F5F7F4FCE018F52984FF5
:100D60000E94212BCE0101960E94232960E771E0A9
:100D7000CE018F52984F0E94282B86E00E94450298
:100D80004AE0BC01CE0101960E94E129BE016F5FDD
:100D90007F4FCE018F52984F0E94212BCE0101969A
:100DA0000E94232960E771E0CE018F52984F0E9484
:100DB000282B8CE00E944502BC01990F880B990BEF
:100DC0000E942F2E2DEC3CEC4CEC5DE30E94BB2EE0
:100DD00023E333E948E853E40E944E2DAB01BC0104
:100DE00022E0CE0101960E94C52ABE016F5F7F4FAF
:100DF000CE018F52984F0E94212BCE0101960E9466
:100E0000232960E771E0CE018F52984F0E94282B72
:100E100060912B0270912C024AE0CE0101960E9453
:100E20000D2ABE016F5F7F4FCE018F52984F0E94F7
:100E3000212BCE0101960E94232910922C021092A0
:100E40002B02BE016F52784F8FE495E00E948F28ED
:100E5000CE018F52984F0E94232983E00E944D01BA
:100E600064E670E080E090E00E940C2C64E272E0A6
:100E7000CE018F52984F0E9495298EE0ECE0F1E070
:100E8000DE01119601900D928A95E1F78E010F5FB8
:100E90001F4F7E012FE0E20EF11CF80161918F01DE
:100EA0008CEE95E00E9466260E151F05B1F78CEEBC
:100EB00095E00E94CC258C01892B69F08CEE95E0A1
:100EC0000E94E625F4CF62EC71E0CE018F52984F7C
:100ED0000E94282BE8CEB12CA12CC12CD12C76015C
:100EE000912C8CEE95E00E94CC25892B09F47DC3D2
:100EF0008CEE95E00E94E625843219F4FFEFAF1ADC
:100F0000BF0A29E5A21622E0B2060CF460C364E22F
:100F100072E0CE018F52984F0E94862AC12CD12CAC
:100F20007601B12C8CEE95E00E94CC25892B09F43A
:100F300081C38CEE95E00E94E625843209F064C3FB
:100F40000F5F1F4F053111050CF468C30E94A20109
:100F500069EC71E0CE018F52984F0E94282B40918E
:100F60002702509128026091290270912A022AE0FA
:100F7000CE0101960E94392ABE016F5F7F4FCE01DC
:100F80008F52984F0E94212BCE0101960E94232957
:100F900061E671E0CE018F52984F0E94282B4AE003
:100FA00060912602CE0101960E94B429BE016F5FB6
:100FB0007F4FCE018F52984F0E94212BCE01019678
:100FC0000E94232980910701882391F081E00E94EB
:100FD0004D0164E080E592E00E94860E811139C3E4
:100FE0006DE771E08FE495E00E94A128109207015F
:100FF000BE016F52784F8FE495E00E948F28CE019A
:101000008F52984F0E9423295CE8A52E5AE0B52EF6
:101010006FE9662E7EE9772EF1E0F5B98091060141
:101020008295880F880F807C80937C0064B882E072
:1010300090E00E94452C74B888E090E00E94452C16
:101040007E0127E4E21A24EFF20AC701C296670183
:10105000F601119211926F018E179F07C9F7212C8B
:10106000312C2101912C812C10E000E080917A003C
:10107000806480937A00F3B1C45FD34FF883CC507F
:10108000DC4084E190E00E94452C64B882E090E06E
:101090000E94452C74B880917A0084FFFCCF809127
:1010A000780080933502809179008093340280919A
:1010B0007A00806180937A009091340280913502A9
:1010C0009093330280933202C45FD34F2881CC5077
:1010D000DC4020FFEFC23FEF831A930A3FEF231A51
:1010E000330A430A530A80EA281686E8380681E064
:1010F0004806510409F0BACF64E272E0CE018A5F7B
:10110000934F0E94952981E10E94242D892B09F497
:1011100000C30E94A20160ED71E0CE018A5F934F8F
:101120000E94282B60913A0270913B024AE0CE0166
:101130008551944F0E940D2ABE016551744FCE0116
:101140008A5F934F0E94212BCE018551944F0E94BC
:10115000232960E771E0CE018A5F934F0E94282B1C
:1011600040912702509128026091290270912A0231
:101170002AE0CE018551944F0E94392ABE01655163
:10118000744FCE018A5F934F0E94212BCE0185516F
:10119000944F0E94232961E671E0CE018A5F934F4C
:1011A0000E94282B4AE060912602CE018551944F7F
:1011B0000E94B429BE016551744FCE018A5F934FDE
:1011C0000E94212BCE018551944F0E94232960E774
:1011D00071E0CE018A5F934F0E94282B4AE0B40150
:1011E000CE018551944F0E940D2ABE016551744F66
:1011F000CE018A5F934F0E94212BCE018551944FDF
:101200000E94232960E771E0CE018A5F934F0E941C
:10121000282B65EA74E08DE292E00E949A236AEB43
:1012200071E0882309F477C28DE292E00E942124C4
:10123000AB01BC0122E0CE018551944F0E94952A5A
:10124000BE016551744FCE018A5F934F0E94212BDE
:10125000CE018551944F0E94232960E771E0CE01B1
:101260008A5F934F0E94282B8DE292E00E944324D4
:10127000AB01BC0122E0CE018551944F0E94952A1A
:10128000BE016551744FCE018A5F934F0E94212B9E
:10129000CE018551944F0E94232960E771E0CE0171
:1012A0008A5F934F0E94282B88E00E944502BC0170
:1012B000990F880B990B0E942F2E20E030E04AE70F
:1012C00054E40E94BB2DAB01BC0122E0CE0185514C
:1012D000944F0E94952ABE016551744FCE018A5FDA
:1012E000934F0E94212BCE018551944F0E942329B8
:1012F00060E771E0CE018A5F934F0E94282B8AE05D
:101300000E9445024AE0BC01CE018551944F0E94E3
:10131000E129BE016551744FCE018A5F934F0E944F
:10132000212BCE018551944F0E94232960E771E063
:10133000CE018A5F934F0E94282B84E00E944502D1
:101340004AE0BC01CE018551944F0E94E129BE01C3
:101350006551744FCE018A5F934F0E94212BCE01BD
:101360008551944F0E94232960E771E0CE018A5F86
:10137000934F0E94282B86E00E9445024AE0BC0160
:10138000CE018551944F0E94E129BE016551744FF1
:10139000CE018A5F934F0E94212BCE018551944F3D
:1013A0000E94232960E771E0CE018A5F934F0E947B
:1013B000282B8CE00E944502BC01990F880B990BE9
:1013C0000E942F2E2DEC3CEC4CEC5DE30E94BB2EDA
:1013D00023E333E948E853E40E944E2DAB01BC01FE
:1013E00022E0CE018551944F0E94C52ABE0165516D
:1013F000744FCE018A5F934F0E94212BCE018551FD
:10140000944F0E94232960E771E0CE018A5F934FD9
:101410000E94282BF701619171917F014AE0CE0172
:101420008551944F0E940D2ABE016551744FCE0123
:101430008A5F934F0E94212BCE018551944F0E94C9
:101440002329EC14FD04F9F680913A0290913B02B5
:10145000019690933B0280933A0280910701882382
:10146000C9F181E00E944D0164E080E592E00E94B4
:10147000860E6DE771E0882309F455C140913E0264
:1014800050913F0223E160E572E0CE018551944F17
:101490000E94A60FCE018551944F0E947A0D882399
:1014A00009F43FC161E087E10E94F62CBE016A5F4A
:1014B000734FCE018551944F0E948F28CE018551E4
:1014C000944F0E94680D60E087E10E94F62C82E054
:1014D0000E944D01BE016A5F734F8FE495E00E9448
:1014E0008F28CE018A5F934F0E94232967ED71E018
:1014F000CE018A5F934F0E9495294AE0B801CE0140
:101500008551944F0E940D2ABE016551744FCE0142
:101510008A5F934F0E94212BCE018551944F0E94E8
:101520002329053FF1E01F0710F004EF11E09E01B1
:101530002F5F3F4F4901CE018F52984F6C01F12C24
:10154000E12CE016F10609F4F5C060E771E0CE0188
:101550008A5F934F0E94282BF40141915191619130
:1015600071914F012AE0CE018551944F0E94392A92
:10157000BE016551744FCE018A5F934F0E94212BAB
:10158000CE018551944F0E94232960E771E0CE017E
:101590008A5F934F0E94282BF601619171916F0130
:1015A0004AE0CE018551944F0E940D2ABE0165513B
:1015B000744FCE018A5F934F0E94212BCE0185513B
:1015C000944F0E942329FFEFEF1AFF0ABACF992008
:1015D00019F08A3209F49BCC99249394813409F050
:1015E000912CC12CD12C76017CCC3FEFC31AD30AAD
:1015F000E30AF30A81E6C8168EEAD8068AE0E8060E
:10160000F10408F46ECC83CC053111050CF09ECCAE
:10161000C12CD12C7601BB2009F484CC682FCE01DB
:101620008F52984F0E94372BC12CD12C7601BB24AE
:10163000B39478CC9FEFC91AD90AE90AF90AE1E60E
:10164000CE16EEEADE06EAE0EE06F10408F46ACC15
:10165000B9CC40913E0250913F0223E160E572E037
:10166000CE0101960E94A60FCE0101960E947A0D2E
:101670008823B9F061E087E10E94F62CBE016F5229
:10168000784FCE0101960E948F2860E087E10E948A
:10169000F62CCE0101960E94680D82E00E944D0159
:1016A000A7CC67EA71E08FE495E00E94A128109230
:1016B0000701F3CF8931910558F4880F991FF7017D
:1016C000E80FF91F8081918101969183808306CD77
:1016D000043FE1E01E07D0F4F801EE0FFF1FEE0F0C
:1016E000FF1F21E030E02C0F3D1FE20FF31F20828F
:1016F000318242825382F801EE0FFF1F21ED37E065
:101700002C0F3D1FE20FF31F918380830F5F1F4F4C
:10171000E5CC62EC71E0CE018A5F934F0E94282BEA
:10172000BCCD67EA71E08FE495E00E94A128109299
:101730000701CDCE80910701882389F181E00E94C5
:101740004D0164E080E592E00E94860E6DE771E055
:10175000882309F49EC040913E0250913F0223E14C
:1017600060E572E0CE018551944F0E94A60FCE0134
:101770008551944F0E947A0D882309F488C0BE01D8
:101780006A5F734FCE018551944F0E948F28CE011E
:101790008551944F0E94680D82E00E944D0161E0E6
:1017A00087E10E94F62CBE016A5F734F8FE495E0DB
:1017B0000E948F2860E087E10E94F62CCE018A5FAC
:1017C000934F0E94232980913A0290913B02893FD6
:1017D0009A42F0F110923B0210923A0260913C0260
:1017E00070913D026F5F7F4F70933D0260933C02AA
:1017F0004AE0CE018A5F934F0E940D2ABE016A5FC4
:10180000734FCE018551944F0E947D2A6CE871E0A0
:10181000CE018551944F0E945D2BBC018EE392E076
:101820000E94662ACE018551944F0E942329CE0141
:101830008A5F934F0E9423296CE971E08FE495E061
:101840000E9483286EE372E08FE495E00E948F2867
:1018500031E0A31AB10809F0DFCBC45FD34F0FB654
:10186000F894DEBF0FBECDBFDF91CF911F910F91D6
:10187000FF90EF90DF90CF90BF90AF909F908F90B0
:101880007F906F905F904F903F902F90089567EA00
:1018900071E08FE495E00E94A128109207017CCFAF
:1018A00090E080E00895CF93DF931F92CDB7DEB72D
:1018B0006983DC01ED91FC910280F381E02D41E030
:1018C00050E0BE016F5F7F4F09950F90DF91CF9180
:1018D0000895CF93DF93EC01E98DFA8D309749F4A9
:1018E00081E090E09B838A8390E080E0DF91CF915C
:1018F000089513821282898D9A8D0E94E718E98DCE
:10190000FA8D22813381232B59F7F0CFFC01818D91
:10191000928D009711F00C9476160895CF93DF9373
:101920001F92CDB7DEB741E050E0BE016F5F7F4F41
:101930000E949A14019731F4898190E00F90DF9111
:10194000CF9108958FEF9FEFF9CFFC01818D928D9C
:10195000009711F00C948E0C8FEF9FEF08950F936A
:101960001F93CF93DF93EC01898D9A8D10E000E0F7
:10197000009799F00E948E0C8C010F3F100769F0C0
:10198000898D9A8DFC01428553856485758541500A
:101990005109610971090E94E215C801DF91CF91D7
:1019A0001F910F910895EF92FF920F931F93CF9382
:1019B000DF93EC017B018A011B821A8288EE93E09F
:1019C000A0E0B0E08C839D83AE83BF8382EE91E084
:1019D000998388838DE190E00E948B2F9A8F898F65
:1019E000009779F02DE1F701DC0101900D922A9525
:1019F000E1F74CE050E0B801CE010C960E94B931FD
:101A0000188EDF91CF911F910F91FF90EF90089565
:101A1000FC011382128288EE93E0A0E0B0E08483A0
:101A20009583A683B78382EE91E091838083128EA3
:101A3000118E14860895DC015996ED91FC91309732
:101A400029F0628573858485958508956FEF7FEF12
:101A5000CB010895DC015996ED91FC91309729F066
:101A60006389748985899689089560E070E0CB0167
:101A70000895CF92DF92EF92FF92CF93DF93FC0114
:101A8000218D328D232B09F1EC010E942A0D6B016F
:101A90007C01CE010E941B0DA7019601261B370B6E
:101AA000480B590BDA01C901811530E89307A105EC
:101AB000B10520F08FEF9FE7A0E0B0E0DF91CF917C
:101AC000FF90EF90DF90CF90089590E080E0F6CF08
:101AD000CF93DF93EC01898D9A8D009741F00E949E
:101AE000BF16898D9A8D0E9427301A8E198EDF912C
:101AF000CF910895DC015996ED91FC91309721F03A
:101B000081E09581911101C080E008951F93CF93EA
:101B1000DF93CDB7DEB76D970FB6F894DEBF0FBE7B
:101B2000CDBFAB011C821B8226EF31E03A832983B3
:101B30001E8221E0BC01CE0101960E94FA1711E03D
:101B400081110CC010E0812F6D960FB6F894DEBFA6
:101B50000FBECDBFDF91CF911F910895CE010196A9
:101B60000E94BF16F0CFEF92FF920F931F93CF9377
:101B7000DF937B01DB012D913C91FC01E20FF31F10
:101B800060816F3211F42F5F3F4F8C01020F131FE2
:101B9000EA01F0E0E0E0D8017D918D017F3249F06B
:101BA000772339F02F5F3F4F31967993EC30F10571
:101BB00091F7E40FF51F1082FC01E20FF31F408143
:101BC0004F3211F42F5F3F4FF70131832083280FED
:101BD000391F81E0D9019C91911101C080E0DF9112
:101BE000CF911F910F91FF90EF9008954F925F92C8
:101BF0006F927F928F929F92AF92BF92CF92DF921D
:101C0000EF92FF920F931F93CF93DF93CDB7DEB781
:101C1000C954D1090FB6F894DEBF0FBECDBF5C0129
:101C20006B013A01490119A218A286EF91E09F8F3A
:101C30008E8F1BA21C821B829A8389831E822A9606
:101C40001FAE1EAE2A978B017E018EE1E80EF11CBD
:101C500044244394AE01455C5F4FBE01685B7F4FF7
:101C6000C5010E94B30D582E482F44259401BE0192
:101C7000655C7F4FC801F3010995811120C00C15E7
:101C80001D05C9F480E0C75BDF4F0FB6F894DEBFD7
:101C90000FBECDBFDF91CF911F910F91FF90EF90BD
:101CA000DF90CF90BF90AF909F908F907F906F907C
:101CB0005F904F900895C8010E94BF16E3CF552052
:101CC00091F021E0AE01455C5F4FB801C7010E9471
:101CD000FA17582E0C151D0571F0C8010E94BF1689
:101CE00051100EC0CFCF0C151D0519F0C8010E9470
:101CF000BF1681E0C8CF882329F28E010F5F1F4FE6
:101D0000902F812F8701E92EF82EA4CF0F931F93D8
:101D1000CF93DF93EC01162F8FA5882321F0CE01FE
:101D20008A960E94BF16412F61E0CE010E945E118B
:101D3000811102C090E012C08E01045F1F4F41E08C
:101D4000BE01C8010E94211E882371F0B801CE0196
:101D50008A960E944A1491E0882361F3892FDF91CB
:101D6000CF911F910F91089540E0BE01C8010E94DC
:101D7000211E8823F9F2EACFFC01DB0112968D9136
:101D80009C9113979383828386EF91E09183808364
:101D900014968C911497848315968C91159785834E
:101DA00016964D915D916D917C911997468357835D
:101DB000608771871A964D915D916D917C911D9709
:101DC00042875387648775871E964D915D916D910B
:101DD0007C91519746875787608B718B52968C9177
:101DE0005297828B53964D915D916D917C91569750
:101DF000438B548B658B768B57964D915D916D918E
:101E00007C915A97478B508F618F728F5B968D9123
:101E10009C91948F838F08954F925F926F927F92DF
:101E20008F929F92AF92BF92CF92DF92EF92FF92EA
:101E30000F931F93CF93DF93CDB7DEB7C754D1096C
:101E40000FB6F894DEBF0FBECDBF5C014A01390169
:101E5000665D7F4F7E018EE1E80EF11CC7010E9496
:101E6000BC0E1C821B8286EF91E09A8389831E82BE
:101E70008401FE0131966F015E2C4F2C6FE270E001
:101E8000C8010E94A731009709F455C0F8012081CC
:101E90002F3219F40F5F1F4FF1CF801B8D3008F0E8
:101EA0008CE0E82EF12CA701B801CE01CB960E9460
:101EB000B931EBE3F0E0EC0FFD1FEE0DFF1D1082DA
:101EC000C6010E94BF1621E0AE01455C5F4F652D43
:101ED000742DC6010E94FA17811121C0F5011382E9
:101EE000128286EF91E0918380831582C501C95BE0
:101EF000DF4F0FB6F894DEBF0FBECDBFDF91CF919D
:101F00001F910F91FF90EF90DF90CF90BF90AF9017
:101F10009F908F907F906F905F904F9008950E0DDF
:101F20001F1D852D942D0E94BF16C2015C2C4D2CC7
:101F3000C92ED82EA3CF08191909F30111830083E4
:101F4000652D742DC5010E94BC0ED0CFAF92BF92FB
:101F5000CF92DF92FF920F931F93CF93DF93CDB772
:101F6000DEB7C955D1090FB6F894DEBF0FBECDBF9D
:101F70006C015B018A01F22E9E01285A3F4FCE016F
:101F8000CB960E940C0F6A968EAD9FAD6A97080F94
:101F9000191FF8018081811110C0BE01655C7F4F5F
:101FA000CE0101960E94BC0E40EF51E0BE016F5F72
:101FB0007F4FC6010E94D30C0FC019A218A286EF52
:101FC00091E09F8F8E8F1BA221968FAD219781115B
:101FD00015C0C6010E94080DC601C75ADF4F0FB6D3
:101FE000F894DEBF0FBECDBFDF91CF911F910F914F
:101FF000FF90DF90CF90BF90AF90089582508230D5
:10200000F8F4B501665D7F4F2F2DA801CE014E96E5
:102010000E94FA178823E9F28F2D867041F049A9B2
:102020005AA96BA97CA9CE014E960E94E215BE0169
:10203000625E7F4FCE0101960E94BC0EA801B6CF12
:102040002F2DA801BE01655C7F4FCE014E960E94E8
:10205000FA17882309F4BDCFCE01CB960E94BF1694
:10206000DBCFFB01BC01665D7F4F30E020E046E83E
:102070005DE0CF010C94F60DE0E5F2E015821682EA
:102080001186138682E090E0A0E0B0E08487958717
:10209000A687B78713A215A614A686EF91E093A78B
:1020A00082A717A608959FB7F89420914D058091B7
:1020B0004B05213019F48DBB9FBF08958FBF089544
:1020C00020914D05222381F03FB7F89420914D05D2
:1020D000213069F42DB320934B054DB320914C056D
:1020E000209524232DBB3FBF8CBD9DBD089530930B
:1020F0004B05FACF8EBD00000DB407FEFDCF8EB5A7
:1021000008958FEF0C947A1061E0FC0184810E94A5
:10211000F62C80919902882339F0109299028091CF
:102120004D0581110C9453100895CF93DF93EC016A
:1021300080919902811109C081E080939902809178
:102140009A0290919B020E94601060E08C81DF9166
:10215000CF910C94F62CCF93DF93EC018E818823E2
:1021600089F08F8198859C012F5F3F4F38872F839F
:102170008230924018F40E948110F3CFCE010E9469
:1021800084101E82DF91CF910895673030F026E1F0
:10219000FC01258360E0862F0895623011F130F450
:1021A000662389F06130B9F083E508C06430D9F066
:1021B00081E5643018F082E56530B1F780939A02CA
:1021C00010929B0206C080E580939A0281E0809382
:1021D0009B0261E0E0CF80E580939A0210929B021F
:1021E000DACF81E5F1CF82E5EFCF0F931F93CF9345
:1021F000DF93EB010E94DB2B8B010E9481108F3F4C
:1022000069F00E94DB2B601B710B6C177D07A8F334
:1022100080E0DF91CF911F910F91089581E0F9CF78
:102220008F929F92AF92BF92FF920F931F93CF9383
:10223000DF93EC01F62E49015A010E94AB10CE014A
:102240000E9495106CE271E0CE010E94F5108F2D76
:1022500080640E947A1008E110E0D501C401002ECC
:1022600004C0B695A795979587950A94D2F70E94D2
:102270007A1008501109083F8FEF180771F785E9A8
:10228000FF2021F088E0F8120DC087E80E947A1044
:1022900010E00E9481108A8787FF06C01F3F21F04F
:1022A0001F5FF7CF8FEFF2CFDF91CF911F910F918B
:1022B000FF90BF90AF909F908F9008958F929F92C4
:1022C000AF92BF92EF92FF920F931F93CF93DF9342
:1022D000EC01E62E1B8619861E821D824C830E940D
:1022E000DB2B8B0161E08C810E94BA2C61E08C8138
:1022F0000E94F62C0E94962582E580939A02109205
:102300009B0280919A0290919B020E9460102AE0A9
:10231000F22E8FEF0E947A10FA94F110FACF80918A
:102320004D0581110E945310CE010E94951020E0AE
:1023300030E0A90160E0CE010E941011F82E8A87DA
:1023400081E0F816C1F00E94DB2B601B710B613D30
:10235000774068F381E08D83CE010E94841080E095
:10236000DF91CF911F910F91FF90EF90BF90AF90B1
:102370009F908F9008952AEA31E040E050E068E0B5
:10238000CE010E94101182FF25C0FB868B85812C17
:10239000912C5401823029F4812C912CA12C80E4C1
:1023A000B82E20E030E0A90167E3CE010E941011B1
:1023B000A501940169E2CE010E9410118A87882349
:1023C000C1F00E94DB2B601B710B613D774048F32D
:1023D00088E0C1CF94E0F92E0E9481108A87FA9498
:1023E000F110FACF8A3A11F082E0B5CF82E08B8704
:1023F000CDCF8B858230C1F420E030E0A9016AE3C3
:10240000CE010E941011882311F086E0A4CF0E9413
:102410008110807C803C11F483E08B870E948110C6
:102420000E9481100E948110CE010E9484106E2DA6
:10243000CE01DF91CF911F910F91FF90EF90BF9050
:10244000AF909F908F900C94C5100F931F93CF93D4
:10245000DF93EC010E94DB2B8B010E9481108A87A5
:102460008F3F91F40E94DB2B601B710B6D3271402A
:10247000A0F38FE08D83CE010E94841080E0DF9175
:10248000CF911F910F9108958E3F11F08DE0F2CF03
:1024900081E0F5CFCF92DF92EF92FF920F931F93DF
:1024A000CF93DF93EC016901C801820F931F813044
:1024B000924048F58E81882371F088819981AA81A4
:1024C000BB8184179507A607B70729F48F819885E4
:1024D000C816D90670F5488359836A837B838B8538
:1024E000833039F089E0440F551F661F771F8A95A6
:1024F000D1F79A01AB0161E1CE010E94101188234E
:1025000079F083E08D83CE010E94841080E0DF911A
:10251000CF911F910F91FF90EF90DF90CF90089592
:10252000CE010E942512882371F318861F8281E054
:102530008E838F8198858C159D0560F06701E00E74
:10254000F11EEC14FD0471F00E948110F6018193DC
:102550006F01F7CF0E9481108F819885019698872F
:102560008F83E7CF8F819885080F191F18870F83F6
:102570008985882319F00115124018F0CE010E94B8
:10258000AB1081E0C4CFEF92FF920F931F93011520
:10259000110539F00E944A121F910F91FF90EF90A0
:1025A000089581E0F9CFEF92FF920F931F93790185
:1025B00000E012E030E020E00E944A121F910F91EB
:1025C000FF90EF900895EF92FF920F931F93CF9398
:1025D000DF938C01862F7A010E947A10E7018EEF3B
:1025E000F81A89910E947A10CE15DF05D1F78FEF86
:1025F0000E947A108FEF0E947A100E948110F801D9
:1026000082878F71853069F081E18583C8010E94DE
:10261000841080E0DF91CF911F910F91FF90EF9098
:10262000089581E0F7CF0F931F93CF93DF93EC01D1
:10263000890182E1411551056105710599F08B858C
:10264000833039F089E0440F551F661F771F8A9544
:10265000D1F79A01AB0168E1CE010E9410118823E5
:1026600039F084E08D83CE010E94841080E023C085
:10267000A8016EEFCE010E94E3128823A1F368E562
:1026800072E0CE010E94F510811102C085E1EACF0F
:1026900020E030E0A9016DE0CE010E9410118823F6
:1026A00011F084E1DFCF0E9481108111FACFCE01B9
:1026B0000E94841081E0DF91CF911F910F910895C6
:1026C000EAE9F2E080E58083118208950895CF93CE
:1026D000DF93EC019C012A5F3F4F41E050E060E056
:1026E00070E08B8D9C8D0E94C01C8823A1F08F8987
:1026F000988DA98DBA8D892B8A2B8B2B59F48E81BD
:102700009F81A885B9858F8B988FA98FBA8F8C816F
:1027100080688C8381E0DF91CF9108958F929F92A2
:10272000AF92BF92CF92DF92EF92FF92CF93DF935F
:10273000EC010E94671381110CC080E0DF91CF9102
:10274000FF90EF90DF90CF90BF90AF909F908F90D1
:102750000895EB8DFC8DCE80DF80E884F98482E0E3
:10276000C81AD108E108F108858504C0CC0CDD1C2D
:10277000EE1CFF1C8A95D2F786859785A089B189C2
:10278000C80ED91EEA1EFB1E848146015701880E21
:10279000911CA11CB11C8C149D04AE04BF0461F0FB
:1027A00081E0881A9108A108B108C501B4010E940E
:1027B0000E1B8111F0CFC1CFEB8DFC8D258580E004
:1027C00092E0A0E0B0E004C0880F991FAA1FBB1FD1
:1027D0002A95D2F74B895C896D897E89840F951F74
:1027E000A61FB71F8B8B9C8BAD8BBE8B81E0A6CFBA
:1027F000CF93DF93EC01462F6E857F858889998979
:102800000E94D31A882351F08A8920E2829FC00156
:1028100011248B559D4FDF91CF91089590E080E07A
:10282000FACFFB019B01255F3F4F40E241932E17FA
:102830003F07E1F7DC0120E037E09D91492F992324
:1028400019F19E3229F43A3059F028E03AE0F5CFF8
:10285000E6E8F1E08491882329F031969813FACFC5
:1028600080E017C03217A8F05FED590F5E3588F48D
:102870008FE9890F8A3110F440EE490FFB01E20F16
:10288000F11D40832F5FD9CF81E0FB019081903211
:1028900039F308950F931F93CF93DF93FC012581A4
:1028A000222331F080E0DF91CF911F910F910895A5
:1028B0008B01EC01FB018789803139F582E08D8342
:1028C0001F8A188E198E1A8E808D918DB0E0A0E02F
:1028D00025E0880F991FAA1FBB1F2A95D1F78B8B64
:1028E0009C8BAD8BBE8B1C8F0B8F81E08C831E82EB
:1028F0001F82188619861A861B861C861D861E86D0
:102900001F86188A198A1A8ACECF803259F683E038
:102910008D83428D538D648D758D4F8B588F698F4C
:102920007A8F9E012D5E3F4FC8010E94B31B81111B
:10293000DACFB8CF2F923F924F925F926F927F92F1
:102940008F929F92AF92BF92CF92DF92EF92FF92BF
:102950000F931F93CF93DF93EC015B012A018D81CD
:10296000811115C08FEF9FEFDF91CF911F910F91D4
:10297000FF90EF90DF90CF90BF90AF909F908F909F
:102980007F906F905F904F903F902F9008958C8133
:1029900080FFE8CF0B891C892D893E894A855B859C
:1029A0006C857D85C201B0E0A0E068017901C41AA0
:1029B000D50AE60AF70AC816D906EA06FB0618F48D
:1029C0002801441A550A42011E0126E0220E311C3C
:1029D0008114910409F4B3C04A855B856C857D85BB
:1029E0006A0181E0D8228B8D9C8D8A019B01E9E0F0
:1029F0003695279517950795EA95D1F7ED81E23041
:102A0000E1F5FC01628D738D848D958D600F711FD2
:102A1000821F931F612C22E0722E6C187D08861491
:102A2000970408F434012C8126FD04C06114F2E0FF
:102A30007F0671F4009108011091090120910A01AB
:102A400030910B01061717072807390709F053C003
:102A500040E00E94D31A882309F484CFC6018B5525
:102A60009D4FD5019C01260D371DFC012E173F07F8
:102A700009F460C041914D93F9CFFC0174807A94C0
:102A80007022C114D10471F471100CC0452B462B77
:102A9000472B39F58F89988DA98DBA8D8E839F83A9
:102AA000A887B987EB8DFC8D6E817F81888599859C
:102AB0006250710981099109258504C0660F771F4D
:102AC000881F991F2A95D2F7068517852089318995
:102AD000600F711F821F931F670D711D811D911D56
:102AE00099CF4E815F816885798591010E94321B63
:102AF0008111D8CF37CF750183019601AB01BC019D
:102B00008091A3029091A4020E94C312882309F429
:102B100029CFA60CB71C8A859B85AC85BD85860D03
:102B2000971DA11DB11D8A879B87AC87BD8786181D
:102B300097084ECF281B390BA20EB31EECCFC20153
:102B400013CFFF920F931F93CF93DF931F92CDB7B5
:102B5000DEB7FC0125812230C8F08C014285538507
:102B60006485758585E076956795579547958A952F
:102B7000D1F7F42FFF70FF2E41E050E0BE016F5FF0
:102B80007F4FC8010E949A14019719F090E080E0ED
:102B900012C0F80182859385A485B5854F96A11D45
:102BA000B11D82879387A487B587F0E2FF9EC0019D
:102BB00011248B559D4F0F90DF91CF911F910F9155
:102BC000FF9008958F929F92AF92BF92CF92DF9223
:102BD000EF92FF920F931F93CF93DF93EC018D81C0
:102BE00081110EC080E0DF91CF911F910F91FF9076
:102BF000EF90DF90CF90BF90AF909F908F9008950F
:102C00000B891C892D893E8904171507260737076C
:102C100048F34A015B01823031F48A869B86AC8698
:102C2000BD8681E0E0CF81149104A104B10449F490
:102C30001E821F82188619861A861B861C861D8690
:102C4000F0CF0A851B852C853D85EB8DFC8D858518
:102C500090E00996B901A801415051096109710933
:102C6000082E04C076956795579547950A94D2F734
:102C700075016401E1E0CE1AD108E108F10804C051
:102C8000F694E794D794C7948A95D2F7C416D506DC
:102C9000E606F70620F0012B022B032B11F58F8996
:102CA000988DA98DBA8D8E839F83A887B9878E0151
:102CB0000A5F1F4FC114D104E104F10409F4ADCF40
:102CC0004E815F816885798598018B8D9C8D0E94EE
:102CD000321B91E0C91AD108E108F1088111EACF4D
:102CE00081CFC41AD50AE60AF70AE1CF0F931F93E2
:102CF000CF93DF93EC018D818823D9F18C8187FFFD
:102D000032C061E0CE010E94F8138C01892B89F159
:102D10008D81823048F48B899C89AD89BE89F80108
:102D2000848F958FA68FB78F8F89988DF801938F99
:102D3000828F8F89988DA98DBA8DB58BA48BE091E8
:102D40009C02F0919D02309759F0B8016A5E7F4F66
:102D5000C80148960995F801808D918D938B828BDF
:102D60008C818F778C83DF91CF911F910F910C9481
:102D7000981A80E0DF91CF911F910F910895CF9322
:102D8000DF93EC010E947616882311F01D8281E00A
:102D9000DF91CF9108954F925F926F927F928F92C1
:102DA0009F92AF92BF92EF92FF920F931F93CF9398
:102DB000DF9300D000D0CDB7DEB7FC018581813034
:102DC000A1F080E00F900F900F900F90DF91CF91C6
:102DD0001F910F91FF90EF90BF90AF909F908F90B9
:102DE0007F906F905F904F900895848181FFE9CF2D
:102DF00083899489A589B68984179507A607B7079B
:102E000000F3892B8A2B8B2B09F477C04A015B01D5
:102E10007F014284538464847584CF010E94E2154B
:102E2000882379F2F701838D948D81149104A10494
:102E3000B10449F54789508D618D728D0E94CB1D7B
:102E4000882309F4BECFF701178A108E118E128ED7
:102E5000F701838A948AA58AB68A848180688483EC
:102E6000C7010E947616882309F4ABCFB501A401EF
:102E7000441655066606770610F4B301A201C70191
:102E80000E94E2159FCF46815781608571859E0122
:102E90002F5F3F4F0E94321B882309F492CFF70126
:102EA000838D948D49815A816B817C81FC012789B6
:102EB0002031F1F408EF1FEF20E030E04017510718
:102EC0006207730728F60E94CB1D882309F479CF87
:102ED000F70146815781608571850FEF1FEF2FEF56
:102EE0003FE0838D948D0E941E1C8111B1CF69CF6C
:102EF00008EF1FEF2FEF3FE0E1CF81E063CFCF92EC
:102F0000DF92EF92FF921F93CF93DF93EC0180E269
:102F1000689FF0011124EB55FD4F9385917161F08D
:102F2000842F827449F080E0DF91CF911F91FF9050
:102F3000EF90DF90CF900895142F6A8B8091080155
:102F400090910901A0910A01B0910B018E879F8792
:102F5000A88BB98BC488D588F12CE12C7601DD24AF
:102F6000CC24CF8AD88EE98EFA8E828D938DB0E0F4
:102F7000A0E0AC01BD014C295D296E297F294F8B52
:102F8000588F698F7A8F8385887129F5848D958D07
:102F9000A68DB78D8B8B9C8BAD8BBE8B81E08D838B
:102FA000812F8F708C831E821F82188619861A8645
:102FB0001B861C861D8681E016FFB6CF40E050E0E0
:102FC000BA01CE01DF91CF911F91FF90EF90DF907A
:102FD000CF900C94CB16803109F0A5CF9E012D5EC9
:102FE0003F4F8B8D9C8D0E94B31B882309F49BCF90
:102FF00084E0D5CFBF92CF92DF92EF92FF920F93F2
:103000001F93CF93DF93CDB7DEB72B970FB6F8940E
:10301000DEBF0FBECDBFFC01358131110BC0C22E0A
:103020008B017C01BE016F5F7F4FCA010E941114AA
:10303000811102C080E0A1C0F801838D948DF70159
:10304000948F838FF801168217821086118612865C
:10305000138614861586B12CF80182859385A48584
:10306000B585438954896589768984179507A607AC
:10307000B70788F525E0B695A795979587952A9582
:10308000D1F7F82FFF70DF2EC8010E94A11500971D
:1030900089F2FC012081222341F0253E09F059C02C
:1030A000BB2029F0BB24B394D7CFB1100EC0F701D9
:1030B000D28A409108015091090160910A017091F2
:1030C0000B0146875787608B718BFC0180818111D2
:1030D000E9CFBB24B3948C2D8271823109F0AACF41
:1030E000BB2009F45AC061E0C7010E94F8138C01AB
:1030F000892B09F49FCF80E2F80111928A95E9F7B4
:103100008BE0FE013196D80101900D928A95E1F78E
:10311000E0919C02F0919D02309709F44EC0B801F5
:10312000625F7F4FC80140960995F80180899189B7
:10313000938B828B918F808F86859785978B868BDB
:103140000E94981A882309F475CF4C2DF7016289E3
:1031500011C04BE050E0BC01CE0101960E949131BC
:10316000892B09F079CF8C2D80734C2D6D2D8033F8
:1031700009F460CFC7010E947F172B960FB6F89411
:10318000DEBF0FBECDBFDF91CF911F910F91FF909A
:10319000EF90DF90CF90BF900895F8018581823045
:1031A00009F448CFC8010E948E13882309F442CF46
:1031B000F701128A05EA12E09ECF81E298E2F80157
:1031C000918B808B80E098E097878687AECF2F9297
:1031D0003F924F925F926F927F928F929F92AF92A7
:1031E000BF92CF92DF92EF92FF920F931F93CF93F4
:1031F000DF9300D000D0CDB7DEB78C016B011A0190
:10320000DC0115968C911597813009F0C8C0149691
:103210008C9181FFC4C082FDAEC04101D8011A96D5
:103220004D915D916D917C911D978114910409F4EC
:1032300029C15B968D919C915C97FC0174802FEF66
:10324000270D2A013B0139E07694679457944794FF
:103250003A95D1F7722E74207A01F1E0FF227110B5
:1032600020C0E114F104E9F416964D915D916D9141
:103270007C911997411551056105710509F098C0B8
:1032800057968D919D910D90BC91A02D0097A10511
:10329000B10509F0AFC0C8010E946713882309F483
:1032A0007EC080E092E08E199F095401881599052F
:1032B00008F45C01D8015B964D915C915C97169681
:1032C0008D919D910D90BC91A02D0297A109B109FE
:1032D000FA01258504C0880F991FAA1FBB1F2A95D4
:1032E000D2F74685578560897189840F951FA61F7F
:1032F000B71F9C01AD01270D311D411D511D290135
:103300003A01A11432E0B30609F07AC080910801B5
:1033100090910901A0910A01B0910B0184159505C6
:10332000A605B70559F48FEF9FEFDC0180930801E4
:1033300090930901A0930A01B0930B019601B30188
:10334000A2018091A3029091A4020E9413138823EA
:1033500031F19EEFD91A8A189B08F801828593856E
:10336000A485B5858A0D9B1DA11DB11D82879387FC
:10337000A487B58753CFF801438954896589768935
:1033800082859385A485B585481759076A077B0709
:1033900009F443CFC8010E94E21581113ECF81E0BC
:1033A00090E0D80113969C938E93129780E007C00B
:1033B0009E012F5F3F4F0E94321B811102C090E09F
:1033C0007BC089819A81AB81BC81F801238D348DCA
:1033D000F901278948EF5FEF60E070E0203121F0CC
:1033E00048EF5FEF6FEF7FE084179507A607B707F9
:1033F00008F051CFF80186839783A087B18751CF1A
:10340000E114F10491F5D8011A964D915D916D91F9
:103410007C911D9753968D919D910D90BC91A02DFF
:10342000481759076A077B0700F10E94981A8823FA
:1034300009F4B5CF409208015092090160920A0147
:1034400070920B018091A20281608093A202970189
:103450002B553D4FD601C9018A0D9B1DF9018E17D1
:103460009F0759F04D914193FACF41E0C301B2015A
:103470000E94D31A8111EBCF92CF821B930BC80EFF
:10348000D91E69CF14968C9114975396CD90DD90E8
:10349000ED90FC905697C416D506E606F70618F58B
:1034A000F801438B548B658B768B80688483F8019D
:1034B000848183FD25C0C1010F900F900F900F9064
:1034C000DF91CF911F910F91FF90EF90DF90CF9000
:1034D000BF90AF909F908F907F906F905F904F9034
:1034E0003F902F90089520919C0230919D02232BB4
:1034F000F1F221143104D9F2806814968C93D7CF5D
:10350000C8010E947616882309F449CFD4CFCF93FF
:10351000DF931F92CDB7DEB7698341E050E0BE0173
:103520006F5F7F4F0E94E7180F90DF91CF91089552
:103530008091A2028823A9F14091080150910901CC
:1035400060910A0170910B0125EA32E08091A3029B
:103550009091A4020E941313811102C080E008958B
:1035600040919E0250919F026091A0027091A10231
:10357000411551056105710591F025EA32E0809110
:10358000A3029091A4020E941313882339F310928E
:103590009E0210929F021092A0021092A10210921D
:1035A000A20281E00895CF92DF92EF92FF92CF9333
:1035B0006B017C01C42F8091080190910901A091B9
:1035C0000A01B0910B018C159D05AE05BF05F9F000
:1035D0000E94981A811107C080E0CF91FF90EF9070
:1035E000DF90CF90089525EA32E0B701A6018091DF
:1035F000A3029091A4020E94D312882369F3C0927F
:103600000801D0920901E0920A01F0920B01409169
:10361000A2024C2B4093A20281E0DFCFCF92DF9237
:10362000EF92FF926B017C010E94981A8823A9F007
:10363000E5EAF2E0119284E0E53AF807D9F7C092A2
:103640000801D0920901E0920A01F0920B018091E9
:10365000A20281608093A20281E0FF90EF90DF9050
:10366000CF9008958F929F92AF92BF92CF92DF92A8
:10367000EF92FF920F931F93CF93DF93FC0181850D
:103680009285A385B4850196A11DB11D8417950768
:10369000A607B70770F480E0DF91CF911F910F91DB
:1036A000FF90EF90DF90CF90BF90AF909F908F9062
:1036B000089583889488A588B6888789803189F59C
:1036C000BB27A72F962F852FE9016A017B018F0168
:1036D000BC01CD01680D791D8A1D9B1D80900801DC
:1036E00090900901A0900A01B0900B0186169706F0
:1036F000A806B90601F5F8018789803111F5DD24A6
:10370000EE24FF24F601EE0FFF1FEB55FD4F8081E5
:103710009181B0E0A0E088839983AA83BB8381E094
:10372000BBCFDB01CA01C7E0B695A79597958795F2
:10373000CA95D1F7C9CF40E00E94D31A8111DBCFDF
:10374000AACFE894C7F8DD24EE24FF24F601EE0F9B
:10375000FF1FEE0FFF1FEB55FD4F80819181A2816E
:10376000B381BF70D8CF4F925F926F927F92AF922A
:10377000BF92CF92DF92EF92FF920F931F93CF935E
:10378000DF9300D000D0CDB7DEB78C0149835A83D8
:103790006B837C835901C12CD12C7601412C82E0B2
:1037A000582E612C712C49815A816B817C819E013C
:1037B0002F5F3F4FC8010E94321B882339F1F80167
:1037C0008585A301920104C0220F331F441F551F9A
:1037D0008A95D2F7DA01C901C80ED91EEA1EFB1E6E
:1037E00049815A816B817C818789803111F188EF11
:1037F0009FEFAFEFBFE0481759076A077B0798F2C2
:10380000F501C082D182E282F38281E00F900F90B5
:103810000F900F90DF91CF911F910F91FF90EF903C
:10382000DF90CF90BF90AF907F906F905F904F9060
:10383000089588EF9FEFA0E0B0E0DDCF4F925F9258
:103840006F927F928F929F92AF92BF92CF92DF92B0
:10385000EF92FF920F931F93CF93DF93EC014230CF
:1038600051056105710590F480E0DF91CF911F91C2
:103870000F91FF90EF90DF90CF90BF90AF909F900F
:103880008F907F906F905F904F90089589859A8573
:10389000AB85BC850196A11DB11D84179507A607B0
:1038A000B70710F3CB88DC88ED88FE888F898031DC
:1038B00009F042C0BB27A72F962F852F4801590139
:1038C0002A013B01C80ED91EEA1EFB1E8091080189
:1038D00090910901A0910A01B0910B01C816D90677
:1038E000EA06FB0699F58F898031C1F5B301A20183
:1038F000552766277727440F551F4B555D4FFA0113
:10390000918280828091A20281608093A2028A8942
:10391000823080F08D819E81AF81B8858C0D9D1D98
:10392000AE1DBF1D80939E0290939F02A093A002A4
:10393000B093A10281E099CFDB01CA01E7E0B6951F
:10394000A79597958795EA95D1F7B8CF40E0C7013D
:10395000B6010E94D31A8111C6CF86CFB301A2014E
:103960004F77552766277727440F551F440F551F5C
:103970004B555D4FFA0180829182A282B382C2CF01
:103980002F923F924F925F926F927F928F929F926F
:10399000AF92BF92CF92DF92EF92FF920F931F935D
:1039A000CF93DF93CDB7DEB72F970FB6F894DEBF76
:1039B0000FBECDBF3C01488759876A877B873F830D
:1039C0002E83D901CD90DD90ED90FC90C114D104EF
:1039D000E104F10439F0BFEFCB1ADB0AEB0AFB0A72
:1039E0001D8210C0FC01C080D180E280F380F1E034
:1039F000FD83088519852A853B8501301105210540
:103A0000310571F7F30181859285A385B4858C0119
:103A10009D010F5F1F4F2F4F3F4F0C871D872E8734
:103A20003F8746015701212C312C2101F30181856B
:103A30009285A385B485281639064A065B0608F0E8
:103A400044C00C851D852E853F85081519052A055E
:103A50003B0550F482E0882E912CA12CB12C92E0F1
:103A6000C92ED12CE12CF12C9E012F5F3F4FB501C7
:103A7000A401C3010E94321B882339F1D501C4017E
:103A80000196A11DB11D49815A816B817C81452B15
:103A9000462B472BA9F5AC01BD014C195D096E09F8
:103AA0007F09088519852A853B85401751076207DC
:103AB000730741F50FEF1FEF2FEF3FE0B501A401B2
:103AC000C3010E941E1C811125C01D828D812F966D
:103AD0000FB6F894DEBF0FBECDBFDF91CF911F911F
:103AE0000F91FF90EF90DF90CF90BF90AF909F909D
:103AF0008F907F906F905F904F903F902F900895A0
:103B00006C017D011FEF211A310A410A510A4C0153
:103B10005D018CCFC814D904EA04FB0488F41401B5
:103B2000250121E0221A310841085108950184013C
:103B3000B201A101C3010E941E1C52014101C3CF69
:103B4000AE81BF814D915D916D917C914115510583
:103B50006105710561F4EE81FF81C082D182E2824C
:103B6000F382FD81F1110BC001E00D83AFCF97010E
:103B70008601C3010E941E1C8111EDCFA6CF1FEF4D
:103B8000C11AD10AE10AF10AD301CD92DD92ED9278
:103B9000FC9213979BCFAF92BF92CF92DF92EF929E
:103BA000FF920F931F93CF93DF9300D000D0CDB738
:103BB000DEB75C016A017B0182E090E0A0E0B0E04A
:103BC000F50180839183A283B3839E012F5F3F4FD2
:103BD000B701A601C5010E94321B882381F100E0D4
:103BE00010E09801B701A601C5010E941E1C8823A0
:103BF00031F1C980DA80EB80FC80F5018789803162
:103C0000C9F088EF9FEFAFEFBFE0C816D906EA060C
:103C1000FB06D8F281E00F900F900F900F90DF918C
:103C2000CF911F910F91FF90EF90DF90CF90BF90B9
:103C3000AF90089588EF9FEFA0E0B0E0E6CF80E07E
:103C4000EACF8F929F92AF92BF92CF92DF92EF9284
:103C5000FF920F931F93CF93DF93EC01142F709378
:103C6000A4026093A302442309F478C0453070F0A5
:103C700080E0DF91CF911F910F91FF90EF90DF9047
:103C8000CF90BF90AF909F908F90089540E060E0FC
:103C900070E0CB010E94D31A882351F3812F815009
:103CA000990BAC0164E0440F551F6A95E1F74B5541
:103CB0005D4FFA01E254FE4F80818F77C9F63C9642
:103CC00080819181A281B38184369105A105B105DE
:103CD00078F24A535E4FFA01C080D180E280F380CF
:103CE000C114D104E104F10419F240E0C701B601A6
:103CF0000E94D31A882309F4BBCF8091B00290911F
:103D0000B1028115924009F0B3CF9091B502992389
:103D100009F4AECF2091B3023091B402232B09F401
:103D2000A7CF8091B202882309F4A2CF9A8B8C830B
:103D30001D8690E041E050E02D85E22FBA01022E71
:103D400002C0660F771F0A94E2F78617970751F0B3
:103D500031E0320F3D87283078F38ACFC12CD12C47
:103D60007601C3CF2091BB023091BC0250E040E00D
:103D70002115310541F42091C9023091CA024091C8
:103D8000CB025091CC022D833E834F835887809184
:103D9000B3029091B40246015701880E991EA11CEE
:103DA000B11C8B8A9C8AAD8ABE8A0091B6021091A2
:103DB000B702198F088FA091B502B0E00E94532F6F
:103DC000DC01CB01880D991DAA1DBB1D8A8F9B8F1D
:103DD000AC8FBD8F25E0000F111F2A95E1F7015030
:103DE0001E4F012F11270695800F911FA11DB11D98
:103DF0008E879F87A88BB98B0091B8021091B9026A
:103E000030E020E00115110541F40091C502109148
:103E1000C6022091C7023091C802C81AD90AEA0A1C
:103E2000FB0AC00ED11EE21EF31E04C0F694E794F6
:103E3000D794C794EA95D2F7C986DA86EB86FC86D2
:103E40008CE025EFC2162FE0D206E104F10440F029
:103E500085EFC8168FEFD806E104F10420F480E165
:103E60008F8B81E006CF8091D1029091D202A091F8
:103E7000D302B091D4028A8F9B8FAC8FBD8F80E22A
:103E8000EFCF8091D9049091DA04891B990B0895A2
:103E90009091DA048091D9042FEF3FEF981748F4FE
:103EA000E92FF0E0E552FB4F208130E09F5F9093D7
:103EB000DA04C9010895E091DA048091D904E81781
:103EC00030F4F0E0E552FB4F808190E008958FEFF1
:103ED0009FEF08950895CF93DF93EC01E091B10433
:103EE000F091B2043097F1F09091DA048091D90406
:103EF0009817C0F090E0292F30E02617370754F4C8
:103F0000DE01A20FB31F4C9125523B4FD9014C93B8
:103F10009F5FF1CF1092DA046093D904CB01DF9157
:103F2000CF910994DF91CF910895E091B304F0917E
:103F3000B404309729F01092B7041092B604099493
:103F40000895CF93DF931F92CDB7DEB76983209199
:103F5000B5042223F9F02091B604203258F021E074
:103F600030E0FC013383228390E080E00F90DF910A
:103F7000CF9108958091B704E82FF0E0E854FB4F0B
:103F8000998190838F5F8093B7048093B60481E01A
:103F900090E0ECCF61E0CE0101960E947021F7CF56
:103FA000CF92DF92EF92FF920F931F93CF93DF9305
:103FB0007C01CB018A012091B504222389F0EB0119
:103FC0006B01C40ED51ECC15DD0569F06991D701D2
:103FD000ED91FC910190F081E02DC7010995F3CF9F
:103FE000642F0E947021C801DF91CF911F910F9122
:103FF000FF90EF90DF90CF9008951092DA04109226
:10400000D9041092B7041092B6040E94AF2085E93B
:104010009FE10E949C218BE69FE10C949721CB01AC
:10402000BA010C94CD2081E08093B5046093D8044C
:104030001092B7041092B60408950C9413200F93B5
:10404000062F21E04091B60468EB74E08091D8041B
:104050000E9420211092B7041092B6041092B50469
:104060000F9108954F925F926F927F92AF92BF929D
:10407000CF92EF92FF920F931F93CF93DF935C0148
:10408000F62ED42F28013901EE2019F10E941320B9
:10409000CE2DC43008F0C3E0C150B8F028E0C29F74
:1040A000C0011124A301920104C05695479537958C
:1040B00027958A95D2F7B901D501ED91FC91019030
:1040C000F081E02DC5010995E7CF60E0C5010E94B0
:1040D0001F204D2FD13208F040E22C2D6BED74E003
:1040E0008F2D0E94E0201092DA048093D904DF9192
:1040F000CF911F910F91FF90EF90CF90BF90AF9015
:104100007F906F905F904F900895CF92EF920F93B2
:104110001F93C22EE12C00E010E098010E94322093
:104120001F910F91EF90CF90089521E00C9485207E
:1041300021E00C94852061E00C941F20E5EAF4E076
:104140001382128288EE93E0A0E0B0E0848395832E
:10415000A683B78382E092E09183808308951092D2
:104160004A0581E0809348051092470561E081E1AE
:104170000E94F62C61E080E10E94F62CE9EBF0E071
:1041800080818E7F808380818D7F808388E480938F
:10419000B80085E48093BC0008959B01AC0160E009
:1041A00074E284EF90E00E94282F205131094109E8
:1041B000510956954795379527952093B80008954E
:1041C0004132E0F590914A059111FCCF91E0909336
:1041D0004A05209348052FEF2093FB047093420576
:1041E0006093410510924005240F20933F05909362
:1041F000490590914905880F892B80934905809145
:1042000047058130C9F41092470580914905809394
:10421000BB008091BC0083FDF8CF85EC8093BC008F
:1042200080914A058130E1F380914005841710F4B4
:1042300040914005842F089585EEF0CF40E0FACFFD
:104240000F93413208F044C090914A059111FCCF80
:1042500092E090934A05009348059FEF9093FB04EA
:1042600070934205609341051092400540933F05CD
:104270001092490590914905880F892B8093490533
:1042800080914705813011F51092470580914905CD
:104290008093BB008091BC0083FDF8CF85EC8093B8
:1042A000BC00222321F080914A058230D1F3809115
:1042B000FB048F3F79F08091FB04803269F080919C
:1042C000FB04803359F084E00F91089585EEE7CF29
:1042D00081E0FACF80E0F8CF82E0F6CF83E0F4CF40
:1042E00020911D05260F3327331F21323105ECF4B1
:1042F00020914A05FC0190E080E0243069F082E0E2
:104300000895A0911D052191AC01415E5A4FA40F63
:10431000B52FB11D2C930196861798F380911D053A
:10432000680F60931D0580E0089581E008959093E3
:104330004405809343050895909346058093450571
:10434000089585ED8093BC008091BC0084FDFCCF76
:1043500010924A05089585EC8093BC0010924A059E
:1043600008951F920F920FB60F9211240BB60F9261
:104370002F933F934F935F936F937F938F939F936D
:10438000AF93BF93EF93FF938091B900887F8036FE
:1043900009F44EC008F041C0883209F4AAC028F5DB
:1043A000803109F49EC0C8F4882309F407C188301D
:1043B00009F497C0FF91EF91BF91AF919F918F91B9
:1043C0007F916F915F914F913F912F910F900BBE15
:1043D0000F900FBE0F901F901895883109F489C077
:1043E000803241F78093FB0415C0803409F4A6C0E5
:1043F00048F48033B9F38833E9F68093FB040E94D4
:10440000AB21D8CF803509F489C0883509F49EC026
:10441000883481F60E94A121CDCF883909F494C057
:1044200038F5883729F050F4883611F0803711F6C6
:1044300083E080934A051092FC0457C0883809F441
:1044400083C0803919F0803809F0B4CF8091FC0422
:10445000803208F079C0E091FC0481E08E0F8093F7
:10446000FC048091BB00F0E0E350FB4F80833DC033
:10447000803B39F0E0F4803A09F485C0883A09F0CD
:1044800099CF84E080934A0510921E0510921D0575
:10449000E0914505F0914605099580911D05811132
:1044A0000FC081E080931D0510921F0509C0803C5C
:1044B00009F482C0883C09F47FC0883B09F07ACFB8
:1044C000E0911E0581E08E0F80931E05F0E0E15E15
:1044D000FA4F80818093BB0090911E0580911D054D
:1044E00031C0809149058093BB0085EC8093BC006E
:1044F00061CF9091400580913F059817B8F5809164
:10450000410590914205E091400521E02E0F209356
:104510004005E80FF92FF11D8081E5CF209141057D
:1045200030914205E091400581E08E0F8093400577
:104530008091BB00E20FF32FF11D80839091400525
:1045400080913F05981788F285E8D0CF20914105EA
:1045500030914205E091400581E08E0F8093400547
:104560008091BB00E20FF32FF11D808380914805FD
:10457000811150CF81E08093470584EA8093BC008D
:1045800010924A0517CF0E94AB218091FC04803223
:1045900030F4E091FC04F0E0E350FB4F10826091B6
:1045A000FC0470E0E0914305F09144058DEF94E048
:1045B00009951092FC04FECE85ECE0CF1092FB042E
:1045C00029CFFC01118210820895CF92DF92EF92E1
:1045D0000F931F93CF93DF9300D000D01F92CDB7DE
:1045E000DEB76B0121E029831A821B821C821D82A7
:1045F000E12C05E010E09E012F5F3F4F41E050E0CD
:10460000B901FC01808191810E946425C114D1040B
:1046100099F0CA94CD2889F16C817D81762767272E
:104620007627072E000C880B990B0E942F2E20E076
:1046300030E040E85BE332C029816A8170E090E0BD
:1046400080E0982F872F762F6627822B2B81622B75
:104650000E942D2E20E030E048EC55E40E94BB2D56
:104660000F900F900F900F900F90DF91CF911F91AF
:104670000F91EF90DF90CF90089529816A8170E0CB
:1046800090E080E0CB0177276627922B2B81722B5D
:104690000E942F2E20E030E040E857E30E94BB2E1E
:1046A000DFCFEF920F931F93CF93DF931F92CDB77E
:1046B000DEB76983E12C01E010E09E012F5F3F4FE0
:1046C00041E050E0B901FC01808191810E946425A4
:1046D00089810F90DF91CF911F910F91EF900895F5
:1046E00060E00E94512383FB882780F90895EF92B0
:1046F000FF920F931F93CF93DF9300D0CDB7DEB718
:1047000069834A83F12CE12C10E000E021E042E0D3
:1047100050E0BE016F5F7F4FFC01808191810E945C
:104720009B240F900F90DF91CF911F910F91FF90DD
:10473000EF900895EF92FF920F931F93CF93DF9323
:10474000EC017B0188819981009721F066E070E09F
:104750000E948F2B86E090E00E94872B8C01A7019E
:1047600060E60E945B241983088361E0C8010E940F
:104770008324182F811109C010E0812FDF91CF9180
:104780001F910F91FF90EF9008956CE0CE010E9471
:104790005123843C89F744E066E2CE010E947723EE
:1047A00066E2CE010E94512382FF07C06AE070E0FA
:1047B00080E090E00E940C2CF3CF81E090E09B839E
:1047C0008A8388EB8C8348EB66E2CE010E947723D4
:1047D00047E063E1CE010E947723CFCF0F931F9371
:1047E000CF93DF93EC01162F072F66E20E9451232F
:1047F00010FB87F98C83482F66E2CE010E94772355
:104800001A830B83DF91CF911F910F910895CF935E
:10481000DF93EC0166E2CE010E9451238C834C8130
:1048200041FF07C06AE070E080E090E00E940C2C3D
:10483000F1CF42604C8366E2CE01DF91CF910C94C0
:104840007723CF93DF93EC018A819B81892B29F019
:1048500070E060E0CE010E94EE23CE010E940724AA
:10486000CE010E947023811107C06AE070E080E0F1
:1048700090E00E940C2CF4CF70E060E0CE01DF915C
:10488000CF910C94E522CF93DF93EC010E94072493
:10489000CE010E947023811107C06AE070E080E0C1
:1048A00090E00E940C2CF4CF62E070E0CE01DF912A
:1048B000CF910C94E522FC016083528341831382E3
:1048C00080E290E0958384830895CF93DF93EC0199
:1048D0008B81882381F0688189819A810E941320CD
:1048E00089819A810E949B2091E0811190E0892F1B
:1048F000DF91CF91089561E0CE010E948324982F2B
:104900008111E9CFF4CF1F93CF93DF93EC01162FE2
:1049100089819A810E94FD1F81E08B83112331F0F0
:10492000CE01DF91CF911F910C94652481E0DF913E
:10493000CF911F9108958F929F92BF92CF92DF9255
:10494000EF92FF920F931F93CF93DF93DA01AE0D97
:10495000BF1DEC01EC81FD81EA17FB0710F490E02C
:1049600021C0B22E6A014B01688189819A810E941F
:104970001320E114F10419F589819A81DC01ED918C
:10498000FC910280F381E02DA601B4010995C816BF
:10499000D90629F76B2D89819A810E941F2091E009
:1049A0008111DDCF892FDF91CF911F910F91FF9062
:1049B000EF90DF90CF90BF909F908F90089501155A
:1049C0001105D1F289819A81DC01ED91FC9102807F
:1049D000F381E02DA701B80109958E159F0509F017
:1049E000BECFCACFCF92DF92EF92FF920F931F9369
:1049F000CF93DF937C016B018A01DC016C911196EE
:104A00008D919C910E9485208017110691F4E601FA
:104A10000C0D1D1DC017D107B1F0F70181819281E6
:104A2000DC01ED91FC910284F385E02D09958993D9
:104A3000F1CF80E0DF91CF911F910F91FF90EF9028
:104A4000DF90CF90089581E0F5CF9F92AF92BF9213
:104A5000CF92DF92EF92FF920F931F93CF93DF934A
:104A60006C015B017A01922ED0E0C0E0CE15DF052B
:104A7000F0F4F6018481958187010C1B1D0B8017D2
:104A8000910708F48C01C701801B910B20E0C81727
:104A9000D90708F0292DA801B5016C0F7D1FC601AB
:104AA0000E94F224882321F0C00FD11FDFCF81E0C4
:104AB000DF91CF911F910F91FF90EF90DF90CF90FA
:104AC000BF90AF909F900895AF92BF92CF92DF9228
:104AD000EF92FF920F931F93CF93DF93EC01690145
:104AE00058012E2DF12CE12C10E000E00E949B24B7
:104AF000882381F021E0A501B601CE01DF91CF919D
:104B00001F910F91FF90EF90DF90CF90BF90AF90EB
:104B10000C94252580E0DF91CF911F910F91FF909C
:104B2000EF90DF90CF90BF90AF900895CF93CFB725
:104B3000F89480914E05811127C0EAEDF1E084914F
:104B4000EAEBF1E09491E82FF0E0EE0FFF1FE65F53
:104B5000FD4FA591B491EC91E92321F461E084E04B
:104B60000E94F62C61E084E00E94BA2C8CB5806132
:104B70008CBD8CB580648CBD61E087E00E94BA2C4E
:104B800061E085E00E94BA2C80914E058F5F809392
:104B90004E05CFBFCF910895FC01918D228D892FB5
:104BA00090E0805C9F4F821B91098F739927089535
:104BB000FC01918D828D981731F0828DE80FF11DE7
:104BC000858D90E008958FEF9FEF0895FC01918D02
:104BD000828D981761F0A28DAE0FBF2FB11D5D962B
:104BE0008C91928D9F5F9F73928F90E008958FEFCD
:104BF0009FEF0895FC01538D448D252F30E0842FC5
:104C000090E0821B930B541710F0CF9608950197F4
:104C100008958BE697E2892B49F080E090E0892B9C
:104C200029F00E946B2781110E94000082E098E227
:104C3000892B49F080E090E0892B29F00E9402281E
:104C400081110C9400000895FC01A48DA80FB92FC8
:104C5000B11DA35ABF4F2C91848D90E001968F73A4
:104C60009927848FA689B7892C93A089B1898C91C3
:104C7000837080648C93938D848D981306C0028812
:104C8000F389E02D80818F7D80830895CF93DF931A
:104C9000EC01888D8823B9F0AA89BB89E889F98954
:104CA0008C9185FD03C0808186FD0DC00FB607FC89
:104CB000F7CF8C9185FFF2CF808185FFEDCFCE01BC
:104CC0000E942426E9CFDF91CF910895EF92FF92C1
:104CD0000F931F93CF93DF93EC0181E0888F9B8D1F
:104CE0008C8D98131AC0E889F989808185FF15C0D9
:104CF0009FB7F894EE89FF896083E889F9898081FC
:104D00008370806480839FBF81E090E0DF91CF91CA
:104D10001F910F91FF90EF900895F62E0B8D10E0EC
:104D20000F5F1F4F0F731127E02E8C8D8E110CC05B
:104D30000FB607FCFACFE889F989808185FFF5CFA6
:104D4000CE010E942426F1CFEB8DEC0FFD2FF11D3B
:104D5000E35AFF4FF0829FB7F8940B8FEA89FB89E3
:104D600080818062CFCFCF92DF92EF92FF921F932C
:104D7000CF93DF93EC016A017B01122FE889F98957
:104D800082E08083C11481EED806E104F104A1F031
:104D900060E079E08DE390E0A70196010E94282F62
:104DA0002150310941095109569547953795279565
:104DB000211580E1380798F0E889F989108260E8C8
:104DC00074E88EE190E0A70196010E94282F2150FF
:104DD0003109410951095695479537952795EC8535
:104DE000FD853083EE85FF852083188EEC89FD8953
:104DF0001083EA89FB89808188698083EA89FB893D
:104E000080818F7D8083DF91CF911F91FF90EF9004
:104E1000DF90CF9008951F920F920FB60F9211243A
:104E20000BB60F922F938F939F93EF93FF93E09185
:104E30005F05F09160058081E0916505F091660560
:104E400082FD1DC09081809168058F5F8F732091D6
:104E50006905821741F0E0916805F0E0E15BFA4FE7
:104E6000958F80936805FF91EF919F918F912F917E
:104E70000F900BBE0F900FBE0F901F901895808162
:104E8000F2CF1F920F920FB60F9211240BB60F9212
:104E90002F933F934F935F936F937F938F939F9342
:104EA000AF93BF93EF93FF938FE495E00E94242686
:104EB000FF91EF91BF91AF919F918F917F916F91F2
:104EC0005F914F913F912F910F900BBE0F900FBEAE
:104ED0000F901F9018958FE495E00E94CC2521E05B
:104EE000892B09F420E0822F0895EFE4F5E0138286
:104EF000128288EE93E0A0E0B0E084839583A683DD
:104F0000B78384E192E09183808385EC90E095877C
:104F1000848784EC90E09787868780EC90E0918B83
:104F2000808B81EC90E0938B828B82EC90E0958B70
:104F3000848B86EC90E0978B868B118E128E138E6D
:104F4000148E08951F920F920FB60F9211240BB674
:104F50000F922F938F939F93EF93FF93E091FC0514
:104F6000F091FD058081E0910206F091030682FD3B
:104F70001DC09081809105068F5F8F73209106067A
:104F8000821741F0E0910506F0E0E451FA4F958F69
:104F900080930506FF91EF919F918F912F910F9034
:104FA0000BBE0F900FBE0F901F9018958081F2CF0F
:104FB0001F920F920FB60F9211240BB60F922F93E0
:104FC0003F934F935F936F937F938F939F93AF9391
:104FD000BF93EF93FF938CEE95E00E942426FF9100
:104FE000EF91BF91AF919F918F917F916F915F9161
:104FF0004F913F912F910F900BBE0F900FBE0F90CE
:105000001F9018958CEE95E00E94CC2521E0892B0D
:1050100009F420E0822F0895ECEEF5E0138212826D
:1050200088EE93E0A0E0B0E084839583A683B78305
:1050300084E192E0918380838DEC90E09587848772
:105040008CEC90E09787868788EC90E0918B808B42
:1050500089EC90E0938B828B8AEC90E0958B848B2B
:105060008EEC90E0978B868B118E128E138E148EA1
:105070000895AF92BF92CF92DF92EF92FF920F937B
:105080001F93CF93DF936C017B018B01040F151FDE
:10509000EB015E01AE18BF08C017D10759F0699146
:1050A000D601ED91FC910190F081E02DC6010995AA
:1050B000892B79F7C501DF91CF911F910F91FF9057
:1050C000EF90DF90CF90BF90AF900895FB010190DB
:1050D0000020E9F73197AF01461B570BDC01ED913A
:1050E000FC910280F381E02D0994DB0114964D912F
:1050F0005C9115976D917C91DC01ED91FC910280A2
:10510000F381E02D09946115710511F00C94662866
:1051100090E080E0089562E272E00C9466280F93BC
:105120001F93CF93DF93EC010E9475288C01CE0171
:105130000E948B28800F911FDF91CF911F910F91BB
:1051400008950F931F93CF93DF938C01D0E0C0E0BD
:105150006115710519F00E946628EC01C8010E94D2
:105160008B288C0F9D1FDF91CF911F910F91089578
:105170008F929F92AF92BF92EF92FF920F931F93E5
:10518000CF93DF93CDB7DEB7A1970FB6F894DEBF0C
:105190000FBECDBF7C01FA01CB0119A2223008F469
:1051A0002AE08E010F5D1F4F822E912CB12CA12C75
:1051B000BF01A50194010E94282FF901CA016A309C
:1051C0000CF5605DD8016E938D01232B242B252BCC
:1051D00079F790E080E0109721F0BD01C7010E94AF
:1051E0006628A1960FB6F894DEBF0FBECDBFDF9143
:1051F000CF911F910F91FF90EF90BF90AF909F9034
:105200008F900895695CDECF2115310541F4DC01F2
:10521000ED91FC910190F081E02D642F09940C94A4
:10522000B8280F931F93CF93DF93EC010E940429BA
:105230008C01CE010E948B28800F911FDF91CF91AE
:105240001F910F910895FC0180819181009711F0C9
:105250000C9427300895CF93DF93EC0188819981D6
:10526000009711F00E942730198218821D821C823B
:105270001B821A82DF91CF9108950F931F93CF93D2
:10528000DF93EC018B016F5F7F4F888199810E94D2
:10529000B030009751F0998388831B830A8381E0A3
:1052A000DF91CF911F910F91089580E0F9CFCF93B7
:1052B000DF93EC0188819981892B49F08A819B8158
:1052C0008617970720F081E0DF91CF910895CE01F6
:1052D0000E943D298823C1F38C819D81892B99F7F8
:1052E000E881F9811082EFCFEF92FF920F931F9325
:1052F000CF93DF93EC017B018A01BA010E94572909
:1053000081110BC0CE010E942B29CE01DF91CF91DC
:105310001F910F91FF90EF9008951D830C83B701AB
:10532000888199810E94B231F0CFFC0111821082F4
:1053300013821282158214826115710551F0FB01EE
:1053400001900020E9F73197AF01461B570B0C94F1
:1053500074290895FB0101900020E9F73197AF010E
:10536000461B570B0C9474290F931F93CF93DF9315
:10537000CDB7DEB729970FB6F894DEBF0FBECDBF0D
:105380008C01862FF80111821082138212821582FD
:10539000148250E0BE016F5F7F4F90E00E940B329D
:1053A000BE016F5F7F4FC8010E94AA2929960FB6E0
:1053B000F894DEBF0FBECDBFDF91CF911F910F914B
:1053C00008950F931F93CF93DF93CDB7DEB7629706
:1053D0000FB6F894DEBF0FBECDBF8C01CB01F80134
:1053E00011821082138212821582148250E0BE0153
:1053F0006F5F7F4F0E94C831BE016F5F7F4FC80152
:105400000E94AA2962960FB6F894DEBF0FBECDBFE8
:10541000DF91CF911F910F9108950F931F93CF9319
:10542000DF93CDB7DEB761970FB6F894DEBF0FBE3E
:10543000CDBF8C01CB01F801118210821382128240
:105440001582148250E0BE016F5F7F4F0E940B32C5
:10545000BE016F5F7F4FC8010E94AA2961960FB6F7
:10546000F894DEBF0FBECDBFDF91CF911F910F919A
:1054700008950F931F93CF93DF93CDB7DEB7A19716
:105480000FB6F894DEBF0FBECDBF8C01CB01BA01C1
:10549000F80111821082138212821582148230E088
:1054A000AE014F5F5F4F0E94DE31BE016F5F7F4FE5
:1054B000C8010E94AA29A1960FB6F894DEBF0FBEBC
:1054C000CDBFDF91CF911F910F910895CF93DF93BF
:1054D000EC01FB018617970749F060817181611526
:1054E000710541F0448155810E947429CE01DF91FC
:1054F000CF9108950E942B29F9CFFC0111821082CF
:1055000013821282158214820C94662ACF93DF9341
:10551000EC016115710531F00E94AA29CE01DF91DD
:10552000CF9108950E942B29F9CFEF92FF920F930C
:105530001F93CF93DF93CDB7DEB7A1970FB6F89443
:10554000DEBF0FBECDBF7C01CB01BA01F7011182D6
:105550001082138212821582148242E0420F8E0161
:105560000F5F1F4F0E946D2FBC01C7010E94862A4A
:10557000A1960FB6F894DEBF0FBECDBFDF91CF91DD
:105580001F910F91FF90EF900895EF92FF920F936C
:105590001F93CF93DF93CDB7DEB7A1970FB6F894E3
:1055A000DEBF0FBECDBF7C01CB01BA01F701118276
:1055B0001082138212821582148242E0420F8E0101
:1055C0000F5F1F4F0E946D2FBC01C7010E94862AEA
:1055D000A1960FB6F894DEBF0FBECDBFDF91CF917D
:1055E0001F910F91FF90EF900895EF92FF920F930C
:1055F0001F93CF93DF936115710541F480E0DF9134
:10560000CF911F910F91FF90EF9008954115510593
:10561000B1F07B01EC010C811D81040F151FB80155
:105620000E945729882351F3288139818C819D81DB
:10563000B701820F931F0E94B2311D830C8381E05A
:10564000DECFFB0144815581608171810C94F52A84
:105650006115710551F0FB0101900020E9F73197C8
:10566000AF01461B570B0C94F52A80E00895CF93A9
:10567000DF9300D0CDB7DEB769831A8241E050E0F6
:10568000BE016F5F7F4F0E94F52A0F900F90DF9150
:10569000CF910895CF93DF93EC01FB0144815581B5
:1056A000608171810E94F52A811103C0CE010E94A0
:1056B0002B29CE01DF91CF910895CF93DF93EC0199
:1056C0006115710539F4CE010E942B29CE01DF91BD
:1056D000CF910895FB0101900020E9F73197AF01C8
:1056E000461B570B0E94F52A882369F3EFCF0895D4
:1056F0000E94502C0E94772B0E949002C9E0D6E2B3
:105700000E948C052097E1F30E940926F9CF0097AB
:1057100011F481E090E00C948B2F0C9427300C94C2
:105720008D2B1F920F920FB60F9211242F933F9340
:105730008F939F93AF93BF9380918E0690918F0626
:10574000A0919006B091910630918D0623E0230F31
:105750002D3768F126E8230F0296A11DB11D209375
:105760008D0680938E0690938F06A0939006B0933B
:1057700091068091890690918A06A0918B06B0913E
:105780008C060196A11DB11D8093890690938A060F
:10579000A0938B06B0938C06BF91AF919F918F9190
:1057A0003F912F910F900FBE0F901F90189501966B
:1057B000A11DB11DD4CF2FB7F89460918E067091C2
:1057C0008F0680919006909191062FBF08953FB764
:1057D000F8948091890690918A06A0918B06B091E9
:1057E0008C0626B5A89B05C02F3F19F00196A11D78
:1057F000B11D3FBFBA2FA92F982F8827BC01CD011B
:10580000620F711D811D911D42E0660F771F881F79
:10581000991F4A95D1F708958F929F92AF92BF92A8
:10582000CF92DF92EF92FF926B017C010E94E72BF7
:105830004B015C01C114D104E104F104E9F00E94C0
:105840004D2D0E94E72B681979098A099B09683E4A
:1058500073408105910570F321E0C21AD108E10877
:10586000F10888EE880E83E0981EA11CB11CC114BB
:10587000D104E104F10429F7FF90EF90DF90CF907D
:10588000BF90AF909F908F9008958230910538F02F
:10589000880F991F880F991F05970197F1F70895B1
:1058A000789484B5836084BD85B5836085BDEEE65C
:1058B000F0E0808181608083E1E8F0E082E0808335
:1058C000808181608083E0E8F0E080818160808376
:1058D000E1EBF0E0808184608083E0EBF0E08081A8
:1058E00081608083E1E9F0E0808183608083E0E98A
:1058F000F0E080818160808387E880937A00109255
:10590000C100089582508A3088F5E82FF0E0E5570D
:10591000F34D0C944A2FB32CB72C952C9B2CB62C02
:10592000B62C9F2CA52CA92CAF2C809180008F77B2
:10593000809380000895809180008F7DF9CF8091C1
:10594000B0008F778093B00008958091B0008F7D74
:10595000F9CF809190008F77809390000895809187
:1059600090008F7DF9CF84B58F7784BD089584B57D
:105970008F7DFBCFCF93DF9390E0FC01EA54FE4F85
:1059800024918A529E4FFC0184918823C9F090E0B3
:10599000880F991FFC01E65FFD4FA591B491FC01B2
:1059A000E050FE4FC591D49161110DC09FB7F8949E
:1059B0008C91209582238C938881282328839FBFF4
:1059C000DF91CF910895623051F49FB7F8943C91E4
:1059D000822F809583238C93E8812E2BEFCF8FB776
:1059E000F894EC912E2B2C938FBFEACF1F93CF937B
:1059F000DF93282F30E0F901EA56FE4F8491F90138
:105A0000EA54FE4FD491F901EA52FE4FC491CC23DF
:105A1000A9F0162F81110E94822CEC2FF0E0EE0FDE
:105A2000FF1FE050FE4FA591B4918FB7F894EC9111
:105A3000111108C0D095DE23DC938FBFDF91CF9189
:105A40001F910895DE2BF8CFCF93DF93282F30E0FE
:105A5000F901EA56FE4F8491F901EA54FE4FD491C0
:105A6000F901EA52FE4FC491CC23A1F081110E94AA
:105A7000822CEC2FF0E0EE0FFF1FEA50FE4FA591B5
:105A8000B491EC91ED2381E090E009F480E0DF91A6
:105A9000CF91089580E090E0FACF08955058BB2749
:105AA000AA270E94662D0C94812E0E94732E38F036
:105AB0000E947A2E20F039F49F3F19F426F40C94BA
:105AC000702E0EF4E095E7FB0C946A2EE92F0E94ED
:105AD000922E58F3BA17620773078407950720F0D0
