:020000040000FA
:100000000C9411010C943B010C943B010C943B01AA
:100010000C943B010C943B010C943B010C943B0170
:100020000C943B010C943B010C943B010C943B0160
:100030000C943B010C943B010C943B010C943B0150
:100040000C943B010C943B010C947F2B0C943B01D2
:100050000C94F9260C942F270C943B010C943B0133
:100060000C943B010C943B010C949F210C943B019C
:100070000C9490270C94C6270C943B010C943B01E4
:100080000C943B010C943B010C943B0100407A1012
:10009000F35A00A0724E18090010A5D4E80000E839
:1000A0007648170000E40B54020000CA9A3B000097
:1000B00000E1F505000080969800000040420F0026
:1000C0000000A08601000000102700000000E803E7
:1000D000000000006400000000000A0000000000B2
:1000E0000100000000002C76D888DC674F0823DF71
:1000F000C1DFAE59E1B1B796E5E3E453C63AE65144
:10010000997696E8E6C28426EB898C9B62ED407C6A
:100110006FFCEFBC9C9F40F2BAA56FA5F490055A06
:100120002AF75C936B6CF9676DC11BFCE0E40D472B
:10013000FEF520E6B500D0ED902E0300943577054E
:100140000080841E080000204E0A000000C80C3306
:100150003333330F986E12831141EF8D2114893B95
:10016000E65516CFFEE6DB18D1844B381BF77C1D15
:10017000901DA4BBE424203284725E228100C9F168
:1001800024ECA1E53D277C3C3E5E2B3D3F2F5B5D93
:100190003B2C2A225C000000000203000A0B000036
:1001A0000000050409080000000000000000000035
:1001B000000000000000010204081020408001023D
:1001C0000408102040800102040810204080010231
:1001D000040810204080020202020202020204040B
:1001E00004040404040403030303030303030101DD
:1001F0000101010101010000200023002600290067
:1002000000002200250028002B000000210024000F
:1002100027002A0080012A104E138C206327FA271A
:10022000900111241FBECFEFD0E4DEBFCDBF11E09F
:10023000A0E0B1E0EEE1F9E600E00BBF02C00790FC
:100240000D92A03FB107D9F726E0A0EFB1E001C0C1
:100250001D92AA35B207E1F711E0C0E1D1E004C078
:100260002197FE010E94382FCA30D107C9F70E949A
:10027000662B0C9482340C940000DC01ED91FC910F
:100280000190F081E02D0994982F92959F708F70C6
:100290002AE0929F800D11240895833051F150F48B
:1002A000813081F08230E9F064E670E080E090E037
:1002B0000C94FA2B853011F1F8F061E08630A1F74B
:1002C00084E10DC061E086E00E94A82C61E085E039
:1002D0000E94A82C85B18E6085B960E084E00C9402
:1002E000E42C61E084E00E94E42C85B1817F85B933
:1002F000089561E08AE1F3CF60E0FCCF60E0E0CFF9
:100300006AE171E08EE092E00E9483296FEE71E075
:1003100088E092E00E94832987EF91E00C94CF223D
:1003200088E092E00E9411298EE092E00C9411295D
:10033000CF93DF9361E570E089E694E00E940B20A3
:1003400070E060E089E694E00E943D0189E694E077
:100350000E94892046E050E061E570E089E694E083
:100360000E94862089E694E00E94361F0E94440184
:100370008093F00189E694E00E94361F8F770E94F7
:100380004401D82F89E694E00E94361F8F770E949F
:100390004401C82F89E694E00E94361F0E94440160
:1003A00090E0B0E0A0E08093F1019093F201A0937F
:1003B000F301B093F40189E694E00E94361F0E9495
:1003C000440124E6829FC0011124092E000CAA0BCF
:1003D000BB0B4091F1015091F2016091F3017091DA
:1003E000F401840F951FA61FB71F8093F10190930E
:1003F000F201A093F301B093F40189E694E00E9426
:10040000361F0E94440140E157E2849F9001859F7E
:10041000300D1124032E000C440B550B8091F1017B
:100420009091F201A091F301B091F401280F391FCE
:100430004A1F5B1FA0E1BEE00E94412FAB01BC013F
:100440002CE3C29FC0011124092E000CAA0BBB0B88
:100450008D0F911DA11DB11D840F951FA61FB71FE4
:100460008093F1019093F201A093F301B093F40112
:10047000DF91CF9108950F931F93CF93DF93C82FF0
:1004800065E570E089E694E00E940B200C2E000CDC
:10049000DD0BBE0189E694E00E943D0189E694E00F
:1004A0000E94892041E050E065E570E089E694E033
:1004B0000E94862089E694E00E94361F8C0165E543
:1004C00070E089E694E00E940B20BE016F5F7F4FD1
:1004D00089E694E00E943D0189E694E00E9489202B
:1004E00041E050E065E570E089E694E00E948620F6
:1004F00089E694E00E94361F20E0382FC901800F62
:10050000911FDF91CF911F910F910895CF92DF92AC
:10051000EF92FF920F931F93CF93DF93CDB7DEB788
:10052000C254D1090FB6F894DEBF0FBECDBF61E053
:1005300081E00E94A82C61E082E00E94A82C61E08A
:1005400083E00E94A82C61E08AE10E94A82C61E06F
:1005500084E10E94A82C61E084E00E94A82C61E064
:1005600085E00E94A82C61E086E00E94A82C61E052
:1005700087E00E94A82C61E080E00E94A82C82E025
:100580000E944D0184E00E944D0186E00E944D01D1
:1005900040EA56E861E070E089E694E00E94FD1FC1
:1005A00026E040E052EC61E070E083E195E00E94DB
:1005B000A12626E040E056E960E070E080EB95E09F
:1005C0000E94A12667E271E083E195E00E948F28F6
:1005D0008091060120E4829FC001112480618093F4
:1005E0007C0080917A00846080937A0080917A0008
:1005F000826080937A0080917A00816080937A0093
:1006000061E087E10E94A82C60E087E10E94E42C71
:1006100060E080E00E94E42C05E010E062E370E01E
:1006200080E090E00E94FA2B61E087E10E94E42CD8
:1006300062E370E080E090E00E94FA2B60E087E1E6
:100640000E94E42C0150110949F761E570E089E648
:1006500094E00E940B2063E289E694E00E948F1FE1
:1006600060E089E694E00E948F1F60E089E694E0F4
:100670000E948F1F65E089E694E00E948F1F60E072
:1006800089E694E00E948F1F60E089E694E00E9472
:100690008F1F67E989E694E00E948F1F60E089E67A
:1006A00094E00E948F1F60E089E694E00E948F1F13
:1006B00089E694E00E94892061E570E089E694E093
:1006C0000E940B206FE270E089E694E00E943D01F9
:1006D0006CE270E089E694E00E943D0189E694E0D6
:1006E0000E94892061E570E089E694E00E940B2079
:1006F00068E270E089E694E00E943D0167E970E0FD
:1007000089E694E00E943D0189E694E00E948920F8
:1007100061E570E089E694E00E940B2060E089E6E4
:1007200094E00E948F1F60E089E694E00E948F1F92
:1007300060E089E694E00E948F1F60E089E694E023
:100740000E948F1F60E089E694E00E948F1F60E0A6
:1007500089E694E00E948F1F60E089E694E00E94A1
:100760008F1F89E694E00E94892060E371E0CE014A
:1007700001960E9483296EE072E0CE0101960E94EC
:10078000382B69E371E00E944B2BBC01CE01CD9662
:100790000E946B2ACE0101960E94112981E10E94DC
:1007A000122D892B09F4ABC068E570E089E694E06E
:1007B0000E940B2068E070E089E694E00E943D0111
:1007C00070E060E089E694E00E943D0189E694E0F3
:1007D0000E94892040E168E589E694E00E94832038
:1007E00010E189E694E00E94361F082F803130F432
:1007F0006DE371E0CE01CD960E94162B40E1602F93
:10080000CE0101960E94A229BE016F5F7F4FCE01EB
:10081000CD960E940F2BCE0101960E941129809146
:10082000000290910102A0910202B0910302800F98
:10083000911DA11DB11D8093000290930102A09310
:100840000202B0930302115061F66FE371E083E19D
:1008500095E00E948F2881E00E944D0164E670E0DF
:1008600080E090E00E94FA2B64E084E192E00E9434
:10087000740E811108C068E471E083E195E00E9484
:100880008F281092070181E090E0909307028093F7
:1008900006026091060270910702683C7105B0F58E
:1008A0004AE0CE014C960E94FB29BE01645E7F4F58
:1008B000CE0101960E946B2A67E571E0CE01019698
:1008C0000E944B2BBC0188E092E00E94542ACE018A
:1008D00001960E941129CE014C960E941129609127
:1008E00008027091090284E192E00E941F1088239F
:1008F00069F080910602909107020196C6CF69E8DF
:1009000071E0CE01CD960E94162B9FCF609106021A
:10091000709107026150710970930702609306029B
:100920004AE0CE014C960E94FB29BE01645E7F4FD7
:10093000CE0101960E946B2A67E571E0CE01019617
:100940000E944B2BBC0188E092E00E94542ACE0109
:1009500001960E941129CE014C960E9411294091C6
:1009600008025091090223E164E172E0CE014C9645
:100970000E94940FCE014C960E94180D6B017C01D1
:100980006CE571E083E195E00E9471282AE030E097
:10099000B701A60183E195E00E94FF2889E6C81609
:1009A00080E2D80689E5E806F10408F45BC0CE01D0
:1009B0004C960E94560D60910602709107026F5F7F
:1009C0007F4F70930702609306024AE0CE01C796FC
:1009D0000E94FB29BE01695C7F4FCE0101960E94F7
:1009E0006B2A67E571E0CE0101960E944B2BBC019A
:1009F00088E092E00E94542ACE0101960E941129BB
:100A0000CE01C7960E941129409108025091090217
:100A100023E164E172E0CE0101960E94940F8B8184
:100A20009C819F8F8E8F8D819E81AF81B88588A399
:100A300099A3AAA3BBA389859A85AB85BC858CA302
:100A40009DA3AEA3BFA3DE011D96FE01B896CE0105
:100A5000C5962D912193E817F907D9F78A8D9B8DBB
:100A60009EAB8DAB67E671E083E195E00E94712853
:100A700068E072E083E195E00E947D28CE014C960B
:100A80000E94680D882369F1BE01635C7F4FCE012F
:100A90004C960E947D28CE014C960E94560DBE01B8
:100AA000635C7F4F83E195E00E947D2882E00E9495
:100AB0004D011092F6011092F501CE01CD960E94E3
:100AC0001129CE5BDF4F0FB6F894DEBF0FBECDBF4E
:100AD000DF91CF911F910F91FF90EF90DF90CF901A
:100AE000089562E771E083E195E00E948F281092FB
:100AF0000701D5CF2F923F924F925F926F927F92D4
:100B00008F929F92AF92BF92CF92DF92EF92FF921D
:100B10000F931F93CF93DF93CDB7DEB7CC50DC405C
:100B20000FB6F894DEBF0FBECDBF6FEE71E0CE0101
:100B30008F52984F0E94832981E10E94122D892BA8
:100B400009F4AFC10E9498016CE771E0CE018F52A9
:100B5000984F0E94162B60910402709105024AE0A2
:100B6000CE0101960E94FB29BE016F5F7F4FCE012F
:100B70008F52984F0E940F2BCE0101960E9411298F
:100B80006BE371E0CE018F52984F0E94162B40917B
:100B9000F1015091F2016091F3017091F4012AE0AA
:100BA000CE0101960E94272ABE016F5F7F4FCE01C2
:100BB0008F52984F0E940F2BCE0101960E9411294F
:100BC0006EE271E0CE018F52984F0E94162B4AE0E0
:100BD0006091F001CE0101960E94A229BE016F5FD3
:100BE0007F4FCE018F52984F0E940F2BCE0101965E
:100BF0000E9411296BE371E0CE018F52984F0E9441
:100C0000162B69E674E087EF91E00E94882365E87F
:100C100071E0882309F447C187EF91E00E940F2417
:100C2000AB01BC0122E0CE0101960E94832ABE01E5
:100C30006F5F7F4FCE018F52984F0E940F2BCE01D6
:100C400001960E9411296BE371E0CE018F52984FFB
:100C50000E94162B87EF91E00E943124AB01BC016A
:100C600022E0CE0101960E94832ABE016F5F7F4F72
:100C7000CE018F52984F0E940F2BCE0101960E94F9
:100C8000112988E00E943B028C018AE00E943B020D
:100C90007C016BE371E0CE018F52984F0E94162BBE
:100CA000B801110F880B990B0E941D2E20E030E037
:100CB0004AE754E40E94A92DAB01BC0122E0CE0119
:100CC00001960E94832ABE016F5F7F4FCE018F5233
:100CD000984F0E940F2BCE0101960E9411296BE3C1
:100CE00071E0CE018F52984F0E94162B4AE0B70157
:100CF000CE0101960E94CF29BE016F5F7F4FCE01CA
:100D00008F52984F0E940F2BCE0101960E941129FD
:100D10006BE371E0CE018F52984F0E94162B84E056
:100D20000E943B024AE0BC01CE0101960E94CF29FD
:100D3000BE016F5F7F4FCE018F52984F0E940F2BE5
:100D4000CE0101960E9411296BE371E0CE018F5212
:100D5000984F0E94162B86E00E943B024AE0BC019D
:100D6000CE0101960E94CF29BE016F5F7F4FCE0159
:100D70008F52984F0E940F2BCE0101960E9411298D
:100D80006BE371E0CE018F52984F0E94162B8CE0DE
:100D90000E943B02BC01990F880B990B0E941D2EEB
:100DA0002DEC3CEC4CEC5DE30E94A92E23E333E9EF
:100DB00048E853E40E943C2DAB01BC0122E0CE0187
:100DC00001960E94B32ABE016F5F7F4FCE018F5202
:100DD000984F0E940F2BCE0101960E9411296BE3C0
:100DE00071E0CE018F52984F0E94162B6091F50151
:100DF0007091F6014AE0CE0101960E94FB29BE01E6
:100E00006F5F7F4FCE018F52984F0E940F2BCE0104
:100E100001960E9411291092F6011092F501BE016F
:100E20006F52784F83E195E00E947D28CE018F526A
:100E3000984F0E94112983E00E944D0164E670E002
:100E400080E090E00E94FA2B6FEE71E0CE018F52AD
:100E5000984F0E9483298EE0ECE0F1E0DE011196CC
:100E600001900D928A95E1F78E010F5F1F4F7E0171
:100E70002FE0E20EF11CF80161918F0180EB95E00B
:100E80000E9454260E151F05B1F780EB95E00E94D5
:100E9000BA258C01892B69F080EB95E00E94D4255E
:100EA000F4CF6DE871E0CE018F52984F0E94162B5F
:100EB000E8CEB12CA12CC12CD12C7601912C80EB49
:100EC00095E00E94BA25892B09F47DC380EB95E05B
:100ED0000E94D425843219F4FFEFAF1ABF0A29E526
:100EE000A21622E0B2060CF460C36FEE71E0CE01F0
:100EF0008F52984F0E94742AC12CD12C7601B12CAC
:100F000080EB95E00E94BA25892B09F481C380EB20
:100F100095E00E94D425843209F064C30F5F1F4F0F
:100F2000053111050CF468C30E94980164E971E071
:100F3000CE018F52984F0E94162B4091F101509193
:100F4000F2016091F3017091F4012AE0CE01019663
:100F50000E94272ABE016F5F7F4FCE018F52984FAC
:100F60000E940F2BCE0101960E9411296EE271E0C2
:100F7000CE018F52984F0E94162B4AE06091F001EB
:100F8000CE0101960E94A229BE016F5F7F4FCE0164
:100F90008F52984F0E940F2BCE0101960E9411296B
:100FA00080910701882391F081E00E944D0164E067
:100FB00084E192E00E94740E811139C368E471E00B
:100FC00083E195E00E948F2810920701BE016F52C5
:100FD000784F83E195E00E947D28CE018F52984F93
:100FE0000E9411295CE8A52E5AE0B52E6FE9662E05
:100FF0007EE9772EF1E0F5B9809106018295880FA0
:10100000880F807C80937C0064B882E090E00E942E
:10101000332C74B888E090E00E94332C7E0127E4E2
:10102000E21A24EFF20AC701C2966701F601119293
:1010300011926F018E179F07C9F7212C312C2101C6
:10104000912C812C10E000E080917A0080648093E4
:101050007A00F3B1C45FD34FF883CC50DC4084E115
:1010600090E00E94332C64B882E090E00E94332C20
:1010700074B880917A0084FFFCCF809178008093CF
:10108000FF01809179008093FE0180917A00806158
:1010900080937A009091FE018091FF019093FD0171
:1010A0008093FC01C45FD34F2881CC50DC4020FFEB
:1010B000EFC23FEF831A930A3FEF231A330A430A22
:1010C000530A80EA281686E8380681E0480651046B
:1010D00009F0BACF6FEE71E0CE018A5F934F0E94A4
:1010E000832981E10E94122D892B09F400C30E94FB
:1010F00098016BE971E0CE018A5F934F0E94162B35
:1011000060910402709105024AE0CE018551944F2E
:101110000E94FB29BE016551744FCE018A5F934F37
:101120000E940F2BCE018551944F0E9411296BE331
:1011300071E0CE018A5F934F0E94162B4091F1011E
:101140005091F2016091F3017091F4012AE0CE0117
:101150008551944F0E94272ABE016551744FCE01DC
:101160008A5F934F0E940F2BCE018551944F0E94AE
:1011700011296EE271E0CE018A5F934F0E94162B17
:101180004AE06091F001CE018551944F0E94A2295E
:10119000BE016551744FCE018A5F934F0E940F2BA1
:1011A000CE018551944F0E9411296BE371E0CE016D
:1011B0008A5F934F0E94162B4AE0B401CE018551FD
:1011C000944F0E94FB29BE016551744FCE018A5F86
:1011D000934F0E940F2BCE018551944F0E941129ED
:1011E0006BE371E0CE018A5F934F0E94162B69E694
:1011F00074E087EF91E00E94882365E871E088231E
:1012000009F477C287EF91E00E940F24AB01BC0183
:1012100022E0CE018551944F0E94832ABE01655180
:10122000744FCE018A5F934F0E940F2BCE018551E0
:10123000944F0E9411296BE371E0CE018A5F934FB6
:101240000E94162B87EF91E00E943124AB01BC0174
:1012500022E0CE018551944F0E94832ABE01655140
:10126000744FCE018A5F934F0E940F2BCE018551A0
:10127000944F0E9411296BE371E0CE018A5F934F76
:101280000E94162B88E00E943B02BC01990F880B3C
:10129000990B0E941D2E20E030E04AE754E40E94A2
:1012A000A92DAB01BC0122E0CE018551944F0E94D3
:1012B000832ABE016551744FCE018A5F934F0E940D
:1012C0000F2BCE018551944F0E9411296BE371E0E1
:1012D000CE018A5F934F0E94162B8AE00E943B0248
:1012E0004AE0BC01CE018551944F0E94CF29BE0136
:1012F0006551744FCE018A5F934F0E940F2BCE0130
:101300008551944F0E9411296BE371E0CE018A5FF1
:10131000934F0E94162B84E00E943B024AE0BC01DE
:10132000CE018551944F0E94CF29BE016551744F63
:10133000CE018A5F934F0E940F2BCE018551944FAF
:101340000E9411296BE371E0CE018A5F934F0E94E6
:10135000162B86E00E943B024AE0BC01CE0185517B
:10136000944F0E94CF29BE016551744FCE018A5F10
:10137000934F0E940F2BCE018551944F0E9411294B
:101380006BE371E0CE018A5F934F0E94162B8CE0D5
:101390000E943B02BC01990F880B990B0E941D2EE5
:1013A0002DEC3CEC4CEC5DE30E94A92E23E333E9E9
:1013B00048E853E40E943C2DAB01BC0122E0CE0181
:1013C0008551944F0E94B32ABE016551744FCE01DE
:1013D0008A5F934F0E940F2BCE018551944F0E943C
:1013E00011296BE371E0CE018A5F934F0E94162BA7
:1013F000F701619171917F014AE0CE018551944FCF
:101400000E94FB29BE016551744FCE018A5F934F44
:101410000E940F2BCE018551944F0E941129EC148C
:10142000FD04F9F6809104029091050201969093D3
:10143000050280930402809107018823C9F181E0AD
:101440000E944D0164E084E192E00E94740E68E421
:1014500071E0882309F455C14091080250910902B6
:1014600023E164E172E0CE018551944F0E94940F14
:10147000CE018551944F0E94680D882309F43FC125
:1014800061E087E10E94E42CBE016A5F734FCE01E8
:101490008551944F0E947D28CE018551944F0E9422
:1014A000560D60E087E10E94E42C82E00E944D012D
:1014B000BE016A5F734F83E195E00E947D28CE01F3
:1014C0008A5F934F0E94112962EA71E0CE018A5F20
:1014D000934F0E9483294AE0B801CE018551944F71
:1014E0000E94FB29BE016551744FCE018A5F934F64
:1014F0000E940F2BCE018551944F0E941129053F68
:10150000F1E01F0710F004EF11E09E012F5F3F4F45
:101510004901CE018F52984F6C01F12CE12CE0165D
:10152000F10609F4F5C06BE371E0CE018A5F934FD9
:101530000E94162BF40141915191619171914F01DB
:101540002AE0CE018551944F0E94272ABE016551A1
:10155000744FCE018A5F934F0E940F2BCE018551AD
:10156000944F0E9411296BE371E0CE018A5F934F83
:101570000E94162BF601619171916F014AE0CE0134
:101580008551944F0E94FB29BE016551744FCE01D5
:101590008A5F934F0E940F2BCE018551944F0E947A
:1015A0001129FFEFEF1AFF0ABACF992019F08A32FA
:1015B00009F49BCC99249394813409F0912CC12C8B
:1015C000D12C76017CCC3FEFC31AD30AE30AF30A8D
:1015D00081E6C8168EEAD8068AE0E806F10408F427
:1015E0006ECC83CC053111050CF09ECCC12CD12CD6
:1015F0007601BB2009F484CC682FCE018F52984F1E
:101600000E94252BC12CD12C7601BB24B39478CC1D
:101610009FEFC91AD90AE90AF90AE1E6CE16EEEAFD
:10162000DE06EAE0EE06F10408F46ACCB9CC40919B
:1016300008025091090223E164E172E0CE010196B3
:101640000E94940FCE0101960E94680D8823B9F084
:1016500061E087E10E94E42CBE016F52784FCE0119
:1016600001960E947D2860E087E10E94E42CCE0173
:1016700001960E94560D82E00E944D01A7CC62E7C0
:1016800071E083E195E00E948F2810920701F3CF6B
:101690008931910558F4880F991FF701E80FF91F58
:1016A0008081918101969183808306CD043FE1E0A2
:1016B0001E07D0F4F801EE0FFF1FEE0FFF1F21E011
:1016C00030E02C0F3D1FE20FF31F20823182428257
:1016D0005382F801EE0FFF1F21ED37E02C0F3D1F65
:1016E000E20FF31F918380830F5F1F4FE5CC6DE8FE
:1016F00071E0CE018A5F934F0E94162BBCCD62E74A
:1017000071E083E195E00E948F2810920701CDCE11
:1017100080910701882389F181E00E944D0164E0F6
:1017200084E192E00E94740E68E471E0882309F479
:101730009EC0409108025091090223E164E172E0E9
:10174000CE018551944F0E94940FCE018551944F44
:101750000E94680D882309F488C0BE016A5F734F38
:10176000CE018551944F0E947D28CE018551944F22
:101770000E94560D82E00E944D0161E087E10E94C7
:10178000E42CBE016A5F734F83E195E00E947D28DF
:1017900060E087E10E94E42CCE018A5F934F0E94B3
:1017A00011298091040290910502893F9A42F0F13B
:1017B00010920502109204026091060270910702D5
:1017C0006F5F7F4F70930702609306024AE0CE017D
:1017D0008A5F934F0E94FB29BE016A5F734FCE015F
:1017E0008551944F0E946B2A67E571E0CE018551C7
:1017F000944F0E944B2BBC0188E092E00E94542A37
:10180000CE018551944F0E941129CE018A5F934FDA
:101810000E94112967E671E083E195E00E9471283A
:1018200068E072E083E195E00E947D2831E0A31A30
:10183000B10809F0DFCBC45FD34F0FB6F894DEBF19
:101840000FBECDBFDF91CF911F910F91FF90EF9011
:10185000DF90CF90BF90AF909F908F907F906F90D0
:101860005F904F903F902F90089562E771E083E181
:1018700095E00E948F28109207017CCF90E080E0D5
:101880000895CF93DF931F92CDB7DEB76983DC0154
:10189000ED91FC910280F381E02D41E050E0BE012A
:1018A0006F5F7F4F09950F90DF91CF910895CF9390
:1018B000DF93EC01E98DFA8D309749F481E090E0F7
:1018C0009B838A8390E080E0DF91CF91089513821B
:1018D0001282898D9A8D0E94D518E98DFA8D228108
:1018E0003381232B59F7F0CFFC01818D928D009726
:1018F00011F00C9464160895CF93DF931F92CDB727
:10190000DEB741E050E0BE016F5F7F4F0E94881458
:10191000019731F4898190E00F90DF91CF91089584
:101920008FEF9FEFF9CFFC01818D928D009711F021
:101930000C947C0C8FEF9FEF08950F931F93CF9320
:10194000DF93EC01898D9A8D10E000E0009799F00B
:101950000E947C0C8C010F3F100769F0898D9A8DD5
:10196000FC014285538564857585415051096109A3
:1019700071090E94D015C801DF91CF911F910F917D
:101980000895EF92FF920F931F93CF93DF93EC0193
:101990007B018A011B821A8288EE93E0A0E0B0E00E
:1019A0008C839D83AE83BF838DEA91E09983888386
:1019B0008DE190E00E94792F9A8F898F009779F0BE
:1019C0002DE1F701DC0101900D922A95E1F74CE041
:1019D00050E0B801CE010C960E94A731188EDF911D
:1019E000CF911F910F91FF90EF900895FC0113820A
:1019F000128288EE93E0A0E0B0E084839583A68312
:101A0000B7838DEA91E091838083128E118E1486C4
:101A10000895DC015996ED91FC91309729F062858B
:101A200073858485958508956FEF7FEFCB010895C9
:101A3000DC015996ED91FC91309729F06389748906
:101A400085899689089560E070E0CB010895CF9272
:101A5000DF92EF92FF92CF93DF93FC01218D328DC5
:101A6000232B09F1EC010E94180D6B017C01CE01C2
:101A70000E94090DA7019601261B370B480B590B35
:101A8000DA01C901811530E89307A105B10520F0FD
:101A90008FEF9FE7A0E0B0E0DF91CF91FF90EF9054
:101AA000DF90CF90089590E080E0F6CFCF93DF9362
:101AB000EC01898D9A8D009741F00E94AD16898DB9
:101AC0009A8D0E9415301A8E198EDF91CF9108954C
:101AD000DC015996ED91FC91309721F081E09581E0
:101AE000911101C080E008951F93CF93DF93CDB78C
:101AF000DEB76D970FB6F894DEBF0FBECDBFAB015A
:101B00001C821B8221EC31E03A8329831E8221E072
:101B1000BC01CE0101960E94E81711E081110CC0B2
:101B200010E0812F6D960FB6F894DEBF0FBECDBFCB
:101B3000DF91CF911F910895CE0101960E94AD16BD
:101B4000F0CFEF92FF920F931F93CF93DF937B0120
:101B5000DB012D913C91FC01E20FF31F60816F329C
:101B600011F42F5F3F4F8C01020F131FEA01F0E0C9
:101B7000E0E0D8017D918D017F3249F0772339F083
:101B80002F5F3F4F31967993EC30F10591F7E40FD9
:101B9000F51F1082FC01E20FF31F40814F3211F458
:101BA0002F5F3F4FF70131832083280F391F81E0DA
:101BB000D9019C91911101C080E0DF91CF911F91DB
:101BC0000F91FF90EF9008954F925F926F927F92E6
:101BD0008F929F92AF92BF92CF92DF92EF92FF923D
:101BE0000F931F93CF93DF93CDB7DEB7C954D109BD
:101BF0000FB6F894DEBF0FBECDBF5C016B013A019A
:101C0000490119A218A281EC91E09F8F8E8F1BA22F
:101C10001C821B829A8389831E822A961FAE1EAE67
:101C20002A978B017E018EE1E80EF11C4424439437
:101C3000AE01455C5F4FBE01685B7F4FC5010E94EE
:101C4000A10D582E482F44259401BE01655C7F4F9D
:101C5000C801F3010995811120C00C151D05C9F4B7
:101C600080E0C75BDF4F0FB6F894DEBF0FBECDBF7D
:101C7000DF91CF911F910F91FF90EF90DF90CF9068
:101C8000BF90AF909F908F907F906F905F904F909C
:101C90000895C8010E94AD16E3CF552091F021E0D0
:101CA000AE01455C5F4FB801C7010E94E817582E8E
:101CB0000C151D0571F0C8010E94AD1651100EC023
:101CC000CFCF0C151D0519F0C8010E94AD1681E09B
:101CD000C8CF882329F28E010F5F1F4F902F812FCD
:101CE0008701E92EF82EA4CF0F931F93CF93DF9394
:101CF000EC01162F8FA5882321F0CE018A960E9431
:101D0000AD16412F61E0CE010E944C11811102C03D
:101D100090E012C08E01045F1F4F41E0BE01C80178
:101D20000E940F1E882371F0B801CE018A960E948E
:101D3000381491E0882361F3892FDF91CF911F91AF
:101D40000F91089540E0BE01C8010E940F1E882334
:101D5000F9F2EACFFC01DB0112968D919C91139769
:101D60009383828381EC91E09183808314968C919C
:101D70001497848315968C911597858316964D91AB
:101D80005D916D917C911997468357836087718728
:101D90001A964D915D916D917C911D974287538765
:101DA000648775871E964D915D916D917C915197D9
:101DB00046875787608B718B52968C915297828B96
:101DC00053964D915D916D917C915697438B548BB9
:101DD000658B768B57964D915D916D917C915A975D
:101DE000478B508F618F728F5B968D919C91948FF2
:101DF000838F08954F925F926F927F928F929F92FE
:101E0000AF92BF92CF92DF92EF92FF920F931F9308
:101E1000CF93DF93CDB7DEB7C754D1090FB6F8948F
:101E2000DEBF0FBECDBF5C014A013901665D7F4F49
:101E30007E018EE1E80EF11CC7010E94AA0E1C82F1
:101E40001B8281EC91E09A8389831E828401FE01CA
:101E500031966F015E2C4F2C6FE270E0C8010E943A
:101E60009531009709F455C0F80120812F3219F4FB
:101E70000F5F1F4FF1CF801B8D3008F08CE0E82EF4
:101E8000F12CA701B801CE01CB960E94A731EBE35C
:101E9000F0E0EC0FFD1FEE0DFF1D1082C6010E9449
:101EA000AD1621E0AE01455C5F4F652D742DC60176
:101EB0000E94E817811121C0F5011382128281EC82
:101EC00091E0918380831582C501C95BDF4F0FB616
:101ED000F894DEBF0FBECDBFDF91CF911F910F9160
:101EE000FF90EF90DF90CF90BF90AF909F908F903A
:101EF0007F906F905F904F9008950E0D1F1D852D60
:101F0000942D0E94AD16C2015C2C4D2CC92ED82EEA
:101F1000A3CF08191909F30111830083652D742DCE
:101F2000C5010E94AA0ED0CFAF92BF92CF92DF928E
:101F3000FF920F931F93CF93DF93CDB7DEB7C955B1
:101F4000D1090FB6F894DEBF0FBECDBF6C015B01A7
:101F50008A01F22E9E01285A3F4FCE01CB960E9455
:101F6000FA0E6A968EAD9FAD6A97080F191FF80199
:101F70008081811110C0BE01655C7F4FCE0101964A
:101F80000E94AA0E4BEB51E0BE016F5F7F4FC6016E
:101F90000E94C10C0FC019A218A281EC91E09F8F82
:101FA0008E8F1BA221968FAD2197811115C0C6017E
:101FB0000E94F60CC601C75ADF4F0FB6F894DEBF79
:101FC0000FBECDBFDF91CF911F910F91FF90DF909A
:101FD000CF90BF90AF90089582508230F8F4B50151
:101FE000665D7F4F2F2DA801CE014E960E94E81707
:101FF0008823E9F28F2D867041F049A95AA96BA96F
:102000007CA9CE014E960E94D015BE01625E7F4F24
:10201000CE0101960E94AA0EA801B6CF2F2DA801CD
:10202000BE01655C7F4FCE014E960E94E817882363
:1020300009F4BDCFCE01CB960E94AD16DBCFFB01DC
:10204000BC01665D7F4F30E020E044E75DE0CF01FA
:102050000C94E40DE4E1F2E01582168211861386F9
:1020600082E090E0A0E0B0E084879587A687B787FC
:1020700013A215A614A681EC91E093A782A717A638
:1020800008959FB7F8942091110580910F05213094
:1020900019F48DBB9FBF08958FBF0895209111053E
:1020A000222381F03FB7F89420911105213069F483
:1020B0002DB320930F054DB32091100520952423B7
:1020C0002DBB3FBF8CBD9DBD089530930F05FACF4A
:1020D0008EBD00000DB407FEFDCF8EB508958FEFC5
:1020E0000C94681061E0FC0184810E94E42C8091D2
:1020F0005D02882339F010925D02809111058111F3
:102100000C9441100895CF93DF93EC0180915D0210
:10211000811109C081E080935D0280915E029091FF
:102120005F020E944E1060E08C81DF91CF910C9491
:10213000E42CCF93DF93EC018E81882389F08F818B
:1021400098859C012F5F3F4F38872F8382309240C4
:1021500018F40E946F10F3CFCE010E9472101E82FD
:10216000DF91CF910895673030F026E1FC0125839F
:1021700060E0862F0895623011F130F4662389F013
:102180006130B9F083E508C06430D9F081E564308E
:1021900018F082E56530B1F780935E0210925F021D
:1021A00006C080E580935E0281E080935F0261E07B
:1021B000E0CF80E580935E0210925F02DACF81E586
:1021C000F1CF82E5EFCF0F931F93CF93DF93EB0116
:1021D0000E94C92B8B010E946F108F3F69F00E94F3
:1021E000C92B601B710B6C177D07A8F380E0DF9192
:1021F000CF911F910F91089581E0F9CF8F929F9217
:10220000AF92BF92FF920F931F93CF93DF93EC0196
:10221000F62E49015A010E949910CE010E948310A6
:102220006CE271E0CE010E94E3108F2D80640E9469
:10223000681008E110E0D501C401002E04C0B69575
:10224000A795979587950A94D2F70E946810085031
:102250001109083F8FEF180771F785E9FF2021F07A
:1022600088E0F8120DC087E80E94681010E00E9414
:102270006F108A8787FF06C01F3F21F01F5FF7CFCF
:102280008FEFF2CFDF91CF911F910F91FF90BF9011
:10229000AF909F908F9008958F929F92AF92BF9230
:1022A000EF92FF920F931F93CF93DF93EC01E62EF3
:1022B0001B8619861E821D824C830E94C92B8B01AE
:1022C00061E08C810E94A82C61E08C810E94E42C4A
:1022D0000E94842582E580935E0210925F028091C5
:1022E0005E0290915F020E944E102AE0F22E8FEF64
:1022F0000E946810FA94F110FACF809111058111B3
:102300000E944110CE010E94831020E030E0A9011C
:1023100060E0CE010E94FE10F82E8A8781E0F81658
:10232000C1F00E94C92B601B710B613D774068F3BF
:1023300081E08D83CE010E94721080E0DF91CF9109
:102340001F910F91FF90EF90BF90AF909F908F9053
:1023500008952AEA31E040E050E068E0CE010E94B2
:10236000FE1082FF25C0FB868B85812C912C5401A9
:10237000823029F4812C912CA12C80E4B82E20E00D
:1023800030E0A90167E3CE010E94FE10A50194018F
:1023900069E2CE010E94FE108A878823C1F00E9464
:1023A000C92B601B710B613D774048F388E0C1CFBA
:1023B00094E0F92E0E946F108A87FA94F110FACFF8
:1023C0008A3A11F082E0B5CF82E08B87CDCF8B8542
:1023D0008230C1F420E030E0A9016AE3CE010E941E
:1023E000FE10882311F086E0A4CF0E946F10807C3D
:1023F000803C11F483E08B870E946F100E946F1065
:102400000E946F10CE010E9472106E2DCE01DF91DE
:10241000CF911F910F91FF90EF90BF90AF909F9041
:102420008F900C94B3100F931F93CF93DF93EC0115
:102430000E94C92B8B010E946F108A878F3F91F4F5
:102440000E94C92B601B710B6D327140A0F38FE0AD
:102450008D83CE010E94721080E0DF91CF911F9199
:102460000F9108958E3F11F08DE0F2CF81E0F5CF0E
:10247000CF92DF92EF92FF920F931F93CF93DF9350
:10248000EC016901C801820F931F8130924048F529
:102490008E81882371F088819981AA81BB818417FC
:1024A0009507A607B70729F48F819885C816D9061E
:1024B00070F5488359836A837B838B85833039F039
:1024C00089E0440F551F661F771F8A95D1F79A013F
:1024D000AB0161E1CE010E94FE10882379F083E018
:1024E0008D83CE010E94721080E0DF91CF911F9109
:1024F0000F91FF90EF90DF90CF900895CE010E9452
:102500001312882371F318861F8281E08E838F81D6
:1025100098858C159D0560F06701E00EF11EEC14A6
:10252000FD0471F00E946F10F60181936F01F7CFE7
:102530000E946F108F819885019698878F83E7CFCF
:102540008F819885080F191F18870F838985882325
:1025500019F00115124018F0CE010E94991081E087
:10256000C4CFEF92FF920F931F930115110539F01D
:102570000E9438121F910F91FF90EF90089581E013
:10258000F9CFEF92FF920F931F93790100E012E0D1
:1025900030E020E00E9438121F910F91FF90EF90E1
:1025A0000895EF92FF920F931F93CF93DF938C01C7
:1025B000862F7A010E946810E7018EEFF81A899140
:1025C0000E946810CE15DF05D1F78FEF0E946810CA
:1025D0008FEF0E9468100E946F10F80182878F7140
:1025E000853069F081E18583C8010E94721080E026
:1025F000DF91CF911F910F91FF90EF90089581E0AF
:10260000F7CF0F931F93CF93DF93EC01890182E102
:10261000411551056105710599F08B85833039F0BD
:1026200089E0440F551F661F771F8A95D1F79A01DD
:10263000AB0168E1CE010E94FE10882339F084E0EE
:102640008D83CE010E94721080E023C0A8016EEF3E
:10265000CE010E94D1128823A1F368E572E0CE0179
:102660000E94E310811102C085E1EACF20E030E052
:10267000A9016DE0CE010E94FE10882311F084E1D3
:10268000DFCF0E946F108111FACFCE010E9472102D
:1026900081E0DF91CF911F910F910895EEE5F2E077
:1026A00080E58083118208950895CF93DF93EC0134
:1026B0009C012A5F3F4F41E050E060E070E08B8D6D
:1026C0009C8D0E94AE1C8823A1F08F89988DA98DC6
:1026D000BA8D892B8A2B8B2B59F48E819F81A885EB
:1026E000B9858F8B988FA98FBA8F8C8180688C83E6
:1026F00081E0DF91CF9108958F929F92AF92BF9228
:10270000CF92DF92EF92FF92CF93DF93EC010E9482
:10271000551381110CC080E0DF91CF91FF90EF90B5
:10272000DF90CF90BF90AF909F908F900895EB8DEA
:10273000FC8DCE80DF80E884F98482E0C81AD1085D
:10274000E108F108858504C0CC0CDD1CEE1CFF1CE3
:102750008A95D2F786859785A089B189C80ED91E3A
:10276000EA1EFB1E848146015701880E911CA11CA4
:10277000B11C8C149D04AE04BF0461F081E0881A82
:102780009108A108B108C501B4010E94FC1A811189
:10279000F0CFC1CFEB8DFC8D258580E092E0A0E0ED
:1027A000B0E004C0880F991FAA1FBB1F2A95D2F75B
:1027B0004B895C896D897E89840F951FA61FB71F81
:1027C0008B8B9C8BAD8BBE8B81E0A6CFCF93DF93A1
:1027D000EC01462F6E857F85888999890E94C11AF0
:1027E000882351F08A8920E2829FC00111248759F1
:1027F0009D4FDF91CF91089590E080E0FACFFB01EB
:102800009B01255F3F4F40E241932E173F07E1F7C1
:10281000DC0120E037E09D91492F992319F19E3288
:1028200029F43A3059F028E03AE0F5CFE6E8F1E053
:102830008491882329F031969813FACF80E017C04D
:102840003217A8F05FED590F5E3588F48FE9890FD4
:102850008A3110F440EE490FFB01E20FF11D408375
:102860002F5FD9CF81E0FB019081903239F3089539
:102870000F931F93CF93DF93FC012581222331F027
:1028800080E0DF91CF911F910F9108958B01EC01B2
:10289000FB018789803139F582E08D831F8A188E8C
:1028A000198E1A8E808D918DB0E0A0E025E0880F02
:1028B000991FAA1FBB1F2A95D1F78B8B9C8BAD8BC1
:1028C000BE8B1C8F0B8F81E08C831E821F8218862B
:1028D00019861A861B861C861D861E861F86188AE8
:1028E000198A1A8ACECF803259F683E08D83428DC1
:1028F000538D648D758D4F8B588F698F7A8F9E01A4
:102900002D5E3F4FC8010E94A11B8111DACFB8CFC5
:102910002F923F924F925F926F927F928F929F92EF
:10292000AF92BF92CF92DF92EF92FF920F931F93DD
:10293000CF93DF93EC015B012A018D81811115C0DA
:102940008FEF9FEFDF91CF911F910F91FF90EF904D
:10295000DF90CF90BF90AF909F908F907F906F90BF
:102960005F904F903F902F9008958C8180FFE8CF2B
:102970000B891C892D893E894A855B856C857D85FF
:10298000C201B0E0A0E068017901C41AD50AE60AE4
:10299000F70AC816D906EA06FB0618F42801441AF5
:1029A000550A42011E0126E0220E311C81149104B9
:1029B00009F4B3C04A855B856C857D856A0181E039
:1029C000D8228B8D9C8D8A019B01E9E03695279555
:1029D00017950795EA95D1F7ED81E230E1F5FC0115
:1029E000628D738D848D958D600F711F821F931F73
:1029F000612C22E0722E6C187D088614970408F46E
:102A000034012C8126FD04C06114F2E07F0671F4CC
:102A1000009108011091090120910A0130910B01E8
:102A2000061717072807390709F053C040E00E942E
:102A3000C11A882309F484CFC60187599D4FD50157
:102A40009C01260D371DFC012E173F0709F460C0BD
:102A500041914D93F9CFFC0174807A947022C11496
:102A6000D10471F471100CC0452B462B472B39F55E
:102A70008F89988DA98DBA8D8E839F83A887B987FA
:102A8000EB8DFC8D6E817F818885998562507109FF
:102A900081099109258504C0660F771F881F991F3A
:102AA0002A95D2F70685178520893189600F711F15
:102AB000821F931F670D711D811D911D99CF4E813E
:102AC0005F816885798591010E94201B8111D8CF93
:102AD00037CF750183019601AB01BC01809167027C
:102AE000909168020E94B112882309F429CFA60CA4
:102AF000B71C8A859B85AC85BD85860D971DA11D5C
:102B0000B11D8A879B87AC87BD87861897084ECFF3
:102B1000281B390BA20EB31EECCFC20113CFFF92BC
:102B20000F931F93CF93DF931F92CDB7DEB7FC01B6
:102B300025812230C8F08C014285538564857585D6
:102B400085E076956795579547958A95D1F7F42F47
:102B5000FF70FF2E41E050E0BE016F5F7F4FC80164
:102B60000E948814019719F090E080E012C0F801EB
:102B700082859385A485B5854F96A11DB11D828759
:102B80009387A487B587F0E2FF9EC001112487597F
:102B90009D4F0F90DF91CF911F910F91FF9008955E
:102BA0008F929F92AF92BF92CF92DF92EF92FF925D
:102BB0000F931F93CF93DF93EC018D8181110EC092
:102BC00080E0DF91CF911F910F91FF90EF90DF9008
:102BD000CF90BF90AF909F908F9008950B891C89E4
:102BE0002D893E89041715072607370748F34A0140
:102BF0005B01823031F48A869B86AC86BD8681E09B
:102C0000E0CF81149104A104B10449F41E821F8213
:102C1000188619861A861B861C861D86F0CF0A85A3
:102C20001B852C853D85EB8DFC8D858590E0099677
:102C3000B901A8014150510961097109082E04C068
:102C400076956795579547950A94D2F77501640173
:102C5000E1E0CE1AD108E108F10804C0F694E79447
:102C6000D794C7948A95D2F7C416D506E606F70618
:102C700020F0012B022B032B11F58F89988DA98D44
:102C8000BA8D8E839F83A887B9878E010A5F1F4FF5
:102C9000C114D104E104F10409F4ADCF4E815F8188
:102CA0006885798598018B8D9C8D0E94201B91E011
:102CB000C91AD108E108F1088111EACF81CFC41AFD
:102CC000D50AE60AF70AE1CF0F931F93CF93DF935C
:102CD000EC018D818823D9F18C8187FF32C061E0BE
:102CE000CE010E94E6138C01892B89F18D818230FF
:102CF00048F48B899C89AD89BE89F801848F958FB2
:102D0000A68FB78F8F89988DF801938F828F8F89C7
:102D1000988DA98DBA8DB58BA48BE0916002F0914E
:102D20006102309759F0B8016A5E7F4FC80148963A
:102D30000995F801808D918D938B828B8C818F7793
:102D40008C83DF91CF911F910F910C94861A80E0B4
:102D5000DF91CF911F910F910895CF93DF93EC01F5
:102D60000E946416882311F01D8281E0DF91CF91CB
:102D700008954F925F926F927F928F929F92AF923F
:102D8000BF92EF92FF920F931F93CF93DF9300D0E8
:102D900000D0CDB7DEB7FC0185818130A1F080E0A5
:102DA0000F900F900F900F90DF91CF911F910F9187
:102DB000FF90EF90BF90AF909F908F907F906F901B
:102DC0005F904F900895848181FFE9CF8389948932
:102DD000A589B68984179507A607B70700F3892B3D
:102DE0008A2B8B2B09F477C04A015B017F01428457
:102DF000538464847584CF010E94D015882379F2AE
:102E0000F701838D948D81149104A104B10449F5D7
:102E10004789508D618D728D0E94B91D882309F4F8
:102E2000BECFF701178A108E118E128EF701838A9A
:102E3000948AA58AB68A848180688483C7010E94A7
:102E40006416882309F4ABCFB501A40144165506D6
:102E50006606770610F4B301A201C7010E94D015DF
:102E60009FCF46815781608571859E012F5F3F4FBF
:102E70000E94201B882309F492CFF701838D948D43
:102E800049815A816B817C81FC0127892031F1F4D1
:102E900008EF1FEF20E030E040175107620773078B
:102EA00028F60E94B91D882309F479CFF7014681DD
:102EB0005781608571850FEF1FEF2FEF3FE0838D06
:102EC000948D0E940C1C8111B1CF69CF08EF1FEFC8
:102ED0002FEF3FE0E1CF81E063CFCF92DF92EF921F
:102EE000FF921F93CF93DF93EC0180E2689FF00184
:102EF0001124E759FD4F9385917161F0842F8274FD
:102F000049F080E0DF91CF911F91FF90EF90DF902B
:102F1000CF900895142F6A8B809108019091090138
:102F2000A0910A01B0910B018E879F87A88BB98B66
:102F3000C488D588F12CE12C7601DD24CC24CF8AFD
:102F4000D88EE98EFA8E828D938DB0E0A0E0AC0130
:102F5000BD014C295D296E297F294F8B588F698FC0
:102F60007A8F8385887129F5848D958DA68DB78D8F
:102F70008B8B9C8BAD8BBE8B81E08D83812F8F7073
:102F80008C831E821F82188619861A861B861C86D1
:102F90001D8681E016FFB6CF40E050E0BA01CE01B9
:102FA000DF91CF911F91FF90EF90DF90CF900C9425
:102FB000B916803109F0A5CF9E012D5E3F4F8B8D54
:102FC0009C8D0E94A11B882309F49BCF84E0D5CF60
:102FD000BF92CF92DF92EF92FF920F931F93CF9306
:102FE000DF93CDB7DEB72B970FB6F894DEBF0FBED9
:102FF000CDBFFC01358131110BC0C22E8B017C018C
:10300000BE016F5F7F4FCA010E94FF13811102C092
:1030100080E0A1C0F801838D948DF701948F838F98
:10302000F80116821782108611861286138614867E
:103030001586B12CF80182859385A485B5854389D1
:1030400054896589768984179507A607B70788F597
:1030500025E0B695A795979587952A95D1F7F82FEE
:10306000FF70DF2EC8010E948F15009789F2FC01C6
:103070002081222341F0253E09F059C0BB2029F0D0
:10308000BB24B394D7CFB1100EC0F701D28A4091C0
:1030900008015091090160910A0170910B01468766
:1030A0005787608B718BFC0180818111E9CFBB2434
:1030B000B3948C2D8271823109F0AACFBB2009F420
:1030C0005AC061E0C7010E94E6138C01892B09F404
:1030D0009FCF80E2F80111928A95E9F78BE0FE011B
:1030E0003196D80101900D928A95E1F7E091600246
:1030F000F0916102309709F44EC0B801625F7F4FD2
:10310000C80140960995F80180899189938B828B3B
:10311000918F808F86859785978B868B0E94861AE4
:10312000882309F475CF4C2DF701628911C04BE05B
:1031300050E0BC01CE0101960E947F31892B09F03D
:1031400079CF8C2D80734C2D6D2D803309F460CF99
:10315000C7010E946D172B960FB6F894DEBF0FBE05
:10316000CDBFDF91CF911F910F91FF90EF90DF9036
:10317000CF90BF900895F8018581823009F448CF3F
:10318000C8010E947C13882309F442CFF701128AF8
:1031900009E612E09ECF81E298E2F801918B808BE4
:1031A00080E098E097878687AECF2F923F924F922C
:1031B0005F926F927F928F929F92AF92BF92CF92C7
:1031C000DF92EF92FF920F931F93CF93DF9300D084
:1031D00000D0CDB7DEB78C016B011A01DC0115966A
:1031E0008C911597813009F0C8C014968C9181FF9D
:1031F000C4C082FDAEC04101D8011A964D915D91C7
:103200006D917C911D978114910409F429C15B96FD
:103210008D919C915C97FC0174802FEF270D2A0102
:103220003B0139E076946794579447943A95D1F7E7
:10323000722E74207A01F1E0FF22711020C0E11497
:10324000F104E9F416964D915D916D917C91199779
:10325000411551056105710509F098C057968D918A
:103260009D910D90BC91A02D0097A105B10509F08D
:10327000AFC0C8010E945513882309F47EC080E0C6
:1032800092E08E199F0954018815990508F45C0194
:10329000D8015B964D915C915C9716968D919D91AE
:1032A0000D90BC91A02D0297A109B109FA012585C5
:1032B00004C0880F991FAA1FBB1F2A95D2F7468505
:1032C000578560897189840F951FA61FB71F9C01C0
:1032D000AD01270D311D411D511D29013A01A114D8
:1032E00032E0B30609F07AC080910801909109019B
:1032F000A0910A01B0910B0184159505A605B705AB
:1033000059F48FEF9FEFDC0180930801909309013E
:10331000A0930A01B0930B019601B301A201809121
:103320006702909168020E940113882331F19EEF99
:10333000D91A8A189B08F80182859385A485B585DA
:103340008A0D9B1DA11DB11D82879387A487B58718
:1033500053CFF8014389548965897689828593859D
:10336000A485B585481759076A077B0709F443CF39
:10337000C8010E94D01581113ECF81E090E0D801B4
:1033800013969C938E93129780E007C09E012F5F47
:103390003F4F0E94201B811102C090E07BC08981B9
:1033A0009A81AB81BC81F801238D348DF901278985
:1033B00048EF5FEF60E070E0203121F048EF5FEF11
:1033C0006FEF7FE084179507A607B70708F051CF86
:1033D000F80186839783A087B18751CFE114F10468
:1033E00091F5D8011A964D915D916D917C911D9743
:1033F00053968D919D910D90BC91A02D4817590722
:103400006A077B0700F10E94861A882309F4B5CF6A
:10341000409208015092090160920A0170920B01DA
:1034200080916602816080936602970127593D4F23
:10343000D601C9018A0D9B1DF9018E179F0759F00E
:103440004D914193FACF41E0C301B2010E94C11AEC
:103450008111EBCF92CF821B930BC80ED91E69CF7F
:1034600014968C9114975396CD90DD90ED90FC902E
:103470005697C416D506E606F70618F5F801438BED
:10348000548B658B768B80688483F801848183FDFF
:1034900025C0C1010F900F900F900F90DF91CF9139
:1034A0001F910F91FF90EF90DF90CF90BF90AF9062
:1034B0009F908F907F906F905F904F903F902F9054
:1034C00008952091600230916102232BF1F22114C2
:1034D0003104D9F2806814968C93D7CFC8010E942A
:1034E0006416882309F449CFD4CFCF93DF931F927A
:1034F000CDB7DEB7698341E050E0BE016F5F7F4F1B
:103500000E94D5180F90DF91CF91089580916602A7
:103510008823A9F1409108015091090160910A01A5
:1035200070910B0129E632E0809167029091680268
:103530000E940113811102C080E00895409162024F
:1035400050916302609164027091650241155105CA
:103550006105710591F029E632E080916702909152
:1035600068020E940113882339F3109262021092BC
:10357000630210926402109265021092660281E06A
:103580000895CF92DF92EF92FF92CF936B017C016F
:10359000C42F8091080190910901A0910A01B09176
:1035A0000B018C159D05AE05BF05F9F00E94861A2A
:1035B000811107C080E0CF91FF90EF90DF90CF9016
:1035C000089529E632E0B701A60180916702909143
:1035D00068020E94C112882369F3C0920801D09248
:1035E0000901E0920A01F0920B01409166024C2B16
:1035F0004093660281E0DFCFCF92DF92EF92FF929D
:103600006B017C010E94861A8823A9F0E9E6F2E0AA
:10361000119284E0E936F807D9F7C0920801D092F8
:103620000901E0920A01F0920B018091660281602B
:103630008093660281E0FF90EF90DF90CF90089535
:103640008F929F92AF92BF92CF92DF92EF92FF92B2
:103650000F931F93CF93DF93FC0181859285A38500
:10366000B4850196A11DB11D84179507A607B7075C
:1036700070F480E0DF91CF911F910F91FF90EF9058
:10368000DF90CF90BF90AF909F908F9008958388E8
:103690009488A588B6888789803189F5BB27A72FAC
:1036A000962F852FE9016A017B018F01BC01CD01B5
:1036B000680D791D8A1D9B1D80900801909009015D
:1036C000A0900A01B0900B0186169706A806B906CD
:1036D00001F5F8018789803111F5DD24EE24FF24FE
:1036E000F601EE0FFF1FE759FD4F80819181B0E099
:1036F000A0E088839983AA83BB8381E0BBCFDB01F1
:10370000CA01C7E0B695A79597958795CA95D1F751
:10371000C9CF40E00E94C11A8111DBCFAACFE89443
:10372000C7F8DD24EE24FF24F601EE0FFF1FEE0F95
:10373000FF1FE759FD4F80819181A281B381BF7046
:10374000D8CF4F925F926F927F92AF92BF92CF92FB
:10375000DF92EF92FF920F931F93CF93DF9300D0EE
:1037600000D0CDB7DEB78C0149835A836B837C834D
:103770005901C12CD12C7601412C82E0582E612CAC
:10378000712C49815A816B817C819E012F5F3F4F53
:10379000C8010E94201B882339F1F8018585A30107
:1037A000920104C0220F331F441F551F8A95D2F780
:1037B000DA01C901C80ED91EEA1EFB1E49815A81D1
:1037C0006B817C818789803111F188EF9FEFAFEFAA
:1037D000BFE0481759076A077B0798F2F501C082D6
:1037E000D182E282F38281E00F900F900F900F90D0
:1037F000DF91CF911F910F91FF90EF90DF90CF90CD
:10380000BF90AF907F906F905F904F90089588EF3A
:103810009FEFA0E0B0E0DDCF4F925F926F927F927A
:103820008F929F92AF92BF92CF92DF92EF92FF92D0
:103830000F931F93CF93DF93EC0142305105610545
:10384000710590F480E0DF91CF911F910F91FF906F
:10385000EF90DF90CF90BF90AF909F908F907F9030
:103860006F905F904F90089589859A85AB85BC8550
:103870000196A11DB11D84179507A607B70710F380
:10388000CB88DC88ED88FE888F89803109F042C0C2
:10389000BB27A72F962F852F480159012A013B01ED
:1038A000C80ED91EEA1EFB1E8091080190910901E5
:1038B000A0910A01B0910B01C816D906EA06FB06D1
:1038C00099F58F898031C1F5B301A201552766278B
:1038D0007727440F551F47595D4FFA019182808227
:1038E000809166028160809366028A89823080F0CE
:1038F0008D819E81AF81B8858C0D9D1DAE1DBF1D34
:103900008093620290936302A0936402B093650275
:1039100081E099CFDB01CA01E7E0B695A7959795BD
:103920008795EA95D1F7B8CF40E0C701B6010E946C
:10393000C11A8111C6CF86CFB301A2014F77552797
:1039400066277727440F551F440F551F47595D4F72
:10395000FA0180829182A282B382C2CF2F923F92DB
:103960004F925F926F927F928F929F92AF92BF928F
:10397000CF92DF92EF92FF920F931F93CF93DF933B
:10398000CDB7DEB72F970FB6F894DEBF0FBECDBF11
:103990003C01488759876A877B873F832E83D901FB
:1039A000CD90DD90ED90FC90C114D104E104F104C0
:1039B00039F0BFEFCB1ADB0AEB0AFB0A1D8210C0FD
:1039C000FC01C080D180E280F380F1E0FD830885B6
:1039D00019852A853B85013011052105310571F7CF
:1039E000F30181859285A385B4858C019D010F5FCC
:1039F0001F4F2F4F3F4F0C871D872E873F87460154
:103A00005701212C312C2101F30181859285A38559
:103A1000B485281639064A065B0608F044C00C85B2
:103A20001D852E853F85081519052A053B0550F48F
:103A300082E0882E912CA12CB12C92E0C92ED12CA1
:103A4000E12CF12C9E012F5F3F4FB501A401C30172
:103A50000E94201B882339F1D501C4010196A11DC4
:103A6000B11D49815A816B817C81452B462B472BA7
:103A7000A9F5AC01BD014C195D096E097F090885E6
:103A800019852A853B85401751076207730741F561
:103A90000FEF1FEF2FEF3FE0B501A401C3010E941C
:103AA0000C1C811125C01D828D812F960FB6F894B4
:103AB000DEBF0FBECDBFDF91CF911F910F91FF9061
:103AC000EF90DF90CF90BF90AF909F908F907F90BE
:103AD0006F905F904F903F902F9008956C017D0103
:103AE0001FEF211A310A410A510A4C015D018CCFA6
:103AF000C814D904EA04FB0488F41401250121E068
:103B0000221A31084108510895018401B201A1012E
:103B1000C3010E940C1C52014101C3CFAE81BF8181
:103B20004D915D916D917C91411551056105710536
:103B300061F4EE81FF81C082D182E282F382FD8155
:103B4000F1110BC001E00D83AFCF97018601C301D6
:103B50000E940C1C8111EDCFA6CF1FEFC11AD10A14
:103B6000E10AF10AD301CD92DD92ED92FC92139716
:103B70009BCFAF92BF92CF92DF92EF92FF920F93C3
:103B80001F93CF93DF9300D000D0CDB7DEB75C0199
:103B90006A017B0182E090E0A0E0B0E0F501808363
:103BA0009183A283B3839E012F5F3F4FB701A6018C
:103BB000C5010E94201B882381F100E010E09801DC
:103BC000B701A601C5010E940C1C882331F1C980F0
:103BD000DA80EB80FC80F50187898031C9F088EFBD
:103BE0009FEFAFEFBFE0C816D906EA06FB06D8F292
:103BF00081E00F900F900F900F90DF91CF911F9168
:103C00000F91FF90EF90DF90CF90BF90AF9008950D
:103C100088EF9FEFA0E0B0E0E6CF80E0EACF8F92A0
:103C20009F92AF92BF92CF92DF92EF92FF920F934B
:103C30001F93CF93DF93EC01142F7093680260936E
:103C40006702442309F478C0453070F080E0DF91CA
:103C5000CF911F910F91FF90EF90DF90CF90BF9089
:103C6000AF909F908F90089540E060E070E0CB01AE
:103C70000E94C11A882351F3812F8150990BAC0106
:103C800064E0440F551F6A95E1F747595D4FFA010B
:103C9000E254FE4F80818F77C9F63C9680819181F6
:103CA000A281B38184369105A105B10578F24A530A
:103CB0005E4FFA01C080D180E280F380C114D1044C
:103CC000E104F10419F240E0C701B6010E94C11AF3
:103CD000882309F4BBCF80917402909175028115FD
:103CE000924009F0B3CF90917902992309F4AECFB5
:103CF0002091770230917802232B09F4A7CF80918D
:103D00007602882309F4A2CF9A8B8C831D8690E0DB
:103D100041E050E02D85E22FBA01022E02C0660F6D
:103D2000771F0A94E2F78617970751F031E0320FB8
:103D30003D87283078F38ACFC12CD12C7601C3CFB0
:103D400020917F023091800250E040E02115310542
:103D500041F420918D0230918E0240918F0250915A
:103D600090022D833E834F835887809177029091F4
:103D7000780246015701880E991EA11CB11C8B8A3E
:103D80009C8AAD8ABE8A00917A0210917B02198FBB
:103D9000088FA0917902B0E00E94412FDC01CB0195
:103DA000880D991DAA1DBB1D8A8F9B8FAC8FBD8F5F
:103DB00025E0000F111F2A95E1F701501E4F012F3A
:103DC00011270695800F911FA11DB11D8E879F871A
:103DD000A88BB98B00917C0210917D0230E020E02D
:103DE0000115110541F40091890210918A02209178
:103DF0008B0230918C02C81AD90AEA0AFB0AC00E5B
:103E0000D11EE21EF31E04C0F694E794D794C79423
:103E1000EA95D2F7C986DA86EB86FC868CE025EF38
:103E2000C2162FE0D206E104F10440F085EFC81677
:103E30008FEFD806E104F10420F480E18F8B81E05C
:103E400006CF8091950290919602A0919702B09131
:103E500098028A8F9B8FAC8FBD8F80E2EFCF8091CD
:103E60009D0490919E04891B990B089590919E0446
:103E700080919D042FEF3FEF981748F4E92FF0E071
:103E8000E156FB4F208130E09F5F90939E04C90173
:103E90000895E0919E0480919D04E81730F4F0E0CD
:103EA000E156FB4F808190E008958FEF9FEF0895DA
:103EB0000895CF93DF93EC01E0917504F0917604BF
:103EC0003097F1F090919E0480919D049817C0F076
:103ED00090E0292F30E02617370754F4DE01A20FB7
:103EE000B31F4C9121563B4FD9014C939F5FF1CFAB
:103EF00010929E0460939D04CB01DF91CF910994B1
:103F0000DF91CF910895E0917704F0917804309794
:103F100029F010927B0410927A0409940895CF93AB
:103F2000DF931F92CDB7DEB76983209179042223F6
:103F3000F9F020917A04203258F021E030E0FC01C1
:103F40003383228390E080E00F90DF91CF9108953A
:103F500080917B04E82FF0E0E458FB4F9981908337
:103F60008F5F80937B0480937A0481E090E0ECCFB4
:103F700061E0CE0101960E945E21F7CFCF92DF92E1
:103F8000EF92FF920F931F93CF93DF937C01CB01AE
:103F90008A0120917904222389F0EB016B01C40E80
:103FA000D51ECC15DD0569F06991D701ED91FC9125
:103FB0000190F081E02DC7010995F3CF642F0E9495
:103FC0005E21C801DF91CF911F910F91FF90EF907B
:103FD000DF90CF90089510929E0410929D0410924D
:103FE0007B0410927A040E949D2083E89FE10E9446
:103FF0008A2189E59FE10C948521CB01BA010C94BB
:10400000BB2081E08093790460939C0410927B0430
:1040100010927A0408950C9401200F93062F21E04A
:1040200040917A046CE774E080919C040E940E2118
:1040300010927B0410927A04109279040F910895E3
:104040004F925F926F927F92AF92BF92CF92EF9218
:10405000FF920F931F93CF93DF935C01F62ED42F23
:1040600028013901EE2019F10E940120CE2DC43023
:1040700008F0C3E0C150B8F028E0C29FC00111248D
:10408000A301920104C056954795379527958A95C7
:10409000D2F7B901D501ED91FC910190F081E02DAD
:1040A000C5010995E7CF60E0C5010E940D204D2FA5
:1040B000D13208F040E22C2D6FE974E08F2D0E9480
:1040C000CE2010929E0480939D04DF91CF911F918A
:1040D0000F91FF90EF90CF90BF90AF907F906F9037
:1040E0005F904F900895CF92EF920F931F93C22E3F
:1040F000E12C00E010E098010E9420201F910F9118
:10410000EF90CF90089521E00C94732021E00C945F
:10411000732061E00C940D20E9E6F4E01382128232
:1041200088EE93E0A0E0B0E084839583A683B78314
:104130008DEC91E091838083089510920E0581E0CB
:1041400080930C0510920B0561E081E10E94E42C44
:1041500061E080E10E94E42CE9EBF0E080818E7F59
:10416000808380818D7F808388E48093B80085E49C
:104170008093BC0008959B01AC0160E074E284EF81
:1041800090E00E94162F205131094109510956959E
:104190004795379527952093B80008954132E0F56B
:1041A00090910E059111FCCF91E090930E05209314
:1041B0000C052FEF2093BF0470930605609305054F
:1041C00010920405240F2093030590930D05909100
:1041D0000D05880F892B80930D0580910B0581308B
:1041E000C9F410920B0580910D058093BB0080915E
:1041F000BC0083FDF8CF85EC8093BC0080910E0558
:104200008130E1F380910405841710F44091040596
:10421000842F089585EEF0CF40E0FACF0F9341321E
:1042200008F044C090910E059111FCCF92E090935C
:104230000E0500930C059FEF9093BF047093060545
:1042400060930505109204054093030510920D0537
:1042500090910D05880F892B80930D0580910B059A
:10426000813011F510920B0580910D058093BB00F4
:104270008091BC0083FDF8CF85EC8093BC002223A5
:1042800021F080910E058230D1F38091BF048F3FE1
:1042900079F08091BF04803269F08091BF0480334F
:1042A00059F084E00F91089585EEE7CF81E0FACFD1
:1042B00080E0F8CF82E0F6CF83E0F4CF2091E104F4
:1042C000260F3327331F21323105ECF420910E05E0
:1042D000FC0190E080E0243069F082E00895A09134
:1042E000E1042191AC014D515B4FA40FB52FB11DDD
:1042F0002C930196861798F38091E104680F6093E0
:10430000E10480E0089581E008959093080580938A
:104310000705089590930A0580930905089585ED92
:104320008093BC008091BC0084FDFCCF10920E05F0
:10433000089585EC8093BC0010920E0508951F929D
:104340000F920FB60F9211240BB60F922F933F933B
:104350004F935F936F937F938F939F93AF93BF938D
:10436000EF93FF938091B900887F803609F44EC0A7
:1043700008F041C0883209F4AAC028F5803109F458
:104380009EC0C8F4882309F407C1883009F497C097
:10439000FF91EF91BF91AF919F918F917F916F911D
:1043A0005F914F913F912F910F900BBE0F900FBED9
:1043B0000F901F901895883109F489C0803241F719
:1043C0008093BF0415C0803409F4A6C048F480333C
:1043D000B9F38833E9F68093BF040E949921D8CFBE
:1043E000803509F489C0883509F49EC0883481F687
:1043F0000E948F21CDCF883909F494C038F58837D1
:1044000029F050F4883611F0803711F683E080935C
:104410000E051092C00457C0883809F483C0803953
:1044200019F0803809F0B4CF8091C004803208F0D0
:1044300079C0E091C00481E08E0F8093C004809128
:10444000BB00F0E0EF53FB4F80833DC0803B39F071
:10445000E0F4803A09F485C0883A09F099CF84E005
:1044600080930E051092E2041092E104E091090598
:10447000F0910A0509958091E10481110FC081E056
:104480008093E1041092E30409C0803C09F482C0E7
:10449000883C09F47FC0883B09F07ACFE091E204C0
:1044A00081E08E0F8093E204F0E0ED51FB4F8081BC
:1044B0008093BB009091E2048091E10431C080912F
:1044C0000D058093BB0085EC8093BC0061CF90917B
:1044D0000405809103059817B8F580910505909122
:1044E0000605E091040521E02E0F20930405E80F56
:1044F000F92FF11D8081E5CF20910505309106054A
:10450000E091040581E08E0F809304058091BB004B
:10451000E20FF32FF11D8083909104058091030534
:10452000981788F285E8D0CF2091050530910605CF
:10453000E091040581E08E0F809304058091BB001B
:10454000E20FF32FF11D808380910C05811150CF74
:1045500081E080930B0584EA8093BC0010920E05E5
:1045600017CF0E9499218091C004803230F4E091ED
:10457000C004F0E0EF53FB4F10826091C00470E084
:10458000E0910705F091080581EC94E009951092FF
:10459000C004FECE85ECE0CF1092BF0429CFFC0111
:1045A000118210820895CF92DF92EF920F931F93A2
:1045B000CF93DF9300D000D01F92CDB7DEB76B0151
:1045C00021E029831A821B821C821D82E12C05E0D6
:1045D00010E09E012F5F3F4F41E050E0B901FC0128
:1045E000808191810E945225C114D10499F0CA940E
:1045F000CD2889F16C817D81762767277627072E64
:10460000000C880B990B0E941D2E20E030E040E842
:104610005BE332C029816A8170E090E080E0982FEE
:10462000872F762F6627822B2B81622B0E941B2ED1
:1046300020E030E048EC55E40E94A92D0F900F9047
:104640000F900F900F90DF91CF911F910F91EF90EE
:10465000DF90CF90089529816A8170E090E080E03A
:10466000CB0177276627922B2B81722B0E941D2E60
:1046700020E030E040E857E30E94A92EDFCFEF9220
:104680000F931F93CF93DF931F92CDB7DEB769834C
:10469000E12C01E010E09E012F5F3F4F41E050E030
:1046A000B901FC01808191810E94522589810F907E
:1046B000DF91CF911F910F91EF90089560E00E94DC
:1046C0003F2383FB882780F90895EF92FF920F9391
:1046D0001F93CF93DF9300D0CDB7DEB769834A83B2
:1046E000F12CE12C10E000E021E042E050E0BE01BE
:1046F0006F5F7F4FFC01808191810E9489240F9020
:104700000F90DF91CF911F910F91FF90EF9008953F
:10471000EF92FF920F931F93CF93DF93EC017B01F6
:1047200088819981009721F066E070E00E947D2BDE
:1047300086E090E00E94752B8C01A70160E60E9444
:1047400049241983088361E0C8010E947124182F4D
:10475000811109C010E0812FDF91CF911F910F913E
:10476000FF90EF9008956CE0CE010E943F23843CBF
:1047700089F744E066E2CE010E94652366E2CE013D
:104780000E943F2382FF07C06AE070E080E090E073
:104790000E94FA2BF3CF81E090E09B838A8388EB21
:1047A0008C8348EB66E2CE010E94652347E063E11B
:1047B000CE010E946523CFCF0F931F93CF93DF933A
:1047C000EC01162F072F66E20E943F2310FB87F9AA
:1047D0008C83482F66E2CE010E9465231A830B83E7
:1047E000DF91CF911F910F910895CF93DF93EC014B
:1047F00066E2CE010E943F238C834C8141FF07C0BB
:104800006AE070E080E090E00E94FA2BF1CF426015
:104810004C8366E2CE01DF91CF910C946523CF9358
:10482000DF93EC018A819B81892B29F070E060E0A5
:10483000CE010E94DC23CE010E94F523CE010E940E
:104840005E23811107C06AE070E080E090E00E9482
:10485000FA2BF4CF70E060E0CE01DF91CF910C94A1
:10486000D322CF93DF93EC010E94F523CE010E9467
:104870005E23811107C06AE070E080E090E00E9452
:10488000FA2BF4CF62E070E0CE01DF91CF910C946F
:10489000D322FC01608352834183138280E290E043
:1048A000958384830895CF93DF93EC018B818823D4
:1048B00081F0688189819A810E94012089819A8191
:1048C0000E94892091E0811190E0892FDF91CF91A2
:1048D000089561E0CE010E947124982F8111E9CFE3
:1048E000F4CF1F93CF93DF93EC01162F89819A8128
:1048F0000E94EB1F81E08B83112331F0CE01DF9109
:10490000CF911F910C94532481E0DF91CF911F919F
:1049100008958F929F92BF92CF92DF92EF92FF9273
:104920000F931F93CF93DF93DA01AE0DBF1DEC0100
:10493000EC81FD81EA17FB0710F490E021C0B22E54
:104940006A014B01688189819A810E940120E114EA
:10495000F10419F589819A81DC01ED91FC910280C5
:10496000F381E02DA601B4010995C816D90629F7EF
:104970006B2D89819A810E940D2091E08111DDCFFC
:10498000892FDF91CF911F910F91FF90EF90DF90D2
:10499000CF90BF909F908F90089501151105D1F28F
:1049A00089819A81DC01ED91FC910280F381E02DF7
:1049B000A701B80109958E159F0509F0BECFCACF92
:1049C000CF92DF92EF92FF920F931F93CF93DF93DB
:1049D0007C016B018A01DC016C9111968D919C9197
:1049E0000E9473208017110691F4E6010C0D1D1D25
:1049F000C017D107B1F0F70181819281DC01ED91FF
:104A0000FC910284F385E02D09958993F1CF80E034
:104A1000DF91CF911F910F91FF90EF90DF90CF909A
:104A2000089581E0F5CF9F92AF92BF92CF92DF922F
:104A3000EF92FF920F931F93CF93DF936C015B0173
:104A40007A01922ED0E0C0E0CE15DF05F0F4F60139
:104A50008481958187010C1B1D0B8017910708F439
:104A60008C01C701801B910B20E0C817D90708F003
:104A7000292DA801B5016C0F7D1FC6010E94E024FD
:104A8000882321F0C00FD11FDFCF81E0DF91CF91CC
:104A90001F910F91FF90EF90DF90CF90BF90AF905C
:104AA0009F900895AF92BF92CF92DF92EF92FF92C4
:104AB0000F931F93CF93DF93EC01690158012E2DC3
:104AC000F12CE12C10E000E00E948924882381F081
:104AD00021E0A501B601CE01DF91CF911F910F9189
:104AE000FF90EF90DF90CF90BF90AF900C94132584
:104AF00080E0DF91CF911F910F91FF90EF90DF90B9
:104B0000CF90BF90AF900895CF93CFB7F894809196
:104B10001205811127C0EAEDF1E08491EAEBF1E0A2
:104B20009491E82FF0E0EE0FFF1FE65FFD4FA59197
:104B3000B491EC91E92321F461E084E00E94E42C3B
:104B400061E084E00E94A82C8CB580618CBD8CB59E
:104B500080648CBD61E087E00E94A82C61E085E064
:104B60000E94A82C809112058F5F80931205CFBF01
:104B7000CF910895FC01918D228D892F90E0805C6A
:104B80009F4F821B91098F7399270895FC01918D86
:104B9000828D981731F0828DE80FF11D858D90E0A0
:104BA00008958FEF9FEF0895FC01918D828D9817E6
:104BB00061F0A28DAE0FBF2FB11D5D968C91928DCD
:104BC0009F5F9F73928F90E008958FEF9FEF0895FE
:104BD000FC01538D448D252F30E0842F90E0821B03
:104BE000930B541710F0CF9608950197089589E517
:104BF00097E2892B49F080E090E0892B29F00E9410
:104C0000592781110E94000080EF97E2892B49F01B
:104C100080E090E0892B29F00E94F02781110C940C
:104C200000000895FC01A48DA80FB92FB11DA35A4F
:104C3000BF4F2C91848D90E001968F739927848FBC
:104C4000A689B7892C93A089B1898C9183708064DF
:104C50008C93938D848D981306C00288F389E02D80
:104C600080818F7D80830895CF93DF93EC01888DC1
:104C70008823B9F0AA89BB89E889F9898C9185FDD7
:104C800003C0808186FD0DC00FB607FCF7CF8C9165
:104C900085FFF2CF808185FFEDCFCE010E941226E5
:104CA000E9CFDF91CF910895EF92FF920F931F9379
:104CB000CF93DF93EC0181E0888F9B8D8C8D9813CF
:104CC0001AC0E889F989808185FF15C09FB7F894DB
:104CD000EE89FF896083E889F98980818370806427
:104CE00080839FBF81E090E0DF91CF911F910F9172
:104CF000FF90EF900895F62E0B8D10E00F5F1F4F81
:104D00000F731127E02E8C8D8E110CC00FB607FC8F
:104D1000FACFE889F989808185FFF5CFCE010E941D
:104D20001226F1CFEB8DEC0FFD2FF11DE35AFF4F53
:104D3000F0829FB7F8940B8FEA89FB8980818062AB
:104D4000CFCFCF92DF92EF92FF921F93CF93DF935B
:104D5000EC016A017B01122FE889F98982E08083E6
:104D6000C11481EED806E104F104A1F060E079E01D
:104D70008DE390E0A70196010E94162F2150310982
:104D8000410951095695479537952795211580E199
:104D9000380798F0E889F989108260E874E88EE1B4
:104DA00090E0A70196010E94162F21503109410978
:104DB00051095695479537952795EC85FD853083A4
:104DC000EE85FF852083188EEC89FD891083EA89A2
:104DD000FB89808188698083EA89FB8980818F7D56
:104DE0008083DF91CF911F91FF90EF90DF90CF9064
:104DF00008951F920F920FB60F9211240BB60F92C7
:104E00002F938F939F93EF93FF93E0912305F0915E
:104E100024058081E0912905F0912A0582FD1DC0BD
:104E2000908180912C058F5F8F7320912D058217C3
:104E300041F0E0912C05F0E0ED5EFA4F958F809304
:104E40002C05FF91EF919F918F912F910F900BBEA9
:104E50000F900FBE0F901F9018958081F2CF1F9278
:104E60000F920FB60F9211240BB60F922F933F9310
:104E70004F935F936F937F938F939F93AF93BF9362
:104E8000EF93FF9383E195E00E941226FF91EF914B
:104E9000BF91AF919F918F917F916F915F914F9152
:104EA0003F912F910F900BBE0F900FBE0F901F9050
:104EB000189583E195E00E94BA2521E0892B09F439
:104EC00020E0822F0895E3E1F5E01382128288EE5C
:104ED00093E0A0E0B0E084839583A683B7838FED51
:104EE00091E09183808385EC90E09587848784ECC2
:104EF00090E09787868780EC90E0918B808B81ECA7
:104F000090E0938B828B82EC90E0958B848B86EC87
:104F100090E0978B868B118E128E138E148E0895CF
:104F20001F920F920FB60F9211240BB60F922F9370
:104F30008F939F93EF93FF93E091C005F091C1058C
:104F40008081E091C605F091C70582FD1DC090816A
:104F50008091C9058F5F8F732091CA05821741F038
:104F6000E091C905F0E0E055FA4F958F8093C905AF
:104F7000FF91EF919F918F912F910F900BBE0F900A
:104F80000FBE0F901F9018958081F2CF1F920F9245
:104F90000FB60F9211240BB60F922F933F934F939E
:104FA0005F936F937F938F939F93AF93BF93EF9391
:104FB000FF9380EB95E00E941226FF91EF91BF9145
:104FC000AF919F918F917F916F915F914F913F91A1
:104FD0002F910F900BBE0F900FBE0F901F90189542
:104FE00080EB95E00E94BA2521E0892B09F420E0AE
:104FF000822F0895E0EBF5E01382128288EE93E0B1
:10500000A0E0B0E084839583A683B7838FED91E021
:10501000918380838DEC90E0958784878CEC90E081
:105020009787868788EC90E0918B808B89EC90E065
:10503000938B828B8AEC90E0958B848B8EEC90E046
:10504000978B868B118E128E138E148E0895AF92CD
:10505000BF92CF92DF92EF92FF920F931F93CF9365
:10506000DF936C017B018B01040F151FEB015E01C7
:10507000AE18BF08C017D10759F06991D601ED915C
:10508000FC910190F081E02DC6010995892B79F7FB
:10509000C501DF91CF911F910F91FF90EF90DF90AD
:1050A000CF90BF90AF900895FB0101900020E9F7E9
:1050B0003197AF01461B570BDC01ED91FC9102804B
:1050C000F381E02D0994DB0114964D915C911597C5
:1050D0006D917C91DC01ED91FC910280F381E02DDA
:1050E00009946115710511F00C94542890E080E04A
:1050F00008956DEE71E00C9454280F931F93CF9395
:10510000DF93EC010E9463288C01CE010E94792874
:10511000800F911FDF91CF911F910F9108950F93F1
:105120001F93CF93DF938C01D0E0C0E06115710530
:1051300019F00E945428EC01C8010E9479288C0FB4
:105140009D1FDF91CF911F910F9108958F929F9294
:10515000AF92BF92EF92FF920F931F93CF93DF9383
:10516000CDB7DEB7A1970FB6F894DEBF0FBECDBFA7
:105170007C01FA01CB0119A2223008F42AE08E0149
:105180000F5D1F4F822E912CB12CA12CBF01A501C8
:1051900094010E94162FF901CA016A300CF5605D76
:1051A000D8016E938D01232B242B252B79F790E0CA
:1051B00080E0109721F0BD01C7010E945428A196FC
:1051C0000FB6F894DEBF0FBECDBFDF91CF911F9118
:1051D0000F91FF90EF90BF90AF909F908F900895A8
:1051E000695CDECF2115310541F4DC01ED91FC91C4
:1051F0000190F081E02D642F09940C94A6280F9360
:105200001F93CF93DF93EC010E94F2288C01CE0113
:105210000E947928800F911FDF91CF911F910F91EC
:105220000895FC0180819181009711F00C94153054
:105230000895CF93DF93EC0188819981009711F055
:105240000E941530198218821D821C821B821A82CC
:10525000DF91CF9108950F931F93CF93DF93EC01CC
:105260008B016F5F7F4F888199810E949E300097EC
:1052700051F0998388831B830A8381E0DF91CF916A
:105280001F910F91089580E0F9CFCF93DF93EC0148
:1052900088819981892B49F08A819B81861797079C
:1052A00020F081E0DF91CF910895CE010E942B295B
:1052B0008823C1F38C819D81892B99F7E881F9813D
:1052C0001082EFCFEF92FF920F931F93CF93DF9354
:1052D000EC017B018A01BA010E94452981110BC0B2
:1052E000CE010E941929CE01DF91CF911F910F911C
:1052F000FF90EF9008951D830C83B70188819981F9
:105300000E94A031F0CFFC01118210821382128220
:10531000158214826115710551F0FB010190002086
:10532000E9F73197AF01461B570B0C94622908959A
:10533000FB0101900020E9F73197AF01461B570BA5
:105340000C9462290F931F93CF93DF93CDB7DEB7F1
:1053500029970FB6F894DEBF0FBECDBF8C01862F04
:10536000F80111821082138212821582148250E099
:10537000BE016F5F7F4F90E00E94F931BE016F5F09
:105380007F4FC8010E94982929960FB6F894DEBF76
:105390000FBECDBFDF91CF911F910F9108950F9355
:1053A0001F93CF93DF93CDB7DEB762970FB6F89414
:1053B000DEBF0FBECDBF8C01CB01F8011182108280
:1053C000138212821582148250E0BE016F5F7F4FFC
:1053D0000E94B631BE016F5F7F4FC8010E949829BD
:1053E00062960FB6F894DEBF0FBECDBFDF91CF91AE
:1053F0001F910F9108950F931F93CF93DF93CDB714
:10540000DEB761970FB6F894DEBF0FBECDBF8C013B
:10541000CB01F8011182108213821282158214824C
:1054200050E0BE016F5F7F4F0E94F931BE016F5F98
:105430007F4FC8010E94982961960FB6F894DEBF8D
:105440000FBECDBFDF91CF911F910F9108950F93A4
:105450001F93CF93DF93CDB7DEB7A1970FB6F89424
:10546000DEBF0FBECDBF8C01CB01BA01F8011182A6
:105470001082138212821582148230E0AE014F5FD7
:105480005F4F0E94CC31BE016F5F7F4FC8010E9409
:105490009829A1960FB6F894DEBF0FBECDBFDF915D
:1054A000CF911F910F910895CF93DF93EC01FB01F2
:1054B0008617970749F0608171816115710541F088
:1054C000448155810E946229CE01DF91CF910895D8
:1054D0000E941929F9CFFC011182108213821282D5
:1054E000158214820C94542ACF93DF93EC0161153A
:1054F000710531F00E949829CE01DF91CF91089576
:105500000E941929F9CFEF92FF920F931F93CF9327
:10551000DF93CDB7DEB7A1970FB6F894DEBF0FBE0D
:10552000CDBF7C01CB01BA01F70111821082138239
:1055300012821582148242E0420F8E010F5F1F4FCC
:105540000E945B2FBC01C7010E94742AA1960FB66E
:10555000F894DEBF0FBECDBFDF91CF911F910F91A9
:10556000FF90EF900895EF92FF920F931F93CF93C8
:10557000DF93CDB7DEB7A1970FB6F894DEBF0FBEAD
:10558000CDBF7C01CB01BA01F701118210821382D9
:1055900012821582148242E0420F8E010F5F1F4F6C
:1055A0000E945B2FBC01C7010E94742AA1960FB60E
:1055B000F894DEBF0FBECDBFDF91CF911F910F9149
:1055C000FF90EF900895EF92FF920F931F93CF9368
:1055D000DF936115710541F480E0DF91CF911F9158
:1055E0000F91FF90EF90089541155105B1F07B01A7
:1055F000EC010C811D81040F151FB8010E94452983
:10560000882351F3288139818C819D81B701820FD4
:10561000931F0E94A0311D830C8381E0DECFFB012C
:1056200044815581608171810C94E32A6115710573
:1056300051F0FB0101900020E9F73197AF01461BC3
:10564000570B0C94E32A80E00895CF93DF9300D0AA
:10565000CDB7DEB769831A8241E050E0BE016F5FCB
:105660007F4F0E94E32A0F900F90DF91CF91089512
:10567000CF93DF93EC01FB014481558160817181FF
:105680000E94E32A811103C0CE010E941929CE0194
:10569000DF91CF910895CF93DF93EC0161157105F0
:1056A00039F4CE010E941929CE01DF91CF910895DE
:1056B000FB0101900020E9F73197AF01461B570B22
:1056C0000E94E32A882369F3EFCF08950E943E2CBD
:1056D0000E94652B0E948602C7EFD5E20E947A05E0
:1056E0002097E1F30E94F725F9CF009711F481E0AC
:1056F00090E00C94792F0C9415300C947B2B1F9216
:105700000F920FB60F9211242F933F938F939F9375
:10571000AF93BF938091520690915306A091540687
:10572000B09155063091510623E0230F2D3768F1D3
:1057300026E8230F0296A11DB11D209351068093E8
:10574000520690935306A0935406B0935506809149
:105750004D0690914E06A0914F06B09150060196CD
:10576000A11DB11D80934D0690934E06A0934F0648
:10577000B0935006BF91AF919F918F913F912F9120
:105780000F900FBE0F901F9018950196A11DB11D8F
:10579000D4CF2FB7F8946091520670915306809140
:1057A0005406909155062FBF08953FB7F894809105
:1057B0004D0690914E06A0914F06B091500626B529
:1057C000A89B05C02F3F19F00196A11DB11D3FBF39
:1057D000BA2FA92F982F8827BC01CD01620F711D08
:1057E000811D911D42E0660F771F881F991F4A9502
:1057F000D1F708958F929F92AF92BF92CF92DF928E
:10580000EF92FF926B017C010E94D52B4B015C0152
:10581000C114D104E104F104E9F00E943B2D0E947F
:10582000D52B681979098A099B09683E734081055F
:10583000910570F321E0C21AD108E108F10888EE61
:10584000880E83E0981EA11CB11CC114D104E10490
:10585000F10429F7FF90EF90DF90CF90BF90AF90C9
:105860009F908F9008958230910538F0880F991F8E
:10587000880F991F05970197F1F70895789484B5DB
:10588000836084BD85B5836085BDEEE6F0E08081F0
:1058900081608083E1E8F0E082E080838081816044
:1058A0008083E0E8F0E0808181608083E1EBF0E0DC
:1058B000808184608083E0EBF0E080818160808380
:1058C000E1E9F0E0808183608083E0E9F0E08081BD
:1058D0008160808387E880937A001092C1000895E8
:1058E00082508A3088F5E82FF0E0E758F34D0C94A9
:1058F000382FA12CA52C832C892CA42CA42C8D2CE6
:10590000932C972C9D2C809180008F778093800022
:105910000895809180008F7DF9CF8091B0008F77BE
:105920008093B00008958091B0008F7DF9CF809171
:1059300090008F77809390000895809190008F7DE4
:10594000F9CF84B58F7784BD089584B58F7DFBCF63
:10595000CF93DF9390E0FC01EA54FE4F24918A52EA
:105960009E4FFC0184918823C9F090E0880F991F15
:10597000FC01E65FFD4FA591B491FC01E050FE4FA4
:10598000C591D49161110DC09FB7F8948C91209569
:1059900082238C938881282328839FBFDF91CF9116
:1059A0000895623051F49FB7F8943C91822F80950E
:1059B00083238C93E8812E2BEFCF8FB7F894EC9153
:1059C0002E2B2C938FBFEACF1F93CF93DF93282FDB
:1059D00030E0F901EA56FE4F8491F901EA54FE4F96
:1059E000D491F901EA52FE4FC491CC23A9F0162FAD
:1059F00081110E94702CEC2FF0E0EE0FFF1FE050A1
:105A0000FE4FA591B4918FB7F894EC91111108C095
:105A1000D095DE23DC938FBFDF91CF911F91089546
:105A2000DE2BF8CFCF93DF93282F30E0F901EA5631
:105A3000FE4F8491F901EA54FE4FD491F901EA52E4
:105A4000FE4FC491CC23A1F081110E94702CEC2F49
:105A5000F0E0EE0FFF1FEA50FE4FA591B491EC91DC
:105A6000ED2381E090E009F480E0DF91CF9108958B
:105A700080E090E0FACF08955058BB27AA270E94F3
:105A8000542D0C946F2E0E94612E38F00E94682EC7
:105A900020F039F49F3F19F426F40C945E2E0EF496
:105AA000E095E7FB0C94582EE92F0E94802E58F3C6
:105AB000BA17620773078407950720F079F4A6F5F3
:105AC0000C94A22E0EF4E0950B2EBA2FA02D0B01F4
:105AD000B90190010C01CA01A0011124FF27591B33
